:020000040000FA
:100000000C9465020C948D020C948D020C94591181
:100010000C9459110C9459110C948D020C948D026E
:100020000C948D020C948D020C948D020C949D10F6
:100030000C948D020C948D020C948D020C948D0204
:100040000C94FB0F0C948D020C946B100C944510C7
:100050000C948D020C948D020C948D020C948D02E4
:100060000C94D1110C948D02E7B3BBE7BB9FE5B0B4
:10007000B1E7BBAA202D20E7AD89E5BE85E68C87D8
:10008000E4BBA42E2E2E00E5BC80E5A78BE887AA52
:10009000E58AA8E9A29CE889B2E698A0E5B0842E9A
:1000A0002E2E00E4B8A4E4B8AA474D3635E6A8A140
:1000B000E59D97E5B0B1E7BBAA005043413936381A
:1000C00035E5B0B1E7BBAA0050434139363835E5D4
:1000D000889DE5A78BE58C96E5A4B1E8B4A5210041
:1000E000E9A29CE889B2E4BCA0E6849FE599A8E572
:1000F000B0B1E7BBAA00E9A29CE889B2E4BCA0E6E3
:10010000849FE599A8E5889DE5A78BE58C96E5A4F5
:10011000B1E8B4A52100E6ADA3E59CA8E5889DE57E
:10012000A78BE58C9654434139353438412E2E2E19
:100130000037E3808138E3808139E58FB7E888B5FF
:10014000E69CBAE5889DE5A78BE58C96E5AE8CE646
:10015000889000E4BCA0E6849FE599A8E888B5E60D
:100160009CBAE5889DE5A78BE58C96E5AE8CE68884
:100170009000493243E680BBE7BABFE5889DE5A71A
:100180008BE58C96E5AE8CE6889000E99499E8AF13
:10019000AF3A20E69CAAE5AE8CE68890E9A29CE8FE
:1001A00089B2E698A0E5B0842100E5B08FE790839E
:1001B000E5B7B2E9878AE694BE2CE7AD89E5BE854E
:1001C00035E7A792E5908EE5A48DE4BD8D2E2E2E09
:1001D00000E58FB3E4BEA7E4BA8CE7BBB4E7A08127
:1001E000E695B0E68DAE3A2000E6938DE4BD9CE541
:1001F000AE8CE688902CE8BF94E59B9EE7A9BAE90F
:1002000097B2E78AB6E680810035E7A792E5B7B2F4
:10021000E588B02CE6ADA3E59CA8E5A48DE4BD8DF2
:10022000E888B5E69CBA2E2E2E00E6ADA3E59CA884
:10023000E694BEE4B88BE58FB3E4BEA7E888B5E6E4
:100240009CBA2E2E2E00E99499E8AFAF3A20E69C96
:10025000AAE5AE8CE68890E9A29CE889B2E698A06F
:10026000E5B0842100E5B08FE79083E5B7B2E98778
:100270008AE694BE2CE7AD89E5BE8535E7A792E511
:10028000908EE5A48DE4BD8D2E2E2E00E5B7A6E45C
:10029000BEA7E4BA8CE7BBB4E7A081E695B0E68DD3
:1002A000AE3A2000E6938DE4BD9CE5AE8CE68890E6
:1002B0002CE8BF94E59B9EE7A9BAE997B2E78AB616
:1002C000E680810035E7A792E5B7B2E588B02CE675
:1002D000ADA3E59CA8E5A48DE4BD8DE888B5E69CBA
:1002E000BA2E2E2E00E6ADA3E59CA8E694BEE4B897
:1002F0008BE5B7A6E4BEA7E888B5E69CBA2E2E2EFD
:1003000000E5B7B2E5909153544D3332E58F91E952
:100310008081E5AE8CE68890E4BFA1E58FB700E967
:10032000A29CE889B2E698A0E5B084E5AE8CE688A8
:10033000902100E5BC80E5A78BE887AAE58AA8E9BB
:10034000A29CE889B2E698A0E5B0842E2E2E00E6A5
:10035000A0A1E9AA8CE5928CE99499E8AFAFE68870
:1003600096E995BFE5BAA6E4B88DE6ADA3E7A1AEE0
:100370002100E8BF9BE585A5E58FB3E4BEA7E4BAFD
:100380008CE7BBB4E7A081E8AF86E588ABE6A8A11F
:10039000E5BC8F2E2E2E00E8BF9BE585A5E5B7A610
:1003A000E4BEA7E4BA8CE7BBB4E7A081E8AF86E57A
:1003B00088ABE6A8A1E5BC8F2E2E2E00E8BF9BE5FA
:1003C00085A5E9A29CE889B2E698A0E5B084E6A8F4
:1003D000A1E5BC8F2E2E2E002C2064617461746800
:1003E0007265653D002C206461746174776F3D0017
:1003F000E694B6E588B0E68C87E4BBA43A20646155
:1004000074616F6E653D00E5B8A7E99499E8AFAFF8
:100410003A20E5B8A7E5B0BEE4B88DE6ADA3E7A104
:10042000AE00E7B3BBE7BB9FE5A484E4BA8EE7A9BF
:10043000BAE997B2E78AB6E68081202D20E6898066
:10044000E69C89E888B5E69CBAE5B7B2E5A48DE4F8
:10045000BD8D00E4B8B2E58FA3E7BC93E586B2E5B5
:100460008CBAE5B7B2E6B885E7A9BA00000000008B
:10047000240027002A0000000008000201000003F9
:10048000040700000000000000000000000023003E
:100490002600290000000000250028002B0004048D
:1004A000040404040404020202020202030303031C
:1004B00003030102040810204080010204081020F8
:1004C0000102040810200B13681D11241FBECFEF7A
:1004D000D8E0DEBFCDBF14E0A0E0B1E0E0E4F5E499
:1004E00002C005900D92AC33B107D9F726E0ACE31A
:1004F000B4E001C01D92AF39B207E1F712E0C4E6E3
:10050000D2E004C02197FE010E948A20C336D107A1
:10051000C9F70E946B130C9493220C940000089569
:10052000089590E0FC01EA58FB4F2491FC01EE5441
:10053000FB4F3491FC01E256FB4FE491EE23C9F0EE
:10054000222339F0233001F1A8F4213019F12230AF
:1005500029F1F0E0EE0FFF1FEC56FB4FA591B4918F
:100560008FB7F894EC91611126C030953E233C93EF
:100570008FBF08952730A9F02830C9F0243049F7FB
:10058000809180008F7D03C0809180008F77809361
:100590008000DFCF84B58F7784BDDBCF84B58F7DBE
:1005A000FBCF8091B0008F778093B000D2CF809145
:1005B000B0008F7DF9CF3E2BDACFCF93DF9390E061
:1005C000FC01EE54FB4F249182569B4FFC01849119
:1005D0008823D1F090E0880F991FFC01E459FB4F6C
:1005E000A591B491FC01EC56FB4FC591D4916111DA
:1005F0000EC09FB7F8948C91E22FE0958E238C93D8
:100600002881E223E8839FBFDF91CF9108958FB7C0
:10061000F894EC91E22BEC938FBFF6CF0F931F93DE
:10062000CF93DF93EC01162F042F1B821A8288EEE2
:1006300093E0A0E0B0E08C839D83AE83BF8381E52F
:1006400091E0998388831F8A1E8A198E188E1B8ECB
:100650001A8E1D8E1C8E6E8D6E7F6D7F6E8F6695D1
:10066000617081E06827842F0E94910261E0802FF1
:100670000E94DD02802F90E0FC01EE54FB4FE491DC
:10068000E88BFC01E256FB4FE491F0E0EE0FFF1F18
:10069000EC56FB4F859194919A8B898B60E0812F6A
:1006A0000E94DD028E8D81FD04C061E0812F0E94D9
:1006B00091021C87812F90E0FC01EE54FB4FE491E6
:1006C000ED87FC01E256FB4FE491F0E0EE0FFF1FD7
:1006D000E657FB4F859194919F878E87DF91CF914D
:1006E0001F910F9108953FB7F8948091250590913F
:1006F0002605A0912705B091280526B5A89B05C021
:100700002F3F19F00196A11DB11D3FBFBA2FA92F90
:10071000982F8827BC01CD01620F711D811D911D8D
:1007200042E0660F771F881F991F4A95D1F70895F9
:100730008F929F92AF92BF92CF92DF92EF92FF92F1
:100740004B015C010E9473036B017C010E947303E7
:100750006C197D098E099F09683E734081059105DA
:10076000A8F321E0821A9108A108B10888EEC80E0A
:1007700083E0D81EE11CF11C81149104A104B10492
:1007800029F7FF90EF90DF90CF90BF90AF909F90B0
:100790008F9008952FB7F8946091210570912205EC
:1007A00080912305909124052FBF0895AF92BF92A9
:1007B000CF92DF92EF92FF920F931F93CF93DF932D
:1007C0006C017B018B01040F151FEB015E01AE185C
:1007D000BF08C017D10759F06991D601ED91FC917E
:1007E0000190F081E02DC6010995892B79F7C501AB
:1007F000DF91CF911F910F91FF90EF90DF90CF90FD
:10080000BF90AF900895FC01538D448D252F30E0AB
:10081000842F90E0821B930B541710F0CF9608950D
:1008200001970895FC01918D828D981761F0A28D3A
:10083000AE0FBF2FB11D5D968C91928D9F5F9F7300
:10084000928F90E008958FEF9FEF0895FC01918DB6
:10085000828D981731F0828DE80FF11D858D90E023
:1008600008958FEF9FEF0895FC01918D228D892FC0
:1008700090E0805C9F4F821B91098F7399270895A8
:100880008FE995E00E94340421E0892B09F420E0EF
:10089000822F089580E090E0892B29F00E94400487
:1008A00081110C9400000895FC01A48DA80FB92FAC
:1008B000B11DA35ABF4F2C91848D90E001968F7388
:1008C0009927848FA689B7892C93A089B1898C91A7
:1008D000837080648C93938D848D981306C00288F6
:1008E000F389E02D80818F7D80830895EF92FF92C0
:1008F0000F931F93CF93DF93EC0181E0888F9B8D43
:100900008C8D98131AC0E889F989808185FF15C0FC
:100910009FB7F894EE89FF896083E889F98980811F
:100920008370806480839FBF81E090E0DF91CF91EE
:100930001F910F91FF90EF900895F62E0B8D10E010
:100940000F5F1F4F0F731127E02E8C8D8E110CC07F
:100950000FB607FCFACFE889F989808185FFF5CFCA
:10096000CE010E945404F1CFEB8DEC0FFD2FF11D51
:10097000E35AFF4FF0829FB7F8940B8FEA89FB8907
:1009800080818062CFCF0F931F93CF93DF938C0131
:10099000D0E0C0E0F801EC0FFD1F6491662341F048
:1009A0008FE995E00E947604892B11F02196F2CF11
:1009B000CE01DF91CF911F910F910895CF93DF93D7
:1009C000EC01888D8823B9F0AA89BB89E889F98967
:1009D0008C9185FD03C0808186FD0DC00FB607FC9C
:1009E000F7CF8C9185FFF2CF808185FFEDCFCE01CF
:1009F0000E945404E9CFDF91CF910895CF92DF9206
:100A0000EF92FF92CF93DF93EC01603282E07807A0
:100A1000CCF5653B710514F064EB70E0898128E842
:100A200030E0281B310987FD3395220F331F220F39
:100A3000331F6901330FEE08FF088A8128E532E091
:100A4000281B310987FD3395220F331F220F331FD7
:100A5000032E000C440B550B2C193D094E095F0960
:100A6000DB0177FF02C0B0E0A0E00E94CC1E24EBC7
:100A700030E040E050E00E94A21EC20ED31EE41EF1
:100A8000F51EB601E881EC3070F5298188E890E028
:100A9000821B910927FD9395880F991F880F991F35
:100AA000681779077CF02A8188E592E0821B91091A
:100AB00027FD9395880F991F880F991F681779074D
:100AC0000CF4CB010297880F991F4FB7F8942E2F83
:100AD00030E0F901EE0FFF1FE20FF31FE953FB4F68
:100AE000928381834FBFDF91CF91FF90EF90DF9092
:100AF000CF9008951F93CF93DF93EC01162F888139
:100B00008C3008F04EC061E0812F0E94DD028881A8
:100B1000282F30E0F901EE0FFF1FE20FF31FE9531A
:100B2000FB4F1F736081607C612B608319821A8286
:100B30002CE0622F0E944F20829FB001112430E0F0
:100B400020E0AB01420F531FFA01EE0FFF1FE40F2D
:100B5000F51FE953FB4F908196FD16C02F5F3F4F65
:100B60002C30310571F781110FC01092800082E0A6
:100B7000809381001092850010928400B19A809138
:100B80006F00826080936F00E8818E2F90E0FC01FF
:100B9000EE0FFF1FE80FF91FE953FB4F80818064C0
:100BA00080838881DF91CF911F9108952091C304A4
:100BB0003091C4042817390771F49091C2048091D0
:100BC000C104981741F0E091C204F0E0EF57FB4FE9
:100BD000808190E008958FEF9FEF08950895EF9240
:100BE000FF920F931F93CF93DF93DC015C96ED9000
:100BF000FC905D97E114F10479F481E090E01396A4
:100C00009C938E93129790E080E0DF91CF911F919B
:100C10000F91FF90EF9008955196ED91FC915297AE
:100C200050968C915097982F90950FB75E962C9177
:100C30005E97122F127021FD6095F8942081112388
:100C400019F1282B2083E7012197F1F728E0462F9F
:100C500050E0308160FF1AC0382B3083E7012197C4
:100C6000F1F7BA0175956795215089F7112381F045
:100C70008081892380830FBF5C968D919C91019721
:100C8000F1F781E090E0C1CF2923DCCF3923E5CF14
:100C90009081892BEFCF2091C3043091C404281791
:100CA000390761F48091C1042091C20490E0805C16
:100CB0009F4F821B91098F739927089590E080E0E0
:100CC00008952091C3043091C40428173907B9F45A
:100CD0009091C2048091C104981789F0E091C204F8
:100CE000F0E0EF57FB4F80812091C20430E02F5F8E
:100CF0003F4F2F7333272093C20490E008958FEF66
:100D00009FEF0895E091C304F091C404E817F90738
:100D100069F4A389B4899C918589809589238C93F2
:100D20001092C4041092C30481E0089580E00895F5
:100D3000CF93DF93EC018A8D9B8D892B01F18091FC
:100D4000C3049091C4048C179D07C9F0009711F05B
:100D50000E9482068E8D8E7F8E8F1092C10410921B
:100D6000C204D093C404C093C304EB89FC8980817E
:100D70009D89892B808381E0DF91CF91089580E068
:100D8000FBCF20915E04260F3327331F213231051C
:100D9000ECF420917505FC0190E080E0243069F0CE
:100DA00082E00895A0915E042191AC01425C5B4F0A
:100DB000A40FB52FB11D2C930196861798F380913F
:100DC0005E04680F60935E0480E0089581E00895FA
:100DD0001092750581E08093740510924F0561E0D3
:100DE00082E10E94910261E083E10E949102E9EBBD
:100DF000F0E080818E7F808380818D7F808388E496
:100E00008093B80085E48093BC00089510922E056D
:100E100010922D0510927C0510929E050E94E80606
:100E20008FE892E090932C0580932B0580E992E067
:100E300090932A05809329050895CF93DF9391E03D
:100E400090933D048823B9F0C091B800D091BA00C6
:100E50008091BC008A7B8093BC0060E082E10E94AC
:100E6000910260E083E10E9491020E94E806D09323
:100E7000BA00C093B800DF91CF9108958F929F92EE
:100E8000AF92BF92CF92DF92EF92FF920F931F9398
:100E9000CF93DF93D0919E05D13208F0D7C0182FA1
:100EA000C0919D050E9473036B017C0180917505C3
:100EB00081116BC082E080937505109374058FEFEC
:100EC0008093730510927205D0937105ADE7B5E07C
:100ED000E1E5F5E080E0D81391C0109250058091D3
:100EE0005005CC0FC82BC093500580914F05813021
:100EF00009F088C010924F050E9473036B017C01BA
:100F0000809150058093BB00809177059091780582
:100F1000A0917905B0917A05892B8A2B8B2BA1F0B2
:100F20000E9473030091770510917805209179054F
:100F300030917A056C197D098E099F0906171707EC
:100F40002807390708F442C08091BC0083FDD8CF40
:100F500085EC8093BC000E9473036B017C0180913F
:100F60007505823009F450C0809173058F3F09F4F4
:100F70006FC080917305803209F46CC08091730555
:100F8000803309F469C084E026C080917705909190
:100F90007805A0917905B0917A05892B8A2B8B2B46
:100FA00009F484CF0E9473038090770590907805B0
:100FB000A0907905B0907A056C197D098E099F097A
:100FC00086169706A806B90608F070CF80917605B8
:100FD0000E941D0785E010927C0510929E051092DC
:100FE0007B05DF91CF911F910F91FF90EF90DF90E4
:100FF000CF90BF90AF909F908F9008959D919193C7
:101000008F5F69CF85EEA5CF8091770590917805A8
:10101000A0917905B0917A05892B8A2B8B2B09F445
:101020009ECF0E947303009177051091780520915F
:10103000790530917A056C197D098E099F0906178B
:1010400017072807390708F08ACFC0CF81E0C3CF40
:1010500080E0C1CF82E0BFCF83E0BDCF1F93CF93AD
:10106000DF93EA01122FDC0111968D919C91DC0136
:10107000ED91FC910280F381E02D0995C817D90705
:1010800029F4812F0E943E0791E0811190E0892F81
:10109000DF91CF911F910895CF93DF93EC018B8166
:1010A0008823A1F0888191E090937B0580939D0532
:1010B00010927C0510929E0581E00E943E0791E00F
:1010C000811190E0892FDF91CF9108950E9406074A
:1010D00081E08B83CE010E944C08982F8111E2CFD2
:1010E000F1CF8F929F92AF92BF92CF92DF92EF9209
:1010F000FF920F931F93CF93DF93D82FC62F142FF8
:10110000613208F09CC00E9473036B017C018091E6
:10111000750581116FC081E080937505109374058A
:101120009FEF90937305109272059C0F9093710539
:101130008093500580915005DD0FD82BD09350053A
:1011400080914F05813009F07CC010924F050E94BC
:1011500073036B017C01809150058093BB008091EB
:10116000770590917805A0917905B0917A05892B42
:101170008A2B8B2BA1F00E947303009177051091AD
:1011800078052091790530917A056C197D098E09D1
:101190009F09061717072807390708F44CC08091E4
:1011A000BC0083FDD8CF85EC8093BC000E94730304
:1011B0006B017C0180917505813009F444C08091F8
:1011C00072058C1710F4C0917205E1E5F5E0AFE20D
:1011D000B5E080E08C1359C08C2FDF91CF911F9127
:1011E0000F91FF90EF90DF90CF90BF90AF909F90C6
:1011F0008F9008958091770590917805A091790559
:10120000B0917A05892B8A2B8B2B09F480CF0E9411
:1012100073038090770590907805A0907905B09041
:101220007A056C197D098E099F0986169706A8060E
:10123000B90608F06CCF809176050E941D07C0E0CA
:10124000CBCF85EEB1CF8091770590917805A091B5
:101250007905B0917A05892B8A2B8B2B09F4AACFBB
:101260000E9473030091770510917805209179050C
:1012700030917A056C197D098E099F0906171707A9
:101280002807390708F096CFD6CF91919D938F5FAD
:10129000A1CFE0912E0580912D05E81730F4F0E004
:1012A000E15DFA4F808190E008958FEF9FEF089500
:1012B00090912E0580912D052FEF3FEF981748F460
:1012C000E92FF0E0E15DFA4F208130E09F5F9093DD
:1012D0002E05C901089580912D0590912E05891B39
:1012E000990B0895CF92DF92EF92FF920F931F9385
:1012F000CF93DF937C01CB018A0120917B052223D0
:1013000089F0EB016B01C40ED51ECC15DD0569F02B
:101310006991D701ED91FC910190F081E02DC70119
:101320000995F3CF642F0E94C106C801DF91CF91C8
:101330001F910F91FF90EF90DF90CF900895CF9382
:10134000DF931F92CDB7DEB7698320917B052223FF
:10135000F9F020919E05203258F021E030E0FC01A8
:101360003383228390E080E00F90DF91CF91089546
:1013700080917C05E82FF0E0E358FA4F9981908343
:101380008F5F80937C0580939E0581E090E0ECCF99
:1013900061E0CE0101960E94C106F7CF682F85E477
:1013A00096E00C949F0990E080E00895CF93DF933E
:1013B00000D0CDB7DEB789836A83809154069091BF
:1013C0005506FC01248135812230310590F02081C1
:1013D00031E030937B0520939D0510927C0510929F
:1013E0009E0521E042E050E0BE016F5F7F4F0E940A
:1013F0002E080F900F90DF91CF91089541E0682F54
:1014000088E40E94710810922E0580932D0508959E
:101410008F929F92AF92BF92CF92DF92EF92FF9204
:101420000F931F93CF93DF931F92CDB7DEB76B015E
:101430007C0120E030E040E85FE30E947E1D87FDF4
:1014400097C020E030EC4AE555E4C701B6010E94A0
:101450004A2018160CF493C06091560670915706F6
:1014600080915806909159060E94831D4B015C01A2
:1014700020E030E040E855E4C701B6010E94E41DD9
:101480009B01AC01C501B4010E94A91F20E030E01E
:1014900040E05FE30E943D1F20E030E040E85FE372
:1014A0000E943C1F6B017C0120E030E040E450E4EE
:1014B0000E947E1D87FD6BC020E030E04FE753E4C3
:1014C000C701B6010E944A2018160CF466C0C70175
:1014D000B6010E941B20B62E19820091540610916D
:1014E0005506D80114968D919C911597892B09F476
:1014F0005EC08C9191E090937B0580939D05109246
:101500007C0510929E0520E041E050E0BE016F5F37
:101510007F4FC8010E942E08882309F448C0F801B3
:10152000E480F58061E0E114F10409F460E0C62E86
:10153000D12C462FD8018C910E94710810922E0553
:1015400080932D058C151D0491F590E080E08C159D
:101550009D0550F5F80181819281DC01ED91FC91AE
:101560000284F385E02D0995898381E090E0EFCF37
:10157000C12CD12C30E8E32E3FE3F32E6DCFC12CEC
:1015800020ECD22E2AE5E22E25E4F22E65CFC12CE6
:10159000D12C90E4E92EFE2C9ACFC12CD12C8FE7D0
:1015A000E82E83E4F82E93CFEF2809F4B8CF198101
:1015B000612F6F76606180E00E94D6096B2D8EEFFF
:1015C0000E94D609612F80E00E94D60965E070E094
:1015D00080E090E00E949803612F606A80E00E94A2
:1015E000D6090F90DF91CF911F910F91FF90EF904F
:1015F000DF90CF90BF90AF909F908F900895FC01A7
:1016000001900020E9F73197AF01481B590BBC014D
:101610008FE995E00C94D60383E891E00C94FF0ADF
:10162000CF93DF930E94C304EC010E940C0B8C0F3C
:101630009D1FDF91CF910895CF93DF93FC014481EB
:101640005581608171818FE995E00E94D603EC019C
:101650000E940C0B8C0F9D1FDF91CF9108958F92EC
:101660009F92AF92BF920F931F93CF93DF93CDB70B
:10167000DEB7A1970FB6F894DEBF0FBECDBF19A29B
:10168000423008F44AE08E010F5D1F4F842E912CEA
:10169000B12CA12CA50194010E940B1FE62FB901CA
:1016A000CA01EA30F4F4E05DD801EE938D01232BFA
:1016B000242B252B79F790E080E0109719F0CD01CD
:1016C0000E94FF0AA1960FB6F894DEBF0FBECDBFF1
:1016D000DF91CF911F910F91BF90AF909F908F900E
:1016E0000895E95CE1CFCF93DF93682F70E090E03D
:1016F00080E04AE00E942F0BEC010E940C0B8C0F43
:101700009D1FDF91CF910895CF92DF92EF92FF92CC
:10171000CF93DF936C01990FEE08FF08F7FE19C015
:101720006DE28FE995E00E947604EC016627772749
:10173000CB016C197D098E099F094AE00E942F0B8D
:101740008C0F9D1FDF91CF91FF90EF90DF90CF9096
:1017500008954AE0C701B601DF91CF91FF90EF9065
:10176000DF90CF900C942F0BCF93DF930E94840BCC
:10177000EC010E940C0B8C0F9D1FDF91CF910895FF
:10178000009711F00C94FF0A90E080E00895CF9349
:10179000DF9300D000D01F92CDB7DEB78AEA8983ED
:1017A00083E08A8381E08B838EEA8C8385E58D8359
:1017B00045E050E0BE016F5F7F4F8FE995E00E94EA
:1017C000D60386E891E00E94C00B4AE061E070E039
:1017D00080E090E00E942F0B0F900F900F900F90E1
:1017E0000F90DF91CF910895CF93DF93D0E0C0E0C9
:1017F000009719F00E94FF0AEC010E940C0B8C0F5D
:101800009D1FDF91CF910895CF93DF93C82FD1E033
:10181000D0937B0580E780939D0510927C05109204
:101820009E0581E00E943E07882331F08BE991E01C
:10183000DF91CF910C94F40BD0937B0510927C0533
:1018400010929E0581E090E00C2E02C0880F991F37
:101850000A94E2F70E94CE0981E00E943E078823A5
:1018600039F08FEA91E00E94C00B8C2F0E94730B1D
:1018700064E170E080E090E0DF91CF910C949803F8
:10188000BF92CF92DF92EF92FF920F931F93CF936D
:10189000DF9300D000D01F92CDB7DEB7B82E8B01FA
:1018A00082E00E94040C065A1F4F053B110514F0FC
:1018B00004EB10E022EC31E0D8010E946F2024EB11
:1018C00030E040E050E00E94A21E69017A0186E902
:1018D000C80ED11CE11CF11C8DEC91E00E94C00BE4
:1018E000C8010E94840B8CED91E00E94C00B4AE07D
:1018F000C701B6010E942F0B0E940C0B8B2D880F85
:10190000880F8A5F89831A821B82CC82DD82809154
:10191000540690915506FC0124813581253031050E
:1019200090F0208131E030937B0520939D0510924B
:101930007C0510929E0521E045E050E0BE016F5FFE
:101940007F4F0E942E0868EE73E080E090E00E94D6
:1019500098030F900F900F900F900F90DF91CF9101
:101960001F910F91FF90EF90DF90CF90BF9008955F
:101970000F931F93CF93DF938C0181E0613071054A
:1019800009F480E00E94040C81E080937B0588E4E8
:1019900080939D0510927C0510929E0581ED90E04C
:1019A0000E94CE0980E00E943E0783E090E00E9402
:1019B000FE09E8010A5F1F4F90912D0580912E05C9
:1019C000981751F0C017D10739F085E496E00E94CE
:1019D000580989939993F0CF6AE070E080E090E035
:1019E000DF91CF911F910F910C9498030F931F9348
:1019F000CF93DF938C0181E06130710509F480E0C1
:101A00000E94040C81E080937B0588E480939D050F
:101A100010927C0510929E0580ED90E00E94CE0908
:101A200080E00E943E0783E090E00E94FE09E8010A
:101A30000A5F1F4F90912D0580912E05981751F048
:101A4000C017D10739F085E496E00E9458098993C0
:101A50009993F0CF6AE070E080E090E0DF91CF9161
:101A60001F910F910C94980321E0019709F420E055
:101A7000822F0E94040C81E080937B0588E4809390
:101A80009D0510927C0510929E058AEA90E00E94C6
:101A9000CE0980E00E943E0781E090E00E94FE09AE
:101AA00090912D0580912E05981741F085E496E0E0
:101AB0000E94580921E08636910509F020E0822F26
:101AC000089583E290E0909317018093160163E2FA
:101AD00070E08CE396E00E94FE0489EE91E00C94A5
:101AE000F40B85EA90E0909315018093140165EA68
:101AF00070E08FE396E00E94FE0485E092E00C9493
:101B0000F40B8AE590E090931901809318016AE53F
:101B100070E082E496E00E94FE048EE092E00C9475
:101B2000F40BFC0180819181009711F00C942C2121
:101B300008950F931F93CF93DF93EC0188819981D0
:101B4000009759F02A813B812617370730F081E052
:101B5000DF91CF911F910F9108958B016F5F7F4FA0
:101B60000E94B521009759F0998388831B830A83CB
:101B70002C813D81232B59F7FC011082E8CF80E0B6
:101B8000E7CFEF92FF920F931F93CF93DF93EC0178
:101B90007B018A01BA010E94990D28813981811146
:101BA00014C02115310519F0C9010E942C21198298
:101BB00018821D821C821B821A82CE01DF91CF9176
:101BC0001F910F91FF90EF9008951D830C83B70133
:101BD000C9010E948C22F1CF8F929F92AF92BF9247
:101BE000CF92DF92EF92FF920F931F93CF93DF93E9
:101BF00000D0CDB7DEB78C016B01FC0111821082E1
:101C0000138212821582148250E040E065E871E090
:101C10000E94C10D0E94CA034B015C01C6010E94D3
:101C20004B06892B91F40E94CA03681979098A0925
:101C30009B09643671058105910538F461E070E017
:101C400080E090E00E949803E9CFC6010E944B0615
:101C5000892B39F1C6010E94610689831A82F80135
:101C6000E480F580FFEFEF1AFF0AB701C8010E9478
:101C7000990D882379F0F801208131818481958143
:101C8000BE016F5F7F4F820F931F0E948C22F8016D
:101C9000F582E48262E070E080E090E00E949803C8
:101CA000D4CFC8010F900F90DF91CF911F910F916A
:101CB000FF90EF90DF90CF90BF90AF909F908F906C
:101CC000089585ED8093BC0080917705909178050B
:101CD000A0917905B0917A050796A11DB11D23E069
:101CE000B695A795979587952A95D1F72091BC0031
:101CF00024FD03C010927505089540917705509119
:101D000078056091790570917A05452B462B472B14
:101D100069F30097A105B10541F02AE22A95F1F790
:101D200000C00197A109B109E1CF809176050C941B
:101D30001D078F929F92AF92BF92CF92DF92EF9248
:101D4000FF920F931F93CF93DF9300D000D0CDB7B6
:101D5000DEB720911205211114C089E292E00F90A4
:101D60000F900F900F90DF91CF911F910F91FF90E7
:101D7000EF90DF90CF90BF90AF909F908F900C949A
:101D8000F40BDC0114962D913C91232B09F4DDC05A
:101D90007B018C0187E492E00E94C00BC7010E9486
:101DA000840B8DE492E00E94C00BC8010E941C0BC2
:101DB000F801C480D580F12CE12CFDE4AF2EF1E0D8
:101DC000BF2EEC14FD0409F4A2C0D801ED91FC91E2
:101DD0003097B9F410923C04ECE3F4E08081082ED3
:101DE000000C990B0E947222EEE3F1E02281281789
:101DF00059F03396AE16BF06C9F7BFEFEB1AFB0AD0
:101E0000E0CFEE0DFF1DEACF8032B9F3EEE3AE2E48
:101E1000E1E0BE2EF50190E080E03281321379C01E
:101E2000FC01EE0FFF1FE80FF91FE25CFE4FC080C0
:101E3000D18010E000E0B601F501808191810E941F
:101E400083227C01892B09F06FC0000F111F000F46
:101E5000111FF801EB50FB4F80819181B12CA12C17
:101E60008F3F980729F09A838983AA24A394B12CE1
:101E70000B501B4FD80112968D919C918F3F980764
:101E800009F45EC0F501EE0FFF1FEC0FFD1F9283FA
:101E90008183F50131965F018FE692E00E94C00BCD
:101EA000C6010E94C00B8CE792E00E94C00BCE01DD
:101EB00001966C01450191E0891A9108D6010D91B6
:101EC0001D916D01C8010E94840BE814F90424F4EB
:101ED0008FE892E00E94C00B64E670E0C8010E94A7
:101EE000400C64EF71E080E090E00E94980370E0A5
:101EF00060E0C8010E94400CC7010196EE24E39403
:101F0000F12C8A159B05D4F282E992E028CF20E2D9
:101F10007DCF019633968530910509F07ECF61E241
:101F2000C62E62E0D62E85CF0F5F1F4FF3E0AF0EB7
:101F3000B11C0530110509F07ECF85E592E00FCF89
:101F4000A114B10409F0A8CFF8CF0F900F900F9013
:101F50000F90DF91CF911F910F91FF90EF90DF9045
:101F6000CF90BF90AF909F908F900895CF92DF92C7
:101F7000EF92FF920F931F93CF93DF936C018B012E
:101F8000FB01EE0FFF1FE050FF4F918380835EE364
:101F9000E52E51E0F52ED0E0C0E0B601F7018081DA
:101FA00091810E948322892BF1F4CC0FDD1FFE0169
:101FB000E551FB4F80819181823091055CF4C80F1F
:101FC000D91FCC0FDD1FCB50DB4F1983088301963F
:101FD00091838083DF91CF911F910F91FF90EF90BC
:101FE000DF90CF9008952196F3E0EF0EF11CC530FD
:101FF000D10599F6EFCF1F920F920FB60F921124D1
:102000002F933F938F939F93AF93BF93809121051D
:1020100090912205A0912305B091240530912005CF
:1020200023E0230F2D3758F50196A11DB11D2093F4
:1020300020058093210590932205A0932305B0935A
:1020400024058091250590912605A0912705B09142
:1020500028050196A11DB11D8093250590932605A5
:10206000A0932705B0932805BF91AF919F918F91C1
:102070003F912F910F900FBE0F901F90189526E85B
:10208000230F0296A11DB11DD2CF1F920F920FB642
:102090000F9211242F933F934F935F936F937F93EE
:1020A0008F939F93AF93BF93EF93FF938FE995E047
:1020B0000E945404FF91EF91BF91AF919F918F9136
:1020C0007F916F915F914F913F912F910F900FBE34
:1020D0000F901F9018951F920F920FB60F92112418
:1020E0002F938F939F93EF93FF93E091AF05F09120
:1020F000B0058081E091B505F091B60582FD1BC069
:1021000090818091B8058F5F8F732091B9058217F8
:1021100041F0E091B805F0E0E156FA4F958F8093D9
:10212000B805FF91EF919F918F912F910F900FBE66
:102130000F901F9018958081F4CF1F920F920FB6C9
:102140000F9211242F933F934F935F936F937F933D
:102150008F939F93AF93BF93CF93DF93EF93FF93AF
:102160008091C504C091C604D0E087FF24C01092BE
:102170008500109284008091C5048F5F8093C50410
:102180008091C504082E000C990B8C179D0724F430
:102190008091C5048C30C4F18091840090918500B9
:1021A000049680349C4908F47AC080918400909110
:1021B0008500049676C08091C504082E000C990B0A
:1021C0008C179D07C4F6E091C5048E2FEE0F990B76
:1021D000FC01EE0FFF1FE80FF91FE953FB4F808151
:1021E00086FFC9CFE091C5048E2FEE0F990BFC013D
:1021F000EE0FFF1FE80FF91FE953FB4F808160E0EE
:102200008F730E949102B7CF209184003091850096
:10221000E091C5048E2FEE0F990BFC01EE0FFF1F0E
:10222000E80FF91FE953FB4F81819281820F931FC1
:102230009093890080938800E091C5048E2FEE0F63
:10224000990BFC01EE0FFF1FE80FF91FE953FB4F3D
:10225000808186FF11C0E091C5048E2FEE0F990B8F
:10226000FC01EE0FFF1FE80FF91FE953FB4F8081C0
:1022700061E08F730E949102FF91EF91DF91CF9106
:10228000BF91AF919F918F917F916F915F914F918E
:102290003F912F910F900FBE0F901F90189580E4E3
:1022A0009CE990938900809388008FEF8093C50408
:1022B000E3CF1F920F920FB60F9211242F933F93EB
:1022C0004F935F936F937F938F939F93AF93BF933E
:1022D000EF93FF93E091C304F091C404309749F069
:1022E000A685B7858585968D91FF14C09C9189231D
:1022F000A1F4FF91EF91BF91AF919F918F917F9149
:102300006F915F914F913F912F910F900FBE0F9062
:102310001F9018959C91892361F7A389B4899C919A
:102320008589809589238C93868997890197F1F710
:10233000608D718DA685B785558538E020E0CB018D
:102340000197F1F7822F90E095958795282F4C9172
:10235000452309F02068315091F7868D81FD209545
:102360008091C10490E001968F7399273091C20447
:10237000381799F0A091C104B0E0AF57BB4F2C9330
:102380008093C104828D938D0197F1F7A389B4895D
:102390008C919589892B8C93ACCF868D8160868FAB
:1023A000F1CF1F920F920FB60F9211242F933F93EC
:1023B0004F935F936F937F938F939F93AF93BF934D
:1023C000EF93FF938091B900887F803609F44AC06B
:1023D000F0F5883209F4A7C018F5803109F49BC0E4
:1023E000B8F4882309F4F9C0883009F494C0FF9147
:1023F000EF91BF91AF919F918F917F916F915F917D
:102400004F913F912F910F900FBE0F901F901895F5
:10241000883109F488C0803251F78093730514C065
:10242000803409F49DC040F48033B9F38833F9F661
:102430008093730585ECB0C0803509F485C088357C
:1024400009F496C0883499F60E94610ED0CF88397D
:1024500009F48CC038F5883729F050F4883611F02B
:10246000803729F683E0809375051092800457C069
:10247000883809F47BC0803919F0803809F0B7CF6B
:1024800080918004803208F071C0E091800481E086
:102490008E0F809380048091BB00F0E0E05AFB4FE8
:1024A00080833DC0803B39F0E0F4803A09F479C084
:1024B000883A09F09CCF84E08093750510925F0400
:1024C00010925E04E0912B05F0912C050995809106
:1024D0005E0481110FC081E080935E0410923E047F
:1024E00009C0803C09F4A6CF883C09F4A3CF883BFF
:1024F00009F07DCFE0915F0481E08E0F80935F044F
:10250000F0E0E25CFB4F80818093BB0090915F0420
:1025100080915E0429C0809150058093BB0085ECBA
:102520008093BC0064CF90917205809171059817DB
:1025300058F5E091720581E08E0F80937205F0E00E
:10254000EF5AFA4F8081E9CFE091720581E08E0F5A
:10255000809372058091BB00F0E0EF5AFA4F8083C0
:1025600090917205809171059817C8F285E8D8CFCF
:10257000E091720581E08E0F809372058091BB001F
:10258000F0E0EF5AFA4F80838091740581115CCF9F
:1025900081E080934F0584EA8093BC00109275051A
:1025A00026CF85EC8093BC00109275058091800445
:1025B000803230F4E0918004F0E0E05AFB4F10826A
:1025C0006091800470E0E0912905F0912A0580E691
:1025D00094E00995109280040ACF1092730534CFCD
:1025E000FC019091C6049C3098F481E0890F80939F
:1025F000C6049083892F90E0FC01EE0FFF1FE80FC7
:10260000F91FE953FB4F88EB9BE092838183089588
:102610008FEF80830895CF93DF93EFE9F5E0138286
:10262000128288EE93E0A0E0B0E084839583A683D5
:10263000B78323E631E03183208325EC30E0358712
:10264000248724EC30E03787268720EC30E0318B7C
:10265000208B21EC30E0338B228B22EC30E0358B69
:10266000248B26EC30E0378B268B118E128E138E46
:10267000148EC5E4D6E01B821A828C839D83AE83C0
:10268000BF8385E791E09983888382E496E00E9486
:10269000F0128FE396E00E94F0128CE396E00E9425
:1026A000F012E1E5F6E080E48083D283C1831482F6
:1026B00013824BE06AE089E796E00E940E034DE04A
:1026C0006CE08AE596E00E940E0388E996E0DF91CF
:1026D000CF910C94F012CF93DF93CDB7DEB76C9708
:1026E0000FB6F894DEBF0FBECDBF789484B582607C
:1026F00084BD84B5816084BD85B5826085BD85B5A6
:10270000816085BD80916E00816080936E00109223
:10271000810080918100826080938100809181009E
:10272000816080938100809180008160809380002F
:102730008091B10084608093B1008091B00081608D
:102740008093B00080917A00846080937A008091B9
:102750007A00826080937A0080917A008160809311
:102760007A0080917A00806880937A001092C1008C
:10277000E091AF05F091B00582E08083E091AB0578
:10278000F091AC051082E091AD05F091AE0580E1CD
:1027900080831092B705E091B305F091B40586E00F
:1027A0008083E091B105F091B205808180618083E2
:1027B000E091B105F091B205808188608083E0915D
:1027C000B105F091B205808180688083E091B10508
:1027D000F091B20580818F7D808360ED77E080E0AD
:1027E00090E00E9498030E94060782E791E00E9411
:1027F000100B66E070E088E996E00E947A0583E5B8
:1028000091E00E94100B67E070E082E496E00E9485
:102810007A056AE570E082E496E00E94FE048AE5AB
:1028200090E0909319018093180168EE73E080E0C6
:1028300090E00E94980387EB92E00E94F40B68E01E
:1028400070E08FE396E00E947A0565EA70E08FE31E
:1028500096E00E94FE0485EA90E090931501809333
:10286000140168EE73E080E090E00E94980383ED2D
:1028700092E00E94F40B69E070E08CE396E00E9425
:102880007A0563E270E08CE396E00E94FE0483E246
:1028900090E0909317018093160168EE73E080E05A
:1028A00090E00E9498038CEE92E00E94F40B81E38A
:1028B00091E00E94100B86E191E00E94100B35E040
:1028C000E32EF12C10E000E001110C94081D81E0D2
:1028D00090E00E94340D082F62E370E080E090E009
:1028E0000E94980311110C94F91C82E090E00E9460
:1028F000340D182F62E370E080E090E00E949803AE
:10290000002319F011110C94FD1C64E670E080E0C6
:1029100090E00E94980321E0E21AF108A9F685E010
:1029200093E00E94C00B88E992E0002311F084E953
:1029300092E00E94F40B86E193E00E94C00B88E9CC
:1029400092E0112311F084E992E00E94F40B00233D
:1029500009F4B4C0112309F4B1C080EE90E00E94E4
:10296000100B82E00E94040C62E370E080E090E0D3
:102970000E9498038091540690915506009709F0A3
:10298000A2C086E090E00E9490208C0180915206C7
:102990009091530620915106F80120839283818300
:1029A000138280E290E09583848310935506009310
:1029B00054060E94060781E0F8018383C8010E9443
:1029C0004C08882309F482C060E880E00E94D609A0
:1029D0006AE070E080E090E00E94980380E498E76D
:1029E000ADE7B1E08093560690935706A093580642
:1029F000B093590660E070E08AE794E40E94080A08
:102A000060E070E088E492E40E94080A8AEB90E0BB
:102A10000E94100B89E796E00E940D1D8AE596E062
:102A20000E940D1D83EA90E00E94100BABEEB4E013
:102A300025EF34E0E5EFF4E08FEF9FEF1D921D925C
:102A4000918380839383828334962A173B07B1F75F
:102A500087E890E00E94100B10921B05109213055E
:102A600010921F0510921E0588E690E00E94100B40
:102A70005E01F7E0AF0EB11C9E012F5F3F4F490191
:102A800023E0622E712C80911E0590911F058130EC
:102A9000910509F449C1F8F08230910509F4AFC5F8
:102AA000039709F4B3C680E090E0892B61F30E949C
:102AB0004004882341F30E940000E5CF86EF90E0B8
:102AC0000E94100BFFCF0E942C215BCF88EC90E07E
:102AD0000E94100BFFCF80911D05811113C08FE95B
:102AE00095E00E943404181619062CF48FE995E03D
:102AF0000E941204F4CF81E080931D0583E594E0E9
:102B00000E94100B80911C0581110DC00E94810D47
:102B10000E94710D0E94610D81E080931C0582E28C
:102B200094E00E94100B11E08FE995E00E943404BC
:102B30001816190634F58FE995E00E941204E09109
:102B40001B05E11107C08A3A29F410931B058093F5
:102B50001405EACF9FEF9E0F963080F491E09E0F10
:102B600090931B05F0E0EC5EFA4F80839730E1F61E
:102B7000853509F046C710931305D6CF10921B0573
:102B8000D3CF80911305882309F48DCF809114054C
:102B90008A3A09F0ABC080911A05853509F0A6C0C4
:102BA000909115050091160510911705F0901805E4
:102BB000892F800F8655810F8F0D209119052813BD
:102BC000AEC0933009F0ABC080EF93E00E94C30425
:102BD000602F70E090E080E04AE00E942F0B85EECD
:102BE00093E00E94C304612F70E090E080E04AE02F
:102BF0000E942F0B88ED93E00E94C3048F2D0E944A
:102C0000730B31E0F31272C0011175C011117CC059
:102C10008CEB93E00E94100B68EB7BE080E090E08F
:102C20000E9498030E94C70B64E170E080E090E08E
:102C30000E94980370E060E088E996E00E94FE043C
:102C400064EF71E080E090E00E94980368EC70E02F
:102C500088E996E00E94FE0464EF71E080E090E075
:102C60000E94980370E060E088E996E00E94FE040C
:102C700064E670E080E090E00E94980310E000E0DD
:102C8000B80188E996E00E94FE0468E070E080E008
:102C900090E00E9498030F5F1F4F053B110581F7DD
:102CA00064E670E080E090E00E94980304EB10E09E
:102CB000B80188E996E00E94FE0468E070E080E0D8
:102CC00090E00E9498030150110990F764E670E0CB
:102CD00080E090E00E94980381E090E090931F05CF
:102CE00080931E0510921C0510921D0510921B0565
:102CF00010921305D8CE013039F487E993E00E9491
:102D0000100B82E090E0EACF113081F782E793E088
:102D10000E94100B70921F0560921E05E3CF8FE496
:102D200093E00E94100BE2CF83E393E00E94100B2C
:102D300064EF71E080E090E00E94980370E060E052
:102D400088E996E00E94FE0464EF71E080E090E084
:102D50000E949803E0E2F1E0FA8BE98BE989FA89B5
:102D600000811181228133813C8B2B8B8481958161
:102D70009A8F898F87E293E00E94C00BC8010E945E
:102D8000B40BB80188E996E00E94FE0464EF71E09C
:102D900080E090E00E949803F50126E011922A95C8
:102DA000E9F7F40126E011922A95E9F783E090E033
:102DB000988B8F871E861D86312C212C512C412CFF
:102DC00010E000E0F12CE12CD12CC12C61E070E08E
:102DD000C5010E94F60C61E070E0C4010E94B80CCD
:102DE000EF81F885FE8BED8B29853A85388F2F8B07
:102DF0008B859C859C8F8B8F8AE393E00E94C00B10
:102E00008D899E890E94840B8BE493E00E94C00B05
:102E10008F89988D0E94840B8BE493E00E94C00BF5
:102E20008B8D9C8D0E94840B8DE493E00E94C00BDF
:102E300089819A810E94840B8BE493E00E94C00BED
:102E40008B819C810E94840B8BE493E00E94C00BD9
:102E50008D819E810E94B40B8F8198858F3F910553
:102E600019F014F08FEF90E097FF02C090E080E03F
:102E7000C80ED91E89859A858F3F910519F014F0E7
:102E80008FEF90E097FF02C090E080E0E80EF91E1F
:102E90008B859C858F3F910519F014F08FEF90E0A2
:102EA00097FF02C090E080E0080F191F89819A8186
:102EB000480E591E8B819C81280E391E8D819E8162
:102EC000ED85FE85E80FF91FFE87ED876AE070E06B
:102ED00080E090E00E9498032F85388921503109C5
:102EE000388B2F87232B09F071CFC601B3010E94C5
:102EF0005B206B01C701B3010E945B207B01C8010D
:102F0000B3010E945B208B01C201B3010E945B20D0
:102F10007A836983C101B3010E945B207C836B8348
:102F20008D859E85B3010E945B207E836D838AE33D
:102F300093E00E94C00BC6010E94840B8BE493E0D7
:102F40000E94C00BC7010E94840B8BE493E00E9497
:102F5000C00BC8010E94840B8DE493E00E94C00B5B
:102F600089819A810E94840B8BE493E00E94C00BBC
:102F70008B819C810E94840B8BE493E00E94C00BA8
:102F80008D819E810E94B40BC601885C9109C8970F
:102F900008F5C7018A5A910986359105D8F40F3F83
:102FA000110509F0B8F449815A81CA018A5A910978
:102FB000C89780F42B813C81273E310558F48D81E0
:102FC0009E81825891098437910520F44217530756
:102FD0000CF45AC2C6018E5B910982349105E8F463
:102FE000C7018E5B910982349105B8F4C8018E5BEC
:102FF00091098234910588F489819A81823E9105F4
:1030000060F48B819C818D3D910538F48D819E818A
:10301000845B9109CD9708F43AC2C6018D97833D30
:10302000910508F5C701865991098A369105D8F4AA
:10303000C8018857910988389105A8F489819A8137
:103040008E569109459778F48B819C818B54910918
:103050008734910540F48D819E8184569109823494
:10306000910508F417C2C601865991098A3691055F
:10307000E8F43BE5E316F104B0F40937110598F4E0
:1030800089819A81C39778F48B819C8180559109BD
:103090008739910540F48D819E81865491090EEA0D
:1030A00012E0C39730F101E212E023C08DE3C816AD
:1030B000D104C8F794E1E91AF108E1E5EE16F1044C
:1030C00090F7085211090F36110568F789819A8126
:1030D00082589109C39738F78B819C814497823E2F
:1030E000910508F78D819E814E9702EB12E0C39700
:1030F000D0F66B897C89C8010E94B60F86E593E003
:103100000E94C00BC8010E94C00B89E693E00E9498
:10311000C00B8B899C890E94B40B62E370E080E055
:1031200090E00E949803F50126E011922A95E9F7B4
:10313000F40126E011922A95E9F783E090E0988B5C
:103140008F87312C212C512C412C1E861D8610E09E
:1031500000E0F12CE12CD12CC12C62E070E0C50123
:103160000E94F60C62E070E0C4010E94B80CEF818E
:10317000F885FC8BEB8B29853A853E8B2D8B8B85D7
:103180009C85988F8F8B87E793E00E94C00B8B897B
:103190009C890E94840B8BE493E00E94C00B8D8974
:1031A0009E890E94840B8BE493E00E94C00B8F8960
:1031B000988D0E94840B8DE493E00E94C00B89815E
:1031C0009A810E94840B8BE493E00E94C00B8B8158
:1031D0009C810E94840B8BE493E00E94C00B8D8144
:1031E0009E810E94B40B8F8198858F3F910519F0C5
:1031F00014F08FEF90E097FF02C090E080E0C80EDF
:10320000D91E89859A858F3F910519F014F08FEFAB
:1032100090E097FF02C090E080E0E80EF91E8B85F9
:103220009C858F3F910519F014F08FEF90E097FF88
:1032300002C090E080E0080F191F89819A81ED8516
:10324000FE85E80FF91FFE87ED878B819C81480E74
:10325000591E8D819E81280E391E6AE070E080E043
:1032600090E00E9498032F85388921503109388BCE
:103270002F87232B09F071CFC601B3010E945B2079
:103280006B01C701B3010E945B207B01C801B30140
:103290000E945B208B018D859E85B3010E945B207F
:1032A0007A836983C201B3010E945B207C836B83B4
:1032B000C101B3010E945B207E836D8387E793E0A9
:1032C0000E94C00BC6010E94840B8BE493E00E9415
:1032D000C00BC7010E94840B8BE493E00E94C00BDB
:1032E000C8010E94840B8DE493E00E94C00B898189
:1032F0009A810E94840B8BE493E00E94C00B8B8127
:103300009C810E94840B8BE493E00E94C00B8D8112
:103310009E810E94B40BC601885C9109C897F8F49D
:10332000C701885C9109C897D0F40F3F110509F0D7
:10333000B0F489819A81865991098234910578F493
:103340008B819C818C5891098B35910540F48D813E
:103350009E81885791098E37910508F49EC0C60159
:103360008E5B910982349105E8F4C7018E5B910967
:1033700082349105B8F4C8018E5B910982349105BD
:1033800088F489819A81873E910560F48B819C81C4
:10339000893C910538F48D819E81885C91098997DB
:1033A00008F421C1C601CC978B35910500F5C70102
:1033B000805A910980369105D0F4C8018055910951
:1033C000803B9105A0F489819A818E569109459799
:1033D00070F48B819C81C7978B3A910540F48D8165
:1033E0009E81845691098735910508F4FFC0C60176
:1033F00044978C3E9105E0F437EEE316F104C0F4F7
:103400000F3F110509F0A0F489819A81813F910550
:1034100078F48B819C81865491098B3A910540F414
:103420008D819E81855591098A36910508F4E1C008
:1034300082E3C81AD10890E6C916D10460F4EEE61A
:10344000EE1AF108FDE3EF16F10428F4065911090C
:1034500007341105B0F089819A8182589109C39788
:1034600008F0CAC08B819C8180559109863A9105EC
:1034700008F0C2C08D819E814E978135910508F07C
:10348000BBC002EB12E00BC00BE912E032CE02EA45
:1034900012E02FCE08EA12E02CCE0BE912E0698D83
:1034A0007A8DC8010E94B60F88E893E00E94C00B95
:1034B000C8010E94C00B89E693E00E94C00B898D71
:1034C0009A8D0E94B40B29893A892A5F3F4F3A8B23
:1034D000298B8EE391E08217930709F03FCC70E0CF
:1034E00060E088E996E00E94FE0464EF71E080E00D
:1034F00090E00E94980381E0809312058BE993E0AD
:103500000E94F40B8AEB93E00E94F40B90E0E92E0A
:1035100091E0F92E10E000E08DEC93E00E94C00BEA
:10352000C8010E94840B88E493E00E94C00BF7015D
:10353000819191917F010E94F40B0F5F1F4F0A3020
:10354000110551F788ED93E00E94F40B8EE3E82E0D
:1035500081E0F82E05EF14E08DEE93E00E94C00BA1
:10356000F701808191810E94C00B88E493E00E9462
:10357000C00BF801808191818F3F980731F00E9444
:10358000840B8EEE93E00E94C00BF8018281938140
:103590008F3F980731F00E94840B8EEE93E00E94DB
:1035A000C00B0E940C0B23E0E20EF11C0C5F1F4FBE
:1035B00035E00930130781F680EF93E00E94F40BA9
:1035C0008FE193E00E94100B81E093E00E94100BCA
:1035D00010921F0510921E0564EF71E080E090E0EC
:1035E0000E94980360CA02EA12E059CF08EA12E08A
:1035F00056CF0EEA12E053CF01E212E050CF809195
:103600001105811161C085EE92E00E94100B80913E
:1036100014019091150197FF04C0109215011092AA
:103620001401E0901401F09015018FE5E81AF108FB
:10363000F0921501E0921401B7018FE396E00E9429
:10364000FE0484EB90E090930A05809309050091B5
:10365000090510910A050E151F0594F0B8018FE3B6
:1036600096E00E94FE046AE070E080E090E00E9434
:1036700098030150110910930A0500930905E7CF3B
:103680008DE094E00E94F40B809118019091190153
:103690004496853B91050CF067C090931901809387
:1036A0001801609118017091190182E496E00E945E
:1036B000FE0481E08093110568EE73E080E090E005
:1036C0000E9498031092100580911005882309F438
:1036D0004EC00E94CA0300910C0510910D05209167
:1036E0000E0530910F05601B710B820B930B683830
:1036F00073418105910508F4D6C984EC92E00E94DB
:10370000100B0E94810D0E94710D0E94610D0E949C
:10371000C70B64E170E080E090E00E9498030E9493
:10372000C70B64E170E080E090E00E9498030E9483
:10373000C70B64E170E080E090E00E94980384EAA7
:1037400092E00E94100B10921F0510921E0510921D
:1037500011051092100510920C0510920D05109293
:103760000E0510920F059FC984EB90E096CF8091D3
:103770001205882309F441C089E796E00E94980663
:1037800069E776E0C5010E94EC0D8B859C85892B4D
:1037900081F18CE892E00E94100BC5010E941C0B85
:1037A0001A8219821C821B821E821D826F8178857B
:1037B0006115710529F04B855C85C4010E94C10D1E
:1037C00061E070E0C4010E94990EC4010E94910D55
:1037D0000E94CA0360930C0570930D0580930E053B
:1037E00090930F0581E08093100585E692E00E949A
:1037F000100BC5010E94910D04C086E492E00E9466
:10380000100B62E370E080E090E0EACE80910B055F
:10381000811160C08AE292E00E94100B8091160133
:10382000909117018D589F4F853B910554F59093CA
:10383000170180931601E0901601F0901701B7016F
:103840008CE396E00E94FE0410920A05109209058E
:103850000091090510910A05E016F106ACF0B801D7
:103860008CE396E00E94FE046FE070E080E090E060
:103870000E9498030F5F1F4F10930A0500930905DC
:10388000E7CF84EB90E0D3CF80E294E00E94F40B8A
:103890008091180190911901449797FD61C0909310
:1038A000190180931801609118017091190182E447
:1038B00096E00E94FE0483E394E00E94F40B81E012
:1038C00080930B0568EE73E080E090E00E9498031F
:1038D0001092100580911005882309F446C00E94BB
:1038E000CA0300910C0510910D0520910E05309131
:1038F0000F05601B710B820B930B683873418105B8
:10390000910508F4D0C889E092E00E94100B0E9453
:10391000810D0E94710D0E94610D0E94C70B64E130
:1039200070E080E090E00E9498030E94C70B64E181
:1039300070E080E090E00E9498030E94C70B64E171
:1039400070E080E090E00E94980389EE91E00E9490
:10395000100B10921F0510921E0510920B05F9CE48
:1039600010921901109218019ECF809112058823A0
:10397000E9F18AE596E00E9498066AE576E0C501DD
:103980000E94EC0D8B859C85892B09F432CF81ED4B
:1039900091E00E94C304C5010E941C0B1A82198287
:1039A0001C821B821E821D826F81788561157105C4
:1039B00029F04B855C85C4010E94C10D62E070E076
:1039C000C4010E94990EC4010E94910D0E94CA0375
:1039D00060930C0570930D0580930E0590930F0571
:1039E00081E0809310058AEA91E001CF8BE891E0B5
:1039F00006CF002311F40C94851411E001E00C941F
:103A00008F1410921B0587E094E00E94100B8CC865
:103A1000112311F40C947514F0CFFC01138E128E47
:103A2000118E108E178A168A8DE991E0958F848FFA
:103A300084858631D8F52DEB30E0378B268B2BE94A
:103A400031E0318F208F2CE231E0338F228F909143
:103A50006800883070F121E08E3008F420E081E0C9
:103A600001C0880F2A95EAF7892B80936800848526
:103A70002DE630E0883050F02BE630E08E3030F02C
:103A80002CE630E0863110F030E020E0348B238BE0
:103A9000282F30E0883078F491E001C0990F8A95A2
:103AA000EAF7958B848D958D0197F1F7CF010C94F2
:103AB000980684E0D9CF8E3040F42850310991E047
:103AC00001C0990F2A95EAF7ECCF2E503109F7CFB4
:103AD000CF93DF93C1E5D1E0D0935B06C0935A0644
:103AE0008AE596E00E948206D0937A06C093790612
:103AF00089E796E0DF91CF910C9482060E94C01D69
:103B000008F481E00895E89409C097FB3EF490958D
:103B10008095709561957F4F8F4F9F4F9923A9F0A6
:103B2000F92F96E9BB279395F69587957795679535
:103B3000B795F111F8CFFAF4BB0F11F460FF1BC079
:103B40006F5F7F4F8F4F9F4F16C0882311F096E90C
:103B500011C0772321F09EE8872F762F05C06623BA
:103B600071F096E8862F70E060E02AF09A95660F73
:103B7000771F881FDAF7880F9695879597F908952C
:103B8000990F0008550FAA0BE0E8FEEF161617066E
:103B9000E807F907C0F012161306E407F50798F0D6
:103BA000621B730B840B950B39F40A2661F0232BEF
:103BB000242B252B21F408950A2609F4A140A6956B
:103BC0008FEF811D811D08950E94F71D0C94681EC2
:103BD0000E945A1E38F00E94611E20F0952311F0B9
:103BE0000C94511E0C94571E11240C949C1E0E9480
:103BF000791E70F3959FC1F3950F50E0551F629F9A
:103C0000F001729FBB27F00DB11D639FAA27F00D35
:103C1000B11DAA1F649F6627B00DA11D661F829F5C
:103C20002227B00DA11D621F739FB00DA11D621F41
:103C3000839FA00D611D221F749F3327A00D611D5E
:103C4000231F849F600D211D822F762F6A2F112440
:103C50009F5750409AF0F1F088234AF0EE0FFF1F73
:103C6000BB1F661F771F881F91505040A9F79E3FCA
:103C7000510580F00C94511E0C949C1E5F3FE4F3A0
:103C8000983ED4F3869577956795B795F795E79520
:103C90009F5FC1F7FE2B880F911D9695879597F929
:103CA000089597F99F6780E870E060E008959FEFBE
:103CB00080EC089500240A941616170618060906C3
:103CC000089500240A941216130614060506089592
:103CD000092E0394000C11F4882352F0BB0F40F41A
:103CE000BF2B11F460FF04C06F5F7F4F8F4F9F4F5A
:103CF000089557FD9058440F551F59F05F3F71F0DC
:103D00004795880F97FB991F61F09F3F79F0879542
:103D10000895121613061406551FF2CF4695F1DFCB
:103D200008C0161617061806991FF1CF869571055B
:103D3000610508940895E894BB2766277727CB018F
:103D400097F90895052E97FB1EF400940E94B91E62
:103D500057FD07D00E940B1F07FC03D04EF40C94B4
:103D6000B91E50954095309521953F4F4F4F5F4F6D
:103D7000089590958095709561957F4F8F4F9F4FD7
:103D800008950E942D1FA59F900DB49F900DA49F94
:103D9000800D911D11240895B7FF0C94C11E0E943F
:103DA000C11E821B930B08952F923F924F925F92F8
:103DB0006F927F928F929F92AF92BF92CF92DF923B
:103DC000EF92FF920F931F93CF93DF93CDB7DEB7A0
:103DD000CA1BDB0B0FB6F894DEBF0FBECDBF099434
:103DE0002A88398848885F846E847D848C849B848B
:103DF000AA84B984C884DF80EE80FD800C811B8199
:103E0000AA81B981CE0FD11D0FB6F894DEBF0FBEC7
:103E1000CDBFED010895A1E21A2EAA1BBB1BFD0127
:103E20000DC0AA1FBB1FEE1FFF1FA217B307E40799
:103E3000F50720F0A21BB30BE40BF50B661F771FF1
:103E4000881F991F1A9469F76095709580959095D1
:103E50009B01AC01BD01CF010895A29FB001B39FAA
:103E6000C001A39F700D811D1124911DB29F700D83
:103E7000811D1124911D08955058BB27AA270E9427
:103E8000541F0C94681E0E945A1E38F00E94611E36
:103E900020F039F49F3F19F426F40C94571E0EF4C9
:103EA000E095E7FB0C94511EE92F0E94791E58F310
:103EB000BA17620773078407950720F079F4A6F50F
:103EC0000C949B1E0EF4E0950B2EBA2FA02D0B0127
:103ED000B90190010C01CA01A0011124FF27591B4F
:103EE00099F0593F50F4503E68F11A16F040A22F55
:103EF000232F342F4427585FF3CF469537952795C6
:103F0000A795F0405395C9F77EF41F16BA0B620BC4
:103F1000730B840BBAF09150A1F0FF0FBB1F661F0B
:103F2000771F881FC2F70EC0BA0F621F731F841F4E
:103F300048F4879577956795B795F7959E3F08F074
:103F4000B0CF9395880F08F09927EE0F9795879536
:103F500008950E94BD1F0C94681E0E94611E58F0B7
:103F60000E945A1E40F029F45F3F29F00C94511E24
:103F700051110C949C1E0C94571E0E94791E68F3DC
:103F80009923B1F3552391F3951B550BBB27AA2712
:103F900062177307840738F09F5F5F4F220F331F4C
:103FA000441FAA1FA9F335D00E2E3AF0E0E832D014
:103FB00091505040E695001CCAF72BD0FE2F29D017
:103FC000660F771F881FBB1F261737074807AB07E9
:103FD000B0E809F0BB0B802DBF01FF2793585F4F5E
:103FE0003AF09E3F510578F00C94511E0C949C1EA3
:103FF0005F3FE4F3983ED4F3869577956795B79540
:10400000F7959F5FC9F7880F911D9695879597F94A
:104010000895E1E0660F771F881FBB1F62177307C3
:104020008407BA0720F0621B730B840BBA0BEE1FD8
:1040300088F7E09508950E94811E88F09F5798F0B8
:10404000B92F9927B751B0F0E1F0660F771F881F9D
:10405000991F1AF0BA95C9F714C0B13091F00E94B7
:104060009B1EB1E008950C949B1E672F782F882724
:10407000B85F39F0B93FCCF3869577956795B395DE
:10408000D9F73EF490958095709561957F4F8F4F4D
:104090009F4F08950E94C01D08F48FEF0895991B4B
:1040A00079E004C0991F961708F0961B881F7A952F
:1040B000C9F78095089597FB072E16F4009407D052
:1040C00077FD09D00E94762007FC05D03EF490953C
:1040D00081959F4F0895709561957F4F08950E9437
:1040E0002D1FB7FF0895821B930B0895AA1BBB1BBE
:1040F00051E107C0AA1FBB1FA617B70710F0A61BE8
:10410000B70B881F991F5A95A9F780959095BC0108
:10411000CD010895EE0FFF1F0590F491E02D099455
:104120000F931F93CF93DF938230910510F482E0B9
:1041300090E0E0919D06F0919E0630E020E0B0E036
:10414000A0E0309799F42115310509F44AC0281BE5
:10415000390B24303105D8F58A819B8161157105B1
:1041600089F1FB0193838283FE0111C0408151815B
:104170000281138148175907E0F04817590799F44D
:10418000109761F012960C93129713961C93329627
:10419000CF01DF91CF911F910F91089500939D065C
:1041A00010939E06F4CF2115310551F042175307A5
:1041B00038F0A901DB019A01BD01DF01F801C1CF8F
:1041C000EF01F9CF90939E0680939D06CDCFFE011F
:1041D000E20FF31F81939193225031093983288391
:1041E000D7CF20919B0630919C06232B41F4209140
:1041F0001C0130911D0130939C0620939B06209159
:104200001A0130911B012115310541F42DB73EB73C
:1042100040911E0150911F01241B350BE0919B061C
:10422000F0919C06E217F307A0F42E1B3F0B281712
:10423000390778F0AC014E5F5F4F2417350748F01F
:104240004E0F5F1F50939C0640939B068193919362
:104250009FCFF0E0E0E09CCFCF93DF930097E9F0B1
:10426000FC01329713821282A0919D06B0919E06A6
:10427000ED0130E020E01097A1F420813181820F20
:10428000931F20919B0630919C062817390709F04F
:1042900061C0F0939C06E0939B06DF91CF91089557
:1042A000EA01CE17DF07E8F54A815B819E014115DF
:1042B0005105B1F7E901FB83EA8349915991C40F94
:1042C000D51FEC17FD0761F4808191810296840F60
:1042D000951FE90199838883828193819B838A83D7
:1042E000F0E0E0E012968D919C9113970097B9F55C
:1042F0002D913C911197CD010296820F931F209131
:104300009B0630919C062817390739F6309751F5EE
:1043100010929E0610929D06B0939C06A0939B0659
:10432000BCCFD383C28340815181840F951FC817AE
:10433000D90761F44E5F5F4F88819981480F591FFB
:10434000518340838A819B81938382832115310528
:1043500009F0B0CFF0939E06E0939D069ECFFD013D
:10436000DC01C0CF13821282D7CFB0E0A0E0EBEB2C
:10437000F1E20C94D61E8C01009751F4CB010E94FF
:1043800090208C01C801CDB7DEB7E0E10C94F21E9D
:10439000FC01E60FF71F9C0122503109E217F307D9
:1043A00008F49DC0D901CD91DC911197C617D707AC
:1043B00098F0C530D10530F3CE01049786179707E2
:1043C00008F3C61BD70B2297C193D1936D937C93AF
:1043D000CF010E942C21D6CF5B01AC1ABD0A4C0143
:1043E0008C0E9D1EA0919D06B0919E06512C412CD5
:1043F000F12CE12C109731F580919B0690919C0651
:104400008815990509F05CC04616570608F058C093
:1044100080911A0190911B01009741F48DB79EB7CE
:1044200040911E0150911F01841B950BE817F9075D
:1044300008F055C0F0939C06E0939B06F901718348
:104440006083A0CF8D919C91119712966C901297DA
:1044500013967C901397A815B90559F56C0142E0A5
:10446000C40ED11CCA14DB0420F1AC014A195B094B
:10447000DA011296159780F062827382518340832D
:10448000D9016D937C93E114F10471F0D701139677
:10449000FC93EE93129776CF22968C0F9D1FF90115
:1044A00091838083F301EFCFF0939E06E0939D0606
:1044B00069CF4816590608F42C017D01D3019ACF23
:1044C000CB010E9490207C01009749F0AE01B80119
:1044D0000E947A22C8010E942C21870153CF10E04C
:1044E00000E050CF9111089581548A5108F4805E04
:1044F000855A0895FB01DC0102C001900D924150E4
:104500005040D8F70895FB01DC018D91019080198E
:104510000110D9F3990B0895FB01DC0101900D9274
:104520000020E1F7089512E0C4E6D2E004C0FE01E5
:104530000E948A202196C536D107C9F7F894FFCF8B
:104540002102210221022102210221022102210253
:1045500021022102A50023005A0000009F068000CE
:104560000000000005002F00010006005A000200B4
:104570000700820003000800AF0004000900AE023B
:10458000729B0279B20262A80267A2027700000061
:1045900000EF05D603D309EE054B066106D60500EC
:1045A0000000007604D6030304DE0434041204265B
:1045B00004000000009F097209D309EE056B095839
:1045C0000949090D0A0053656E7420746F20535415
:1045D0004D33323A20646174613D005443413935B2
:1045E000343841206E6F7420666F756E642100460A
:1045F00061696C656420746F2073656C65637420F9
:10460000544341206368616E6E656C200054617292
:1046100067657420416E676C653A200020E28692DF
:104620002050756C73653A2000E58FB3E888B5E6D5
:104630009CBAE5A48DE4BD8DE5889DE5A78BE8A730
:1046400092E5BAA600E5B7A6E888B5E69CBAE5A467
:104650008DE4BD8DE5889DE5A78BE8A792E5BAA618
:1046600000556E6B6E6F776E004572726F723A20F6
:104670004D617070696E67204E6F7420436F6D706E
:104680006C657465642100474D3635200020526505
:1046900061643A20004572726F723A204E6F204377
:1046A00068616E6E656C7320466F756E6421005292
:1046B000656C6561736520416C6C20002042616C03
:1046C0006C7320284368616E6E656C733A20002C11
:1046D00020002900596573004E6F0059656C6C6F9E
:1046E0007700576869746500477265656E005265AA
:1046F0006400426C756500E7BFBBE8BDACE888B5F7
:10470000E69CBAE5889DE5A78BE58C96E5AE8CE640
:10471000889000E5B7A6E888B5E69CBAE5889DE5EF
:10472000A78BE58C96E5AE8CE6889000E58FB3E824
:1047300088B5E69CBAE5889DE5A78BE58C96E5AE45
:104740008CE688900053656E736F7220312072651D
:104750006164793A200053656E736F722032207263
:10476000656164793A20000A4D6F76696E6720743E
:104770006F20616E676C653A200053656E736F72CF
:104780002031207C205247423A20002C00207C20FF
:1047900048534C3A200053656E736F722031206489
:1047A00065746563746564200020666F72206368B9
:1047B000616E6E656C200053656E736F72203220DF
:1047C0007C205247423A200053656E736F7220324C
:1047D00020646574656374656420000A3D3D3D2076
:1047E000436F6C6F722D4368616E6E656C204D6116
:1047F0007070696E67203D3D3D004368616E6E6577
:104800006C20E2869220436F6C6F723A0020204346
:1048100068616E6E656C20000A436F6C6F7220E2F7
:104820008692204368616E6E656C733A00202000AA
:104830003D3D3D3D3D3D3D3D3D3D3D3D3D3D3D3DA8
:104840003D3D3D3D3D3D3D3D3D3D3D3D00E5B7A64A
:10485000E6BB91E98193E5B7B2E694BEE4B88B007C
:10486000E58FB3E6BB91E98193E5B7B2E694BEE488
:0C487000B88B00E58FB3E7BFBB20000051
:107E0000112484B714BE81FFF0D085E080938100F7
:107E100082E08093C00088E18093C10086E0809377
:107E2000C20080E18093C4008EE0C9D0259A86E02C
:107E300020E33CEF91E0309385002093840096BBD3
:107E4000B09BFECF1D9AA8958150A9F7CC24DD24C4
:107E500088248394B5E0AB2EA1E19A2EF3E0BF2EE7
:107E6000A2D0813461F49FD0082FAFD0023811F036
:107E7000013811F484E001C083E08DD089C08234E0
:107E800011F484E103C0853419F485E0A6D080C0E4
:107E9000853579F488D0E82EFF2485D0082F10E0AE
:107EA000102F00270E291F29000F111F8ED06801E7
:107EB0006FC0863521F484E090D080E0DECF843638
:107EC00009F040C070D06FD0082F6DD080E0C81688
:107ED00080E7D80618F4F601B7BEE895C0E0D1E017
:107EE00062D089930C17E1F7F0E0CF16F0E7DF06D8
:107EF00018F0F601B7BEE89568D007B600FCFDCFD4
:107F0000A601A0E0B1E02C9130E011968C91119780
:107F100090E0982F8827822B932B1296FA010C0160
:107F200087BEE89511244E5F5F4FF1E0A038BF0790
:107F300051F7F601A7BEE89507B600FCFDCF97BE46
:107F4000E89526C08437B1F42ED02DD0F82E2BD052
:107F50003CD0F601EF2C8F010F5F1F4F84911BD097
:107F6000EA94F801C1F70894C11CD11CFA94CF0C13
:107F7000D11C0EC0853739F428D08EE10CD085E9AC
:107F80000AD08FE07ACF813511F488E018D01DD067
:107F900080E101D065CF982F8091C00085FFFCCF94
:107FA0009093C60008958091C00087FFFCCF809118
:107FB000C00084FD01C0A8958091C6000895E0E648
:107FC000F0E098E1908380830895EDDF803219F02E
:107FD00088E0F5DFFFCF84E1DECF1F93182FE3DFCA
:107FE0001150E9F7F2DF1F91089580E0E8DFEE27F6
:047FF000FF270994CA
:027FFE00040479
:00000001FF
