:100000000C945C020C9484020C9484020C946D1089
:100010000C946D100C946D100C9484020C9484025A
:100020000C9484020C9484020C9484020C94B10FFE
:100030000C9484020C9484020C9484020C94840228
:100040000C940F0F0C9484020C947F0F0C94590F96
:100050000C9484020C9484020C9484020C94840208
:100060000C94E5100C948402E7B3BBE7BB9FE5B0AA
:10007000B1E7BBAA202D20E7AD89E5BE85E68C87D8
:10008000E4BBA42E2E2E00E9A29CE889B2E698A03B
:10009000E5B084E5AE8CE688902100E5BC80E5A75C
:1000A0008BE887AAE58AA8E9A29CE889B2E698A02D
:1000B000E5B0842E2E2E00E4B8A4E4B8AA474D364D
:1000C00035E6A8A1E59D97E5B0B1E7BBAA0050438E
:1000D0004139363835E5B0B1E7BBAA005043413964
:1000E000363835E5889DE5A78BE58C96E5A4B1E823
:1000F000B4A52100E9A29CE889B2E4BCA0E6849FF3
:10010000E599A8E5B0B1E7BBAA00E9A29CE889B2ED
:10011000E4BCA0E6849FE599A8E5889DE5A78BE56A
:100120008C96E5A4B1E8B4A52100E6ADA3E59CA8B2
:10013000E5889DE5A78BE58C9654434139353438E5
:10014000412E2E2E0037E3808138E3808139E58F00
:10015000B7E888B5E69CBAE5889DE5A78BE58C965F
:10016000E5AE8CE6889000E4BCA0E6849FE599A803
:10017000E888B5E69CBAE5889DE5A78BE58C96E511
:10018000AE8CE6889000493243E680BBE7BABFE513
:10019000889DE5A78BE58C96E5AE8CE6889000E619
:1001A000938DE4BD9CE5AE8CE688902CE8BF94E589
:1001B0009B9EE7A9BAE997B2E78AB6E68081003547
:1001C000E7A792E5B7B2E588B02CE6ADA3E59CA819
:1001D000E5A48DE4BD8DE888B5E69CBA2E2E2E00F0
:1001E000E99499E8AFAF3A20E69CAAE5AE8CE688A0
:1001F00090E9A29CE889B2E698A0E5B0842100E5E8
:100200008FB3E4BEA7E4BA8CE7BBB4E7A081E8AF44
:10021000BBE58F96E5A4B1E8B4A52CE6ADA3E59CBB
:10022000A8E5A48DE4BD8D2E2E2E00E5B08FE790BD
:1002300083E5B7B2E9878AE694BE2CE7AD89E5BECF
:100240008535E7A7922E2E2E00E58FB3E4BEA7E4F6
:10025000BA8CE7BBB4E7A081E695B0E68DAE3A2054
:1002600000E6ADA3E59CA8E8AFBBE58F96E58FB3AC
:10027000E4BEA7E4BA8CE7BBB4E7A0812E2E2E0023
:10028000E6ADA3E59CA8E694BEE4B88BE58FB3E4A5
:10029000BEA7E888B5E69CBA2E2E2E00E99499E810
:1002A000AFAF3A20E69CAAE5AE8CE68890E9A29C26
:1002B000E889B2E698A0E5B0842100E5B7A6E4BEDF
:1002C000A7E4BA8CE7BBB4E7A081E8AFBBE58F96A3
:1002D000E5A4B1E8B4A52CE6ADA3E59CA8E5A48D02
:1002E000E4BD8D2E2E2E00E5B08FE79083E5B7B2EA
:1002F000E9878AE694BE2CE7AD89E5BE8535E7A798
:10030000922E2E2E00E5B7A6E4BEA7E4BA8CE7BB7A
:10031000B4E7A081E695B0E68DAE3A2000E6ADA345
:10032000E59CA8E8AFBBE58F96E5B7A6E4BEA7E4D9
:10033000BA8CE7BBB4E7A0812E2E2E00E6ADA3E574
:100340009CA8E694BEE4B88BE5B7A6E4BEA7E8880F
:10035000B5E69CBA2E2E2E00E6A0A1E9AA8CE59265
:100360008CE99499E8AFAFE68896E995BFE5BAA61F
:10037000E4B88DE6ADA3E7A1AE2100E8BF9BE5851B
:10038000A5E58FB3E4BEA7E4BA8CE7BBB4E7A081D0
:10039000E8AF86E588ABE6A8A1E5BC8F2E2E2E003F
:1003A000E8BF9BE585A5E5B7A6E4BEA7E4BA8CE760
:1003B000BBB4E7A081E8AF86E588ABE6A8A1E5BCC1
:1003C0008F2E2E2E002C2064617461746872656516
:1003D0003D002C206461746174776F3D00E694B633
:1003E000E588B0E68C87E4BBA43A20646174616F51
:1003F0006E653D00E5B8A7E99499E8AFAF3A20E50E
:10040000B8A7E5B0BEE4B88DE6ADA3E7A1AE00E7BE
:10041000B3BBE7BB9FE5A484E4BA8EE7A9BAE9972A
:10042000B2E78AB6E68081202D20E68980E69C89A5
:10043000E888B5E69CBAE5B7B2E5A48DE4BD8D00C9
:10044000E4B8B2E58FA3E7BC93E586B2E58CBAE5E4
:10045000B7B2E6B885E7A9BA00000000002400277B
:10046000002A000000000800020100000304070049
:10047000000000000000000000000023002600290A
:100480000000000000250028002B000404040404E0
:100490000404040202020202020303030303030131
:1004A0000204081020408001020408102001020408
:1004B000081020001F121E1D11241FBECFEFD8E010
:1004C000DEBFCDBF14E0A0E0B1E0ECEAF4E402C08E
:1004D00005900D92A032B107D9F726E0A0E2B4E072
:1004E00001C01D92A038B207E1F712E0CBE5D2E0DF
:1004F00004C02197FE010E944020CA35D107C9F7E8
:100500000E947F120C9449220C94000008950895D3
:1005100090E0FC01ED59FB4F2491FC01E156FB4FAB
:100520003491FC01E557FB4FE491EE23C9F02223FF
:1005300039F0233001F1A8F4213019F1223029F1EA
:10054000F0E0EE0FFF1FEF57FB4FA591B4918FB76F
:10055000F894EC91611126C030953E233C938FBFF7
:1005600008952730A9F02830C9F0243049F7809148
:1005700080008F7D03C0809180008F778093800002
:10058000DFCF84B58F7784BDDBCF84B58F7DFBCF84
:100590008091B0008F778093B000D2CF8091B0006F
:1005A0008F7DF9CF3E2BDACFCF93DF9390E0FC0124
:1005B000E156FB4F249185579B4FFC018491882382
:1005C000D1F090E0880F991FFC01E75AFB4FA591ED
:1005D000B491FC01EF57FB4FC591D49161110EC04E
:1005E0009FB7F8948C91E22FE0958E238C9328810D
:1005F000E223E8839FBFDF91CF9108958FB7F894EE
:10060000EC91E22BEC938FBFF6CF0F931F93CF9318
:10061000DF93EC01162F042F1B821A8288EE93E0E1
:10062000A0E0B0E08C839D83AE83BF8381E591E041
:10063000998388831F8A1E8A198E188E1B8E1A8EA4
:100640001D8E1C8E6E8D6E7F6D7F6E8F66956170B8
:1006500081E06827842F0E94880261E0802F0E9439
:10066000D402802F90E0FC01E156FB4FE491E88B2F
:10067000FC01E557FB4FE491F0E0EE0FFF1FEF5751
:10068000FB4F859194919A8B898B60E0812F0E941A
:10069000D4028E8D81FD04C061E0812F0E9488020A
:1006A0001C87812F90E0FC01E156FB4FE491ED8720
:1006B000FC01E557FB4FE491F0E0EE0FFF1FE95816
:1006C000FB4F859194919F878E87DF91CF911F91EA
:1006D0000F9108953FB7F894809106059091070512
:1006E000A0910805B091090526B5A89B05C02F3F2C
:1006F00019F00196A11DB11D3FBFBA2FA92F982F48
:100700008827BC01CD01620F711D811D911D42E042
:10071000660F771F881F991F4A95D1F708958F920A
:100720009F92AF92BF92CF92DF92EF92FF924B01D6
:100730005C010E946A036B017C010E946A036C19D0
:100740007D098E099F09683E734081059105A8F3D4
:1007500021E0821A9108A108B10888EEC80E83E052
:10076000D81EE11CF11C81149104A104B10429F7E5
:10077000FF90EF90DF90CF90BF90AF909F908F90C1
:1007800008952FB7F8946091020570910305809148
:100790000405909105052FBF0895AF92BF92CF92A7
:1007A000DF92EF92FF920F931F93CF93DF936C0131
:1007B0007B018B01040F151FEB015E01AE18BF0812
:1007C000C017D10759F06991D601ED91FC910190C4
:1007D000F081E02DC6010995892B79F7C501DF91DC
:1007E000CF911F910F91FF90EF90DF90CF90BF902E
:1007F000AF900895FC01538D448D252F30E0842F58
:1008000090E0821B930B541710F0CF960895019738
:100810000895FC01918D828D981761F0A28DAE0F25
:10082000BF2FB11D5D968C91928D9F5F9F73928FAC
:1008300090E008958FEF9FEF0895FC01918D828DD8
:10084000981731F0828DE80FF11D858D90E00895A5
:100850008FEF9FEF0895FC01918D228D892F90E0FD
:10086000805C9F4F821B91098F739927089580E8C0
:1008700095E00E942B0421E0892B09F420E0822FCF
:10088000089580E090E0892B29F00E9437048111BF
:100890000C9400000895FC01A48DA80FB92FB11D80
:1008A000A35ABF4F2C91848D90E001968F739927A6
:1008B000848FA689B7892C93A089B1898C91837084
:1008C00080648C93938D848D981306C00288F3897D
:1008D000E02D80818F7D80830895EF92FF920F93AA
:1008E0001F93CF93DF93EC0181E0888F9B8D8C8DDC
:1008F00098131AC0E889F989808185FF15C09FB7D0
:10090000F894EE89FF896083E889F9898081837092
:10091000806480839FBF81E090E0DF91CF911F9141
:100920000F91FF90EF900895F62E0B8D10E00F5F62
:100930001F4F0F731127E02E8C8D8E110CC00FB638
:1009400007FCFACFE889F989808185FFF5CFCE01D0
:100950000E944B04F1CFEB8DEC0FFD2FF11DE35AFC
:10096000FF4FF0829FB7F8940B8FEA89FB89808153
:100970008062CFCF0F931F93CF93DF938C01D0E092
:10098000C0E0F801EC0FFD1F6491662341F080E8A0
:1009900095E00E946D04892B11F02196F2CFCE01D3
:1009A000DF91CF911F910F910895CF93DF93EC01C9
:1009B000888D8823B9F0AA89BB89E889F9898C9147
:1009C00085FD03C0808186FD0DC00FB607FCF7CF03
:1009D0008C9185FFF2CF808185FFEDCFCE010E9403
:1009E0004B04E9CFDF91CF910895CF92DF92EF9240
:1009F000FF92CF93DF93EC01603282E07807CCF571
:100A0000653B710514F064EB70E0898128E830E003
:100A1000281B310987FD3395220F331F220F331F07
:100A20006901330FEE08FF088A8128E532E0281BB0
:100A3000310987FD3395220F331F220F331F032EF9
:100A4000000C440B550B2C193D094E095F09DB01C5
:100A500077FF02C0B0E0A0E00E94821E24EB30E0ED
:100A600040E050E00E94581EC20ED31EE41EF51E48
:100A7000B601E881EC3070F5298188E890E0821BAE
:100A8000910927FD9395880F991F880F991F681763
:100A900079077CF02A8188E592E0821B910927FD85
:100AA0009395880F991F880F991F681779070CF481
:100AB000CB010297880F991F4FB7F8942E2F30E083
:100AC000F901EE0FFF1FE20FF31FE555FB4F928375
:100AD00081834FBFDF91CF91FF90EF90DF90CF9058
:100AE00008951F93CF93DF93EC01162F88818C30EC
:100AF00008F04EC061E0812F0E94D4028881282F27
:100B000030E0F901EE0FFF1FE20FF31FE555FB4F39
:100B10001F736081607C612B608319821A822CE0D4
:100B2000622F0E940520829FB001112430E020E056
:100B3000AB01420F531FFA01EE0FFF1FE40FF51F29
:100B4000E555FB4F908196FD16C02F5F3F4F2C302F
:100B5000310571F781110FC01092800082E08093FF
:100B600081001092850010928400B19A80916F00EC
:100B7000826080936F00E8818E2F90E0FC01EE0F81
:100B8000FF1FE80FF91FE555FB4F808180648083CC
:100B90008881DF91CF911F9108952091A704309112
:100BA000A8042817390771F49091A6048091A50430
:100BB000981741F0E091A604F0E0EB59FB4F8081DB
:100BC00090E008958FEF9FEF08950895EF92FF92C0
:100BD0000F931F93CF93DF93DC015C96ED90FC9015
:100BE0005D97E114F10479F481E090E013969C9311
:100BF0008E93129790E080E0DF91CF911F910F913B
:100C0000FF90EF9008955196ED91FC915297509678
:100C10008C915097982F90950FB75E962C915E9778
:100C2000122F127021FD6095F8942081112319F183
:100C3000282B2083E7012197F1F728E0462F50E089
:100C4000308160FF1AC0382B3083E7012197F1F71C
:100C5000BA0175956795215089F7112381F080813C
:100C6000892380830FBF5C968D919C910197F1F74A
:100C700081E090E0C1CF2923DCCF3923E5CF9081FB
:100C8000892BEFCF2091A7043091A80428173907AA
:100C900061F48091A5042091A60490E0805C9F4FB0
:100CA000821B91098F739927089590E080E0089541
:100CB0002091A7043091A80428173907B9F490911E
:100CC000A6048091A504981789F0E091A604F0E0AD
:100CD000EB59FB4F80812091A60430E02F5F3F4FFE
:100CE0002F7333272093A60490E008958FEF9FEF92
:100CF0000895E091A704F091A804E817F90769F4B2
:100D0000A389B4899C918589809589238C931092BD
:100D1000A8041092A70481E0089580E00895CF937D
:100D2000DF93EC018A8D9B8D892B01F18091A704C3
:100D30009091A8048C179D07C9F0009711F00E94AC
:100D400079068E8D8E7F8E8F1092A5041092A60448
:100D5000D093A804C093A704EB89FC8980819D8966
:100D6000892B808381E0DF91CF91089580E0FBCFD4
:100D700020914204260F3327331F21323105ECF432
:100D800020917A05FC0190E080E0243069F082E057
:100D90000895A09142042191AC014E5D5B4FA40FD8
:100DA000B52FB11D2C930196861798F380914204BC
:100DB000680F6093420480E0089581E008951092E6
:100DC0007A0581E0809359051092540561E082E133
:100DD0000E94880261E083E10E948802E9EBF0E072
:100DE00080818E7F808380818D7F808388E4809363
:100DF000B80085E48093BC00089510920F0510920E
:100E00000E0510921105109233050E94DF0686E848
:100E100092E090930D0580930C0587E892E0909303
:100E20000B0580930A050895CF93DF9391E090938B
:100E300021048823B9F0C091B800D091BA00809104
:100E4000BC008A7B8093BC0060E082E10E94880243
:100E500060E083E10E9488020E94DF06D093BA001E
:100E6000C093B800DF91CF9108958F929F92AF9277
:100E7000BF92CF92DF92EF92FF920F931F93CF9387
:100E8000DF93D82FC62F142F613208F09CC00E9428
:100E90006A036B017C0180917A0581116FC081E04A
:100EA00080937A05109359059FEF909358051092FF
:100EB00057059C0F909356058093550580915505D5
:100EC000DD0FD82BD093550580915405813009F062
:100ED0007CC0109254050E946A036B017C018091D2
:100EE00055058093BB0080917C0590917D05A09174
:100EF0007E05B0917F05892B8A2B8B2BA1F00E9458
:100F00006A0300917C0510917D0520917E0530914A
:100F10007F056C197D098E099F0906171707280799
:100F2000390708F44CC08091BC0083FDD8CF85EC14
:100F30008093BC000E946A036B017C0180917A055A
:100F4000813009F444C0809157058C1710F4C0918A
:100F50005705E4E3F5E0AAE5B5E080E08C1359C05D
:100F60008C2FDF91CF911F910F91FF90EF90DF9029
:100F7000CF90BF90AF909F908F90089580917C0507
:100F800090917D05A0917E05B0917F05892B8A2BDC
:100F90008B2B09F480CF0E946A0380907C0590908F
:100FA0007D05A0907E05B0907F056C197D098E09A6
:100FB0009F0986169706A806B90608F06CCF80919F
:100FC0007B050E941407C0E0CBCF85EEB1CF8091A6
:100FD0007C0590917D05A0917E05B0917F05892BC0
:100FE0008A2B8B2B09F4AACF0E946A0300917C05FF
:100FF00010917D0520917E0530917F056C197D094A
:101000008E099F09061717072807390708F096CF9A
:10101000D6CF91919D938F5FA1CF8F929F92AF92E8
:10102000BF92CF92DF92EF92FF920F931F93CF93D5
:10103000DF93D0913305D13208F0D7C0182FC0917B
:1010400032050E946A036B017C0180917A0581114F
:101050006BC082E080937A05109359058FEF8093DF
:10106000580510925705D0935605A2E1B5E0E4E388
:10107000F5E080E0D81391C0109255058091550598
:10108000CC0FC82BC093550580915405813009F0D1
:1010900088C0109254050E946A036B017C01809104
:1010A00055058093BB0080917C0590917D05A091B2
:1010B0007E05B0917F05892B8A2B8B2BA1F00E9496
:1010C0006A0300917C0510917D0520917E05309189
:1010D0007F056C197D098E099F09061717072807D8
:1010E000390708F442C08091BC0083FDD8CF85EC5D
:1010F0008093BC000E946A036B017C0180917A0599
:10110000823009F450C0809158058F3F09F46FC0B8
:1011100080915805803209F46CC080915805803365
:1011200009F469C084E026C080917C0590917D051A
:10113000A0917E05B0917F05892B8A2B8B2B09F41A
:1011400084CF0E946A0380907C0590907D05A090DA
:101150007E05B0907F056C197D098E099F09861662
:101160009706A806B90608F070CF80917B050E940B
:10117000140785E0109211051092330510921005A6
:10118000DF91CF911F910F91FF90EF90DF90CF9063
:10119000BF90AF909F908F9008959D9191938F5F96
:1011A00069CF85EEA5CF80917C0590917D05A091BA
:1011B0007E05B0917F05892B8A2B8B2B09F49ECF5E
:1011C0000E946A0300917C0510917D0520917E05A7
:1011D00030917F056C197D098E099F090617170745
:1011E0002807390708F08ACFC0CF81E0C3CF80E05D
:1011F000C1CF82E0BFCF83E0BDCF1F93CF93DF93FA
:10120000EA01122FDC0111968D919C91DC01ED9188
:10121000FC910280F381E02D0995C817D90729F4C4
:10122000812F0E940D0891E0811190E0892FDF91BC
:10123000CF911F910895CF93DF93EC018B81882389
:10124000A1F0888191E0909310058093320510926F
:1012500011051092330581E00E940D0891E0811183
:1012600090E0892FDF91CF9108950E94FD0681E0E3
:101270008B83CE010E941B09982F8111E2CFF1CF01
:10128000E0910F0580910E05E81730F4F0E0E65A82
:10129000FA4F808190E008958FEF9FEF089590912D
:1012A0000F0580910E052FEF3FEF981748F4E92FB7
:1012B000F0E0E65AFA4F208130E09F5F90930F05EF
:1012C000C901089580910E0590910F05891B990B16
:1012D0000895CF92DF92EF92FF920F931F93CF93D7
:1012E000DF937C01CB018A0120911005222389F034
:1012F000EB016B01C40ED51ECC15DD0569F06991BB
:10130000D701ED91FC910190F081E02DC701099585
:10131000F3CF642F0E94B806C801DF91CF911F91CF
:101320000F91FF90EF90DF90CF900895CF93DF93D0
:101330001F92CDB7DEB76983209110052223F9F003
:1013400020913305203258F021E030E0FC01338356
:10135000228390E080E00F90DF91CF9108958091FB
:101360001105E82FF0E0EE5EFA4F998190838F5FD0
:10137000809311058093330581E090E0ECCF61E02C
:10138000CE0101960E94B806F7CF682F86E296E05C
:101390000C94960990E080E0089541E0682F88E47D
:1013A0000E94350710920F0580930E050895CF9384
:1013B000DF9300D0CDB7DEB789836A83809135068D
:1013C00090913606FC01248135812230310590F060
:1013D000208131E0309310052093320510921105E1
:1013E0001092330521E042E050E0BE016F5F7F4F75
:1013F0000E94FD080F900F90DF91CF9108958F927A
:101400009F92AF92BF92CF92DF92EF92FF920F9393
:101410001F93CF93DF931F92CDB7DEB76B017C0193
:1014200020E030E040E85FE30E94341D87FD97C074
:1014300020E030EC4AE555E4C701B6010E940020E7
:1014400018160CF493C0609137067091380680919D
:10145000390690913A060E94391D4B015C0120E04B
:1014600030E040E855E4C701B6010E949A1D9B0197
:10147000AC01C501B4010E945F1F20E030E040E0F4
:101480005FE30E94F31E20E030E040E85FE30E944B
:10149000F21E6B017C0120E030E040E450E40E9449
:1014A000341D87FD6BC020E030E04FE753E4C701F7
:1014B000B6010E94002018160CF466C0C701B601E0
:1014C0000E94D11FB62E1982009135061091360662
:1014D000D80114968D919C911597892B09F45EC0C3
:1014E0008C9191E090931005809332051092110534
:1014F0001092330520E041E050E0BE016F5F7F4F66
:10150000C8010E94FD08882309F448C0F801E4805E
:10151000F58061E0E114F10409F460E0C62ED12CFD
:10152000462FD8018C910E94350710920F058093A9
:101530000E058C151D0491F590E080E08C159D053D
:1015400050F5F80181819281DC01ED91FC910284DA
:10155000F385E02D0995898381E090E0EFCFC12CE0
:10156000D12C30E8E32E3FE3F32E6DCFC12C20ECDD
:10157000D22E2AE5E22E25E4F22E65CFC12CD12C05
:1015800090E4E92EFE2C9ACFC12CD12C8FE7E82EC7
:1015900083E4F82E93CFEF2809F4B8CF1981612F97
:1015A0006F76606180E00E94D7096B2D8EEF0E94FC
:1015B000D709612F80E00E94D70965E070E080E0E4
:1015C00090E00E948F03612F606A80E00E94D7093B
:1015D0000F90DF91CF911F910F91FF90EF90DF90CF
:1015E000CF90BF90AF909F908F900895FC01019095
:1015F0000020E9F73197AF01481B590BBC0180E887
:1016000095E00C94CD03CF93DF930E94BA04EC01D4
:1016100083E891E00E94F60A8C0F9D1FDF91CF9125
:1016200008958F929F92AF92BF920F931F93CF9383
:10163000DF93CDB7DEB7A1970FB6F894DEBF0FBE2C
:10164000CDBF19A2423008F44AE08E010F5D1F4F52
:10165000842E912CB12CA12CA50194010E94C11EB5
:10166000E62FB901CA01EA30F4F4E05DD801EE9347
:101670008D01232B242B252B79F790E080E0109708
:1016800019F0CD010E94F60AA1960FB6F894DEBFBC
:101690000FBECDBFDF91CF911F910F91BF90AF9043
:1016A0009F908F900895E95CE1CFCF92DF92EF9207
:1016B000FF92CF93DF936C01990FEE08FF08F7FEBE
:1016C00019C06DE280E895E00E946D04EC01662788
:1016D0007727CB016C197D098E099F094AE00E948A
:1016E000110B8C0F9D1FDF91CF91FF90EF90DF903A
:1016F000CF9008954AE0C701B601DF91CF91FF90E6
:10170000EF90DF90CF900C94110BCF93DF93D0E04C
:10171000C0E0009719F00E94F60AEC0183E891E01E
:101720000E94F60A8C0F9D1FDF91CF91089583E2EE
:1017300090E0909317018093160163E270E08DE1D1
:1017400096E00E94F50486E891E00C94850B85EA0A
:1017500090E0909315018093140165EA70E080E2B7
:1017600096E00E94F50482EA91E00C94850B8AE5EC
:1017700090E090931901809318016AE570E083E28C
:1017800096E00E94F5048BEA91E00C94850B00979B
:1017900011F00C94F60A90E080E008951F93CF9327
:1017A000DF9300D000D01F92CDB7DEB7182F8AEAA2
:1017B000898383E08A831B838DEA810F8C8385E58F
:1017C0008D8345E050E0BE016F5F7F4F80E895E07C
:1017D0000E94CD038EEB91E00E94C70B612F70E059
:1017E00090E080E04AE00E94110B0F900F900F9064
:1017F0000F900F90DF91CF911F910895CF93DF93BA
:10180000682F70E090E080E04AE00E94110BEC014C
:1018100083E891E00E94F60A8C0F9D1FDF91CF9123
:101820000895CF93DF93C82FD1E0D093100580E7C0
:1018300080933205109211051092330581E00E94C9
:101840000D08882331F083ED91E0DF91CF910C9466
:10185000850BD0931005109211051092330581E08D
:1018600090E00C2E02C0880F991F0A94E2F70E94A4
:10187000C50981E00E940D08882339F087EE91E0C8
:101880000E94C70B8C2F0E94FE0B64E170E080E089
:1018900090E0DF91CF910C948F03EF92FF921F9312
:1018A000CF93DF9300D000D01F92CDB7DEB7182FB3
:1018B0007B0182E00E94110CD701A65ABF4FB7FFEF
:1018C00002C0B0E0A0E022EC31E00E94252024EB31
:1018D00030E040E050E00E94581EDA01C9018A560B
:1018E0009F4FAF4FBF4F110F110F1A5F19831A820D
:1018F0001B828C839D838091350690913606FC0176
:10190000248135812530310590F0208131E03093FC
:10191000100520933205109211051092330521E035
:1019200045E050E0BE016F5F7F4F0E94FD0864E616
:1019300070E080E090E00E948F030F900F900F9076
:101940000F900F90DF91CF911F91FF90EF9008952E
:1019500021E0019709F420E0822F0E94110C81E020
:101960008093100588E4809332051092110510923F
:1019700033058AEA90E00E94C50980E00E940D08C4
:1019800081E090E00E94CD0990910E0580910F05B5
:10199000981741F086E296E00E944F0921E08636D2
:1019A000910509F020E0822F0895CF93DF93FC0189
:1019B000448155816081718180E895E00E94CD036A
:1019C000EC0183E891E00E94F60A8C0F9D1FDF91E5
:1019D000CF910895FC0180819181009711F00C94C2
:1019E000E22008950F931F93CF93DF93EC0188813A
:1019F0009981009759F02A813B812617370730F0EB
:101A000081E0DF91CF911F910F9108958B016F5F5E
:101A10007F4F0E946B21009759F0998388831B8325
:101A20000A832C813D81232B59F7FC011082E8CFDA
:101A300080E0E7CFEF92FF920F931F93CF93DF9356
:101A4000EC017B018A01BA010E94F20C28813981E4
:101A5000811114C02115310519F0C9010E94E2203D
:101A6000198218821D821C821B821A82CE01DF918C
:101A7000CF911F910F91FF90EF9008951D830C83DC
:101A8000B701C9010E944222F1CF8F929F92AF927B
:101A9000BF92CF92DF92EF92FF920F931F93CF935B
:101AA000DF9300D0CDB7DEB78C016B01FC01118252
:101AB0001082138212821582148250E040E065E8A1
:101AC00071E00E941A0D0E94C1034B015C01C60126
:101AD0000E944206892B91F40E94C103681979097A
:101AE0008A099B09643671058105910538F461E026
:101AF00070E080E090E00E948F03E9CFC6010E9471
:101B00004206892B39F1C6010E94580689831A8240
:101B1000F801E480F580FFEFEF1AFF0AB701C80172
:101B20000E94F20C882379F0F801208131818481B0
:101B30009581BE016F5F7F4F820F931F0E944222EB
:101B4000F801F582E48262E070E080E090E00E94BB
:101B50008F03D4CFC8010F900F90DF91CF911F91C9
:101B60000F91FF90EF90DF90CF90BF90AF909F903C
:101B70008F90089585ED8093BC0080917C059091B5
:101B80007D05A0917E05B0917F050796A11DB11D31
:101B900023E0B695A795979587952A95D1F720913B
:101BA000BC0024FD03C010927A05089540917C0585
:101BB00050917D0560917E0570917F05452B462BE8
:101BC000472B69F30097A105B10541F02AE22A9558
:101BD000F1F700C00197A109B109E1CF80917B0520
:101BE0000C9414078F929F92AF92BF92CF92DF9284
:101BF000EF92FF920F931F93CF93DF9300D000D00B
:101C0000CDB7DEB72091F304211114C08DE092E02E
:101C10000F900F900F900F90DF91CF911F910F9128
:101C2000FF90EF90DF90CF90BF90AF909F908F90FC
:101C30000C94850BDC0114962D913C91232B09F417
:101C4000DDC07B018C018BE292E00E94C70BC701D3
:101C50000E94550B81E392E00E94C70BC8010E94CD
:101C6000D50CF801C480D580F12CE12CFDE4AF2E19
:101C7000F1E0BF2EEC14FD0409F4A2C0D801ED91EF
:101C8000FC913097B9F410922004E0E2F4E08081F6
:101C9000082E000C990B0E942822EEE3F1E022812D
:101CA000281759F03396AE16BF06C9F7BFEFEB1AE7
:101CB000FB0AE0CFEE0DFF1DEACF8032B9F3EEE371
:101CC000AE2EE1E0BE2EF50190E080E032813213CD
:101CD00079C0FC01EE0FFF1FE80FF91FE25CFE4F19
:101CE000C080D18010E000E0B601F50180819181D3
:101CF0000E9439227C01892B09F06FC0000F111F4F
:101D0000000F111FF801E752FB4F80819181B12C28
:101D1000A12C8F3F980729F09A838983AA24A39442
:101D2000B12C07521B4FD80112968D919C918F3F79
:101D3000980709F45EC0F501EE0FFF1FEC0FFD1FC1
:101D400092838183F50131965F0183E592E00E94E1
:101D5000C70BC6010E94C70B80E692E00E94C70B2A
:101D6000CE0101966C01450191E0891A9108D601D6
:101D70000D911D916D01C8010E94550BE814F904E5
:101D800024F483E792E00E94C70B6CE97FEFC8015F
:101D90000E944D0C64EF71E080E090E00E948F03A0
:101DA00070E060E0C8010E944D0CC7010196EE246E
:101DB000E394F12C8A159B05D4F286E792E028CFB4
:101DC00020E27DCF019633968530910509F07ECFD4
:101DD00065E0C62E62E0D62E85CF0F5F1F4FF3E081
:101DE000AF0EB11C0530110509F07ECF89E392E0FA
:101DF0000FCFA114B10409F0A8CFF8CF0F900F9026
:101E00000F900F90DF91CF911F910F91FF90EF9066
:101E1000DF90CF90BF90AF909F908F9008951F92CA
:101E20000F920FB60F9211242F933F938F939F938E
:101E3000AF93BF938091020590910305A091040593
:101E4000B09105053091010523E0230F2D3758F59A
:101E50000196A11DB11D2093010580930205909369
:101E60000305A0930405B0930505809106059091A4
:101E70000705A0910805B09109050196A11DB11DA6
:101E80008093060590930705A0930805B093090574
:101E9000BF91AF919F918F913F912F910F900FBE66
:101EA0000F901F90189526E8230F0296A11DB11DD3
:101EB000D2CF1F920F920FB60F9211242F933F9300
:101EC0004F935F936F937F938F939F93AF93BF9342
:101ED000EF93FF9380E895E00E944B04FF91EF9110
:101EE000BF91AF919F918F917F916F915F914F9132
:101EF0003F912F910F900FBE0F901F9018951F923A
:101F00000F920FB60F9211242F938F939F93EF93FD
:101F1000FF93E0919005F09191058081E091960505
:101F2000F091970582FD1BC09081809199058F5F8C
:101F30008F7320919A05821741F0E0919905F0E0A6
:101F4000E058FA4F958F80939905FF91EF919F91FB
:101F50008F912F910F900FBE0F901F901895808139
:101F6000F4CF1F920F920FB60F9211242F933F932D
:101F70004F935F936F937F938F939F93AF93BF9391
:101F8000CF93DF93EF93FF938091A904C091AA04AC
:101F9000D0E087FF24C010928500109284008091C9
:101FA000A9048F5F8093A9048091A904082E000CD6
:101FB000990B8C179D0724F48091A9048C30C4F1EF
:101FC0008091840090918500049680349C4908F4A7
:101FD0007AC08091840090918500049676C08091AB
:101FE000A904082E000C990B8C179D07C4F6E091EC
:101FF000A9048E2FEE0F990BFC01EE0FFF1FE80FC7
:10200000F91FE555FB4F808186FFC9CFE091A904F8
:102010008E2FEE0F990BFC01EE0FFF1FE80FF91F3B
:10202000E555FB4F808160E08F730E948802B7CF37
:102030002091840030918500E091A9048E2FEE0F4D
:10204000990BFC01EE0FFF1FE80FF91FE555FB4F41
:1020500081819281820F931F9093890080938800E1
:10206000E091A9048E2FEE0F990BFC01EE0FFF1FDC
:10207000E80FF91FE555FB4F808186FF11C0E09105
:10208000A9048E2FEE0F990BFC01EE0FFF1FE80F36
:10209000F91FE555FB4F808161E08F730E94880234
:1020A000FF91EF91DF91CF91BF91AF919F918F9170
:1020B0007F916F915F914F913F912F910F900FBE44
:1020C0000F901F90189580E49CE99093890080936D
:1020D00088008FEF8093A904E3CF1F920F920FB671
:1020E0000F9211242F933F934F935F936F937F939E
:1020F0008F939F93AF93BF93EF93FF93E091A704C8
:10210000F091A804309749F0A685B7858585968D0E
:1021100091FF14C09C918923A1F4FF91EF91BF918D
:10212000AF919F918F917F916F915F914F913F916F
:102130002F910F900FBE0F901F9018959C9189239F
:1021400061F7A389B4899C918589809589238C93B3
:10215000868997890197F1F7608D718DA685B7857E
:10216000558538E020E0CB010197F1F7822F90E010
:1021700095958795282F4C91452309F0206831507B
:1021800091F7868D81FD20958091A50490E00196C0
:102190008F7399273091A604381799F0A091A50460
:1021A000B0E0AB59BB4F2C938093A504828D938DE7
:1021B0000197F1F7A389B4898C919589892B8C9328
:1021C000ACCF868D8160868FF1CF1F920F920FB6B4
:1021D0000F9211242F933F934F935F936F937F93AD
:1021E0008F939F93AF93BF93EF93FF938091B90029
:1021F000887F803609F44AC0F0F5883209F4A7C018
:1022000018F5803109F49BC0B8F4882309F4F9C0AB
:10221000883009F494C0FF91EF91BF91AF919F91E5
:102220008F917F916F915F914F913F912F910F907F
:102230000FBE0F901F901895883109F488C0803226
:1022400051F78093580514C0803409F49DC040F4C0
:102250008033B9F38833F9F68093580585ECB0C024
:10226000803509F485C0883509F496C0883499F61C
:102270000E94BA0DD0CF883909F48CC038F5883760
:1022800029F050F4883611F0803729F683E08093E6
:102290007A051092640457C0883809F47BC08039ED
:1022A00019F0803809F0B7CF80916404803208F0CB
:1022B00071C0E091640481E08E0F8093640480918A
:1022C000BB00F0E0EC5BFB4F80833DC0803B39F00E
:1022D000E0F4803A09F479C0883A09F09CCF84E0B0
:1022E00080937A051092430410924204E0910C0509
:1022F000F0910D0509958091420481110FC081E094
:10230000809342041092220409C0803C09F4A6CFB5
:10231000883C09F4A3CF883B09F07DCFE0914304CA
:1023200081E08E0F80934304F0E0EE5DFB4F8081EF
:102330008093BB00909143048091420429C0809116
:1023400055058093BB0085EC8093BC0064CF9091D1
:10235000570580915605981758F5E091570581E08B
:102360008E0F80935705F0E0EC5CFA4F8081E9CF47
:10237000E091570581E08E0F809357058091BB0057
:10238000F0E0EC5CFA4F8083909157058091560500
:102390009817C8F285E8D8CFE091570581E08E0FF5
:1023A000809357058091BB00F0E0EC5CFA4F80838E
:1023B0008091590581115CCF81E08093540584EAB6
:1023C0008093BC0010927A0526CF85EC8093BC00E8
:1023D00010927A0580916404803230F4E0916404B4
:1023E000F0E0EC5BFB4F10826091640470E0E091E0
:1023F0000A05F0910B0584E494E0099510926404B9
:102400000ACF1092580534CFFC019091AA049C3059
:1024100098F481E0890F8093AA049083892F90E03B
:10242000FC01EE0FFF1FE80FF91FE555FB4F88EB8E
:102430009BE09283818308958FEF80830895CF93EB
:10244000DF93E0E8F5E01382128288EE93E0A0E0EB
:10245000B0E084839583A683B78323E631E031839C
:10246000208325EC30E03587248724EC30E0378763
:10247000268720EC30E0318B208B21EC30E0338B51
:10248000228B22EC30E0358B248B26EC30E0378B2E
:10249000268B118E128E138E148EC6E2D6E01B820E
:1024A0001A828C839D83AE83BF8385E791E09983F5
:1024B000888383E296E00E94041280E296E00E9404
:1024C00004128DE196E00E940412E2E3F6E080E45B
:1024D0008083D283C183148213824BE06AE08AE551
:1024E00096E00E9405034DE06CE08BE396E00E94CD
:1024F000050389E796E0DF91CF910C940412CF9306
:10250000DF93CDB7DEB76E970FB6F894DEBF0FBE80
:10251000CDBF789484B5826084BD84B5816084BD6C
:1025200085B5826085BD85B5816085BD80916E0071
:10253000816080936E0010928100809181008260A2
:1025400080938100809181008160809381008091DF
:1025500080008160809380008091B10084608093CE
:10256000B1008091B00081608093B00080917A00CA
:10257000846080937A0080917A00826080937A00F0
:1025800080917A00816080937A0080917A008068DF
:1025900080937A001092C100E0919005F09191052E
:1025A00082E08083E0918C05F0918D051082E091AE
:1025B0008E05F0918F0580E1808310929805E0915F
:1025C0009405F091950586E08083E0919205F09165
:1025D0009305808180618083E0919205F09193055D
:1025E000808188608083E0919205F09193058081DD
:1025F00080688083E0919205F091930580818F7DC2
:10260000808360ED77E080E090E00E948F030E947D
:10261000FD0686E891E00E94030B66E070E089E722
:1026200096E00E94710570E060E089E796E00E9404
:10263000F50464EF71E080E090E00E948F0364EBAA
:1026400070E089E796E00E94F50464EF71E080E0B5
:1026500090E00E948F0370E060E089E796E00E94BE
:10266000F50464E670E080E090E00E948F0310E0E3
:1026700000E0B80189E796E00E94F50468E070E0A8
:1026800080E090E00E948F030F5F1F4F053B110514
:1026900081F764E670E080E090E00E948F0304EB35
:1026A00010E0B80189E796E00E94F50468E070E068
:1026B00080E090E00E948F030150110990F764E6DA
:1026C00070E080E090E00E948F0387E691E00E9436
:1026D000030B67E070E083E296E00E9471056AE513
:1026E00070E083E296E00E94F5048AE590E0909322
:1026F00019018093180168EE73E080E090E00E9479
:102700008F038BE992E00E94850B68E070E080E225
:1027100096E00E94710565EA70E080E296E00E9412
:10272000F50485EA90E0909315018093140168EE1A
:1027300073E080E090E00E948F0387EB92E00E94BC
:10274000850B69E070E08DE196E00E94710563E21F
:1027500070E08DE196E00E94F50483E290E09093B2
:1027600017018093160168EE73E080E090E00E940C
:102770008F0380ED92E00E94850B85E491E00E943A
:10278000030B8AE291E00E94030BE5E0EE2EF12CB0
:1027900010E000E001110C94E51B81E090E00E9444
:1027A000A80C082F62E370E080E090E00E948F03A5
:1027B00011110C94DA1B82E090E00E94A80C182FF3
:1027C00062E370E080E090E00E948F03002319F044
:1027D0001111F3C701E064E670E080E090E00E9430
:1027E0008F0331E0E31AF108A9F689EE92E00E9426
:1027F000C70B8CE792E0002311F088E792E00E947B
:10280000850B8AEF92E00E94C70B8CE792E01123C0
:1028100011F088E792E00E94850B002309F44FC273
:10282000112309F44CC284EF90E00E94030B82E074
:102830000E94110C62E370E080E090E00E948F0340
:102840008091350690913606009709F03DC286E0EA
:1028500090E00E9446208C018091330690913406CE
:1028600020913206F801208392838183138280E2D3
:1028700090E09583848310933606009335060E947A
:10288000FD0681E0F8018383C8010E941B098823AB
:1028900009F41DC260E880E00E94D7096AE070E098
:1028A00080E090E00E948F0380E498E7ADE7B1E01C
:1028B0008093370690933806A0933906B0933A0672
:1028C00060E070E08AE794E40E94FF0960E070E055
:1028D00088E492E40E94FF098EEC90E00E94030BD2
:1028E0008AE596E00E94F41B8BE396E00E94F41BBD
:1028F00087EB90E00E94030BAFECB4E029ED34E0ED
:102900003E8B2D8B29ED34E0E9EDF4E08FEF9FEF66
:102910001D921D92918380839383828334962A171C
:102920003B07B1F78BE990E00E94030B70E060E099
:1029300089E796E00E94F5046CED75E080E090E098
:102940000E948F0380E291E09C8B8B8B1E0197E0AD
:10295000290E311CFE013196FE87ED8703E010E061
:10296000EB89FC89E080F180228133813A8F298FC5
:10297000848195819C8F8B8F8BE093E00E94C70BA5
:10298000C7010E944F1CB70189E796E00E94F50439
:102990006CED75E080E090E00E948F03F10126E08D
:1029A00011922A95E9F7ED85FE8526E011922A9588
:1029B000E9F773E0E72EF12C188E1F8A1A8A198A1C
:1029C000188A1F86512C412C712C612C912C812C42
:1029D00061E070E0C1010E949B1C61E070E0CE01EB
:1029E00001960E945D1CAF80B884C984DA848B850F
:1029F0009C859E8F8D8F8EE193E00E94C70BC50151
:102A00000E94550B8FE293E00E94C70BC6010E9403
:102A1000550B8FE293E00E94C70B8D8D9E8D0E9417
:102A2000550B81E393E00E94C70B89819A810E9434
:102A3000550B8FE293E00E94C70B8B819C810E9413
:102A4000550B8FE293E00E94C70B8D819E810E94FF
:102A50004F1C8F8198858F3F910519F014F08FEFEF
:102A600090E097FF02C090E080E0880E991E898573
:102A70009A858F3F910519F014F08FEF90E097FF42
:102A800002C090E080E0680E791E8B859C858F3FA8
:102A9000910519F014F08FEF90E097FF02C090E0DD
:102AA00080E0480E591E89819A81EF85F889E80FE8
:102AB000F91FF88BEF878B819C8129893A89280F30
:102AC000391F3A8B298B8D819E81EF89F88DE80F14
:102AD000F91FF88FEF8B6AE070E080E090E00E94D1
:102AE0008F03F1E0EF1AF10809F072CFC401B801C9
:102AF0000E9411205B01C301B8010E9411206B01EB
:102B0000C201B8010E9411207B018F859889B8010C
:102B10000E9411207A83698389899A89B8010E9469
:102B200011207C836B838F89988DB8010E941120BE
:102B30007E836D838EE193E00E94C70BC5010E94E6
:102B4000550B8FE293E00E94C70BC6010E94550B04
:102B50008FE293E00E94C70BC7010E94550B81E3EF
:102B600093E00E94C70B89819A810E94550B8FE2E6
:102B700093E00E94C70B8B819C810E94550B8FE2D2
:102B800093E00E94C70B8D819E810E944F1CC5015E
:102B9000885C9109C89710F5C6018A5A9109863553
:102BA0009105E0F42FEFE216F10409F0B8F4498141
:102BB0005A81CA018A5A9109C89780F42B813C81B5
:102BC000273E310558F48D819E81825891098437C2
:102BD000910520F4421753070CF475C2C5018E5BB2
:102BE000910982349105E8F4C6018E5B9109823423
:102BF0009105B8F4C7018E5B91098234910588F480
:102C000089819A81823E910560F48B819C818D3D02
:102C1000910538F48D819E81845B9109CD9708F4EC
:102C200057C2C5018D97833D910508F5C6018659A8
:102C300091098A369105D8F4C701885791098838D7
:102C40009105A8F489819A818E569109459778F467
:102C50008B819C818B5491098734910540F48D813F
:102C60009E81845691098234910508F436C2C501CB
:102C7000865991098A36910578F53BE5C316D1044A
:102C8000C8F489E7E816F104A8F489819A81C3970A
:102C900088F48B819C81805591098739910550F486
:102CA0008D819E818654910962E9E62E62E0F62EBE
:102CB000C397C8F195E0E92E92E0F92E34C08AE07E
:102CC00091E00E94030BFFCF0E94E220C0CD8CED6B
:102CD00090E00E94030BFFCF9DE3A916B10450F7CB
:102CE000E4E1CE1AD108F1E5CF16D10418F728E2B5
:102CF000E21AF1083FE6E316F104E0F689819A81D1
:102D000082589109C397B0F68B819C814497823E8B
:102D1000910580F68D819E814E9756E9E52E52E011
:102D2000F52EC39738F6698D7A8DC7010E94D91C9C
:102D30008AE393E00E94C70BC7010E94C70B8DE492
:102D400093E00E94C70B898D9A8D0E944F1C62E30D
:102D500070E080E090E00E948F03F10126E0119284
:102D60002A95E9F7ED85FE8526E011922A95E9F787
:102D700083E0C82ED12C912C812C1A8A198A188AAA
:102D80001F86712C612C512C412CF12CE12C62E01E
:102D900070E0C1010E949B1C62E070E0CE010196D0
:102DA0000E945D1C8F819885988F8F8BA984BA842F
:102DB000EB85FC85FA8FE98F8BE593E00E94C70BCA
:102DC0008F89988D0E94550B8FE293E00E94C70B6C
:102DD000C5010E94550B8FE293E00E94C70B898DBD
:102DE0009A8D0E94550B81E393E00E94C70B898165
:102DF0009A810E94550B8FE293E00E94C70B8B8152
:102E00009C810E94550B8FE293E00E94C70B8D813D
:102E10009E810E944F1C8F8198858F3F910519F0EC
:102E200014F08FEF90E097FF02C090E080E0E80E92
:102E3000F91E89859A858F3F910519F014F08FEF5F
:102E400090E097FF02C090E080E0480E591E8B850D
:102E50009C858F3F910519F014F08FEF90E097FF5C
:102E600002C090E080E0680E791E89819A812F85EA
:102E70003889280F391F388B2F878B819C81E989EE
:102E8000FA89E80FF91FFA8BE98B8D819E81880EF4
:102E9000991E6AE070E080E090E00E948F03F1E00C
:102EA000CF1AD10809F073CFC701B8010E941120D1
:102EB0007B01C201B8010E9411206B01C301B8015E
:102EC0000E9411205B018F859889B8010E94112012
:102ED0007A83698389899A89B8010E9411207C8349
:102EE0006B83C401B8010E9411207E836D838BE542
:102EF00093E00E94C70BC7010E94550B8FE293E03D
:102F00000E94C70BC6010E94550B8FE293E00E94FE
:102F1000C70BC5010E94550B81E393E00E94C70BCC
:102F200089819A810E94550B8FE293E00E94C70B22
:102F30008B819C810E94550B8FE293E00E94C70B0E
:102F40008D819E810E944F1CC701885C9109C897A2
:102F500000F5C601885C9109C897D8F42FEFA21636
:102F6000B10409F0B0F489819A81865991098234BB
:102F7000910578F48B819C818C5891098B35910552
:102F800040F48D819E81885791098E37910508F410
:102F9000A9C0C7018E5B910982349105E8F4C6018E
:102FA0008E5B910982349105B8F4C5018E5B91095D
:102FB0008234910588F489819A81873E910560F475
:102FC0008B819C81893C910538F48D819E81885C40
:102FD0009109899708F45FC1C701CC978B3591059A
:102FE00000F5C601805A910980369105D0F4C501DB
:102FF00080559109803B9105A0F489819A818E5674
:103000009109459770F48B819C81C7978B3A910504
:1030100040F48D819E81845691098735910508F48D
:103020003FC1C70144978C3E9105E8F437EEC316C3
:10303000D104C8F48FEFA816B10409F0A0F4898177
:103040009A81813F910578F48B819C818654910906
:103050008B3A910540F48D819E81855591098A3680
:10306000910508F422C192E3E91AF108E0E6EE16B0
:10307000F10470F4FEE6CF1AD1082DE3C216D10494
:1030800038F436E9A31AB10887E4A816B104B0F001
:1030900089819A8182589109C39708F00BC18B816D
:1030A0009C8180559109863A910508F003C18D8174
:1030B0009E814E978135910508F0FCC076E9E72E98
:1030C00072E0F72E13C04FE7E42E42E0F42E2BCE31
:1030D00036E8E32E32E0F32E26CE2CE8E22E22E074
:1030E000F22E21CEBFE7EB2EB2E0FB2E6B8D7C8D56
:1030F000C7010E94D91C8CE693E00E94C70BC70150
:103100000E94C70B8DE493E00E94C70B8B8D9C8DB2
:103110000E944F1CEB89FC893696FC8BEB8B2EE3CF
:1031200031E02E173F0709F01BCC70E060E089E723
:1031300096E00E94F50468EE73E080E090E00E9463
:103140008F0381E08093F3048FE793E00E94850B67
:103150008EE993E00E94850B50E0E52E51E0F52EBC
:1031600010E000E081EB93E00E94C70BC8010E94D1
:10317000550B8CE293E00E94C70BF701819191916E
:103180007F010E94850B0F5F1F4F0A30110551F719
:103190008CEB93E00E94850B0EE311E04DEEE42EE4
:1031A00044E0F42E81ED93E00E94C70BF80180818A
:1031B00091810E94C70B8CE293E00E94C70BED89BE
:1031C000FE89808191818F3F980731F00E94550BD5
:1031D00082ED93E00E94C70BED89FE898281938185
:1031E0008F3F980731F00E94550B82ED93E00E94CB
:1031F000C70B83E891E00E94F60A0D5F1F4F2D89EF
:103200003E892C5F3F4F3E8B2D8BE216F30651F625
:1032100084ED93E00E94850B87E890E00E94030B09
:103220001092FC041092F404109200051092FF0416
:1032300088E690E00E94030B80E0482E80E0582E44
:1032400094EBE92EF12C23E0C22ED12C32E0A32EF8
:10325000B12C772473948091FF0490910005813004
:10326000910509F4E7C058F18230910509F4A5C130
:10327000039709F46DC26AE070E080E090E00E947C
:103280008F034114510439F30E943704882319F342
:103290000E940000E0CFA6E8EA2EA2E0FA2E26CF98
:1032A000FCE8EF2EF2E0FF2E21CFE2E9EE2EE2E085
:1032B000FE2E1CCF65E0E62E62E0F62E17CF809141
:1032C000FE04811112C080E895E00E942B041816BC
:1032D00019062CF480E895E00E940904F4CF70925E
:1032E000FE0480E494E00E94030B8091FD048111B0
:1032F0000CC00E94B70B0E94A70B0E94970B709204
:10330000FD048FE094E00E94030B80E895E00E94AA
:103310002B041816190634F580E895E00E9409047C
:10332000E091FC04E11107C08A3A29F47092FC0490
:103330008093F504EACF9FEF9E0F963080F491E0E2
:103340009E0F9093FC04F0E0EB50FB4F808397308E
:10335000E1F6853509F034C27092F404D6CF1092AC
:10336000FC04D3CF8091F404882309F484CF8091A6
:10337000F5048A3A09F049C08091FB04853509F0CB
:1033800044C09091F6040091F7041091F8049090D5
:10339000F904892F800F8655810F890D2091FA0439
:1033A000281343C0933009F040C08DED93E00E9494
:1033B000BA04602F70E090E080E04AE00E94110BB8
:1033C00082ED93E00E94BA04612F70E090E080E00B
:1033D0004AE00E94110B85EC93E00E94BA04892D0B
:1033E0000E94FE0B31E0931210C0013099F480EA84
:1033F00093E00E94030B81E090E09093000580939E
:10340000FF041092FD041092FE041092FC0410922E
:10341000F40431CF1130C9F78BE793E00E94030B1E
:10342000B0920005A092FF04ECCF88E593E00E94E3
:10343000030BEBCF8CE393E00E94030B809114010C
:103440009091150197FF04C010921501109214017C
:1034500080901401909015018FE5881A9108909240
:10346000150180921401B40180E296E00E94F504F7
:10347000F092EE04E092ED040091ED041091EE0460
:103480000815190594F0B80180E296E00E94F50451
:103490006AE070E080E090E00E948F030150110923
:1034A0001093EE040093ED04E7CF81EF93E00E94C8
:1034B000850B80911801909119014496853B9105E7
:1034C0000CF05DC090931901809318016091180170
:1034D0007091190183E296E00E94F50468EE73E0B2
:1034E00080E090E00E948F038091F304882309F428
:1034F00056C08DE193E00E94030B8AE596E00E949E
:103500008F066AE576E0C1010E94450D8B859C859A
:10351000892BD1F185E093E00E94BA04C1010E9499
:10352000D50C1A8219821C821B821E821D826F8119
:1035300078856115710531F04B855C85CE0101966A
:103540000E941A0D61E070E0CE0101960E94F20D1A
:10355000CE0101960E94EA0C0E94C1036093EF0421
:103560007093F0048093F1049093F204D0920005DC
:10357000C092FF0487EE92E00E94030B0CC0F09211
:103580001901E0921801A2CF8BEB92E00E94030B8D
:1035900080E00E94CE0BC1010E94EA0C07C08CE9BA
:1035A00092E00E94030B80E00E94CE0B62E370E089
:1035B00080E090E00E948F035ECE80E892E00E945F
:1035C000030B80911601909117018D589F4F853BF9
:1035D000910554F590931701809316018090160180
:1035E00090901701B4018DE196E00E94F5041092CD
:1035F000EE041092ED040091ED041091EE0480169B
:103600009106BCF0B8018DE196E00E94F5046FE0F0
:1036100070E080E090E00E948F030F5F1F4F1093D7
:10362000EE040093ED04E7CFF0921701E09216014B
:10363000D5CF84E094E00E94850B80911801909191
:103640001901449797FD5FC0909319018093180169
:10365000609118017091190183E296E00E94F504CF
:1036600087E194E00E94850B68EE73E080E090E0D3
:103670000E948F038091F304882309F459C081E6E6
:1036800092E00E94030B8BE396E00E948F066BE3AF
:1036900076E0C1010E94450D8B859C85892BC1F187
:1036A00089E492E00E94BA04C1010E94D50C1A82FA
:1036B00019821C821B821E821D826F817885611592
:1036C000710531F04B855C85CE0101960E941A0D83
:1036D00062E070E0CE0101960E94F20DCE010196EB
:1036E0000E94EA0C0E94C1036093EF047093F004FF
:1036F0008093F1049093F204D0920005C092FF04ED
:103700008BE292E039CF1092190110921801A0CFEC
:103710008FEF91E00E94030B0E94970B0E94B70B62
:1037200080E00E94CE0B109200051092FF0433CF70
:1037300080EE91E00E94030B0E94970B0E94B70B52
:1037400080E00E94CE0B109200051092FF042ECF55
:103750000E94C1030091EF041091F0042091F10444
:103760003091F204601B710B820B930B683873412C
:103770008105910508F47FCD8FEB91E00E94030B4A
:103780000E94B70B0E94A70B0E94970B81E00E943A
:10379000CE0B8FE991E00E94030B1092000510926E
:1037A000FF041092EF041092F0041092F1041092B2
:1037B000F20461CD002309F40EC811E001E015C840
:1037C0001092FC0484EF93E09ECD1111F6CF82E0BD
:1037D00090E00E94A80C182F62E370E080E090E077
:1037E0000E948F030C94E813FC01138E128E118E2D
:1037F000108E178A168A8DE991E0958F848F8485C3
:103800008631D8F52DEB30E0378B268B2BE931E074
:10381000318F208F2CE231E0338F228F909168001E
:10382000883070F121E08E3008F420E081E001C0A2
:10383000880F2A95EAF7892B8093680084852DE606
:1038400030E0883050F02BE630E08E3030F02CE65F
:1038500030E0863110F030E020E0348B238B282FCD
:1038600030E0883078F491E001C0990F8A95EAF74A
:10387000958B848D958D0197F1F7CF010C948F0670
:1038800084E0D9CF8E3040F42850310991E001C056
:10389000990F2A95EAF7ECCF2E503109F7CFCF9345
:1038A000DF930E94550BEC0183E891E00E94F60A39
:1038B0008C0F9D1FDF91CF9108950F931F93CF938E
:1038C000DF938C0181E06130710509F480E00E9492
:1038D000110C81E08093100588E4809332051092EA
:1038E00011051092330581ED90E00E94C50980E03A
:1038F0000E940D0883E090E00E94CD09E8010A5F74
:103900001F4F90910E0580910F05981751F0C01729
:10391000D10739F086E296E00E944F098993999386
:10392000F0CF6AE070E080E090E0DF91CF911F91EE
:103930000F910C948F030F931F93CF93DF938C0100
:1039400081E06130710509F480E00E94110C81E092
:103950008093100588E4809332051092110510922F
:10396000330580ED90E00E94C50980E00E940D08BB
:1039700083E090E00E94CD09E8010A5F1F4F90911B
:103980000E0580910F05981751F0C017D10739F037
:1039900086E296E00E944F0989939993F0CF6AE0FE
:1039A00070E080E090E0DF91CF911F910F910C9437
:1039B0008F03CF92DF92EF92FF920F931F93CF93DB
:1039C000DF936C018B01FB01EE0FFF1FE050FF4FF7
:1039D000918380835EE3E52E51E0F52ED0E0C0E0D8
:1039E000B601F701808191810E943922892BF1F47F
:1039F000CC0FDD1FFE01E153FB4F808191818230AE
:103A000091055CF4C80FD91FCC0FDD1FC752DB4FE7
:103A100019830883019691838083DF91CF911F9151
:103A20000F91FF90EF90DF90CF9008952196F3E0F3
:103A3000EF0EF11CC530D10599F6EFCFCF93DF9390
:103A4000C1E5D1E0D0933C06C0933B068BE396E002
:103A50000E947906D0935B06C0935A068AE596E0E9
:103A6000DF91CF910C9479060E94761D08F481E0D5
:103A70000895E89409C097FB3EF490958095709561
:103A800061957F4F8F4F9F4F9923A9F0F92F96E9AA
:103A9000BB279395F695879577956795B795F1111F
:103AA000F8CFFAF4BB0F11F460FF1BC06F5F7F4FBC
:103AB0008F4F9F4F16C0882311F096E911C07723CE
:103AC00021F09EE8872F762F05C0662371F096E8D7
:103AD000862F70E060E02AF09A95660F771F881FA6
:103AE000DAF7880F9695879597F90895990F00084A
:103AF000550FAA0BE0E8FEEF16161706E807F907C0
:103B0000C0F012161306E407F50798F0621B730B5A
:103B1000840B950B39F40A2661F0232B242B252BDB
:103B200021F408950A2609F4A140A6958FEF811D7E
:103B3000811D08950E94AD1D0C941E1E0E94101E32
:103B400038F00E94171E20F0952311F00C94071EE8
:103B50000C940D1E11240C94521E0E942F1E70F303
:103B6000959FC1F3950F50E0551F629FF001729F22
:103B7000BB27F00DB11D639FAA27F00DB11DAA1F31
:103B8000649F6627B00DA11D661F829F2227B00D7E
:103B9000A11D621F739FB00DA11D621F839FA00D09
:103BA000611D221F749F3327A00D611D231F849F59
:103BB000600D211D822F762F6A2F11249F575040B0
:103BC0009AF0F1F088234AF0EE0FFF1FBB1F661F2B
:103BD000771F881F91505040A9F79E3F510580F0F4
:103BE0000C94071E0C94521E5F3FE4F3983ED4F3EE
:103BF000869577956795B795F795E7959F5FC1F798
:103C0000FE2B880F911D9695879597F9089597F942
:103C10009F6780E870E060E008959FEF80EC089572
:103C200000240A941616170618060906089500249B
:103C30000A9412161306140605060895092E039415
:103C4000000C11F4882352F0BB0F40F4BF2B11F489
:103C500060FF04C06F5F7F4F8F4F9F4F089557FDE8
:103C60009058440F551F59F05F3F71F04795880FEA
:103C700097FB991F61F09F3F79F087950895121681
:103C800013061406551FF2CF4695F1DF08C016162D
:103C900017061806991FF1CF8695710561050894DE
:103CA0000895E894BB2766277727CB0197F90895F5
:103CB000052E97FB1EF400940E946F1E57FD07D03F
:103CC0000E94C11E07FC03D04EF40C946F1E509549
:103CD0004095309521953F4F4F4F5F4F08959095F8
:103CE0008095709561957F4F8F4F9F4F08950E94EB
:103CF000E31EA59F900DB49F900DA49F800D911D74
:103D000011240895B7FF0C94771E0E94771E821B22
:103D1000930B08952F923F924F925F926F927F92F2
:103D20008F929F92AF92BF92CF92DF92EF92FF92CB
:103D30000F931F93CF93DF93CDB7DEB7CA1BDB0B77
:103D40000FB6F894DEBF0FBECDBF09942A8839881C
:103D500048885F846E847D848C849B84AA84B98423
:103D6000C884DF80EE80FD800C811B81AA81B9812F
:103D7000CE0FD11D0FB6F894DEBF0FBECDBFED0143
:103D80000895A1E21A2EAA1BBB1BFD010DC0AA1F9C
:103D9000BB1FEE1FFF1FA217B307E407F50720F0B4
:103DA000A21BB30BE40BF50B661F771F881F991F2F
:103DB0001A9469F760957095809590959B01AC0178
:103DC000BD01CF010895A29FB001B39FC001A39F81
:103DD000700D811D1124911DB29F700D811D112444
:103DE000911D08955058BB27AA270E940A1F0C94C2
:103DF0001E1E0E94101E38F00E94171E20F039F47B
:103E00009F3F19F426F40C940D1E0EF4E095E7FB89
:103E10000C94071EE92F0E942F1E58F3BA17620751
:103E200073078407950720F079F4A6F50C94511ECA
:103E30000EF4E0950B2EBA2FA02D0B01B9019001C5
:103E40000C01CA01A0011124FF27591B99F0593F09
:103E500050F4503E68F11A16F040A22F232F342F51
:103E60004427585FF3CF469537952795A795F0409F
:103E70005395C9F77EF41F16BA0B620B730B840BB4
:103E8000BAF09150A1F0FF0FBB1F661F771F881F6C
:103E9000C2F70EC0BA0F621F731F841F48F48795C4
:103EA00077956795B795F7959E3F08F0B0CF9395B6
:103EB000880F08F09927EE0F9795879508950E942F
:103EC000731F0C941E1E0E94171E58F00E94101E95
:103ED00040F029F45F3F29F00C94071E51110C9417
:103EE000521E0C940D1E0E942F1E68F39923B1F3ED
:103EF000552391F3951B550BBB27AA276217730710
:103F0000840738F09F5F5F4F220F331F441FAA1FA3
:103F1000A9F335D00E2E3AF0E0E832D0915050405F
:103F2000E695001CCAF72BD0FE2F29D0660F771F0D
:103F3000881FBB1F261737074807AB07B0E809F0F3
:103F4000BB0B802DBF01FF2793585F4F3AF09E3F78
:103F5000510578F00C94071E0C94521E5F3FE4F359
:103F6000983ED4F3869577956795B795F7959F5FBB
:103F7000C9F7880F911D9695879597F90895E1E007
:103F8000660F771F881FBB1F621773078407BA0766
:103F900020F0621B730B840BBA0BEE1F88F7E095C1
:103FA00008950E94371E88F09F5798F0B92F9927DF
:103FB000B751B0F0E1F0660F771F881F991F1AF014
:103FC000BA95C9F714C0B13091F00E94511EB1E00A
:103FD00008950C94511E672F782F8827B85F39F009
:103FE000B93FCCF3869577956795B395D9F73EF4AD
:103FF00090958095709561957F4F8F4F9F4F089555
:104000000E94761D08F48FEF0895991B79E004C093
:10401000991F961708F0961B881F7A95C9F7809507
:10402000089597FB072E16F4009407D077FD09D06A
:104030000E942C2007FC05D03EF4909581959F4F5F
:104040000895709561957F4F08950E94E31EB7FF14
:104050000895821B930B0895AA1BBB1B51E107C057
:10406000AA1FBB1FA617B70710F0A61BB70B881F08
:10407000991F5A95A9F780959095BC01CD01089597
:10408000EE0FFF1F0590F491E02D09940F931F93FD
:10409000CF93DF938230910510F482E090E0E091BD
:1040A0007E06F0917F0630E020E0B0E0A0E030979F
:1040B00099F42115310509F44AC0281B390B243025
:1040C0003105D8F58A819B816115710589F1FB0164
:1040D00093838283FE0111C040815181028113814B
:1040E00048175907E0F04817590799F4109761F0FD
:1040F00012960C93129713961C933296CF01DF9170
:10410000CF911F910F91089500937E0610937F0623
:10411000F4CF2115310551F04217530738F0A901AA
:10412000DB019A01BD01DF01F801C1CFEF01F9CF39
:1041300090937F0680937E06CDCFFE01E20FF31FA2
:10414000819391932250310939832883D7CF2091CD
:104150007C0630917D06232B41F420911C01309187
:104160001D0130937D0620937C0620911A01309129
:104170001B012115310541F42DB73EB740911E01B9
:1041800050911F01241B350BE0917C06F0917D06B8
:10419000E217F307A0F42E1B3F0B2817390778F01E
:1041A000AC014E5F5F4F2417350748F04E0F5F1F7D
:1041B00050937D0640937C06819391939FCFF0E0CE
:1041C000E0E09CCFCF93DF930097E9F0FC013297BA
:1041D00013821282A0917E06B0917F06ED0130E03D
:1041E00020E01097A1F420813181820F931F20914C
:1041F0007C0630917D062817390709F061C0F093DD
:104200007D06E0937C06DF91CF910895EA01CE17F9
:10421000DF07E8F54A815B819E0141155105B1F741
:10422000E901FB83EA8349915991C40FD51FEC172B
:10423000FD0761F4808191810296840F951FE90149
:1042400099838883828193819B838A83F0E0E0E075
:1042500012968D919C9113970097B9F52D913C91F1
:104260001197CD010296820F931F20917C06309109
:104270007D062817390739F6309751F510927F06D9
:1042800010927E06B0937D06A0937C06BCCFD383AC
:10429000C28340815181840F951FC817D90761F4EB
:1042A0004E5F5F4F88819981480F591F518340832A
:1042B0008A819B81938382832115310509F0B0CFD8
:1042C000F0937F06E0937E069ECFFD01DC01C0CF18
:1042D00013821282D7CFB0E0A0E0E1E7F1E20C94C4
:1042E0008C1E8C01009751F4CB010E9446208C015A
:1042F000C801CDB7DEB7E0E10C94A81EFC01E60FC3
:10430000F71F9C0122503109E217F30708F49DC002
:10431000D901CD91DC911197C617D70798F0C53018
:10432000D10530F3CE0104978617970708F3C61B13
:10433000D70B2297C193D1936D937C93CF010E94A9
:10434000E220D6CF5B01AC1ABD0A4C018C0E9D1E3B
:10435000A0917E06B0917F06512C412CF12CE12CCE
:10436000109731F580917C0690917D06881599050E
:1043700009F05CC04616570608F058C080911A0133
:1043800090911B01009741F48DB79EB740911E019B
:1043900050911F01841B950BE817F90708F055C0D1
:1043A000F0937D06E0937C06F90171836083A0CFD2
:1043B0008D919C91119712966C90129713967C9008
:1043C0001397A815B90559F56C0142E0C40ED11C2C
:1043D000CA14DB0420F1AC014A195B09DA01129618
:1043E000159780F06282738251834083D9016D9367
:1043F0007C93E114F10471F0D7011396FC93EE93D2
:10440000129776CF22968C0F9D1FF901918380839E
:10441000F301EFCFF0937F06E0937E0669CF481655
:10442000590608F42C017D01D3019ACFCB010E94DB
:1044300046207C01009749F0AE01B8010E9430226D
:10444000C8010E94E220870153CF10E000E050CF66
:104450009111089581548A5108F4805E855A089517
:10446000FB01DC0102C001900D9241505040D8F791
:104470000895FB01DC018D91019080190110D9F3A1
:10448000990B0895FB01DC0101900D920020E1F7EA
:10449000089512E0CBE5D2E004C0FE010E94402066
:0C44A0002196CC35D107C9F7F894FFCF66
:1044AC0005020502050205020502050205020502C8
:1044BC0005020502A50023005A00000080068000BA
:1044CC000500000005002F00010006005F0002003F
:1044DC000700870003000800AF00040009009202E7
:1044EC00727F02799602628C026786027700000066
:1044FC0000E605CD03CA09E50542065806CD0500C0
:10450C000000006D04CD03FA03D5042B0409041D2F
:10451C00040000000096096909CA09E50562094F03
:10452C000940090D0A00E58FB3E888B5E69CBAE5A9
:10453C00A48DE4BD8DE5889DE5A78BE8A792E5BA2F
:10454C00A600E5B7A6E888B5E69CBAE5A48DE4BD5F
:10455C008DE5889DE5A78BE8A792E5BAA600536583
:10456C006E7420746F2053544D33323A206461744E
:10457C00613D005443413935343841206E6F74200D
:10458C00666F756E6421004661696C656420746F9A
:10459C002073656C65637420544341206368616EBD
:1045AC006E656C2000556E6B6E6F776E0045727287
:1045BC006F723A204D617070696E67204E6F742077
:1045CC00436F6D706C657465642100474D36352002
:1045DC000020526561643A20004572726F723A2075
:1045EC004E6F204368616E6E656C7320466F756EFE
:1045FC0064210052656C6561736520416C6C200010
:10460C002042616C6C7320284368616E6E656C731C
:10461C003A20002C20002900596573004E6F005978
:10462C00656C6C6F770057686974650047726565D7
:10463C006E0052656400426C756500E7BFBBE8BD57
:10464C00ACE888B5E69CBAE5889DE5A78BE58C9629
:10465C00E5AE8CE6889000E5B7A6E888B5E69CBA8E
:10466C00E5889DE5A78BE58C96E5AE8CE6889000F9
:10467C00E58FB3E888B5E69CBAE5889DE5A78BE5A0
:10468C008C96E5AE8CE688900053656E736F722045
:10469C00312072656164793A200053656E736F72D4
:1046AC0020322072656164793A20000A4D6F766978
:1046BC006E6720746F20616E676C653A20005365DD
:1046CC006E736F722031207C205247423A20002CAE
:1046DC0000207C2048534C3A200053656E736F7257
:1046EC002031206465746563746564200020666FF6
:1046FC0072206368616E6E656C200053656E736F1B
:10470C00722032207C205247423A200053656E734F
:10471C006F72203220646574656374656420000ACE
:10472C003D3D3D20436F6C6F722D4368616E6E652D
:10473C006C204D617070696E67203D3D3D00436893
:10474C00616E6E656C20E2869220436F6C6F723ADC
:10475C000020204368616E6E656C20000A436F6C0C
:10476C006F7220E28692204368616E6E656C733ABC
:10477C00002020003D3D3D3D3D3D3D3D3D3D3D3D11
:10478C003D3D3D3D3D3D3D3D3D3D3D3D3D3D3D3D4D
:10479C0000E5B7A6E6BB91E98193E5B7B2E694BE16
:1047AC00E4B88B00E58FB3E6BB91E98193E5B7B232
:1047BC00E694BEE4B88B00E58FB3E7BFBB200000E6
:00000001FF
