:020000040000FA
:100000000C943A020C9462020C9462020C94481014
:100010000C9448100C9448100C9462020C946202E8
:100020000C9462020C9462020C9462020C948C0F89
:100030000C9462020C9462020C9462020C946202B0
:100040000C94EA0E0C9462020C945A0F0C94340F28
:100050000C9462020C9462020C9462020C94620290
:100060000C94C0100C946202E7B3BBE7BB9FE5B0F1
:10007000B1E7BBAA202D20E7AD89E5BE85E68C87D8
:10008000E4BBA42E2E2E00E9A29CE889B2E698A03B
:10009000E5B084E5AE8CE688902100E5BC80E5A75C
:1000A0008BE887AAE58AA8E9A29CE889B2E698A02D
:1000B000E5B0842E2E2E00E4B8A4E4B8AA474D364D
:1000C00035E6A8A1E59D97E5B0B1E7BBAA0050438E
:1000D0004139363835E5B0B1E7BBAA005043413964
:1000E000363835E5889DE5A78BE58C96E5A4B1E823
:1000F000B4A52100E9A29CE889B2E4BCA0E6849FF3
:10010000E599A8E5B0B1E7BBAA00E9A29CE889B2ED
:10011000E4BCA0E6849FE599A8E5889DE5A78BE56A
:100120008C96E5A4B1E8B4A52100E6ADA3E59CA8B2
:10013000E5889DE5A78BE58C9654434139353438E5
:10014000412E2E2E0037E3808138E3808139E58F00
:10015000B7E888B5E69CBAE5889DE5A78BE58C965F
:10016000E5AE8CE6889000E4BCA0E6849FE599A803
:10017000E888B5E69CBAE5889DE5A78BE58C96E511
:10018000AE8CE6889000493243E680BBE7BABFE513
:10019000889DE5A78BE58C96E5AE8CE6889000E916
:1001A0009499E8AFAF3A20E69CAAE5AE8CE6889039
:1001B000E9A29CE889B2E698A0E5B0842100E5B008
:1001C0008FE79083E5B7B2E9878AE694BE2CE7AD66
:1001D00089E5BE8535E7A792E5908EE5A48DE4BD5F
:1001E0008D2E2E2E00E58FB3E4BEA7E4BA8CE7BBBC
:1001F000B4E7A081E695B0E68DAE3A2000E6938D97
:10020000E4BD9CE5AE8CE688902CE8BF94E59B9E0F
:10021000E7A9BAE997B2E78AB6E680810035E7A791
:1002200092E5B7B2E588B02CE6ADA3E59CA8E5A4BD
:100230008DE4BD8DE888B5E69CBA2E2E2E00E6AD85
:10024000A3E59CA8E694BEE4B88BE58FB3E4BEA713
:10025000E888B5E69CBA2E2E2E00E99499E8AFAF57
:100260003A20E69CAAE5AE8CE68890E9A29CE88953
:10027000B2E698A0E5B0842100E5B08FE79083E571
:10028000B7B2E9878AE694BE2CE7AD89E5BE85352D
:10029000E7A792E5908EE5A48DE4BD8D2E2E2E006D
:1002A000E5B7A6E4BEA7E4BA8CE7BBB4E7A081E655
:1002B00095B0E68DAE3A2000E6938DE4BD9CE5AEA8
:1002C0008CE688902CE8BF94E59B9EE7A9BAE99755
:1002D000B2E78AB6E680810035E7A792E5B7B2E5D6
:1002E00088B02CE6ADA3E59CA8E5A48DE4BD8DE81F
:1002F00088B5E69CBA2E2E2E00E6ADA3E59CA8E6B6
:1003000094BEE4B88BE5B7A6E4BEA7E888B5E69C42
:10031000BA2E2E2E00E6A0A1E9AA8CE5928CE994D3
:1003200099E8AFAFE68896E995BFE5BAA6E4B88D3F
:10033000E6ADA3E7A1AE2100E8BF9BE585A5E58F6B
:10034000B3E4BEA7E4BA8CE7BBB4E7A081E8AF860C
:10035000E588ABE6A8A1E5BC8F2E2E2E00E8BF9B5A
:10036000E585A5E5B7A6E4BEA7E4BA8CE7BBB4E78C
:10037000A081E8AF86E588ABE6A8A1E5BC8F2E2E6C
:100380002E002C206461746174687265653D002CD8
:10039000206461746174776F3D00E694B6E588B0BF
:1003A000E68C87E4BBA43A20646174616F6E653D9E
:1003B00000E5B8A7E99499E8AFAF3A20E5B8A7E51A
:1003C000B0BEE4B88DE6ADA3E7A1AE00E7B3BBE7EE
:1003D000BB9FE5A484E4BA8EE7A9BAE997B2E78A9D
:1003E000B6E68081202D20E68980E69C89E888B5E4
:1003F000E69CBAE5B7B2E5A48DE4BD8D00E4B8B2E1
:10040000E58FA3E7BC93E586B2E58CBAE5B7B2E623
:10041000B885E7A9BA0000000000240027002A00E0
:1004200000000008000201000003040700000000B3
:10043000000000000000000023002600290000004A
:100440000000250028002B00040404040404040414
:10045000020202020202030303030303010204086F
:10046000102040800102040810200102040810201E
:10047000FA112B1D11241FBECFEFD8E0DEBFCDBF78
:1004800014E0A0E0B1E0E6ECF4E402C005900D92C7
:10049000A032B107D9F726E0A0E2B4E001C01D9276
:1004A000A338B207E1F712E0C9E3D2E004C0219714
:1004B000FE010E944D20C833D107C9F70E945A128D
:1004C0000C9456220C9400000895089590E0FC01CD
:1004D000E05EFB4F2491FC01E45AFB4F3491FC0198
:1004E000E85BFB4FE491EE23C9F0222339F023307F
:1004F00001F1A8F4213019F1223029F1F0E0EE0FDA
:10050000FF1FE25CFB4FA591B4918FB7F894EC917B
:10051000611126C030953E233C938FBF089527304C
:10052000A9F02830C9F0243049F7809180008F7DF0
:1005300003C0809180008F7780938000DFCF84B5E7
:100540008F7784BDDBCF84B58F7DFBCF8091B000EA
:100550008F778093B000D2CF8091B0008F7DF9CF9C
:100560003E2BDACFCF93DF9390E0FC01E45AFB4FB0
:100570002491885B9B4FFC0184918823D1F090E00B
:10058000880F991FFC01EA5EFB4FA591B491FC0115
:10059000E25CFB4FC591D49161110EC09FB7F894F6
:1005A0008C91E22FE0958E238C932881E223E883BF
:1005B0009FBFDF91CF9108958FB7F894EC91E22B14
:1005C000EC938FBFF6CF0F931F93CF93DF93EC0184
:1005D000162F042F1B821A8288EE93E0A0E0B0E071
:1005E0008C839D83AE83BF8381E591E0998388836B
:1005F0001F8A1E8A198E188E1B8E1A8E1D8E1C8EB7
:100600006E8D6E7F6D7F6E8F6695617081E068275D
:10061000842F0E94660261E0802F0E94B202802F28
:1006200090E0FC01E45AFB4FE491E88BFC01E85BAD
:10063000FB4FE491F0E0EE0FFF1FE25CFB4F859172
:1006400094919A8B898B60E0812F0E94B2028E8DEB
:1006500081FD04C061E0812F0E9466021C87812F0A
:1006600090E0FC01E45AFB4FE491ED87FC01E85B6C
:10067000FB4FE491F0E0EE0FFF1FEC5CFB4F859128
:1006800094919F878E87DF91CF911F910F9108954D
:100690003FB7F8948091090590910A05A0910B0548
:1006A000B0910C0526B5A89B05C02F3F19F0019607
:1006B000A11DB11D3FBFBA2FA92F982F8827BC01BC
:1006C000CD01620F711D811D911D42E0660F771FE4
:1006D000881F991F4A95D1F708958F929F92AF92E4
:1006E000BF92CF92DF92EF92FF924B015C010E948A
:1006F00048036B017C010E9448036C197D098E0937
:100700009F09683E734081059105A8F321E0821A94
:100710009108A108B10888EEC80E83E0D81EE11C3C
:10072000F11C81149104A104B10429F7FF90EF900A
:10073000DF90CF90BF90AF909F908F9008952FB78C
:10074000F8946091050570910605809107059091D8
:1007500008052FBF0895AF92BF92CF92DF92EF921C
:10076000FF920F931F93CF93DF936C017B018B015B
:10077000040F151FEB015E01AE18BF08C017D107AB
:1007800059F06991D601ED91FC910190F081E02D35
:10079000C6010995892B79F7C501DF91CF911F918A
:1007A0000F91FF90EF90DF90CF90BF90AF900895A2
:1007B000FC01538D448D252F30E0842F90E0821B67
:1007C000930B541710F0CF96089501970895FC01EC
:1007D000918D828D981761F0A28DAE0FBF2FB11D44
:1007E0005D968C91928D9F5F9F73928F90E008959C
:1007F0008FEF9FEF0895FC01918D828D981731F056
:10080000828DE80FF11D858D90E008958FEF9FEFA9
:100810000895FC01918D228D892F90E0805C9F4F7F
:10082000821B91098F739927089583E895E00E94B0
:10083000090421E0892B09F420E0822F089580E04B
:1008400090E0892B29F00E94150481110C9400007E
:100850000895FC01A48DA80FB92FB11DA35ABF4F55
:100860002C91848D90E001968F739927848FA689AF
:10087000B7892C93A089B1898C91837080648C9303
:10088000938D848D981306C00288F389E02D8081B2
:100890008F7D80830895EF92FF920F931F93CF93E4
:1008A000DF93EC0181E0888F9B8D8C8D98131AC0AB
:1008B000E889F989808185FF15C09FB7F894EE8992
:1008C000FF896083E889F9898081837080648083EF
:1008D0009FBF81E090E0DF91CF911F910F91FF903A
:1008E000EF900895F62E0B8D10E00F5F1F4F0F73E2
:1008F0001127E02E8C8D8E110CC00FB607FCFACF9D
:10090000E889F989808185FFF5CFCE010E9429040D
:10091000F1CFEB8DEC0FFD2FF11DE35AFF4FF0826D
:100920009FB7F8940B8FEA89FB8980818062CFCFD3
:100930000F931F93CF93DF938C01D0E0C0E0F801B9
:10094000EC0FFD1F6491662341F083E895E00E945F
:100950004B04892B11F02196F2CFCE01DF91CF917C
:100960001F910F910895CF93DF93EC01888D882319
:10097000B9F0AA89BB89E889F9898C9185FD03C002
:10098000808186FD0DC00FB607FCF7CF8C9185FFE7
:10099000F2CF808185FFEDCFCE010E942904E9CFFF
:1009A000DF91CF910895CF92DF92EF92FF92CF9394
:1009B000DF93EC01603282E07807CCF5653B71058E
:1009C00014F064EB70E0898128E830E0281B3109DD
:1009D00087FD3395220F331F220F331F6901330F19
:1009E000EE08FF088A8128E532E0281B310987FDDF
:1009F0003395220F331F220F331F032E000C440B9D
:100A0000550B2C193D094E095F09DB0177FF02C028
:100A1000B0E0A0E00E948F1E24EB30E040E050E008
:100A20000E94651EC20ED31EE41EF51EB601E881AB
:100A3000EC3070F5298188E890E0821B910927FD50
:100A40009395880F991F880F991F681779077CF075
:100A50002A8188E592E0821B910927FD9395880FF2
:100A6000991F880F991F681779070CF4CB0102971B
:100A7000880F991F4FB7F8942E2F30E0F901EE0F31
:100A8000FF1FE20FF31FE555FB4F928381834FBF9A
:100A9000DF91CF91FF90EF90DF90CF9008951F935B
:100AA000CF93DF93EC01162F88818C3008F04EC075
:100AB00061E0812F0E94B2028881282F30E0F90185
:100AC000EE0FFF1FE20FF31FE555FB4F1F73608111
:100AD000607C612B608319821A822CE0622F0E9455
:100AE0001220829FB001112430E020E0AB01420FC0
:100AF000531FFA01EE0FFF1FE40FF51FE555FB4FE3
:100B0000908196FD16C02F5F3F4F2C30310571F755
:100B100081110FC01092800082E0809381001092BA
:100B2000850010928400B19A80916F00826080935A
:100B30006F00E8818E2F90E0FC01EE0FFF1FE80FA1
:100B4000F91FE555FB4F8081806480838881DF91A8
:100B5000CF911F9108952091A7043091A8042817E0
:100B6000390771F49091A6048091A504981741F07B
:100B7000E091A604F0E0EB59FB4F808190E00895EE
:100B80008FEF9FEF08950895EF92FF920F931F93B9
:100B9000CF93DF93DC015C96ED90FC905D97E114C0
:100BA000F10479F481E090E013969C938E93129770
:100BB00090E080E0DF91CF911F910F91FF90EF9037
:100BC00008955196ED91FC91529750968C915097C3
:100BD000982F90950FB75E962C915E97122F1270FA
:100BE00021FD6095F8942081112319F1282B208391
:100BF000E7012197F1F728E0462F50E0308160FFB0
:100C00001AC0382B3083E7012197F1F7BA017595A7
:100C10006795215089F7112381F080818923808392
:100C20000FBF5C968D919C910197F1F781E090E068
:100C3000C1CF2923DCCF3923E5CF9081892BEFCF9A
:100C40002091A7043091A8042817390761F48091F6
:100C5000A5042091A60490E0805C9F4F821B91091F
:100C60008F739927089590E080E008952091A7045C
:100C70003091A80428173907B9F49091A6048091FF
:100C8000A504981789F0E091A604F0E0EB59FB4F1A
:100C900080812091A60430E02F5F3F4F2F733327D0
:100CA0002093A60490E008958FEF9FEF0895E091C0
:100CB000A704F091A804E817F90769F4A389B48997
:100CC0009C918589809589238C931092A804109219
:100CD000A70481E0089580E00895CF93DF93EC01AD
:100CE0008A8D9B8D892B01F18091A7049091A80496
:100CF0008C179D07C9F0009711F00E9457068E8D42
:100D00008E7F8E8F1092A5041092A604D093A80413
:100D1000C093A704EB89FC8980819D89892B8083FE
:100D200081E0DF91CF91089580E0FBCF20914204D4
:100D3000260F3327331F21323105ECF420917D0536
:100D4000FC0190E080E0243069F082E00895A091F9
:100D500042042191AC014E5D5B4FA40FB52FB11D34
:100D60002C930196861798F380914204680F609344
:100D7000420480E0089581E0089510927D0581E0AD
:100D800080935C051092570561E082E10E94660243
:100D900061E083E10E946602E9EBF0E080818E7FF2
:100DA000808380818D7F808388E48093B80085E490
:100DB0008093BC00089510921205109211051092B4
:100DC0001405109236050E94BD0684E692E09093C9
:100DD000100580930F0585E692E090930E058093B1
:100DE0000D050895CF93DF9391E09093210488231C
:100DF000B9F0C091B800D091BA008091BC008A7B54
:100E00008093BC0060E082E10E94660260E083E1C2
:100E10000E9466020E94BD06D093BA00C093B8003B
:100E2000DF91CF9108958F929F92AF92BF92CF9210
:100E3000DF92EF92FF920F931F93CF93DF93D82F00
:100E4000C62F142F613208F09CC00E9448036B012A
:100E50007C0180917D0581116FC081E080937D05CB
:100E600010935C059FEF90935B0510925A059C0FC1
:100E7000909359058093580580915805DD0FD82B24
:100E8000D093580580915705813009F07CC01092AD
:100E900057050E9448036B017C018091580580939F
:100EA000BB0080917F0590918005A0918105B09154
:100EB0008205892B8A2B8B2BA1F00E94480300917D
:100EC0007F051091800520918105309182056C1974
:100ED0007D098E099F09061717072807390708F4A7
:100EE0004CC08091BC0083FDD8CF85EC8093BC00C2
:100EF0000E9448036B017C0180917D05813009F4DB
:100F000044C080915A058C1710F4C0915A05E7E34C
:100F1000F5E0ADE5B5E080E08C1359C08C2FDF9192
:100F2000CF911F910F91FF90EF90DF90CF90BF90E6
:100F3000AF909F908F90089580917F05909180054C
:100F4000A0918105B0918205892B8A2B8B2B09F406
:100F500080CF0E94480380907F0590908005A090EC
:100F60008105B09082056C197D098E099F0986164E
:100F70009706A806B90608F06CCF80917E050E94FE
:100F8000F206C0E0CBCF85EEB1CF80917F05909186
:100F90008005A0918105B0918205892B8A2B8B2B2E
:100FA00009F4AACF0E94480300917F0510918005A3
:100FB00020918105309182056C197D098E099F0968
:100FC000061717072807390708F096CFD6CF919153
:100FD0009D938F5FA1CF8F929F92AF92BF92CF923E
:100FE000DF92EF92FF920F931F93CF93DF93D091F5
:100FF0003605D13208F0D7C0182FC09135050E94B0
:1010000048036B017C0180917D0581116BC082E0FA
:1010100080937D0510935C058FEF80935B051092A4
:101020005A05D0935905A5E1B5E0E7E3F5E080E086
:10103000D81391C01092580580915805CC0FC82B39
:10104000C093580580915705813009F088C01092EF
:1010500057050E9448036B017C01809158058093DD
:10106000BB0080917F0590918005A0918105B09192
:101070008205892B8A2B8B2BA1F00E9448030091BB
:101080007F051091800520918105309182056C19B2
:101090007D098E099F09061717072807390708F4E5
:1010A00042C08091BC0083FDD8CF85EC8093BC000A
:1010B0000E9448036B017C0180917D05823009F418
:1010C00050C080915B058F3F09F46FC080915B0534
:1010D000803209F46CC080915B05803309F469C0EB
:1010E00084E026C080917F0590918005A0918105C4
:1010F000B0918205892B8A2B8B2B09F484CF0E9417
:10110000480380907F0590908005A0908105B09065
:1011100082056C197D098E099F0986169706A80617
:10112000B90608F070CF80917E050E94F20685E036
:10113000109214051092360510921305DF91CF918D
:101140001F910F91FF90EF90DF90CF90BF90AF90E5
:101150009F908F9008959D9191938F5F69CF85EEB9
:10116000A5CF80917F0590918005A0918105B091D8
:101170008205892B8A2B8B2B09F49ECF0E94480372
:1011800000917F05109180052091810530918205A5
:101190006C197D098E099F0906171707280739075B
:1011A00008F08ACFC0CF81E0C3CF80E0C1CF82E01A
:1011B000BFCF83E0BDCF1F93CF93DF93EA01122F00
:1011C000DC0111968D919C91DC01ED91FC910280E6
:1011D000F381E02D0995C817D90729F4812F0E94C2
:1011E000EB0791E0811190E0892FDF91CF911F9162
:1011F0000895CF93DF93EC018B818823A1F0888140
:1012000091E0909313058093350510921405109288
:10121000360581E00E94EB0791E0811190E0892F73
:10122000DF91CF9108950E94DB0681E08B83CE0190
:101230000E94F908982F8111E2CFF1CFE0911205B9
:1012400080911105E81730F4F0E0E35AFA4F8081FD
:1012500090E008958FEF9FEF08959091120580918F
:1012600011052FEF3FEF981748F4E92FF0E0E35A0C
:10127000FA4F208130E09F5F90931205C9010895D5
:101280008091110590911205891B990B0895CF92B9
:10129000DF92EF92FF920F931F93CF93DF937C0126
:1012A000CB018A0120911305222389F0EB016B0108
:1012B000C40ED51ECC15DD0569F06991D701ED91FD
:1012C000FC910190F081E02DC7010995F3CF642FC7
:1012D0000E949606C801DF91CF911F910F91FF9058
:1012E000EF90DF90CF900895CF93DF931F92CDB70B
:1012F000DEB76983209113052223F9F0209136058A
:10130000203258F021E030E0FC013383228390E06A
:1013100080E00F90DF91CF91089580911405E82F20
:10132000F0E0EB5EFA4F998190838F5F8093140514
:101330008093360581E090E0ECCF61E0CE0101962C
:101340000E949606F7CF682F89E296E00C94740904
:1013500090E080E0089541E0682F88E40E94130740
:1013600010921205809311050895CF93DF9300D05A
:10137000CDB7DEB789836A838091380690913906AC
:10138000FC01248135812230310590F0208131E04B
:1013900030931305209335051092140510923605ED
:1013A00021E042E050E0BE016F5F7F4F0E94DB080A
:1013B0000F900F90DF91CF9108958F929F92AF92EF
:1013C000BF92CF92DF92EF92FF920F931F93CF9332
:1013D000DF931F92CDB7DEB76B017C0120E030E0D8
:1013E00040E85FE30E94411D87FD97C020E030EC9C
:1013F0004AE555E4C701B6010E940D2018160CF409
:1014000093C060913A0670913B0680913C069091A2
:101410003D060E94461D4B015C0120E030E040E8A3
:1014200055E4C701B6010E94A71D9B01AC01C5018F
:10143000B4010E946C1F20E030E040E05FE30E94B6
:10144000001F20E030E040E85FE30E94FF1E6B01D8
:101450007C0120E030E040E450E40E94411D87FD23
:101460006BC020E030E04FE753E4C701B6010E94B3
:101470000D2018160CF466C0C701B6010E94DE1FCD
:10148000B62E19820091380610913906D8011496AB
:101490008D919C911597892B09F45EC08C9191E0F8
:1014A000909313058093350510921405109236051C
:1014B00020E041E050E0BE016F5F7F4FC8010E9415
:1014C000DB08882309F448C0F801E480F58061E076
:1014D000E114F10409F460E0C62ED12C462FD801A6
:1014E0008C910E94130710921205809311058C15A0
:1014F0001D0491F590E080E08C159D0550F5F801F4
:1015000081819281DC01ED91FC910284F385E02DD3
:101510000995898381E090E0EFCFC12CD12C30E890
:10152000E32E3FE3F32E6DCFC12C20ECD22E2AE523
:10153000E22E25E4F22E65CFC12CD12C90E4E92EC9
:10154000FE2C9ACFC12CD12C8FE7E82E83E4F82E05
:1015500093CFEF2809F4B8CF1981612F6F766061BE
:1015600080E00E94B5096B2D8EEF0E94B509612FB6
:1015700080E00E94B50965E070E080E090E00E94A4
:101580006D03612F606A80E00E94B5090F90DF91C2
:10159000CF911F910F91FF90EF90DF90CF90BF9070
:1015A000AF909F908F900895FC0101900020E9F783
:1015B0003197AF01481B590BBC0183E895E00C94AF
:1015C000AB03CF93DF930E949804EC0183E891E092
:1015D0000E94D40A8C0F9D1FDF91CF9108958F92A6
:1015E0009F92AF92BF920F931F93CF93DF93CDB78C
:1015F000DEB7A1970FB6F894DEBF0FBECDBF19A21C
:10160000423008F44AE08E010F5D1F4F842E912C6A
:10161000B12CA12CA50194010E94CE1EE62FB90188
:10162000CA01EA30F4F4E05DD801EE938D01232B7A
:10163000242B252B79F790E080E0109719F0CD014D
:101640000E94D40AA1960FB6F894DEBF0FBECDBF9C
:10165000DF91CF911F910F91BF90AF909F908F908E
:101660000895E95CE1CFCF92DF92EF92FF92CF93A2
:10167000DF936C01990FEE08FF08F7FE19C06DE2C9
:1016800083E895E00E944B04EC0166277727CB01A5
:101690006C197D098E099F094AE00E94EF0A8C0FA0
:1016A0009D1FDF91CF91FF90EF90DF90CF90089535
:1016B0004AE0C701B601DF91CF91FF90EF90DF9034
:1016C000CF900C94EF0ACF93DF93D0E0C0E0009767
:1016D00019F00E94D40AEC0183E891E00E94D40A38
:1016E0008C0F9D1FDF91CF91089583E290E090933E
:1016F00017018093160163E270E080E296E00E9499
:10170000D30486E891E00C94630B85EA90E0909313
:1017100015018093140165EA70E083E296E00E946F
:10172000D30482EA91E00C94630B8AE590E09093F5
:101730001901809318016AE570E086E296E00E9444
:10174000D3048BEA91E00C94630B009711F00C9496
:10175000D40A90E080E00895CF93DF9300D000D0CA
:101760001F92CDB7DEB78AEA898383E08A8381E05E
:101770008B838EEA8C8385E58D8345E050E0BE0146
:101780006F5F7F4F83E895E00E94AB038EEB91E0A3
:101790000E94A50B4AE061E070E080E090E00E94CA
:1017A000EF0A0F900F900F900F900F90DF91CF9155
:1017B0000895CF93DF93682F70E090E080E04AE0D7
:1017C0000E94EF0AEC0183E891E00E94D40A8C0F9A
:1017D0009D1FDF91CF910895CF93DF93C82FD1E064
:1017E000D093130580E7809335051092140510926D
:1017F000360581E00E94EB07882331F083ED91E00C
:10180000DF91CF910C94630BD093130510921405C4
:101810001092360581E090E00C2E02C0880F991FCF
:101820000A94E2F70E94A30981E00E94EB07882353
:1018300039F087EE91E00E94A50B8C2F0E94D90B06
:1018400064E170E080E090E0DF91CF910C946D0353
:10185000EF92FF921F93CF93DF9300D000D01F929F
:10186000CDB7DEB7182F7B0182E00E94EC0BD701C9
:10187000A65ABF4FB7FF02C0B0E0A0E022EC31E0B3
:101880000E94322024EB30E040E050E00E94651ED0
:10189000DA01C9018A569F4FAF4FBF4F110F110F89
:1018A0001A5F19831A821B828C839D83809138066C
:1018B00090913906FC01248135812530310590F065
:1018C000208131E0309313052093350510921405E3
:1018D0001092360521E045E050E0BE016F5F7F4F7A
:1018E0000E94DB0864E670E080E090E00E946D03F7
:1018F0000F900F900F900F900F90DF91CF911F914D
:10190000FF90EF90089521E0019709F420E0822FE5
:101910000E94EC0B81E08093130588E480933505E9
:1019200010921405109236058AEA90E00E94A309ED
:1019300080E00E94EB0781E090E00E94AB0990916B
:10194000110580911205981741F089E296E00E94F6
:101950002D0921E08636910509F020E0822F0895B7
:10196000CF93DF93FC01448155816081718183E8CD
:1019700095E00E94AB03EC0183E891E00E94D40A59
:101980008C0F9D1FDF91CF910895FC018081918183
:10199000009711F00C94EF2008950F931F93CF93AD
:1019A000DF93EC0188819981009759F02A813B816E
:1019B0002617370730F081E0DF91CF911F910F910B
:1019C00008958B016F5F7F4F0E947821009759F037
:1019D000998388831B830A832C813D81232B59F7AC
:1019E000FC011082E8CF80E0E7CFEF92FF920F93E7
:1019F0001F93CF93DF93EC017B018A01BA010E9410
:101A0000CD0C28813981811114C02115310519F0BF
:101A1000C9010E94EF20198218821D821C821B823C
:101A20001A82CE01DF91CF911F910F91FF90EF901D
:101A300008951D830C83B701C9010E944F22F1CF85
:101A40008F929F92AF92BF92CF92DF92EF92FF92CE
:101A50000F931F93CF93DF9300D0CDB7DEB78C01E8
:101A60006B01FC0111821082138212821582148292
:101A700050E040E065E871E00E94F50C0E949F0391
:101A80004B015C01C6010E942006892B91F40E9443
:101A90009F03681979098A099B09643671058105D4
:101AA000910538F461E070E080E090E00E946D0301
:101AB000E9CFC6010E942006892B39F1C6010E9498
:101AC000360689831A82F801E480F580FFEFEF1A69
:101AD000FF0AB701C8010E94CD0C882379F0F801F4
:101AE0002081318184819581BE016F5F7F4F820F9C
:101AF000931F0E944F22F801F582E48262E070E0B9
:101B000080E090E00E946D03D4CFC8010F900F9049
:101B1000DF91CF911F910F91FF90EF90DF90CF90C9
:101B2000BF90AF909F908F90089585ED8093BC00FB
:101B300080917F0590918005A0918105B0918205EB
:101B40000796A11DB11D23E0B695A795979587959A
:101B50002A95D1F72091BC0024FD03C010927D0589
:101B6000089540917F0550918005609181057091A5
:101B70008205452B462B472B69F30097A105B1053C
:101B800041F02AE22A95F1F700C00197A109B109B5
:101B9000E1CF80917E050C94F2068F929F92AF92D6
:101BA000BF92CF92DF92EF92FF920F931F93CF934A
:101BB000DF9300D000D0CDB7DEB72091F004211123
:101BC00014C08DE092E00F900F900F900F90DF9176
:101BD000CF911F910F91FF90EF90DF90CF90BF902A
:101BE000AF909F908F900C94630BDC0114962D9115
:101BF0003C91232B09F4DDC07B018C018BE292E048
:101C00000E94A50BC7010E94330B81E392E00E9462
:101C1000A50BC8010E94B00CF801C480D580F12C3E
:101C2000E12CFDE4AF2EF1E0BF2EEC14FD0409F42D
:101C3000A2C0D801ED91FC913097B9F41092200424
:101C4000E0E2F4E08081082E000C990B0E9435221E
:101C5000EEE3F1E02281281759F03396AE16BF0665
:101C6000C9F7BFEFEB1AFB0AE0CFEE0DFF1DEACF7D
:101C70008032B9F3EEE3AE2EE1E0BE2EF50190E046
:101C800080E03281321379C0FC01EE0FFF1FE80FB4
:101C9000F91FE25CFE4FC080D18010E000E0B60189
:101CA000F501808191810E9446227C01892B09F0F7
:101CB0006FC0000F111F000F111FF801E752FB4FFB
:101CC00080819181B12CA12C8F3F980729F09A83B4
:101CD0008983AA24A394B12C07521B4FD8011296D2
:101CE0008D919C918F3F980709F45EC0F501EE0F2E
:101CF000FF1FEC0FFD1F92838183F50131965F0179
:101D000083E592E00E94A50BC6010E94A50B80E628
:101D100092E00E94A50BCE0101966C01450191E075
:101D2000891A9108D6010D911D916D01C8010E947B
:101D3000330BE814F90424F483E792E00E94A50B26
:101D40006CE97FEFC8010E94280C64EF71E080E02D
:101D500090E00E946D0370E060E0C8010E94280CD2
:101D6000C7010196EE24E394F12C8A159B05D4F269
:101D700086E792E028CF20E27DCF0196339685302A
:101D8000910509F07ECF65E0C62E62E0D62E85CFA4
:101D90000F5F1F4FF3E0AF0EB11C0530110509F0C6
:101DA0007ECF89E392E00FCFA114B10409F0A8CF50
:101DB000F8CF0F900F900F900F90DF91CF911F9160
:101DC0000F91FF90EF90DF90CF90BF90AF909F90DA
:101DD0008F9008951F920F920FB60F9211242F9398
:101DE0003F938F939F93AF93BF93809105059091FD
:101DF0000605A0910705B09108053091040523E080
:101E0000230F2D3758F50196A11DB11D2093040510
:101E10008093050590930605A0930705B0930805E8
:101E20008091090590910A05A0910B05B0910C05D0
:101E30000196A11DB11D8093090590930A05A093F9
:101E40000B05B0930C05BF91AF919F918F913F917E
:101E50002F910F900FBE0F901F90189526E8230F1B
:101E60000296A11DB11DD2CF1F920F920FB60F92F5
:101E700011242F933F934F935F936F937F938F938F
:101E80009F93AF93BF93EF93FF9383E895E00E94F6
:101E90002904FF91EF91BF91AF919F918F917F9115
:101EA0006F915F914F913F912F910F900FBE0F90C7
:101EB0001F9018951F920F920FB60F9211242F9317
:101EC0008F939F93EF93FF93E0919305F091940587
:101ED0008081E0919905F0919A0582FD1BC0908167
:101EE00080919C058F5F8F7320919D05821741F033
:101EF000E0919C05F0E0ED57FA4F958F80939C059B
:101F0000FF91EF919F918F912F910F900FBE0F90A6
:101F10001F9018958081F4CF1F920F920FB60F92E9
:101F200011242F933F934F935F936F937F938F93DE
:101F30009F93AF93BF93CF93DF93EF93FF938091E2
:101F4000A904C091AA04D0E087FF24C010928500A4
:101F5000109284008091A9048F5F8093A9048091DE
:101F6000A904082E000C990B8C179D0724F480916E
:101F7000A9048C30C4F1809184009091850004966E
:101F800080349C4908F47AC0809184009091850047
:101F9000049676C08091A904082E000C990B8C172A
:101FA0009D07C4F6E091A9048E2FEE0F990BFC015A
:101FB000EE0FFF1FE80FF91FE555FB4F808186FFED
:101FC000C9CFE091A9048E2FEE0F990BFC01EE0F03
:101FD000FF1FE80FF91FE555FB4F808160E08F730D
:101FE0000E946602B7CF2091840030918500E09175
:101FF000A9048E2FEE0F990BFC01EE0FFF1FE80FC7
:10200000F91FE555FB4F81819281820F931F9093B9
:10201000890080938800E091A9048E2FEE0F990B20
:10202000FC01EE0FFF1FE80FF91FE555FB4F808104
:1020300086FF11C0E091A9048E2FEE0F990BFC01D1
:10204000EE0FFF1FE80FF91FE555FB4F808161E0A0
:102050008F730E946602FF91EF91DF91CF91BF9144
:10206000AF919F918F917F916F915F914F913F9130
:102070002F910F900FBE0F901F90189580E49CE950
:1020800090938900809388008FEF8093A904E3CF19
:102090001F920F920FB60F9211242F933F934F93DD
:1020A0005F936F937F938F939F93AF93BF93EF93C0
:1020B000FF93E091A704F091A804309749F0A6851A
:1020C000B7858585968D91FF14C09C918923A1F4D5
:1020D000FF91EF91BF91AF919F918F917F916F9100
:1020E0005F914F913F912F910F900FBE0F901F90D6
:1020F00018959C91892361F7A389B4899C9185895E
:10210000809589238C93868997890197F1F7608D53
:10211000718DA685B785558538E020E0CB01019704
:10212000F1F7822F90E095958795282F4C914523C4
:1021300009F02068315091F7868D81FD20958091BE
:10214000A50490E001968F7399273091A604381763
:1021500099F0A091A504B0E0AB59BB4F2C938093AC
:10216000A504828D938D0197F1F7A389B4898C9191
:102170009589892B8C93ACCF868D8160868FF1CF2A
:102180001F920F920FB60F9211242F933F934F93EC
:102190005F936F937F938F939F93AF93BF93EF93CF
:1021A000FF938091B900887F803609F44AC0F0F52A
:1021B000883209F4A7C018F5803109F49BC0B8F43F
:1021C000882309F4F9C0883009F494C0FF91EF9195
:1021D000BF91AF919F918F917F916F915F914F913F
:1021E0003F912F910F900FBE0F901F90189588313F
:1021F00009F488C0803251F780935B0514C08034A5
:1022000009F49DC040F48033B9F38833F9F6809324
:102210005B0585ECB0C0803509F485C0883509F4CC
:1022200096C0883499F60E94950DD0CF883909F46C
:102230008CC038F5883729F050F4883611F0803793
:1022400029F683E080937D051092640457C0883896
:1022500009F47BC0803919F0803809F0B7CF80913C
:102260006404803208F071C0E091640481E08E0F54
:10227000809364048091BB00F0E0EC5BFB4F8083B3
:102280003DC0803B39F0E0F4803A09F479C0883AE7
:1022900009F09CCF84E080937D0510924304109256
:1022A0004204E0910F05F0911005099580914204D8
:1022B00081110FC081E0809342041092220409C072
:1022C000803C09F4A6CF883C09F4A3CF883B09F0F1
:1022D0007DCFE091430481E08E0F80934304F0E0D2
:1022E000EE5DFB4F80818093BB0090914304809111
:1022F000420429C0809158058093BB0085EC8093EF
:10230000BC0064CF90915A0580915905981758F5F3
:10231000E0915A0581E08E0F80935A05F0E0E95C68
:10232000FA4F8081E9CFE0915A0581E08E0F8093CA
:102330005A058091BB00F0E0E95CFA4F80839091F0
:102340005A05809159059817C8F285E8D8CFE091D1
:102350005A0581E08E0F80935A058091BB00F0E012
:10236000E95CFA4F808380915C0581115CCF81E04C
:102370008093570584EA8093BC0010927D0526CF98
:1023800085EC8093BC0010927D05809164048032BE
:1023900030F4E0916404F0E0EC5BFB4F108260915C
:1023A000640470E0E0910D05F0910E0584E494E082
:1023B0000995109264040ACF10925B0534CFFC019A
:1023C0009091AA049C3098F481E0890F8093AA042C
:1023D0009083892F90E0FC01EE0FFF1FE80FF91F9B
:1023E000E555FB4F88EB9BE09283818308958FEF47
:1023F00080830895CF93DF93E3E8F5E013821282A0
:1024000088EE93E0A0E0B0E084839583A683B78351
:1024100023E631E03183208325EC30E035872487C3
:1024200024EC30E03787268720EC30E0318B208B9E
:1024300021EC30E0338B228B22EC30E0358B248B87
:1024400026EC30E0378B268B118E128E138E148E75
:10245000C9E2D6E01B821A828C839D83AE83BF8340
:1024600085E791E09983888386E296E00E94DF11F8
:1024700083E296E00E94DF1180E296E00E94DF1185
:10248000E5E3F6E080E48083D283C1831482138283
:102490004BE06AE08DE596E00E94E3024DE06CE0DF
:1024A0008EE396E00E94E3028CE796E0DF91CF9105
:1024B0000C94DF11CF93DF93CDB7DEB76E970FB6D5
:1024C000F894DEBF0FBECDBF789484B5826084BD22
:1024D00084B5816084BD85B5826085BD85B5816028
:1024E00085BD80916E00816080936E0010928100A6
:1024F0008091810082608093810080918100816061
:102500008093810080918000816080938000809121
:10251000B10084608093B1008091B00081608093AD
:10252000B00080917A00846080937A0080917A0074
:10253000826080937A0080917A00816080937A0033
:1025400080917A00806880937A001092C100E091B7
:102550009305F091940582E08083E0918F05F091DE
:1025600090051082E0919105F091920580E18083C1
:1025700010929B05E0919705F091980586E0808385
:10258000E0919505F0919605808180618083E091CE
:102590009505F0919605808188608083E09195058E
:1025A000F0919605808180688083E0919505F09197
:1025B000960580818F7D808360ED77E080E090E0FC
:1025C0000E946D030E94DB0686E891E00E94E10A0A
:1025D00066E070E08CE796E00E944F0570E060E0F6
:1025E0008CE796E00E94D30464EF71E080E090E015
:1025F0000E946D0364EB70E08CE796E00E94D304C8
:1026000064EF71E080E090E00E946D0370E060E0B4
:102610008CE796E00E94D30464E670E080E090E0EE
:102620000E946D0310E000E0B8018CE796E00E9484
:10263000D30468E070E080E090E00E946D030F5FDB
:102640001F4F053B110581F764E670E080E090E0E4
:102650000E946D0304EB10E0B8018CE796E00E9445
:10266000D30468E070E080E090E00E946D030150C8
:10267000110990F764E670E080E090E00E946D033D
:1026800087E691E00E94E10A67E070E086E296E06A
:102690000E944F056AE570E086E296E00E94D3044E
:1026A0008AE590E0909319018093180168EE73E039
:1026B00080E090E00E946D038BE992E00E94630B42
:1026C00068E070E083E296E00E944F0565EA70E002
:1026D00083E296E00E94D30485EA90E0909315018E
:1026E0008093140168EE73E080E090E00E946D0337
:1026F00087EB92E00E94630B69E070E080E296E075
:102700000E944F0563E270E080E296E00E94D304ED
:1027100083E290E0909317018093160168EE73E0D6
:1027200080E090E00E946D0380ED92E00E94630BD8
:1027300085E491E00E94E10A8AE291E00E94E10AC8
:1027400055E0E52EF12C10E000E001110C94F21B95
:1027500081E090E00E94830C082F62E370E080E04B
:1027600090E00E946D0311110C94E51B82E090E053
:102770000E94830C182F62E370E080E090E00E94DA
:102780006D03002321F011110C94E91B01E064E6B4
:1027900070E080E090E00E946D0331E0E31AF10800
:1027A000A1F689EE92E00E94A50B8CE792E000234F
:1027B00011F088E792E00E94630B8AEF92E00E949A
:1027C000A50B8CE792E0112311F088E792E00E94BC
:1027D000630B002309F44DC2112309F44AC284EFAC
:1027E00090E00E94E10A82E00E94EC0B62E370E05C
:1027F00080E090E00E946D03809138069091390648
:10280000009709F03BC286E090E00E9453208C01C3
:10281000809136069091370620913506F801208385
:1028200092838183138280E290E095838483109366
:102830003906009338060E94DB0681E0F8018383A5
:10284000C8010E94F908882309F41BC260E880E0EF
:102850000E94B5096AE070E080E090E00E946D039C
:1028600080E498E7ADE7B1E080933A0690933B06A9
:10287000A0933C06B0933D0660E070E08AE794E4E4
:102880000E94DD0960E070E088E492E40E94DD09C6
:102890008EEC90E00E94E10A8DE596E00E94011C1A
:1028A0008EE396E00E94011C87EB90E00E94E10A13
:1028B000AFECB4E029ED34E03E8B2D8BF9018FEFC6
:1028C0009FEF1D921D929183808393838283349620
:1028D00034E0A93DB307A9F78BE990E00E94E10A33
:1028E00070E060E08CE796E00E94D3046CED75E048
:1028F00080E090E00E946D0380E291E09C8B8B8BE6
:102900004E0197E0890E911CFE0131961F0103E0F4
:1029100010E0EB89FC89E080F18022813381388FDF
:102920002F8B848195819C8F8B8F8BE093E00E940D
:10293000A50BC7010E945C1CB7018CE796E00E94C2
:10294000D3046CED75E080E090E00E946D03F4012B
:1029500026E011922A95E9F7F10126E011922A95D5
:10296000E9F743E0C42ED12C1A8A198A188A1F86E7
:102970001E861D86512C412C712C612CF12CE12CD2
:1029800061E070E0C4010E94A81C61E070E0C10138
:102990000E946A1CAF80B88489859A859A8F898F36
:1029A000EB85FC85FE8FED8F8EE193E00E94A50BF9
:1029B000C5010E94330B8FE293E00E94A50B898D25
:1029C0009A8D0E94330B8FE293E00E94A50B8D8DB0
:1029D0009E8D0E94330B81E393E00E94A50B8981B9
:1029E0009A810E94330B8FE293E00E94A50B8B81AA
:1029F0009C810E94330B8FE293E00E94A50B8D8196
:102A00009E810E945C1C8F8198858F3F910519F0F3
:102A100014F08FEF90E097FF02C090E080E0E80EA6
:102A2000F91E89859A858F3F910519F014F08FEF73
:102A300090E097FF02C090E080E0680E791E8B85E1
:102A40009C858F3F910519F014F08FEF90E097FF70
:102A500002C090E080E0480E591E89819A812D8540
:102A60003E85280F391F3E872D878B819C81EF85FE
:102A7000F889E80FF91FF88BEF878D819E812989EE
:102A80003A89280F391F3A8B298B6AE070E080E081
:102A900090E00E946D0331E0C31AD10809F070CFB5
:102AA000C701B8010E941E205B01C301B8010E944A
:102AB0001E206B01C201B8010E941E207B018D8582
:102AC0009E85B8010E941E207A8369838F8598892C
:102AD000B8010E941E207C836B8389899A89B80182
:102AE0000E941E207E836D838EE193E00E94A50BE1
:102AF000C5010E94330B8FE293E00E94A50BC60133
:102B00000E94330B8FE293E00E94A50BC7010E9445
:102B1000330B81E393E00E94A50B89819A810E9487
:102B2000330B8FE293E00E94A50B8B819C810E9466
:102B3000330B8FE293E00E94A50B8D819E810E9452
:102B40005C1CC501885C9109C89710F5C6018A5ABA
:102B5000910986359105E0F48FEFE816F10409F04C
:102B6000B8F449815A81CA018A5A9109C89780F4F8
:102B70002B813C81273E310558F48D819E818258FE
:102B800091098437910520F4421753070CF478C259
:102B9000C5018E5B910982349105E8F4C6018E5B14
:102BA000910982349105B8F4C7018E5B9109823492
:102BB000910588F489819A81823E910560F48B8128
:102BC0009C818D3D910538F48D819E81845B9109B6
:102BD000CD9708F45AC2C5018D97833D910508F53C
:102BE000C601865991098A369105D8F4C7018857DC
:102BF000910988389105A8F489819A818E569109A6
:102C0000459778F48B819C818B5491098734910589
:102C100040F48D819E81845691098234910508F497
:102C200039C2C501865991098A36910578F59BE527
:102C3000C916D104C8F4E9E7EE16F104A8F48981B5
:102C40009A81C39788F48B819C818055910987393B
:102C5000910550F48D819E818654910932E9E32ECD
:102C600032E0F32EC397C8F1A5E0EA2EA2E0FA2ED7
:102C700034C08AE091E00E94E10AFFCF0E94EF2079
:102C8000C2CD8CED90E00E94E10AFFCFFDE3AF16CC
:102C9000B10450F724E1C21AD10831E5C316D104BA
:102CA00018F788E2E81AF1089FE6E916F104E0F661
:102CB00089819A8182589109C397B0F68B819C8152
:102CC0004497823E910580F68D819E814E9726E93C
:102CD000E22E22E0F22EC39738F66F89788DC70175
:102CE0000E94E61C8AE393E00E94A50BC7010E94A4
:102CF000A50B8DE493E00E94A50B8F89988D0E940F
:102D00005C1C62E370E080E090E00E946D03F401DF
:102D100026E011922A95E9F7F10126E011922A9511
:102D2000E9F7F3E0CF2ED12C1A8A198A188A1F8668
:102D30001E861D86512C412C712C612CF12CE12C0E
:102D400062E070E0C4010E94A81C62E070E0C10172
:102D50000E946A1C8F819885988F8F8BA984BA8472
:102D6000EB85FC85FA8FE98F8BE593E00E94A50B3C
:102D70008F89988D0E94330B8FE293E00E94A50B00
:102D8000C5010E94330B8FE293E00E94A50B898D51
:102D90009A8D0E94330B81E393E00E94A50B8981F9
:102DA0009A810E94330B8FE293E00E94A50B8B81E6
:102DB0009C810E94330B8FE293E00E94A50B8D81D2
:102DC0009E810E945C1C8F8198858F3F910519F030
:102DD00014F08FEF90E097FF02C090E080E0E80EE3
:102DE000F91E89859A858F3F910519F014F08FEFB0
:102DF00090E097FF02C090E080E0680E791E8B851E
:102E00009C858F3F910519F014F08FEF90E097FFAC
:102E100002C090E080E0480E591E89819A812D857C
:102E20003E85280F391F3E872D878B819C81EF853A
:102E3000F889E80FF91FF88BEF878D819E8129892A
:102E40003A89280F391F3A8B298B6AE070E080E0BD
:102E500090E00E946D0331E0C31AD10809F070CFF1
:102E6000C701B8010E941E207B01C301B8010E9466
:102E70001E206B01C201B8010E941E205B018D85DE
:102E80009E85B8010E941E207A8369838F85988968
:102E9000B8010E941E207C836B8389899A89B801BE
:102EA0000E941E207E836D838BE593E00E94A50B1C
:102EB000C7010E94330B8FE293E00E94A50BC6016D
:102EC0000E94330B8FE293E00E94A50BC5010E9484
:102ED000330B81E393E00E94A50B89819A810E94C4
:102EE000330B8FE293E00E94A50B8B819C810E94A3
:102EF000330B8FE293E00E94A50B8D819E810E948F
:102F00005C1CC701885C9109C89700F5C601885C04
:102F10009109C897D8F48FEFA816B10409F0B0F45E
:102F200089819A81865991098234910578F48B813F
:102F30009C818C5891098B35910540F48D819E813F
:102F4000885791098E37910508F4A9C0C7018E5B97
:102F5000910982349105E8F4C6018E5B91098234AF
:102F60009105B8F4C5018E5B91098234910588F40E
:102F700089819A81873E910560F48B819C81893C8F
:102F8000910538F48D819E81885C9109899708F4B8
:102F900054C1C701CC978B35910500F5C601805A05
:102FA000910980369105D0F4C50180559109803B87
:102FB0009105A0F489819A818E569109459770F404
:102FC0008B819C81C7978B3A910540F48D819E81BE
:102FD000845691098735910508F434C1C701449797
:102FE0008C3E9105E8F497EEC916D104C8F4EFEFD2
:102FF000AE16B10409F0A0F489819A81813F910550
:1030000078F48B819C81865491098B3A910540F428
:103010008D819E81855591098A36910508F417C1E5
:10302000F2E3EF1AF10820E6E216F10470F43EE64E
:10303000C31AD1088DE3C816D10438F496E9A91A49
:10304000B108E7E4AE16B104B0F089819A818258E4
:103050009109C39708F000C18B819C81805591092B
:10306000863A910508F0F8C08D819E814E97813592
:10307000910508F0F1C046E9E42E42E0F42E13C0B9
:103080009FE7E92E92E0F92E28CE86E8E82E82E02E
:10309000F82E23CEBCE8EB2EB2E0FB2E1ECEEFE7DF
:1030A000EE2EE2E0FE2E6B8D7C8DC7010E94E61CA9
:1030B0008CE693E00E94A50BC7010E94A50B8DE44E
:1030C00093E00E94A50B8B8D9C8D0E945C1C2B892C
:1030D0003C892A5F3F4F3C8B2B8B8EE391E082171C
:1030E000930709F016CC70E060E08CE796E00E9450
:1030F000D30468EE73E080E090E00E946D0381E00D
:103100008093F0048FE793E00E94630B8EE993E0D5
:103110000E94630B20E0E22E21E0F22E10E000E09E
:1031200081EB93E00E94A50BC8010E94330B8CE257
:1031300093E00E94A50BF701819191917F010E947C
:10314000630B0F5F1F4F0A30110551F78CEB93E0B3
:103150000E94630B0EE311E081ED93E00E94A50B4A
:10316000F801808191810E94A50B8CE293E00E947E
:10317000A50BED89FE89808191818F3F980731F001
:103180000E94330B82ED93E00E94A50BED89FE892E
:10319000828193818F3F980731F00E94330B82ED3B
:1031A00093E00E94A50B83E891E00E94D40A0D5F92
:1031B0001F4F2D893E892C5F3F4F3E8B2D8B2D5EFF
:1031C000344051F684ED93E00E94630B87E890E071
:1031D0000E94E10A1092FF041092F7041092030576
:1031E0001092020588E690E00E94E10A80E0A82E95
:1031F00080E0B82E11E094EBE92EF12C80910205CD
:10320000909103058230910509F4E3C08330910564
:1032100009F4E7C1892B09F0BEC080910105811135
:1032200026C083E895E00E94090418161906CCF41C
:1032300083E895E00E94E703F4CF76E8E72E72E09A
:10324000F72E31CF6CE8E62E62E0F62E2CCF52E955
:10325000E52E52E0F52E27CF35E0E32E32E0F32EB7
:1032600022CF109301058DEF93E00E94E10A809137
:10327000000581110CC00E94950B0E94850B0E94D5
:10328000750B109300058CEC93E00E94E10A83E833
:1032900095E00E9409041816190634F583E895E0B4
:1032A0000E94E703E091FF04E11107C08A3A29F484
:1032B0001093FF048093F804EACF9FEF9E0F96309F
:1032C00080F491E09E0F9093FF04F0E0E850FB4FF4
:1032D00080839730E1F6853509F07FC21093F704BB
:1032E000D6CF1092FF04D3CF8091F704882309F43E
:1032F00052C08091F8048A3A09F049C08091FE04D6
:10330000853509F044C09091F904D090FA040091F9
:10331000FB04C090FC04892F8D0D8655800F8C0D09
:103320002091FD04281350C0933009F04DC08AE964
:1033300093E00E9498046D2D70E090E080E04AE0F8
:103340000E94EF0A8FE893E00E949804602F70E0DB
:1033500090E080E04AE00E94EF0A82E893E00E9459
:1033600098048C2D0E94D90B91E0C91210C0D9127B
:103370001EC08DE593E00E94E10A82E090E0909308
:10338000030580930205109200051092010510922A
:10339000FF041092F704A114B10409F42FCF0E9486
:1033A0001504882309F42ACF0E94000027CF01309A
:1033B00071F788E393E00E94E10AE3E0F0E0F09324
:1033C0000305E0930205DFCF85E193E00E94E10A67
:1033D000DECF8091F60481115FC089EF92E00E94F8
:1033E000E10A809114019091150197FF04C0109299
:1033F000150110921401C0901401D0901501FFE541
:10340000CF1AD108D0921501C0921401B60183E2FF
:1034100096E00E94D304F092EE04E092ED046090F6
:10342000ED047090EE046C147D049CF0B30183E213
:1034300096E00E94D3046AE070E080E090E00E9491
:103440006D0321E0621A71087092EE046092ED043F
:10345000E6CF81EF93E00E94630B80911801909179
:1034600019014496853B91050CF066C090931901B3
:1034700080931801609118017091190186E296E01D
:103480000E94D3041093F60468EE73E080E090E0AD
:103490000E946D031092F5048091F504882309F4CD
:1034A00050C00E949F034090F1045090F20460903D
:1034B000F3047090F4046419750986099709683853
:1034C00073418105910508F466CF88ED92E00E9472
:1034D000E10A0E94950B0E94850B0E94750B0E94C9
:1034E000AC0B64E170E080E090E00E946D030E940C
:1034F000AC0B64E170E080E090E00E946D030E94FC
:10350000AC0B64E170E080E090E00E946D0388EB1A
:1035100092E00E94E10A10920305109202051092B7
:10352000F6041092F5041092F1041092F204109235
:10353000F3041092F4042FCFF0921901E0921801D5
:1035400099CF8091F004882309F440C08DE596E07E
:103550000E946D066DE576E0C4010E94200D8B850A
:103560009C85892B79F180EA92E00E94E10AC401EE
:103570000E94B00C1A8219821C821B821E821D823C
:103580006F8178856115710529F04B855C85C101D6
:103590000E94F50C61E070E0C1010E94CD0DC101F7
:1035A0000E94C50C0E949F036093F1047093F20483
:1035B0008093F3049093F4041093F50489E792E068
:1035C0000E94E10AC4010E94C50C04C08AE592E091
:1035D0000E94E10A62E370E080E090E00E946D03E7
:1035E000DACE8091EF04811162C08EE392E00E94F6
:1035F000E10A80911601909117018D589F4F853BEC
:1036000091055CF59093170180931601C090160107
:10361000D0901701B60180E296E00E94D304109288
:10362000EE041092ED046090ED047090EE04C61468
:10363000D704C4F0B30180E296E00E94D3046FE0A7
:1036400070E080E090E00E946D038FEF681A780AC6
:103650007092EE046092ED04E6CFF0921701E092D2
:103660001601D4CF84E094E00E94630B809118018E
:1036700090911901449797FD60C090931901809330
:103680001801609118017091190186E296E00E947C
:10369000D30487E194E00E94630B1093EF0468EE7B
:1036A00073E080E090E00E946D031092F504809139
:1036B000F504882309F446C00E949F034090F1045A
:1036C0005090F2046090F3047090F404641975094A
:1036D0008609970968357B418105910508F45BCE21
:1036E0008DE192E00E94E10A0E94950B0E94850BF9
:1036F0000E94750B0E94AC0B64E170E080E090E0EA
:103700000E946D030E94AC0B64E170E080E090E0E9
:103710000E946D030E94AC0B64E170E080E090E0D9
:103720000E946D038DEF91E00E94E10A1092030563
:10373000109202051092EF04F4CE1092190110922B
:1037400018019FCF8091F0048823E1F18EE396E089
:103750000E946D066EE376E0C4010E94200D8B8509
:103760009C85892B09F42ECF85EE91E00E94980468
:10377000C4010E94B00C1A8219821C821B821E8214
:103780001D826F8178856115710529F04B855C85F7
:10379000C1010E94F50C62E070E0C1010E94CD0DF4
:1037A000C1010E94C50C0E949F036093F1047093B5
:1037B000F2048093F3049093F4041093F5048EEBD9
:1037C00091E0FECE8FE991E003CF002311F40C9439
:1037D000C71311E001E00C94D1131092FF0481EBA8
:1037E00093E053CD1111F5CF82E090E00E94830C5D
:1037F000182F62E370E080E090E00E946D030C946B
:10380000C313FC01138E128E118E108E178A168A26
:103810008DE991E0958F848F84858631D8F52DEBE5
:1038200030E0378B268B2BE931E0318F208F2CE273
:1038300031E0338F228F90916800883070F121E061
:103840008E3008F420E081E001C0880F2A95EAF765
:10385000892B8093680084852DE630E0883050F015
:103860002BE630E08E3030F02CE630E0863110F080
:1038700030E020E0348B238B282F30E0883078F440
:1038800091E001C0990F8A95EAF7958B848D958D0B
:103890000197F1F7CF010C946D0684E0D9CF8E30FB
:1038A00040F42850310991E001C0990F2A95EAF7B8
:1038B000ECCF2E503109F7CFCF93DF930E94330B1B
:1038C000EC0183E891E00E94D40A8C0F9D1FDF91E8
:1038D000CF9108950F931F93CF93DF938C0181E0D5
:1038E0006130710509F480E00E94EC0B81E0809367
:1038F000130588E48093350510921405109236055F
:1039000081ED90E00E94A30980E00E94EB0783E034
:1039100090E00E94AB09E8010A5F1F4F90911105EA
:1039200080911205981751F0C017D10739F089E23C
:1039300096E00E942D0989939993F0CF6AE070E098
:1039400080E090E0DF91CF911F910F910C946D0377
:103950000F931F93CF93DF938C0181E0613071054A
:1039600009F480E00E94EC0B81E08093130588E469
:1039700080933505109214051092360580ED90E085
:103980000E94A30980E00E94EB0783E090E00E9480
:10399000AB09E8010A5F1F4F909111058091120554
:1039A000981751F0C017D10739F089E296E00E94CC
:1039B0002D0989939993F0CF6AE070E080E090E060
:1039C000DF91CF911F910F910C946D03CF92DF92F5
:1039D000EF92FF920F931F93CF93DF936C018B01B4
:1039E000FB01EE0FFF1FE050FF4F918380835EE3EA
:1039F000E52E51E0F52ED0E0C0E0B601F701808160
:103A000091810E944622892BF1F4CC0FDD1FFE012B
:103A1000E153FB4F80819181823091055CF4C80FA6
:103A2000D91FCC0FDD1FC752DB4F198308830196C6
:103A300091838083DF91CF911F910F91FF90EF9041
:103A4000DF90CF9008952196F3E0EF0EF11CC53082
:103A5000D10599F6EFCFCF93DF93C1E5D1E0D093B5
:103A60003F06C0933E068EE396E00E945706D09331
:103A70005E06C0935D068DE596E0DF91CF910C94D4
:103A800057060E94831D08F481E00895E89409C058
:103A900097FB3EF490958095709561957F4F8F4F81
:103AA0009F4F9923A9F0F92F96E9BB279395F69597
:103AB000879577956795B795F111F8CFFAF4BB0F15
:103AC00011F460FF1BC06F5F7F4F8F4F9F4F16C079
:103AD000882311F096E911C0772321F09EE8872F03
:103AE000762F05C0662371F096E8862F70E060E0BF
:103AF0002AF09A95660F771F881FDAF7880F969538
:103B0000879597F90895990F0008550FAA0BE0E8DB
:103B1000FEEF16161706E807F907C0F0121613068F
:103B2000E407F50798F0621B730B840B950B39F4CF
:103B30000A2661F0232B242B252B21F408950A2635
:103B400009F4A140A6958FEF811D811D08950E9463
:103B5000BA1D0C942B1E0E941D1E38F00E94241EBC
:103B600020F0952311F00C94141E0C941A1E1124AD
:103B70000C945F1E0E943C1E70F3959FC1F3950F3D
:103B800050E0551F629FF001729FBB27F00DB11DE1
:103B9000639FAA27F00DB11DAA1F649F6627B00D71
:103BA000A11D661F829F2227B00DA11D621F739F5A
:103BB000B00DA11D621F839FA00D611D221F749F68
:103BC0003327A00D611D231F849F600D211D822FAF
:103BD000762F6A2F11249F5750409AF0F1F08823D6
:103BE0004AF0EE0FFF1FBB1F661F771F881F915003
:103BF0005040A9F79E3F510580F00C94141E0C9480
:103C00005F1E5F3FE4F3983ED4F386957795679502
:103C1000B795F795E7959F5FC1F7FE2B880F911D2C
:103C20009695879597F9089597F99F6780E870E0D2
:103C300060E008959FEF80EC089500240A94161622
:103C4000170618060906089500240A94121613068A
:103C5000140605060895092E0394000C11F4882318
:103C600052F0BB0F40F4BF2B11F460FF04C06F5F34
:103C70007F4F8F4F9F4F089557FD9058440F551F0A
:103C800059F05F3F71F04795880F97FB991F61F0DE
:103C90009F3F79F087950895121613061406551F55
:103CA000F2CF4695F1DF08C0161617061806991FC1
:103CB000F1CF86957105610508940895E894BB27B6
:103CC00066277727CB0197F90895052E97FB1EF4F9
:103CD00000940E947C1E57FD07D00E94CE1E07FC58
:103CE00003D04EF40C947C1E509540953095219550
:103CF0003F4F4F4F5F4F0895909580957095619518
:103D00007F4F8F4F9F4F08950E94F01EA59F900DEB
:103D1000B49F900DA49F800D911D11240895B7FFAD
:103D20000C94841E0E94841E821B930B08952F9274
:103D30003F924F925F926F927F928F929F92AF923B
:103D4000BF92CF92DF92EF92FF920F931F93CF9388
:103D5000DF93CDB7DEB7CA1BDB0B0FB6F894DEBF1F
:103D60000FBECDBF09942A88398848885F846E8445
:103D70007D848C849B84AA84B984C884DF80EE808F
:103D8000FD800C811B81AA81B981CE0FD11D0FB698
:103D9000F894DEBF0FBECDBFED010895A1E21A2E4B
:103DA000AA1BBB1BFD010DC0AA1FBB1FEE1FFF1FDF
:103DB000A217B307E407F50720F0A21BB30BE40B2F
:103DC000F50B661F771F881F991F1A9469F7609576
:103DD0007095809590959B01AC01BD01CF01089530
:103DE000A29FB001B39FC001A39F700D811D11243C
:103DF000911DB29F700D811D1124911D0895505881
:103E0000BB27AA270E94171F0C942B1E0E941D1E61
:103E100038F00E94241E20F039F49F3F19F426F454
:103E20000C941A1E0EF4E095E7FB0C94141EE92F77
:103E30000E943C1E58F3BA17620773078407950760
:103E400020F079F4A6F50C945E1E0EF4E0950B2E8E
:103E5000BA2FA02D0B01B90190010C01CA01A001DC
:103E60001124FF27591B99F0593F50F4503E68F137
:103E70001A16F040A22F232F342F4427585FF3CF78
:103E8000469537952795A795F0405395C9F77EF449
:103E90001F16BA0B620B730B840BBAF09150A1F092
:103EA000FF0FBB1F661F771F881FC2F70EC0BA0F18
:103EB000621F731F841F48F4879577956795B795A0
:103EC000F7959E3F08F0B0CF9395880F08F099279B
:103ED000EE0F9795879508950E94801F0C942B1ED6
:103EE0000E94241E58F00E941D1E40F029F45F3FDE
:103EF00029F00C94141E51110C945F1E0C941A1E80
:103F00000E943C1E68F39923B1F3552391F3951B4E
:103F1000550BBB27AA2762177307840738F09F5FEA
:103F20005F4F220F331F441FAA1FA9F335D00E2E57
:103F30003AF0E0E832D091505040E695001CCAF7C4
:103F40002BD0FE2F29D0660F771F881FBB1F261787
:103F500037074807AB07B0E809F0BB0B802DBF015E
:103F6000FF2793585F4F3AF09E3F510578F00C942D
:103F7000141E0C945F1E5F3FE4F3983ED4F38695C5
:103F800077956795B795F7959F5FC9F7880F911D4E
:103F90009695879597F90895E1E0660F771F881F3A
:103FA000BB1F621773078407BA0720F0621B730BED
:103FB000840BBA0BEE1F88F7E09508950E94441E0B
:103FC00088F09F5798F0B92F9927B751B0F0E1F0DA
:103FD000660F771F881F991F1AF0BA95C9F714C08A
:103FE000B13091F00E945E1EB1E008950C945E1E07
:103FF000672F782F8827B85F39F0B93FCCF38695C3
:1040000077956795B395D9F73EF49095809570951F
:1040100061957F4F8F4F9F4F08950E94831D08F435
:104020008FEF0895991B79E004C0991F961708F047
:10403000961B881F7A95C9F78095089597FB072EE0
:1040400016F4009407D077FD09D00E94392007FCB0
:1040500005D03EF4909581959F4F08957095619598
:104060007F4F08950E94F01EB7FF0895821B930BA7
:104070000895AA1BBB1B51E107C0AA1FBB1FA617AF
:10408000B70710F0A61BB70B881F991F5A95A9F701
:1040900080959095BC01CD010895EE0FFF1F05900E
:1040A000F491E02D09940F931F93CF93DF93823007
:1040B000910510F482E090E0E0918106F091820693
:1040C00030E020E0B0E0A0E0309799F42115310510
:1040D00009F44AC0281B390B24303105D8F58A81F0
:1040E0009B816115710589F1FB0193838283FE0138
:1040F00011C0408151810281138148175907E0F0B6
:104100004817590799F4109761F012960C9312977B
:1041100013961C933296CF01DF91CF911F910F918F
:1041200008950093810610938206F4CF211531057E
:1041300051F04217530738F0A901DB019A01BD0184
:10414000DF01F801C1CFEF01F9CF90938206809390
:104150008106CDCFFE01E20FF31F81939193225090
:10416000310939832883D7CF20917F06309180068B
:10417000232B41F420911C0130911D0130938006C6
:1041800020937F0620911A0130911B0121153105E2
:1041900041F42DB73EB740911E0150911F01241BE1
:1041A000350BE0917F06F0918006E217F307A0F44B
:1041B0002E1B3F0B2817390778F0AC014E5F5F4F7D
:1041C0002417350748F04E0F5F1F50938006409329
:1041D0007F06819391939FCFF0E0E0E09CCFCF9357
:1041E000DF930097E9F0FC01329713821282A091CD
:1041F0008106B0918206ED0130E020E01097A1F435
:1042000020813181820F931F20917F06309180069B
:104210002817390709F061C0F0938006E0937F0604
:10422000DF91CF910895EA01CE17DF07E8F54A81C3
:104230005B819E0141155105B1F7E901FB83EA83DA
:1042400049915991C40FD51FEC17FD0761F4808186
:1042500091810296840F951FE90199838883828159
:1042600093819B838A83F0E0E0E012968D919C918C
:1042700013970097B9F52D913C911197CD010296B6
:10428000820F931F20917F063091800628173907EF
:1042900039F6309751F51092820610928106B0934C
:1042A0008006A0937F06BCCFD383C2834081518117
:1042B000840F951FC817D90761F44E5F5F4F88813F
:1042C0009981480F591F518340838A819B81938331
:1042D00082832115310509F0B0CFF0938206E09377
:1042E00081069ECFFD01DC01C0CF13821282D7CFA1
:1042F000B0E0A0E0EEE7F1E20C94991E8C0100978B
:1043000051F4CB010E9453208C01C801CDB7DEB718
:10431000E0E10C94B51EFC01E60FF71F9C01225052
:104320003109E217F30708F49DC0D901CD91DC9162
:104330001197C617D70798F0C530D10530F3CE01D5
:1043400004978617970708F3C61BD70B2297C193CC
:10435000D1936D937C93CF010E94EF20D6CF5B0168
:10436000AC1ABD0A4C018C0E9D1EA0918106B09125
:104370008206512C412CF12CE12C109731F58091C3
:104380007F06909180068815990509F05CC0461655
:10439000570608F058C080911A0190911B010097B0
:1043A00041F48DB79EB740911E0150911F01841BAF
:1043B000950BE817F90708F055C0F0938006E093D5
:1043C0007F06F90171836083A0CF8D919C91119735
:1043D00012966C90129713967C901397A815B905B6
:1043E00059F56C0142E0C40ED11CCA14DB0420F163
:1043F000AC014A195B09DA011296159780F06282C6
:10440000738251834083D9016D937C93E114F1044D
:1044100071F0D7011396FC93EE93129776CF229604
:104420008C0F9D1FF90191838083F301EFCFF093EF
:104430008206E093810669CF4816590608F42C01DC
:104440007D01D3019ACFCB010E9453207C010097BC
:1044500049F0AE01B8010E943D22C8010E94EF2040
:10446000870153CF10E000E050CF9111089581549F
:104470008A5108F4805E855A0895FB01DC0102C070
:1044800001900D9241505040D8F70895FB01DC0196
:104490008D91019080190110D9F3990B0895FB01BA
:1044A000DC0101900D920020E1F7089512E0C9E3CC
:1044B000D2E004C0FE010E944D202196CA33D107EC
:1044C000C9F7F894FFCF05020502050205020502AF
:1044D00005020502050205020502A50023005A0097
:1044E0000000830680000500000005002F00010089
:1044F00006005F0002000700870003000800AF000D
:10450000040009009202727F02799602628C0267AF
:1045100086027700000000C405AB03A809C305208C
:10452000063606AB05000000004B04AB03D803B30E
:10453000040904E703FB030000000074094709A80D
:1045400009C30540092D091E090D0A00E58FB3E8CE
:1045500088B5E69CBAE5A48DE4BD8DE5889DE5A708
:104560008BE8A792E5BAA600E5B7A6E888B5E69C71
:10457000BAE5A48DE4BD8DE5889DE5A78BE8A792FB
:10458000E5BAA60053656E7420746F2053544D3302
:10459000323A20646174613D005443413935343806
:1045A00041206E6F7420666F756E642100466169EC
:1045B0006C656420746F2073656C6563742054436C
:1045C00041206368616E6E656C2000556E6B6E6F86
:1045D000776E004572726F723A204D617070696E2D
:1045E00067204E6F7420436F6D706C657465642135
:1045F00000474D3635200020526561643A20004561
:1046000072726F723A204E6F204368616E6E656CF5
:104610007320466F756E64210052656C6561736529
:1046200020416C6C20002042616C6C732028436830
:10463000616E6E656C733A20002C2000290059656C
:1046400073004E6F0059656C6C6F77005768697422
:104650006500477265656E0052656400426C756561
:1046600000E7BFBBE8BDACE888B5E69CBAE5889D2D
:10467000E5A78BE58C96E5AE8CE6889000E5B7A6BD
:10468000E888B5E69CBAE5889DE5A78BE58C96E5BC
:10469000AE8CE6889000E58FB3E888B5E69CBAE575
:1046A000889DE5A78BE58C96E5AE8CE68890005357
:1046B000656E736F7220312072656164793A2000F3
:1046C00053656E736F7220322072656164793A208F
:1046D000000A4D6F76696E6720746F20616E676C9B
:1046E000653A200053656E736F722031207C205232
:1046F00047423A20002C00207C2048534C3A2000AE
:1047000053656E736F7220312064657465637465E0
:1047100064200020666F72206368616E6E656C2095
:104720000053656E736F722032207C205247423AEC
:10473000200053656E736F72203220646574656368
:1047400074656420000A3D3D3D20436F6C6F722DFF
:104750004368616E6E656C204D617070696E672094
:104760003D3D3D004368616E6E656C20E28692209F
:10477000436F6C6F723A0020204368616E6E656C07
:1047800020000A436F6C6F7220E2869220436861BA
:104790006E6E656C733A002020003D3D3D3D3D3D11
:1047A0003D3D3D3D3D3D3D3D3D3D3D3D3D3D3D3D39
:1047B0003D3D3D3D3D3D00E5B7A6E6BB91E981931A
:1047C000E5B7B2E694BEE4B88B00E58FB3E6BB91E3
:1047D000E98193E5B7B2E694BEE4B88B00E58FB308
:0647E000E7BFBB20000052
:107E0000112484B714BE81FFF0D085E080938100F7
:107E100082E08093C00088E18093C10086E0809377
:107E2000C20080E18093C4008EE0C9D0259A86E02C
:107E300020E33CEF91E0309385002093840096BBD3
:107E4000B09BFECF1D9AA8958150A9F7CC24DD24C4
:107E500088248394B5E0AB2EA1E19A2EF3E0BF2EE7
:107E6000A2D0813461F49FD0082FAFD0023811F036
:107E7000013811F484E001C083E08DD089C08234E0
:107E800011F484E103C0853419F485E0A6D080C0E4
:107E9000853579F488D0E82EFF2485D0082F10E0AE
:107EA000102F00270E291F29000F111F8ED06801E7
:107EB0006FC0863521F484E090D080E0DECF843638
:107EC00009F040C070D06FD0082F6DD080E0C81688
:107ED00080E7D80618F4F601B7BEE895C0E0D1E017
:107EE00062D089930C17E1F7F0E0CF16F0E7DF06D8
:107EF00018F0F601B7BEE89568D007B600FCFDCFD4
:107F0000A601A0E0B1E02C9130E011968C91119780
:107F100090E0982F8827822B932B1296FA010C0160
:107F200087BEE89511244E5F5F4FF1E0A038BF0790
:107F300051F7F601A7BEE89507B600FCFDCF97BE46
:107F4000E89526C08437B1F42ED02DD0F82E2BD052
:107F50003CD0F601EF2C8F010F5F1F4F84911BD097
:107F6000EA94F801C1F70894C11CD11CFA94CF0C13
:107F7000D11C0EC0853739F428D08EE10CD085E9AC
:107F80000AD08FE07ACF813511F488E018D01DD067
:107F900080E101D065CF982F8091C00085FFFCCF94
:107FA0009093C60008958091C00087FFFCCF809118
:107FB000C00084FD01C0A8958091C6000895E0E648
:107FC000F0E098E1908380830895EDDF803219F02E
:107FD00088E0F5DFFFCF84E1DECF1F93182FE3DFCA
:107FE0001150E9F7F2DF1F91089580E0E8DFEE27F6
:047FF000FF270994CA
:027FFE00040479
:00000001FF
