:020000040000FA
:100000000C9409010C9431010C9431010C94EF0B08
:100010000C94EF0B0C94EF0B0C9431010C94310108
:100020000C9431010C9431010C9431010C94330B7C
:100030000C9431010C9431010C9431010C94310178
:100040000C94910A0C9431010C94010B0C94DB0A72
:100050000C9431010C9431010C9431010C94310158
:100060000C94670C0C94310141726475696E6F20B9
:1000700055415254204D617374657220526561641C
:1000800079004D617070696E6720636F6D706C658B
:100090007465642120526561647920746F207265F3
:1000A000636569766520515220636F6D6D616E6482
:1000B000732E005374617274696E67206175746F7A
:1000C0006D6174696320636F6C6F72206D61707015
:1000D000696E672E2E2E00426F746820474D3635AC
:1000E000204D6F64756C65732052656164790050B2
:1000F00043413936383520526561647900504341B7
:100100003936383520496E697469616C697A617471
:10011000696F6E204661696C65642100436F6C6F86
:10012000722053656E736F7273205265616479003B
:10013000436F6C6F722053656E736F7220496E69E6
:100140007469616C697A6174696F6E204661696C6B
:1001500065642100496E697469616C697A696E67CA
:100160002054434139353438412E2E2E00372C3857
:100170002C3920736572766F7320696E69746961BA
:100180006C697A65640053656E736F722073657273
:10019000766F20696E697469616C697A656400497B
:1001A00032432062757320696E697469616C697A83
:1001B00065640000000000240027002A0000000001
:1001C0000800020100000304070000000000000016
:1001D0000000000000230026002900000000002588
:1001E0000028002B00040404040404040402020296
:1001F0000202020303030303030102040810204068
:100200008001020408102001020408102000A10D42
:10021000731B11241FBECFEFD8E0DEBFCDBF15E0AA
:10022000A0E0B1E0E6E5F1E402C005900D92AE3940
:10023000B107D9F728E0AEE9B5E001C01D92A430BE
:10024000B207E1F711E0C8E0D1E004C02197FE0158
:100250000E94951EC730D107C9F70E94010E0C9469
:100260009E200C9400000895089590E0FC01E35452
:10027000FE4F2491FC01E750FE4F3491FC01EB51FD
:10028000FE4FE491EE23C9F0222339F0233001F12F
:10029000A8F4213019F1223029F1F0E0EE0FFF1F10
:1002A000E552FE4FA591B4918FB7F894EC9161118E
:1002B00026C030953E233C938FBF08952730A9F088
:1002C0002830C9F0243049F7809180008F7D03C029
:1002D000809180008F7780938000DFCF84B58F7707
:1002E00084BDDBCF84B58F7DFBCF8091B0008F774D
:1002F0008093B000D2CF8091B0008F7DF9CF3E2B9C
:10030000DACFCF93DF9390E0FC01E750FE4F2491CA
:100310008B519E4FFC0184918823D1F090E0880F8F
:10032000991FFC01ED54FE4FA591B491FC01E552DB
:10033000FE4FC591D49161110EC09FB7F8948C9176
:10034000E22FE0958E238C932881E223E8839FBFE0
:10035000DF91CF9108958FB7F894EC91E22BEC9355
:100360008FBFF6CF0F931F93CF93DF93EC01162F20
:10037000042F1B821A8288EE93E0A0E0B0E08C8309
:100380009D83AE83BF8381E591E0998388831F8A33
:100390001E8A198E188E1B8E1A8E1D8E1C8E6E8DC7
:1003A0006E7F6D7F6E8F6695617081E06827842F08
:1003B0000E94350161E0802F0E948101802F90E032
:1003C000FC01E750FE4FE491E88BFC01EB51FE4F3E
:1003D000E491F0E0EE0FFF1FE552FE4F85919491FE
:1003E0009A8B898B60E0812F0E9481018E8D81FD27
:1003F00004C061E0812F0E9435011C87812F90E0AD
:10040000FC01E750FE4FE491ED87FC01EB51FE4FFC
:10041000E491F0E0EE0FFF1FEF52FE4F85919491B3
:100420009F878E87DF91CF911F910F9108953FB7DE
:10043000F8948091860690918706A0918806B091E5
:10044000890626B5A89B05C02F3F19F00196A11D6E
:10045000B11D3FBFBA2FA92F982F8827BC01CD010E
:10046000620F711D811D911D42E0660F771F881F6D
:10047000991F4A95D1F708958F929F92AF92BF929C
:10048000CF92DF92EF92FF924B015C010E94170224
:100490006B017C010E9417026C197D098E099F096E
:1004A000683E734081059105A8F321E0821A910806
:1004B000A108B10888EEC80E83E0D81EE11CF11C2B
:1004C00081149104A104B10429F7FF90EF90DF900B
:1004D000CF90BF90AF909F908F900895AF92BF92B2
:1004E000CF92DF92EF92FF920F931F93CF93DF9300
:1004F0006C017B018B01040F151FEB015E01AE182F
:10050000BF08C017D10759F06991D601ED91FC9150
:100510000190F081E02DC6010995892B79F7C5017D
:10052000DF91CF911F910F91FF90EF90DF90CF90CF
:10053000BF90AF900895FC01538D448D252F30E07E
:10054000842F90E0821B930B541710F0CF960895E0
:1005500001970895FC01918D828D981761F0A28D0D
:10056000AE0FBF2FB11D5D968C91928D9F5F9F73D3
:10057000928F90E008958FEF9FEF0895FC01918D89
:10058000828D981731F0828DE80FF11D858D90E0F6
:1005900008958FEF9FEF0895FC01918D228D892F93
:1005A00090E0805C9F4F821B91098F73992708957B
:1005B00084E097E00E94CC0221E0892B09F420E03E
:1005C000822F089580E090E0892B29F00E94D802C4
:1005D00081110C9400000895FC01A48DA80FB92F7F
:1005E000B11DA35ABF4F2C91848D90E001968F735B
:1005F0009927848FA689B7892C93A089B1898C917A
:10060000837080648C93938D848D981306C00288C8
:10061000F389E02D80818F7D80830895EF92FF9292
:100620000F931F93CF93DF93EC0181E0888F9B8D15
:100630008C8D98131AC0E889F989808185FF15C0CF
:100640009FB7F894EE89FF896083E889F9898081F2
:100650008370806480839FBF81E090E0DF91CF91C1
:100660001F910F91FF90EF900895F62E0B8D10E0E3
:100670000F5F1F4F0F731127E02E8C8D8E110CC052
:100680000FB607FCFACFE889F989808185FFF5CF9D
:10069000CE010E94EC02F1CFEB8DEC0FFD2FF11D8E
:1006A000E35AFF4FF0829FB7F8940B8FEA89FB89DA
:1006B00080818062CFCFCF93DF93EC01888D882338
:1006C000B9F0AA89BB89E889F9898C9185FD03C0B5
:1006D000808186FD0DC00FB607FCF7CF8C9185FF9A
:1006E000F2CF808185FFEDCFCE010E94EC02E9CFF1
:1006F000DF91CF910895CF92DF92EF92FF92CF9347
:10070000DF93EC01603282E07807CCF5653B710540
:1007100014F064EB70E0898128E830E0281B31098F
:1007200087FD3395220F331F220F331F6901330FCB
:10073000EE08FF088A8128E532E0281B310987FD91
:100740003395220F331F220F331F032E000C440B4F
:10075000550B2C193D094E095F09DB0177FF02C0DB
:10076000B0E0A0E00E94D71C24EB30E040E050E075
:100770000E94AD1CC20ED31EE41EF51EB601E88118
:10078000EC3070F5298188E890E0821B910927FD03
:100790009395880F991F880F991F681779077CF028
:1007A0002A8188E592E0821B910927FD9395880FA5
:1007B000991F880F991F681779070CF4CB010297CE
:1007C000880F991F4FB7F8942E2F30E0F901EE0FE4
:1007D000FF1FE20FF31FE75DF94F928381834FBF45
:1007E000DF91CF91FF90EF90DF90CF9008951F930E
:1007F000CF93DF93EC01162F88818C3008F04EC028
:1008000061E0812F0E9481018881282F30E0F90169
:10081000EE0FFF1FE20FF31FE75DF94F1F736081BB
:10082000607C612B608319821A822CE0622F0E9407
:100830005A1E829FB001112430E020E0AB01420F2C
:10084000531FFA01EE0FFF1FE40FF51FE75DF94F8D
:10085000908196FD16C02F5F3F4F2C30310571F708
:1008600081110FC01092800082E08093810010926D
:10087000850010928400B19A80916F00826080930D
:100880006F00E8818E2F90E0FC01EE0FFF1FE80F54
:10089000F91FE75DF94F8081806480838881DF9153
:1008A000CF911F9108952091250630912606281793
:1008B000390771F49091240680912306981741F02E
:1008C000E0912406F0E0ED51FA4F808190E0089528
:1008D0008FEF9FEF08950895EF92FF920F931F936C
:1008E000CF93DF93DC015C96ED90FC905D97E11473
:1008F000F10479F481E090E013969C938E93129723
:1009000090E080E0DF91CF911F910F91FF90EF90E9
:1009100008955196ED91FC91529750968C91509775
:10092000982F90950FB75E962C915E97122F1270AC
:1009300021FD6095F8942081112319F1282B208343
:10094000E7012197F1F728E0462F50E0308160FF62
:100950001AC0382B3083E7012197F1F7BA0175955A
:100960006795215089F7112381F080818923808345
:100970000FBF5C968D919C910197F1F781E090E01B
:10098000C1CF2923DCCF3923E5CF9081892BEFCF4D
:1009900020912506309126062817390761F48091A9
:1009A00023062091240690E0805C9F4F821B9109D2
:1009B0008F739927089590E080E00895209125068F
:1009C0003091260628173907B9F4909124068091B2
:1009D0002306981789F0E0912406F0E0ED51FA4FD4
:1009E00080812091240630E02F5F3F4F2F73332703
:1009F0002093240690E008958FEF9FEF0895E091F3
:100A00002506F0912606E817F90769F4A389B48949
:100A10009C918589809589238C931092260610924B
:100A2000250681E0089580E008952091C005260FF5
:100A30003327331F21323105ECF42091FE06FC01EF
:100A400090E080E0243069F082E00895A091C00534
:100A50002191AC0140565A4FA40FB52FB11D2C93D4
:100A60000196861798F38091C005680F6093C005C2
:100A700080E0089581E008951092FE0681E0809361
:100A8000DD061092D80661E082E10E94350161E046
:100A900083E10E943501E9EBF0E080818E7F808365
:100AA00080818D7F808388E48093B80085E4809383
:100AB000BC0008951092930610929206109295062B
:100AC0001092B7060E943C0583E391E09093910653
:100AD0008093900684E391E090938F0680938E0636
:100AE0000895CF93DF9391E090939F058823B9F009
:100AF000C091B800D091BA008091BC008A7B8093ED
:100B0000BC0060E082E10E94350160E083E10E9468
:100B100035010E943C05D093BA00C093B800DF9124
:100B2000CF9108958F929F92AF92BF92CF92DF9212
:100B3000EF92FF920F931F93CF93DF93D82FC62F7F
:100B4000142F613208F09CC00E9417026B017C01D7
:100B50008091FE0681116FC081E08093FE061093A4
:100B6000DD069FEF9093DC061092DB069C0F9093BE
:100B7000DA068093D9068091D906DD0FD82BD09361
:100B8000D9068091D806813009F07CC01092D80631
:100B90000E9417026B017C018091D9068093BB00F3
:100BA0008091000790910107A0910207B09103077F
:100BB000892B8A2B8B2BA1F00E9417020091000732
:100BC0001091010720910207309103076C197D09EC
:100BD0008E099F09061717072807390708F44CC024
:100BE0008091BC0083FDD8CF85EC8093BC000E942F
:100BF00017026B017C018091FE06813009F444C02C
:100C00008091DB068C1710F4C091DB06E8EBF6E070
:100C1000AEEDB6E080E08C1359C08C2FDF91CF9100
:100C20001F910F91FF90EF90DF90CF90BF90AF900A
:100C30009F908F9008958091000790910107A09157
:100C40000207B0910307892B8A2B8B2B09F480CFE5
:100C50000E9417028090000790900107A090020761
:100C6000B09003076C197D098E099F0986169706B7
:100C7000A806B90608F06CCF8091FF060E947105A6
:100C8000C0E0CBCF85EEB1CF8091000790910107F6
:100C9000A0910207B0910307892B8A2B8B2B09F4B3
:100CA000AACF0E941702009100071091010720911E
:100CB0000207309103076C197D098E099F090617F9
:100CC00017072807390708F096CFD6CF91919D9343
:100CD0008F5FA1CF8F929F92AF92BF92CF92DF9200
:100CE000EF92FF920F931F93CF93DF93D091B706AC
:100CF000D13208F0D7C0182FC091B6060E94170253
:100D00006B017C018091FE0681116BC082E08093B3
:100D1000FE061093DD068FEF8093DC061092DB0653
:100D2000D093DA06A6E9B6E0E8EBF6E080E0D81367
:100D300091C01092D9068091D906CC0FC82BC093D0
:100D4000D9068091D806813009F088C01092D80663
:100D50000E9417026B017C018091D9068093BB0031
:100D60008091000790910107A0910207B0910307BD
:100D7000892B8A2B8B2BA1F00E9417020091000770
:100D80001091010720910207309103076C197D092A
:100D90008E099F09061717072807390708F442C06C
:100DA0008091BC0083FDD8CF85EC8093BC000E946D
:100DB00017026B017C018091FE06823009F450C05D
:100DC0008091DC068F3F09F46FC08091DC06803291
:100DD00009F46CC08091DC06803309F469C084E0BA
:100DE00026C08091000790910107A0910207B09161
:100DF0000307892B8A2B8B2B09F484CF0E941702BF
:100E00008090000790900107A0900207B090030720
:100E10006C197D098E099F0986169706A806B906E2
:100E200008F070CF8091FF060E94710585E0109256
:100E300095061092B70610929406DF91CF911F91FC
:100E40000F91FF90EF90DF90CF90BF90AF909F9069
:100E50008F9008959D9191938F5F69CF85EEA5CF77
:100E60008091000790910107A0910207B0910307BC
:100E7000892B8A2B8B2B09F49ECF0E94170200919D
:100E800000071091010720910207309103076C19A8
:100E90007D098E099F09061717072807390708F0EB
:100EA0008ACFC0CF81E0C3CF80E0C1CF82E0BFCF87
:100EB00083E0BDCF1F93CF93DF93EA01122FDC01B4
:100EC00011968D919C91DC01ED91FC910280F38152
:100ED000E02D0995C817D90729F4812F0E946A06C9
:100EE00091E0811190E0892FDF91CF911F910895BA
:100EF000CF93DF93EC018B818823A1F0888191E06F
:100F0000909394068093B606109295061092B706B9
:100F100081E00E946A0691E0811190E0892FDF91C3
:100F2000CF9108950E945A0581E08B83CE010E94E3
:100F30007807982F8111E2CFF1CFE091930680914D
:100F40009206E81730F4F0E0E252F94F808190E029
:100F500008958FEF9FEF08959091930680919206E8
:100F60002FEF3FEF981748F4E92FF0E0E252F94FE6
:100F7000208130E09F5F90939306C901089580918E
:100F8000920690919306891B990B0895CF92DF9258
:100F9000EF92FF920F931F93CF93DF937C01CB01CE
:100FA0008A0120919406222389F0EB016B01C40E83
:100FB000D51ECC15DD0569F06991D701ED91FC9145
:100FC0000190F081E02DC7010995F3CF642F0E94B5
:100FD0001505C801DF91CF911F910F91FF90EF9000
:100FE000DF90CF900895CF93DF931F92CDB7DEB7F8
:100FF0006983209194062223F9F02091B7062032CC
:1010000058F021E030E0FC013383228390E080E05F
:101010000F90DF91CF91089580919506E82FF0E031
:10102000EA56F94F998190838F5F8093950680935C
:10103000B70681E090E0ECCF61E0CE0101960E941E
:101040001505F7CF682F8AEA97E00C94F30790E034
:1010500080E0089541E0682F88E40E949205109294
:101060009306809392060895CF93DF9300D0CDB777
:10107000DEB789836A838091B9079091BA07FC0132
:10108000248135812230310590F0208131E0309388
:1010900094062093B606109295061092B70621E0AA
:1010A00042E050E0BE016F5F7F4F0E945A070F90F1
:1010B0000F90DF91CF9108958F929F92AF92BF9240
:1010C000CF92DF92EF92FF920F931F93CF93DF9314
:1010D0001F92CDB7DEB76B017C0120E030E040E825
:1010E0005FE30E94891B87FD97C020E030EC4AE552
:1010F00055E4C701B6010E94551E18160CF493C0A2
:101100006091BB077091BC078091BD079091BE07AD
:101110000E948E1B4B015C0120E030E040E855E46A
:10112000C701B6010E94EF1B9B01AC01C501B401D0
:101130000E94B41D20E030E040E05FE30E94481DC3
:1011400020E030E040E85FE30E94471D6B017C0136
:1011500020E030E040E450E40E94891B87FD6BC032
:1011600020E030E04FE753E4C701B6010E94551E6E
:1011700018160CF466C0C701B6010E94261EB62ED2
:1011800019820091B9071091BA07D80114968D9170
:101190009C911597892B09F45EC08C9191E09093F6
:1011A00094068093B606109295061092B70620E03A
:1011B00041E050E0BE016F5F7F4FC8010E945A07B7
:1011C000882309F448C0F801E480F58061E0E11467
:1011D000F10409F460E0C62ED12C462FD8018C9181
:1011E0000E94920510929306809392068C151D041E
:1011F00091F590E080E08C159D0550F5F801818116
:101200009281DC01ED91FC910284F385E02D09953A
:10121000898381E090E0EFCFC12CD12C30E8E32E20
:101220003FE3F32E6DCFC12C20ECD22E2AE5E22E27
:1012300025E4F22E65CFC12CD12C90E4E92EFE2CB2
:101240009ACFC12CD12C8FE7E82E83E4F82E93CFD0
:10125000EF2809F4B8CF1981612F6F76606180E0C3
:101260000E9434086B2D8EEF0E943408612F80E0BD
:101270000E94340865E070E080E090E00E943C024B
:10128000612F606A80E00E9434080F90DF91CF9157
:101290001F910F91FF90EF90DF90CF90BF90AF9094
:1012A0009F908F900895FC0101900020E9F73197FD
:1012B000AF01481B590BBC0184E097E00C946E020F
:1012C0000F931F93CF93DF938C01D0E0C0E0F80120
:1012D000EC0FFD1F6491662341F084E097E00E94CB
:1012E0000E03892B11F02196F2CF83E891E00E9442
:1012F00053098C0F9D1FDF91CF911F910F9108957E
:101300008F929F92AF92BF920F931F93CF93DF93D1
:10131000CDB7DEB7A1970FB6F894DEBF0FBECDBF35
:1013200019A2423008F44AE08E010F5D1F4F842E4F
:10133000912CB12CA12CA50194010E94161DE62F21
:10134000B901CA01EA30F4F4E05DD801EE938D01F1
:10135000232B242B252B79F790E080E0109719F0B0
:10136000CD010E945309A1960FB6F894DEBF0FBEBF
:10137000CDBFDF91CF911F910F91BF90AF909F9004
:101380008F900895E95CE1CFCF93DF93D0E0C0E088
:10139000009719F00E945309EC0183E891E00E9444
:1013A00053098C0F9D1FDF91CF910895009711F085
:1013B0000C94530990E080E00895CF93DF93682F59
:1013C00070E090E080E04AE00E948009EC0183E850
:1013D00091E00E9453098C0F9D1FDF91CF910895DA
:1013E000CF93DF93C82FD1E0D093940680E780930A
:1013F000B606109295061092B70681E00E946A0622
:10140000882331F08BE991E0DF91CF910C94C409EE
:10141000D0939406109295061092B70681E090E062
:101420000C2E02C0880F991F0A94E2F70E9422082E
:1014300081E00E946A06882339F08FEA91E00E94D9
:10144000D6098C2F0E94DD0964E170E080E090E015
:10145000DF91CF910C943C0221E0019709F420E048
:10146000822F0E94F00981E08093940688E48093A3
:10147000B606109295061092B7068AEA90E00E948E
:10148000220880E00E946A0681E090E00E942A081B
:101490009091920680919306981741F08AEA97E01E
:1014A0000E94AC0721E08636910509F020E0822FEA
:1014B000089585ED8093BC0080910007909101070D
:1014C000A0910207B09103070796A11DB11D23E06B
:1014D000B695A795979587952A95D1F72091BC0049
:1014E00024FD03C01092FE0608954091000750911C
:1014F00001076091020770910307452B462B472B8C
:1015000069F30097A105B10541F02AE22A95F1F7A8
:1015100000C00197A109B109E1CF8091FF060C94A9
:1015200071051F920F920FB60F9211242F933F93C4
:101530008F939F93AF93BF9380918A0690918B0670
:10154000A0918C06B0918D063091850623E0230F83
:101550002D3758F50196A11DB11D20938506809366
:101560008A0690938B06A0938C06B0938D0680918B
:10157000860690918706A0918806B091890601960B
:10158000A11DB11D8093860690938706A0938806BF
:10159000B0938906BF91AF919F918F913F912F9109
:1015A0000F900FBE0F901F90189526E8230F0296FC
:1015B000A11DB11DD2CF1F920F920FB60F92112411
:1015C0002F933F934F935F936F937F938F939F934B
:1015D000AF93BF93EF93FF9384E097E00E94EC02F8
:1015E000FF91EF91BF91AF919F918F917F916F91FB
:1015F0005F914F913F912F910F900FBE0F901F90D1
:1016000018951F920F920FB60F9211242F938F935C
:101610009F93EF93FF93E0911407F091150780815A
:10162000E0911A07F0911B0782FD1BC09081809109
:101630001D078F5F8F7320911E07821741F0E09185
:101640001D07F0E0EC5FF84F958F80931D07FF9129
:10165000EF919F918F912F910F900FBE0F901F9040
:1016600018958081F4CF1F920F920FB60F9211241C
:101670002F933F934F935F936F937F938F939F939A
:10168000AF93BF93CF93DF93EF93FF9380912706A0
:10169000C0912806D0E087FF24C0109285001092E8
:1016A0008400809127068F5F80932706809127060C
:1016B000082E000C990B8C179D0724F480912706A7
:1016C0008C30C4F180918400909185000496803420
:1016D0009C4908F47AC0809184009091850004961A
:1016E00076C080912706082E000C990B8C179D0759
:1016F000C4F6E09127068E2FEE0F990BFC01EE0F3A
:10170000FF1FE80FF91FE75DF94F808186FFC9CF02
:10171000E09127068E2FEE0F990BFC01EE0FFF1FB5
:10172000E80FF91FE75DF94F808160E08F730E9439
:101730003501B7CF2091840030918500E0912706D4
:101740008E2FEE0F990BFC01EE0FFF1FE80FF91F14
:10175000E75DF94F81819281820F931F90938900F9
:1017600080938800E09127068E2FEE0F990BFC01E5
:10177000EE0FFF1FE80FF91FE75DF94F808186FF2D
:1017800011C0E09127068E2FEE0F990BFC01EE0F92
:10179000FF1FE80FF91FE75DF94F808161E08F734C
:1017A0000E943501FF91EF91DF91CF91BF91AF91F1
:1017B0009F918F917F916F915F914F913F912F9169
:1017C0000F900FBE0F901F90189580E49CE99093A6
:1017D0008900809388008FEF80932706E3CF1F92C4
:1017E0000F920FB60F9211242F933F934F935F9355
:1017F0006F937F938F939F93AF93BF93EF93FF93D9
:10180000E0912506F0912606309749F0A685B78528
:101810008585968D91FF14C09C918923A1F4FF9139
:10182000EF91BF91AF919F918F917F916F915F9158
:101830004F913F912F910F900FBE0F901F901895D1
:101840009C91892361F7A389B4899C9185898095AE
:1018500089238C93868997890197F1F7608D718D23
:10186000A685B785558538E020E0CB010197F1F7D3
:10187000822F90E095958795282F4C91452309F06C
:101880002068315091F7868D81FD20958091230647
:1018900090E001968F73992730912406381799F0BC
:1018A000A0912306B0E0AD51BA4F2C93809323064C
:1018B000828D938D0197F1F7A389B4898C919589D5
:1018C000892B8C93ACCF868D8160868FF1CF1F9250
:1018D0000F920FB60F9211242F933F934F935F9364
:1018E0006F937F938F939F93AF93BF93EF93FF93E8
:1018F0008091B900887F803609F44AC0F0F58832BB
:1019000009F4A7C018F5803109F49BC0B8F4882306
:1019100009F4F9C0883009F494C0FF91EF91BF91A8
:10192000AF919F918F917F916F915F914F913F9177
:101930002F910F900FBE0F901F901895883109F4CA
:1019400088C0803251F78093DC0614C0803409F4DB
:101950009DC040F48033B9F38833F9F68093DC06F8
:1019600085ECB0C0803509F485C0883509F496C08F
:10197000883499F60E94590AD0CF883909F48CC06E
:1019800038F5883729F050F4883611F0803729F679
:1019900083E08093FE061092E20557C0883809F470
:1019A0007BC0803919F0803809F0B7CF8091E2050B
:1019B000803208F071C0E091E20581E08E0F8093E3
:1019C000E2058091BB00F0E0EE53FA4F80833DC00A
:1019D000803B39F0E0F4803A09F479C0883A09F0A4
:1019E0009CCF84E08093FE061092C1051092C00542
:1019F000E0919006F091910609958091C0058111C2
:101A00000FC081E08093C0051092A00509C0803C02
:101A100009F4A6CF883C09F4A3CF883B09F07DCF19
:101A2000E091C10581E08E0F8093C105F0E0E056A2
:101A3000FA4F80818093BB009091C1058091C005D1
:101A400029C08091D9068093BB0085EC8093BC00AF
:101A500064CF9091DB068091DA06981758F5E091F3
:101A6000DB0681E08E0F8093DB06F0E0E854F94F4F
:101A70008081E9CFE091DB0681E08E0F8093DB0669
:101A80008091BB00F0E0E854F94F80839091DB0631
:101A90008091DA069817C8F285E8D8CFE091DB0686
:101AA00081E08E0F8093DB068091BB00F0E0E8546C
:101AB000F94F80838091DD0681115CCF81E08093B6
:101AC000D80684EA8093BC001092FE0626CF85ECEF
:101AD0008093BC001092FE068091E205803230F4C3
:101AE000E091E205F0E0EE53FA4F10826091E205DA
:101AF00070E0E0918E06F0918F0682EC95E00995FA
:101B00001092E2050ACF1092DC0634CFFC019091CE
:101B100028069C3098F481E0890F809328069083F2
:101B2000892F90E0FC01EE0FFF1FE80FF91FE75D22
:101B3000F94F88EB9BE09283818308958FEF808338
:101B40000895CF93DF93E4E0F7E01382128288EEEA
:101B500093E0A0E0B0E084839583A683B78323E677
:101B600031E03183208325EC30E03587248724EC75
:101B700030E03787268720EC30E0318B208B21EC5A
:101B800030E0338B228B22EC30E0358B248B26EC3B
:101B900030E0378B268B118E128E138E148ECAEA8C
:101BA000D7E01B821A828C839D83AE83BF8385E737
:101BB00091E09983888387EA97E00E94860D84EA02
:101BC00097E00E94860D81EA97E00E94860DE6EB81
:101BD000F7E080E48083D283C183148213824BE0D8
:101BE0006AE08EED97E00E94B2014DE06CE08FEB71
:101BF00097E00E94B2018DEF97E0DF91CF910C94B6
:101C0000860DCF93DF93CDB7DEB76E970FB6F894FE
:101C1000DEBF0FBECDBF789484B5826084BD84B52D
:101C2000816084BD85B5826085BD85B5816085BDD7
:101C300080916E00816080936E001092810080918F
:101C40008100826080938100809181008160809317
:101C50008100809180008160809380008091B1003C
:101C600084608093B1008091B00081608093B00067
:101C700080917A00846080937A0080917A008260FB
:101C800080937A0080917A00816080937A008091BD
:101C90007A00806880937A001092C100E091140766
:101CA000F091150782E08083E0911007F091110711
:101CB0001082E0911207F091130780E18083109267
:101CC0001C07E0911807F091190786E08083E091E6
:101CD0001607F0911707808180618083E0911607D5
:101CE000F0911707808188608083E0911607F0915A
:101CF0001707808180688083E0911607F0911707AD
:101D000080818F7D808360ED77E080E090E00E94AD
:101D10003C020E945A058FE991E00E94600966E04A
:101D200070E08DEF97E00E94F70370E060E08DEFC8
:101D300097E00E947B0364EF71E080E090E00E94F6
:101D40003C0264EB70E08DEF97E00E947B0364EF50
:101D500071E080E090E00E943C0270E060E08DEF76
:101D600097E00E947B0364E670E080E090E00E94D0
:101D70003C0210E000E0B8018DEF97E00E947B0389
:101D800068E070E080E090E00E943C020F5F1F4F2F
:101D9000053B110581F764E670E080E090E00E9469
:101DA0003C0204EB10E0B8018DEF97E00E947B034A
:101DB00068E070E080E090E00E943C020150110970
:101DC00090F764E670E080E090E00E943C0286E8D4
:101DD00091E00E94600967E070E087EA97E00E9466
:101DE000F7036AE570E087EA97E00E947B038AE5E3
:101DF00090E0909317018093160168EE73E080E005
:101E000090E00E943C0283E692E00E94C40968E0F0
:101E100070E084EA97E00E94F70365EA70E084EAE4
:101E200097E00E947B0385EA90E0909315018093F0
:101E3000140168EE73E080E090E00E943C028FE7BE
:101E400092E00E94C40969E070E081EA97E00E9494
:101E5000F70363E270E081EA97E00E947B0383E28C
:101E600090E0909319018093180168EE73E080E090
:101E700090E00E943C0288E992E00E94C4098DE64D
:101E800091E00E94600984E591E00E946009F5E01C
:101E9000EF2EF12C10E000E001110C94421781E0CC
:101EA00090E00E942C0A082F62E370E080E090E04E
:101EB0000E943C021111D9C782E090E00E942C0AD6
:101EC000182F62E370E080E090E00E943C02002363
:101ED00019F01111CDC701E064E670E080E090E0F8
:101EE0000E943C0231E0E31AF108B1F681EB92E086
:101EF0000E94D60984E492E0002311F080E492E08D
:101F00000E94C40982EC92E00E94D60984E492E027
:101F1000112311F080E492E00E94C409002309F427
:101F20004DC2112309F44AC28CE191E00E9460097C
:101F300082E00E94F00962E370E080E090E00E949D
:101F40003C028091B9079091BA07009709F03BC213
:101F500086E090E00E949B1E8C018091B7079091D3
:101F6000B8072091B607F8012083928381831382FA
:101F700080E290E0958384831093BA070093B907B9
:101F80000E945A0581E0F8018383C8010E94780706
:101F9000882309F41BC260E880E00E9434086AE0EC
:101FA00070E080E090E00E943C0280E498E7ADE7BA
:101FB000B1E08093BB079093BC07A093BD07B0939B
:101FC000BE0760E070E08AE794E40E945C0860E08D
:101FD00070E088E492E40E945C088FEE90E00E943A
:101FE00060098EED97E00E9479178FEB97E00E94D1
:101FF000791787ED90E00E946009ADE4B6E027E52F
:1020000036E03E8B2D8B27E536E0E7E5F6E08FEFF7
:102010009FEF1D921D9291838083938382833496D8
:102020002A173B07B1F783EB90E00E94600970E04C
:1020300060E08DEF97E00E947B036CED75E080E03F
:1020400090E00E943C0280E291E09C8B8B8BFE0131
:102050003796FE87ED879E012F5F3F4F388B2F8786
:1020600003E010E0EB89FC89E080F180228133817C
:102070003A8F298F848195819C8F8B8F83ED92E09D
:102080000E94D609C7010E944118B7018DEF97E061
:102090000E947B036CED75E080E090E00E943C02C2
:1020A000ED85FE8526E011922A95E9F7EF85F889FE
:1020B00026E011922A95E9F7E3E0EE2EF12C188E36
:1020C0001F8A1A8A198A312C212C512C412C712CEF
:1020D000612C912C812C61E070E0CE0107960E946A
:1020E000E81861E070E0CE0101960E94AA18AF8066
:1020F000B884C984DA848B859C859E8F8D8F86EE0B
:1021000092E00E94D609C5010E94D41787EF92E0A1
:102110000E94D609C6010E94D41787EF92E00E9460
:10212000D6098D8D9E8D0E94D41789EF92E00E9472
:10213000D60989819A810E94D41787EF92E00E9484
:10214000D6098B819C810E94D41787EF92E00E9470
:10215000D6098D819E810E9441188F8198858F3F7D
:10216000910519F014F08FEF90E097FF02C090E016
:1021700080E0880E991E89859A858F3F910519F018
:1021800014F08FEF90E097FF02C090E080E0680EBF
:10219000791E8B859C858F3F910519F014F08FEF88
:1021A00090E097FF02C090E080E0480E591E8981C0
:1021B0009A81280E391E8B819C81E989FA89E80F62
:1021C000F91FFA8BE98B8D819E812F89388D280F1D
:1021D000391F388F2F8B6AE070E080E090E00E941A
:1021E0003C0231E0E31AF10809F075CFC401B801EF
:1021F0000E94661E7B01C301B8010E94661E6B012E
:10220000C201B8010E94661E5B01C101B8010E94B3
:10221000661E7A83698389899A89B8010E94661E3D
:102220007C836B838F89988DB8010E94661E7E83A4
:102230006D8386EE92E00E94D609C7010E94D417F2
:1022400087EF92E00E94D609C6010E94D41787EF5B
:1022500092E00E94D609C5010E94D41789EF92E04E
:102260000E94D60989819A810E94D41787EF92E053
:102270000E94D6098B819C810E94D41787EF92E03F
:102280000E94D6098D819E810E944118C701885CF9
:102290009109C89710F5C6018A5A910986359105AA
:1022A000E0F48FEFA816B10409F0B8F449815A811F
:1022B000CA018A5A9109C89780F42B813C81273E34
:1022C000310558F48D819E8182589109843791059A
:1022D00020F4421753070CF472C2C7018E5B9109B8
:1022E00082349105E8F4C6018E5B91098234910530
:1022F000B8F4C5018E5B91098234910588F4898117
:102300009A81823E910560F48B819C818D3D91057F
:1023100038F48D819E81845B9109CD9708F454C275
:10232000C7018D97833D910508F5C601865991092E
:102330008A369105D8F4C5018857910988389105E6
:10234000A8F489819A818E569109459778F48B81FA
:102350009C818B5491098734910540F48D819E8135
:10236000845691098234910508F433C2C701865915
:1023700091098A36910578F59BE5C916D104C8F410
:10238000E9E7AE16B104A8F489819A81C39788F46D
:102390008B819C81805591098739910550F48D81FD
:1023A0009E81865491097AE5E72E72E0F72EC39755
:1023B000C8F12DECE22E21E0F22E34C080E391E052
:1023C0000E946009FFCF0E94371FC2CD8DEF90E0C1
:1023D0000E946009FFCFFDE3EF16F10450F724E1FE
:1023E000C21AD10831E5C316D10418F788E2A81A39
:1023F000B1089FE6A916B104E0F689819A81825856
:102400009109C397B0F68B819C814497823E9105D8
:1024100080F68D819E814E976EE5E62E62E0F62E67
:10242000C39738F6698D7A8DC7010E942E1B82E012
:1024300093E00E94D609C7010E94D60985E193E086
:102440000E94D609898D9A8D0E94411862E370E03E
:1024500080E090E00E943C02ED85FE8526E011922E
:102460002A95E9F7EF85F88926E011922A95E9F790
:1024700093E0C92ED12C912C812C1A8A198A312CE7
:10248000212C512C412C712C612CF12CE12C62E07F
:1024900070E0CE0107960E94E81862E070E0CE017D
:1024A00001960E94AA188F819885988F8F8BA98496
:1024B000BA84EB85FC85FA8FE98F83E293E00E9472
:1024C000D6098F89988D0E94D41787EF92E00E94D9
:1024D000D609C5010E94D41787EF92E00E94D60961
:1024E000898D9A8D0E94D41789EF92E00E94D609B7
:1024F00089819A810E94D41787EF92E00E94D609C1
:102500008B819C810E94D41787EF92E00E94D609AC
:102510008D819E810E9441188F8198858F3F910502
:1025200019F014F08FEF90E097FF02C090E080E088
:10253000E80EF91E89859A858F3F910519F014F0F0
:102540008FEF90E097FF02C090E080E0680E791E68
:102550008B859C858F3F910519F014F08FEF90E0EB
:1025600097FF02C090E080E0480E591E89819A8151
:10257000280E391E8B819C8129893A89280F391FA1
:102580003A8B298B8D819E81880E991E6AE070E0BE
:1025900080E090E00E943C0231E0C31AD10809F0CB
:1025A00076CFC701B8010E94661E7B01C301B80146
:1025B0000E94661E6B01C201B8010E94661E5B018B
:1025C000C101B8010E94661E7A83698389899A894C
:1025D000B8010E94661E7C836B83C401B8010E940F
:1025E000661E7E836D8383E293E00E94D609C70155
:1025F0000E94D41787EF92E00E94D609C6010E947C
:10260000D41787EF92E00E94D609C5010E94D41723
:1026100089EF92E00E94D60989819A810E94D4179D
:1026200087EF92E00E94D6098B819C810E94D4178B
:1026300087EF92E00E94D6098D819E810E94411809
:10264000C701885C9109C89700F5C601885C9109AB
:10265000C897D8F48FEFA816B10409F0B0F48981B7
:102660009A81865991098234910578F48B819C81F5
:102670008C5891098B35910540F48D819E81885746
:1026800091098E37910508F4A9C0C7018E5B9109A5
:1026900082349105E8F4C6018E5B9109823491057C
:1026A000B8F4C5018E5B91098234910588F4898163
:1026B0009A81873E910560F48B819C81893C9105CC
:1026C00038F48D819E81885C9109899708F45DC1F9
:1026D000C701CC978B35910500F5C601805A910949
:1026E00080369105D0F4C50180559109803B910554
:1026F000A0F489819A818E569109459770F48B8157
:102700009C81C7978B3A910540F48D819E818456B8
:1027100091098735910508F43DC1C70144978C3E66
:102720009105E8F497EEC916D104C8F4EFEFAE16A0
:10273000B10409F0A0F489819A81813F910578F470
:102740008B819C81865491098B3A910540F48D814F
:102750009E81855591098A36910508F420C1F2E3DE
:10276000EF1AF10820E6E216F10470F43EE6C31A0F
:10277000D1088DE3C816D10438F496E9A91AB10836
:10278000E7E4AE16B104B0F089819A8182589109CC
:10279000C39708F009C18B819C8180559109863AC5
:1027A000910508F001C18D819E814E97813591057B
:1027B00008F0FAC0EEE5EE2EE2E0FE2E13C057E47C
:1027C000E52E52E0F52E2ECE4EE4E42E42E0F42E1D
:1027D00029CE34E5E32E32E0F32E24CE87E4E82E32
:1027E00082E0F82E6B8D7C8DC7010E942E1B84E346
:1027F00093E00E94D609C7010E94D60985E193E0C3
:102800000E94D6098B8D9C8D0E9441182B893C8992
:102810002A5F3F4F3C8B2B8B8EE391E0821793070F
:1028200009F020CC70E060E08DEF97E00E947B0320
:1028300068EE73E080E090E00E943C0281E08093CB
:10284000770687E493E00E94C40986E693E00E943D
:10285000C40960E0E62E61E0F62E10E000E089E7B2
:1028600093E00E94D609C8010E94D41784EF92E039
:102870000E94D609F701819191917F010E94C409BC
:102880000F5F1F4F0A30110551F784E893E00E9453
:10289000C4090EE311E05BE6E52E56E0F52E89E96A
:1028A00093E00E94D609F801808191810E94D609A7
:1028B00084EF92E00E94D609ED89FE8980819181A2
:1028C0008F3F980731F00E94D4178AE993E00E9465
:1028D000D609ED89FE89828193818F3F980731F077
:1028E0000E94D4178AE993E00E94D60983E891E018
:1028F0000E9453090D5F1F4F2D893E892C5F3F4F6A
:102900003E8B2D8BE216F30651F68CE993E00E9484
:10291000C40982E890E00E94600910928206109239
:102920007A0688E690E00E94600980E0482E80E008
:10293000582EEE24E394F12C23E2622E712C34EB1A
:10294000C32ED12C45EAA42EB12C3324339480918C
:10295000830690918406892B09F042C084E097E0B9
:102960000E94CC02181619060CF046C084E097E0CD
:102970000E94AA02E0918206E1111BC08A3AC9F4C2
:102980003092820680937B06E9CFBEE4EB2EB2E064
:10299000FB2E28CFA4E5EA2EA2E0FA2E23CFFAE5FB
:1029A000EF2EF2E0FF2E1ECF7DECE72E71E0F72E2A
:1029B00019CF9FEF9E0F963080F491E09E0F909379
:1029C0008206F0E0E558F94F8083973039F6853577
:1029D00009F051C230927A06C1CF10928206BECF62
:1029E00084E097E00E94CC02181619062CF484E0CB
:1029F00097E00E94AA02F4CF80917A06882309F416
:102A00001DC280917B068A3A09F014C2809181062A
:102A1000853509F00FC290917C0610917D062090BB
:102A20007E0600917F06892F810F8655820D800FCB
:102A300020918006281314C2933009F011C289EB4B
:102A400093E00E94D609612F70E090E080E04AE0B8
:102A50000E94800987ED93E00E94D609622D70E004
:102A600090E080E04AE00E94800982EE93E00E94BC
:102A7000D609802F0E94DD09F0928406E092830639
:102A80008FEE93E00E94C409013009F0D3C11130E8
:102A900009F0E4C08091780690917906892B09F0BD
:102AA000DDC085E194E00E94C409809114019091F9
:102AB000150197FF04C01092150110921401809027
:102AC0001401909015013FE5831A91089092150129
:102AD00080921401B40184EA97E00E947B03D092B3
:102AE0006C06C0926B0600916B0610916C0608157F
:102AF000190594F0B80184EA97E00E947B036AE02C
:102B000070E080E090E00E943C02015011091093B7
:102B10006C0600936B06E7CF8BE294E00E94C40939
:102B200080911601909117014496853B91050CF018
:102B3000DAC090931701809316016091160170918D
:102B4000170187EA97E00E947B03F0927906E092F2
:102B5000780680917706882309F480C08EED97E08F
:102B60000E9450176EED77E0CE0107960E94811902
:102B70004B855C854115510509F466C01A8219829E
:102B80001C821B821E821D826F81788561157105F2
:102B900021F0CE0101960E94561961E070E0CE014D
:102BA00001960E94061ACE0101960E942619809174
:102BB000780690917906019709F046C02FB7F894EE
:102BC00080918A0690918B06A0918C06B0918D061B
:102BD0002FBF4091730650917406609175067091F5
:102BE0007606841B950BA60BB70B88389341A1057D
:102BF000B10550F18EE394E00E94C409B092150132
:102C0000A092140165EA70E084EA97E00E947B03D9
:102C100087E794E00E94C4090E9404181092790684
:102C2000109278060E94141810928406109283065F
:102C300083E994E00E94C40910927306109274060E
:102C4000109275061092760662E370E080E090E0E4
:102C50000E943C02CE0107960E942619F1E02F1235
:102C6000E9C08091710690917206892B09F0E2C04B
:102C700089EB94E00E94C409809118019091190198
:102C80008D589F4F9093190180931801853B9105B2
:102C900024F0D0921901C0921801809018019090F0
:102CA0001901B40181EA97E00E947B0310926C063F
:102CB00010926B0600916B0610916C0680169106BF
:102CC000BCF0B80181EA97E00E947B036FE070E0FE
:102CD00080E090E00E943C020F5F1F4F10936C0653
:102CE00000936B06E7CFD0921701C092160125CF53
:102CF0008FEC94E00E94C409809116019091170115
:102D00004497909317018093160197FF04C0109287
:102D1000170110921601609116017091170187EA50
:102D200097E00E947B0382EE94E00E94C409F09237
:102D30007206E092710680917706882309F47AC0C2
:102D40008FEB97E00E9450176FEB77E0CE0107966C
:102D50000E9481194B855C854115510509F466C0B7
:102D60001A8219821C821B821E821D826F817885C5
:102D70006115710521F0CE0101960E94561962E09D
:102D800070E0CE0101960E94061ACE0101960E94C3
:102D900026198091710690917206019709F046C03C
:102DA0002FB7F89480918A0690918B06A0918C069B
:102DB000B0918D062FBF40916D0650916E066091C7
:102DC0006F0670917006841B950BA60BB70B8838A5
:102DD0009341A105B10550F18AEE94E00E94C40927
:102DE000709219016092180163E270E081EA97E045
:102DF0000E947B0383E295E00E94C4090E940418AC
:102E000010927206109271060E9414181092840695
:102E1000109283068FE395E00E94C40910926D061C
:102E200010926E0610926F0610927006CE010796F1
:102E30000E9426191092820610927A0664E670E0CB
:102E400080E090E00E943C024114510409F47FCDDF
:102E50000E94D802882309F478CD0E94000075CD25
:102E600085E695E00E94C409E5CF002309F434C843
:102E700011E001E03BC81092820685E895E00E94CF
:102E8000C4096CCD1111F4CF82E090E00E942C0AAD
:102E9000182F62E370E080E090E00E943C0219C8C5
:102EA000CF93DF93EC018A8D9B8D892B01F180916B
:102EB0002506909126068C179D07C9F0009711F002
:102EC0000E94FF048E8D8E7F8E8F109223061092AB
:102ED0002406D0932606C0932506EB89FC898081C1
:102EE0009D89892B808381E0DF91CF91089580E0D7
:102EF000FBCFFC01138E128E118E108E178A168A4C
:102F00008DE991E0958F848F84858631D8F52DEBFE
:102F100030E0378B268B2BE931E0318F208F2CE28C
:102F200031E0338F228F90916800883070F121E07A
:102F30008E3008F420E081E001C0880F2A95EAF77E
:102F4000892B8093680084852DE630E0883050F02E
:102F50002BE630E08E3030F02CE630E0863110F099
:102F600030E020E0348B238B282F30E0883078F459
:102F700091E001C0990F8A95EAF7958B848D958D24
:102F80000197F1F7CF010C94501784E0D9CF8E3020
:102F900040F42850310991E001C0990F2A95EAF7D1
:102FA000ECCF2E503109F7CFCF92DF92EF92FF9204
:102FB000CF93DF936C01990FEE08FF08F7FE19C05D
:102FC0006DE284E097E00E940E03EC01662777270C
:102FD000CB016C197D098E099F094AE00E94800986
:102FE0008C0F9D1FDF91CF91FF90EF90DF90CF90DE
:102FF00008954AE0C701B601DF91CF91FF90EF90AD
:10300000DF90CF900C9480098AE590E090931701AF
:10301000809316016AE570E087EA97E00E947B03DF
:1030200080E894E00C94C409CF93DF9300D000D0E3
:103030001F92CDB7DEB78AEA898383E08A8381E075
:103040008B838EEA8C8385E58D8345E050E0BE015D
:103050006F5F7F4F84E097E00E946E0286E891E008
:103060000E94D6094AE061E070E080E090E00E94B2
:1030700080090F900F900F900F900F90DF91CF91DC
:103080000895CF93DF930E94D417EC0183E891E079
:103090000E9453098C0F9D1FDF91CF910895EF92ED
:1030A000FF921F93CF93DF9300D000D01F92CDB734
:1030B000DEB7182F7B0182E00E94F009D701A65AE3
:1030C000BF4FB7FF02C0B0E0A0E022EC31E00E94A9
:1030D0007A1E24EB30E040E050E00E94AD1CDA01A3
:1030E000C9018A569F4FAF4FBF4F110F110F1A5F83
:1030F00019831A821B828C839D838091B9079091DA
:10310000BA07FC01248135812530310590F02081FA
:1031100031E0309394062093B606109295061092F3
:10312000B70621E045E050E0BE016F5F7F4F0E948F
:103130005A0764E670E080E090E00E943C020F9045
:103140000F900F900F900F90DF91CF911F91FF90F4
:10315000EF9008950F931F93CF93DF938C0181E03D
:103160006130710509F480E00E94F00981E08093EC
:10317000940688E48093B606109295061092B706DE
:1031800081ED90E00E94220880E00E946A0683E0C0
:1031900090E00E942A08E8010A5F1F4F9091920672
:1031A00080919306981751F0C017D10739F08AEA39
:1031B00097E00E94AC0789939993F0CF6AE070E0A2
:1031C00080E090E0DF91CF911F910F910C943C0231
:1031D0000F931F93CF93DF938C0181E061307105D2
:1031E00009F480E00E94F00981E08093940688E46D
:1031F0008093B606109295061092B70680ED90E087
:103200000E94220880E00E946A0683E090E00E940B
:103210002A08E8010A5F1F4F909192068091930659
:10322000981751F0C017D10739F08AEA97E00E9449
:10323000AC0789939993F0CF6AE070E080E090E06A
:10324000DF91CF911F910F910C943C02FC01808182
:103250009181009711F00C94371F08950F931F93DD
:10326000CF93DF93EC0188819981009759F02A81EF
:103270003B812617370730F081E0DF91CF911F9116
:103280000F9108958B016F5F7F4F0E94C01F0097C1
:1032900059F0998388831B830A832C813D81232BDA
:1032A00059F7FC011082E8CF80E0E7CFEF92FF9260
:1032B0000F931F93CF93DF93EC017B018A01BA0137
:1032C0000E942E1928813981811114C021153105E0
:1032D00019F0C9010E94371F198218821D821C82B1
:1032E0001B821A82CE01DF91CF911F910F91FF9027
:1032F000EF9008951D830C83B701C9010E949720A8
:10330000F1CF8F929F92AF92BF92CF92DF92EF92C6
:10331000FF920F931F93CF93DF9300D0CDB7DEB70B
:103320008C016B01FC0111821082138212821582C2
:10333000148250E040E065E871E00E9456198FB7B2
:10334000F89480908A0690908B06A0908C06B0909E
:103350008D068FBFC6010E94C804892BD9F42FB7F0
:10336000F89480918A0690918B06A0918C06B0917A
:103370008D062FBF88199909AA09BB0984369105C2
:10338000A105B10538F461E070E080E090E00E94B2
:103390003C02E0CFC6010E94C804892B39F1C60166
:1033A0000E94DE0489831A82F801E480F580FFEF31
:1033B000EF1AFF0AB701C8010E942E19882379F07D
:1033C000F8012081318184819581BE016F5F7F4F3B
:1033D000820F931F0E949720F801F582E48262E039
:1033E00070E080E090E00E943C02D4CFC8010F90D2
:1033F0000F90DF91CF911F910F91FF90EF90DF9091
:10340000CF90BF90AF909F908F9008958F929F9292
:10341000AF92BF92CF92DF92EF92FF920F931F93E2
:10342000CF93DF9300D000D0CDB7DEB720917706E1
:10343000211114C085ED91E00F900F900F900F9027
:10344000DF91CF911F910F91FF90EF90DF90CF9080
:10345000BF90AF909F908F900C94C409DC0114969C
:103460002D913C91232B09F4E8C07B018C0183EF63
:1034700091E00E94D609C7010E94D41789EF91E01C
:103480000E94D609F801448155816081718184E0F0
:1034900097E00E946E0283E891E00E945309D801F0
:1034A0001496CD90DC90F12CE12CFDE4AF2EF1E0F0
:1034B000BF2EEC14FD0409F4A2C0D801ED91FC91DB
:1034C0003097B9F410929E05EEE9F5E08081082E60
:1034D000000C990B0E947D20EEE3F1E02281281779
:1034E00059F03396AE16BF06C9F7BFEFEB1AFB0AC9
:1034F000E0CFEE0DFF1DEACF8032B9F3EEE3AE2E42
:10350000E1E0BE2EF50190E080E03281321379C017
:10351000FC01EE0FFF1FE80FF91FE25CFE4FC080B9
:10352000D18010E000E0B601F501808191810E9418
:103530008E207C01892B09F06FC0000F111F000F36
:10354000111FF801E95AF94F80819181B12CA12C0A
:103550008F3F980729F09A838983AA24A394B12CDA
:10356000095A194FD80112968D919C918F3F980757
:1035700009F45EC0F501EE0FFF1FEC0FFD1F9283F3
:103580008183F50131965F018BE192E00E94D609BB
:10359000C6010E94D60988E292E00E94D609CE01B7
:1035A00001966C01450191E0891A9108D6010D91AF
:1035B0001D916D01C8010E94D417E814F90424F488
:1035C0008BE392E00E94D6096CE97FEFC8010E946C
:1035D0004F1864EF71E080E090E00E943C0270E0E0
:1035E00060E0C8010E944F18C7010196EE24E394E1
:1035F000F12C8A159B05D4F28EE392E01DCF20E2D8
:103600007DCF019633968530910509F07ECF6DEC24
:10361000C62E61E0D62E85CF0F5F1F4FF3E0AF0EB1
:10362000B11C0530110509F07ECF81E092E004CF96
:10363000A114B10409F0A8CFF8CF0F900F900F900C
:103640000F90DF91CF911F910F91FF90EF90DF903E
:10365000CF90BF90AF909F908F900895CF92DF92C0
:10366000EF92FF920F931F93CF93DF936C018B0127
:10367000FB01EE0FFF1FE050FF4F918380835EE35D
:10368000E52E51E0F52ED0E0C0E0B601F7018081D3
:1036900091810E948E20892BF1F4CC0FDD1FFE0159
:1036A000E35BF94F80819181823091055CF4C80F12
:1036B000D91FCC0FDD1FC95AD94F19830883019632
:1036C00091838083DF91CF911F910F91FF90EF90B5
:1036D000DF90CF9008952196F3E0EF0EF11CC530F6
:1036E000D10599F6EFCFCF93DF93C1E5D1E0D09329
:1036F000C007C093BF078FEB97E00E94FF04D093F1
:10370000DF07C093DE078EED97E0DF91CF910C9439
:10371000FF040E94CB1B08F481E00895E89409C0DF
:1037200097FB3EF490958095709561957F4F8F4FF4
:103730009F4F9923A9F0F92F96E9BB279395F6950A
:10374000879577956795B795F111F8CFFAF4BB0F88
:1037500011F460FF1BC06F5F7F4F8F4F9F4F16C0EC
:10376000882311F096E911C0772321F09EE8872F76
:10377000762F05C0662371F096E8862F70E060E032
:103780002AF09A95660F771F881FDAF7880F9695AB
:10379000879597F90895990F0008550FAA0BE0E84F
:1037A000FEEF16161706E807F907C0F01216130603
:1037B000E407F50798F0621B730B840B950B39F443
:1037C0000A2661F0232B242B252B21F408950A26A9
:1037D00009F4A140A6958FEF811D811D08950E94D7
:1037E000021C0C94731C0E94651C38F00E946C1C17
:1037F00020F0952311F00C945C1C0C94621C112495
:103800000C94A71C0E94841C70F3959FC1F3950F24
:1038100050E0551F629FF001729FBB27F00DB11D54
:10382000639FAA27F00DB11DAA1F649F6627B00DE4
:10383000A11D661F829F2227B00DA11D621F739FCD
:10384000B00DA11D621F839FA00D611D221F749FDB
:103850003327A00D611D231F849F600D211D822F22
:10386000762F6A2F11249F5750409AF0F1F0882349
:103870004AF0EE0FFF1FBB1F661F771F881F915076
:103880005040A9F79E3F510580F00C945C1C0C94AD
:10389000A71C5F3FE4F3983ED4F386957795679530
:1038A000B795F795E7959F5FC1F7FE2B880F911DA0
:1038B0009695879597F9089597F99F6780E870E046
:1038C00060E008959FEF80EC089500240A94161696
:1038D000170618060906089500240A9412161306FE
:1038E000140605060895092E0394000C11F488238C
:1038F00052F0BB0F40F4BF2B11F460FF04C06F5FA8
:103900007F4F8F4F9F4F089557FD9058440F551F7D
:1039100059F05F3F71F04795880F97FB991F61F051
:103920009F3F79F087950895121613061406551FC8
:10393000F2CF4695F1DF08C0161617061806991F34
:10394000F1CF86957105610508940895E894BB2729
:1039500066277727CB0197F90895052E97FB1EF46C
:1039600000940E94C41C57FD07D00E94161D07FC3E
:1039700003D04EF40C94C41C50954095309521957D
:103980003F4F4F4F5F4F089590958095709561958B
:103990007F4F8F4F9F4F08950E94381DA59F900D18
:1039A000B49F900DA49F800D911D11240895B7FF21
:1039B0000C94CC1C0E94CC1C821B930B08952F925C
:1039C0003F924F925F926F927F928F929F92AF92AF
:1039D000BF92CF92DF92EF92FF920F931F93CF93FC
:1039E000DF93CDB7DEB7CA1BDB0B0FB6F894DEBF93
:1039F0000FBECDBF09942A88398848885F846E84B9
:103A00007D848C849B84AA84B984C884DF80EE8002
:103A1000FD800C811B81AA81B981CE0FD11D0FB60B
:103A2000F894DEBF0FBECDBFED010895A1E21A2EBE
:103A3000AA1BBB1BFD010DC0AA1FBB1FEE1FFF1F52
:103A4000A217B307E407F50720F0A21BB30BE40BA2
:103A5000F50B661F771F881F991F1A9469F76095E9
:103A60007095809590959B01AC01BD01CF010895A3
:103A7000A29FB001B39FC001A39F700D811D1124AF
:103A8000911DB29F700D811D1124911D08955058F4
:103A9000BB27AA270E945F1D0C94731C0E94651C03
:103AA00038F00E946C1C20F039F49F3F19F426F482
:103AB0000C94621C0EF4E095E7FB0C945C1CE92F5F
:103AC0000E94841C58F3BA1762077307840795078E
:103AD00020F079F4A6F50C94A61C0EF4E0950B2EBC
:103AE000BA2FA02D0B01B90190010C01CA01A00150
:103AF0001124FF27591B99F0593F50F4503E68F1AB
:103B00001A16F040A22F232F342F4427585FF3CFEB
:103B1000469537952795A795F0405395C9F77EF4BC
:103B20001F16BA0B620B730B840BBAF09150A1F005
:103B3000FF0FBB1F661F771F881FC2F70EC0BA0F8B
:103B4000621F731F841F48F4879577956795B79513
:103B5000F7959E3F08F0B0CF9395880F08F099270E
:103B6000EE0F9795879508950E94C81D0C94731CBD
:103B70000E946C1C58F00E94651C40F029F45F3FC5
:103B800029F00C945C1C51110C94A71C0C94621C21
:103B90000E94841C68F39923B1F3552391F3951B7C
:103BA000550BBB27AA2762177307840738F09F5F5E
:103BB0005F4F220F331F441FAA1FA9F335D00E2ECB
:103BC0003AF0E0E832D091505040E695001CCAF738
:103BD0002BD0FE2F29D0660F771F881FBB1F2617FB
:103BE00037074807AB07B0E809F0BB0B802DBF01D2
:103BF000FF2793585F4F3AF09E3F510578F00C94A1
:103C00005C1C0C94A71C5F3FE4F3983ED4F38695AC
:103C100077956795B795F7959F5FC9F7880F911DC1
:103C20009695879597F90895E1E0660F771F881FAD
:103C3000BB1F621773078407BA0720F0621B730B60
:103C4000840BBA0BEE1F88F7E09508950E948C1C38
:103C500088F09F5798F0B92F9927B751B0F0E1F04D
:103C6000660F771F881F991F1AF0BA95C9F714C0FD
:103C7000B13091F00E94A61CB1E008950C94A61CEE
:103C8000672F782F8827B85F39F0B93FCCF3869536
:103C900077956795B395D9F73EF490958095709593
:103CA00061957F4F8F4F9F4F08950E94CB1B08F463
:103CB0008FEF0895991B79E004C0991F961708F0BB
:103CC000961B881F7A95C9F78095089597FB072E54
:103CD00016F4009407D077FD09D00E94811E07FCDE
:103CE00005D03EF4909581959F4F0895709561950C
:103CF0007F4F08950E94381DB7FF0895821B930BD4
:103D00000895AA1BBB1B51E107C0AA1FBB1FA61722
:103D1000B70710F0A61BB70B881F991F5A95A9F774
:103D200080959095BC01CD010895EE0FFF1F059081
:103D3000F491E02D09940F931F93CF93DF9382307A
:103D4000910510F482E090E0E0910208F091030800
:103D500030E020E0B0E0A0E0309799F42115310583
:103D600009F44AC0281B390B24303105D8F58A8163
:103D70009B816115710589F1FB0193838283FE01AB
:103D800011C0408151810281138148175907E0F029
:103D90004817590799F4109761F012960C931297EF
:103DA00013961C933296CF01DF91CF911F910F9103
:103DB00008950093020810930308F4CF21153105EC
:103DC00051F04217530738F0A901DB019A01BD01F8
:103DD000DF01F801C1CFEF01F9CF90930308809381
:103DE0000208CDCFFE01E20FF31F81939193225081
:103DF000310939832883D7CF2091000830910108F9
:103E0000232B41F420911C0130911D0130930108B6
:103E10002093000820911A0130911B0121153105D2
:103E200041F42DB73EB740911E0150911F01241B54
:103E3000350BE0910008F0910108E217F307A0F4B8
:103E40002E1B3F0B2817390778F0AC014E5F5F4FF0
:103E50002417350748F04E0F5F1F50930108409319
:103E60000008819391939FCFF0E0E0E09CCFCF9347
:103E7000DF930097E9F0FC01329713821282A09140
:103E80000208B0910308ED0130E020E01097A1F4A2
:103E900020813181820F931F209100083091010809
:103EA0002817390709F061C0F0930108E093000872
:103EB000DF91CF910895EA01CE17DF07E8F54A8137
:103EC0005B819E0141155105B1F7E901FB83EA834E
:103ED00049915991C40FD51FEC17FD0761F48081FA
:103EE00091810296840F951FE901998388838281CD
:103EF00093819B838A83F0E0E0E012968D919C9100
:103F000013970097B9F52D913C911197CD01029629
:103F1000820F931F2091000830910108281739075C
:103F200039F6309751F51092030810920208B093B9
:103F30000108A0930008BCCFD383C2834081518184
:103F4000840F951FC817D90761F44E5F5F4F8881B2
:103F50009981480F591F518340838A819B819383A4
:103F600082832115310509F0B0CFF0930308E09367
:103F700002089ECFFD01DC01C0CF13821282D7CF91
:103F8000B0E0A0E0E6ECFFE10C94E11C8C010097AE
:103F900051F4CB010E949B1E8C01C801CDB7DEB746
:103FA000E0E10C94FD1CFC01E60FF71F9C01225080
:103FB0003109E217F30708F49DC0D901CD91DC91D6
:103FC0001197C617D70798F0C530D10530F3CE0149
:103FD00004978617970708F3C61BD70B2297C19340
:103FE000D1936D937C93CF010E94371FD6CF5B0195
:103FF000AC1ABD0A4C018C0E9D1EA0910208B09116
:104000000308512C412CF12CE12C109731F58091B3
:104010000008909101088815990509F05CC04616C2
:10402000570608F058C080911A0190911B01009723
:1040300041F48DB79EB740911E0150911F01841B22
:10404000950BE817F90708F055C0F0930108E093C5
:104050000008F90171836083A0CF8D919C91119725
:1040600012966C90129713967C901397A815B90529
:1040700059F56C0142E0C40ED11CCA14DB0420F1D6
:10408000AC014A195B09DA011296159780F0628239
:10409000738251834083D9016D937C93E114F104C1
:1040A00071F0D7011396FC93EE93129776CF229678
:1040B0008C0F9D1FF90191838083F301EFCFF09363
:1040C0000308E093020869CF4816590608F42C014A
:1040D0007D01D3019ACFCB010E949B1E7C010097EA
:1040E00049F0AE01B8010E948520C8010E94371F27
:1040F000870153CF10E000E050CF91110895815413
:104100008A5108F4805E855A0895FB01DC0102C0E3
:1041100001900D9241505040D8F70895FB01DC0109
:104120008D91019080190110D9F3990B0895FB012D
:10413000DC0101900D920020E1F7089511E0C8E044
:10414000D1E004C0FE010E94951E2196C930D1071E
:10415000C9F7F894FFCFCD01CD01CD01CD01CD013F
:10416000CD01CD01CD01CD01CD01A5005A00230027
:104170000000040880000500000005002F00010079
:1041800006005F0002000700870003000800AF0080
:10419000040009005A02724702795E026254026703
:1041A0004E0277000000006C046E0227086B04C802
:1041B00004DE045304000000000E036E029B025B49
:1041C00003CC02AA02BE0200000000F307C60727C4
:1041D000086B04BF07AC079D070D0A0053656E749A
:1041E00020746F2053544D33323A20646174613D22
:1041F000005443413935343841206E6F7420666F66
:10420000756E6421004661696C656420746F20736B
:10421000656C65637420544341206368616E6E650C
:104220006C2000556E6B6E6F776E004572726F7208
:104230003A204D617070696E67204E6F7420436F35
:104240006D706C657465642100474D363520002023
:10425000526561643A20004572726F723A204E6F67
:10426000204368616E6E656C7320466F756E6421C5
:104270000052656C6561736520416C6C20002042C2
:10428000616C6C7320284368616E6E656C733A20B4
:10429000002C20002900596573004E6F0059656C91
:1042A0006C6F7700576869746500477265656E00CA
:1042B00052656400426C756500E7BFBBE8BDACE8C1
:1042C00088B5E69CBAE5889DE5A78BE58C96E5AEBA
:1042D0008CE6889000E5B7A6E888B5E69CBAE58844
:1042E0009DE5A78BE58C96E5AE8CE6889000E58F82
:1042F000B3E888B5E69CBAE5889DE5A78BE58C9682
:10430000E5AE8CE688900053656E736F72203120A5
:1043100072656164793A200053656E736F72203262
:104320002072656164793A20000A4D6F76696E6784
:1043300020746F20616E676C653A200053656E7360
:104340006F722031207C205247423A20002C0020FE
:104350007C2048534C3A200053656E736F722031B5
:10436000206465746563746564200020666F722044
:104370006368616E6E656C200053656E736F7220AA
:1043800032207C205247423A200053656E736F7290
:10439000203220646574656374656420000A3D3DC5
:1043A0003D20436F6C6F722D4368616E6E656C20AB
:1043B0004D617070696E67203D3D3D004368616EE0
:1043C0006E656C20E2869220436F6C6F723A00201B
:1043D000204368616E6E656C20000A436F6C6F72DB
:1043E00020E28692204368616E6E656C733A00200D
:1043F00020003D3D3D3D3D3D3D3D3D3D3D3D3D3D47
:104400003D3D3D3D3D3D3D3D3D3D3D3D3D3D005204
:10441000656365697665642066726F6D2053544DDF
:1044200033323A20646174616F6E653D002C206404
:1044300061746174776F3D002C20646174617468ED
:104440007265653D00E8BF9BE585A5E5A484E7901E
:1044500086E78AB6E680812CE5BFBDE795A5E6969E
:10446000B0E68C87E4BBA42E2E2E00E694BEE4B802
:104470008BE5B7A6E8BEB9E888B5E69CBA2E2E2E25
:1044800000E5B7A6E6BB91E98193E5B7B2E694BE35
:10449000E4B88B00E5B7A6E4BEA7E5B08FE790834C
:1044A000E9878AE694BEE5908EE5B7B2E5BBB6E84B
:1044B000BF9F35E7A7922CE5A48DE4BD8DE5B7A697
:1044C000E4BEA7E888B5E69CBA2E2E2E00E5B7A676
:1044D000E888B5E69CBAE5A48DE4BD8DE5889DE548
:1044E000A78BE8A792E5BAA600E5B7A6E4BEA7E6C3
:1044F000B581E7A88BE7BB93E69D9F2CE7AD89E5E7
:10450000BE85E696B0E68C87E4BBA42E2E2E00E690
:1045100094BEE4B88BE58FB3E8BEB9E888B5E69CF5
:10452000BA2E2E2E00E58FB3E6BB91E98193E5B755
:10453000B2E694BEE4B88B00E58FB3E7BFBB2000C2
:10454000E58FB3E4BEA7E5B08FE79083E9878AE6FD
:1045500094BEE5908EE5B7B2E5BBB6E8BF9F35E700
:10456000A7922CE5A48DE4BD8DE58FB3E4BEA7E84A
:1045700088B5E69CBA2E2E2E00E58FB3E888B5E606
:104580009CBAE5A48DE4BD8DE5889DE5A78BE8A7E1
:1045900092E5BAA600E58FB3E4BEA7E6B581E7A829
:1045A0008BE7BB93E69D9F2CE7AD89E5BE85E6963C
:1045B000B0E68C87E4BBA42E2E2E00436865636BA7
:1045C00073756D206572726F72206F722077726FD3
:1045D0006E67206C656E67746821004672616D6558
:1045E000206572726F723A2077726F6E6720746105
:0445F000696C0000F2
:107E0000112484B714BE81FFF0D085E080938100F7
:107E100082E08093C00088E18093C10086E0809377
:107E2000C20080E18093C4008EE0C9D0259A86E02C
:107E300020E33CEF91E0309385002093840096BBD3
:107E4000B09BFECF1D9AA8958150A9F7CC24DD24C4
:107E500088248394B5E0AB2EA1E19A2EF3E0BF2EE7
:107E6000A2D0813461F49FD0082FAFD0023811F036
:107E7000013811F484E001C083E08DD089C08234E0
:107E800011F484E103C0853419F485E0A6D080C0E4
:107E9000853579F488D0E82EFF2485D0082F10E0AE
:107EA000102F00270E291F29000F111F8ED06801E7
:107EB0006FC0863521F484E090D080E0DECF843638
:107EC00009F040C070D06FD0082F6DD080E0C81688
:107ED00080E7D80618F4F601B7BEE895C0E0D1E017
:107EE00062D089930C17E1F7F0E0CF16F0E7DF06D8
:107EF00018F0F601B7BEE89568D007B600FCFDCFD4
:107F0000A601A0E0B1E02C9130E011968C91119780
:107F100090E0982F8827822B932B1296FA010C0160
:107F200087BEE89511244E5F5F4FF1E0A038BF0790
:107F300051F7F601A7BEE89507B600FCFDCF97BE46
:107F4000E89526C08437B1F42ED02DD0F82E2BD052
:107F50003CD0F601EF2C8F010F5F1F4F84911BD097
:107F6000EA94F801C1F70894C11CD11CFA94CF0C13
:107F7000D11C0EC0853739F428D08EE10CD085E9AC
:107F80000AD08FE07ACF813511F488E018D01DD067
:107F900080E101D065CF982F8091C00085FFFCCF94
:107FA0009093C60008958091C00087FFFCCF809118
:107FB000C00084FD01C0A8958091C6000895E0E648
:107FC000F0E098E1908380830895EDDF803219F02E
:107FD00088E0F5DFFFCF84E1DECF1F93182FE3DFCA
:107FE0001150E9F7F2DF1F91089580E0E8DFEE27F6
:047FF000FF270994CA
:027FFE00040479
:00000001FF
