:100000000C948F020C94B7020C94B7020C94021259
:100010000C9402120C9402120C94B7020C94B702C6
:100020000C94B7020C94B7020C94B7020C944611CE
:100030000C94B7020C94B7020C94B7020C94B7025C
:100040000C94A4100C94B7020C9414110C94EE10A0
:100050000C94B7020C94B7020C94B7020C94B7023C
:100060000C947A120C94B7022900C2B02028E884BC
:1000700089E586B23A2000C2B020E286922000C212
:10008000B020003A2000E9809AE9819320002900FD
:10009000C2B02028E88489E586B23A20003A20E8F8
:1000A000AEBEE7BDAEE7BB9DE5AFB9E8A792E5BA46
:1000B000A62000E9809AE981932000E7B3BBE7BB63
:1000C0009FE5B0B1E7BBAA202D20E7AD89E5BE854D
:1000D000E68C87E4BBA42E2E2E00E5BC80E5A78B22
:1000E000E887AAE58AA8E9A29CE889B2E698A0E593
:1000F000B0842E2E2E00E4B8A4E4B8AA474D3635BD
:10010000E6A8A1E59D97E5B0B1E7BBAA0050434141
:1001100039363835E5B0B1E7BBAA0050434139362E
:100120003835E5889DE5A78BE58C96E5A4B1E8B464
:10013000A52100E9A29CE889B2E4BCA0E6849FE581
:1001400099A8E5B0B1E7BBAA00E9A29CE889B2E4AE
:10015000BCA0E6849FE599A8E5889DE5A78BE58C82
:1001600096E5A4B1E8B4A52100E6ADA3E59CA8E519
:10017000889DE5A78BE58C96544341393534384149
:100180002E2E2E0037E3808138E3808139E58FB74A
:10019000E888B5E69CBAE5889DE5A78BE58C96E5F1
:1001A000AE8CE6889000E4BCA0E6849FE599A8E8C0
:1001B00088B5E69CBAE5889DE5A78BE58C96E5AE0B
:1001C0008CE6889000493243E680BBE7BABFE588F9
:1001D0009DE5A78BE58C96E5AE8CE6889000E994CA
:1001E00099E8AFAF3A20E69CAAE5AE8CE68890E9A4
:1001F000A29CE889B2E698A0E5B0842100E5B08F22
:10020000E79083E5B7B2E9878AE694BE2CE7AD892B
:10021000E5BE8535E7A792E5908EE5A48DE4BD8D1A
:100220002E2E2E00E58FB3E4BEA7E4BA8CE7BBB454
:10023000E7A081E695B0E68DAE3A2000E6938DE426
:10024000BD9CE5AE8CE688902CE8BF94E59B9EE7CC
:10025000A9BAE997B2E78AB6E680810035E7A792A6
:10026000E5B7B2E588B02CE6ADA3E59CA8E5A48D82
:10027000E4BD8DE888B5E69CBA2E2E2E00E6ADA32F
:10028000E59CA8E694BEE4B88BE58FB3E4BEA7E88E
:1002900088B5E69CBA2E2E2E00E99499E8AFAF3AC5
:1002A00020E69CAAE5AE8CE68890E9A29CE889B29B
:1002B000E698A0E5B0842100E5B08FE79083E5B72C
:1002C000B2E9878AE694BE2CE7AD89E5BE8535E7BD
:1002D000A792E5908EE5A48DE4BD8D2E2E2E00E52F
:1002E000B7A6E4BEA7E4BA8CE7BBB4E7A081E69565
:1002F000B0E68DAE3A2000E6938DE4BD9CE5AE8C71
:10030000E688902CE8BF94E59B9EE7A9BAE997B2EE
:10031000E78AB6E680810035E7A792E5B7B2E588BF
:10032000B02CE6ADA3E59CA8E5A48DE4BD8DE888DE
:10033000B5E69CBA2E2E2E00E6ADA3E59CA8E69469
:10034000BEE4B88BE5B7A6E4BEA7E888B5E69CBADC
:100350002E2E2E00E5B7B2E5909153544D3332E581
:100360008F91E98081E5AE8CE68890E4BFA1E58FAE
:10037000B700E9A29CE889B2E698A0E5B084E5AEB2
:100380008CE688902100E5BC80E5A78BE887AAE58C
:100390008AA8E9A29CE889B2E698A0E5B0842E2E4E
:1003A0002E00E6A0A1E9AA8CE5928CE99499E8AF29
:1003B000AFE68896E995BFE5BAA6E4B88DE6ADA3A9
:1003C000E7A1AE2100E8BF9BE585A5E58FB3E4BEBC
:1003D000A7E4BA8CE7BBB4E7A081E8AF86E588ABB9
:1003E000E6A8A1E5BC8F2E2E2E00E8BF9BE585A5D3
:1003F000E5B7A6E4BEA7E4BA8CE7BBB4E7A081E802
:10040000AF86E588ABE6A8A1E5BC8F2E2E2E00E8CE
:10041000BF9BE585A5E9A29CE889B2E698A0E5B076
:1004200084E6A8A1E5BC8F2E2E2E002C20646174DA
:100430006174687265653D002C2064617461747735
:100440006F3D00E694B6E588B0E68C87E4BBA43A3D
:1004500020646174616F6E653D00E5B8A7E9949909
:10046000E8AFAF3A20E5B8A7E5B0BEE4B88DE6AD99
:10047000A3E7A1AE00E7B3BBE7BB9FE5A484E4BA62
:100480008EE7A9BAE997B2E78AB6E68081202D20E7
:10049000E68980E69C89E888B5E69CBAE5B7B2E5CE
:1004A000A48DE4BD8D00E4B8B2E58FA3E7BC93E56D
:1004B00086B2E58CBAE5B7B2E6B885E7A9BA00001E
:1004C000000000240027002A0000000008000201AC
:1004D000000003040700000000000000000000000E
:1004E0000023002600290000000000250028002B22
:1004F00000040404040404040402020202020203CD
:1005000003030303030102040810204080010204D6
:1005100008102001020408102000B4133F1E11240B
:100520001FBECFEFD8E0DEBFCDBF14E0A0E0B1E04A
:10053000EEEEF6E402C005900D92A034B107D9F7B3
:1005400026E0A0E4B4E001C01D92A33AB207E1F7AF
:1005500012E0CEE8D2E004C02197FE010E946121A2
:10056000CD38D107C9F70E9414140C946A230C9457
:1005700000000895089590E0FC01E753FB4F24919B
:10058000FC01EB5FFA4F3491FC01EF50FB4FE4911B
:10059000EE23C9F0222339F0233001F1A8F42130F1
:1005A00019F1223029F1F0E0EE0FFF1FE951FB4F66
:1005B000A591B4918FB7F894EC91611126C0309554
:1005C0003E233C938FBF08952730A9F02830C9F00F
:1005D000243049F7809180008F7D03C08091800096
:1005E0008F7780938000DFCF84B58F7784BDDBCF9A
:1005F00084B58F7DFBCF8091B0008F778093B00062
:10060000D2CF8091B0008F7DF9CF3E2BDACFCF9340
:10061000DF9390E0FC01EB5FFA4F24918F509B4FEA
:10062000FC0184918823D1F090E0880F991FFC0190
:10063000E154FB4FA591B491FC01E951FB4FC591E9
:10064000D49161110EC09FB7F8948C91E22FE09580
:100650008E238C932881E223E8839FBFDF91CF9183
:1006600008958FB7F894EC91E22BEC938FBFF6CFFF
:100670000F931F93CF93DF93EC01162F042F1B8250
:100680001A8288EE93E0A0E0B0E08C839D83AE8375
:10069000BF8381E791E0998388831F8A1E8A198E20
:1006A000188E1B8E1A8E1D8E1C8E6E8D6E7F6D7F2A
:1006B0006E8F6695617081E06827842F0E94BB026F
:1006C00061E0802F0E940703802F90E0FC01EB5F28
:1006D000FA4FE491E88BFC01EF50FB4FE491F0E01E
:1006E000EE0FFF1FE951FB4F859194919A8B898BF7
:1006F00060E0812F0E9407038E8D81FD04C061E0C0
:10070000812F0E94BB021C87812F90E0FC01EB5FD0
:10071000FA4FE491ED87FC01EF50FB4FE491F0E0DC
:10072000EE0FFF1FE352FB4F859194919F878E87B9
:10073000DF91CF911F910F9108953FB7F894809169
:10074000290590912A05A0912B05B0912C0526B57D
:10075000A89B05C02F3F19F00196A11DB11D3FBFF9
:10076000BA2FA92F982F8827BC01CD01620F711DC8
:10077000811D911D42E0660F771F881F991F4A95C2
:10078000D1F708958F929F92AF92BF92CF92DF924E
:10079000EF92FF924B015C010E949D036B017C0173
:1007A0000E949D036C197D098E099F09683E734064
:1007B00081059105A8F321E0821A9108A108B108EA
:1007C00088EEC80E83E0D81EE11CF11C8114910450
:1007D000A104B10429F7FF90EF90DF90CF90BF9074
:1007E000AF909F908F9008952FB7F8946091250552
:1007F0007091260580912705909128052FBF0895B7
:10080000AF92BF92CF92DF92EF92FF920F931F931E
:10081000CF93DF936C017B018B01040F151FEB015C
:100820005E01AE18BF08C017D10759F06991D60113
:10083000ED91FC910190F081E02DC6010995892B85
:1008400079F7C501DF91CF911F910F91FF90EF9044
:10085000DF90CF90BF90AF900895FC01538D448DF1
:10086000252F30E0842F90E0821B930B541710F05B
:10087000CF96089501970895FC01918D828D981768
:1008800061F0A28DAE0FBF2FB11D5D968C91928D40
:100890009F5F9F73928F90E008958FEF9FEF089571
:1008A000FC01918D828D981731F0828DE80FF11D3A
:1008B000858D90E008958FEF9FEF0895FC01918D55
:1008C000228D892F90E0805C9F4F821B91098F734E
:1008D0009927089583EA95E00E945E0421E0892B20
:1008E00009F420E0822F089580E090E0892B29F020
:1008F0000E946A0481110C9400000895FC01A48DEB
:10090000A80FB92FB11DA35ABF4F2C91848D90E031
:1009100001968F739927848FA689B7892C93A08914
:10092000B1898C91837080648C93938D848D98139E
:1009300006C00288F389E02D80818F7D8083089531
:10094000EF92FF920F931F93CF93DF93EC0181E01F
:10095000888F9B8D8C8D98131AC0E889F9898081C6
:1009600085FF15C09FB7F894EE89FF896083E889F9
:10097000F98980818370806480839FBF81E090E0EB
:10098000DF91CF911F910F91FF90EF900895F62E78
:100990000B8D10E00F5F1F4F0F731127E02E8C8D12
:1009A0008E110CC00FB607FCFACFE889F989808157
:1009B00085FFF5CFCE010E947E04F1CFEB8DEC0FC9
:1009C000FD2FF11DE35AFF4FF0829FB7F8940B8F74
:1009D000EA89FB8980818062CFCF0F931F93CF93E9
:1009E000DF938C01D0E0C0E0F801EC0FFD1F6491B3
:1009F000662341F083EA95E00E94A004892B11F060
:100A00002196F2CFCE01DF91CF911F910F910895E2
:100A1000CF93DF93EC01888D8823B9F0AA89BB8935
:100A2000E889F9898C9185FD03C0808186FD0DC020
:100A30000FB607FCF7CF8C9185FFF2CF808185FF41
:100A4000EDCFCE010E947E04E9CFDF91CF910895D2
:100A5000CF92DF92EF92FF92CF93DF93EC0160325F
:100A600082E07807CCF5653B710514F064EB70E02B
:100A7000898128E830E0281B310987FD3395220F52
:100A8000331F220F331F6901330FEE08FF088A81DD
:100A900028E532E0281B310987FD3395220F331FEB
:100AA000220F331F032E000C440B550B2C193D094C
:100AB0004E095F09DB0177FF02C0B0E0A0E00E94B1
:100AC000A31F24EB30E040E050E00E94791FC20EEB
:100AD000D31EE41EF51EB601E881EC3070F52981C5
:100AE00088E890E0821B910927FD9395880F991F54
:100AF000880F991F681779077CF02A8188E592E0B2
:100B0000821B910927FD9395880F991F880F991FC4
:100B1000681779070CF4CB010297880F991F4FB71C
:100B2000F8942E2F30E0F901EE0FFF1FE20FF31FB4
:100B3000E553FB4F928381834FBFDF91CF91FF90AD
:100B4000EF90DF90CF9008951F93CF93DF93EC0148
:100B5000162F88818C3008F04EC061E0812F0E94F2
:100B600007038881282F30E0F901EE0FFF1FE20F05
:100B7000F31FE553FB4F1F736081607C612B608323
:100B800019821A822CE0622F0E942621829FB001D6
:100B9000112430E020E0AB01420F531FFA01EE0FA9
:100BA000FF1FE40FF51FE553FB4F908196FD16C024
:100BB0002F5F3F4F2C30310571F781110FC010921C
:100BC000800082E080938100109285001092840062
:100BD000B19A80916F00826080936F00E8818E2FC0
:100BE00090E0FC01EE0FFF1FE80FF91FE553FB4FEC
:100BF0008081806480838881DF91CF911F910895E7
:100C00002091C7043091C8042817390771F49091D6
:100C1000C6048091C504981741F0E091C604F0E045
:100C2000EB57FB4F808190E008958FEF9FEF089581
:100C30000895EF92FF920F931F93CF93DF93DC0100
:100C40005C96ED90FC905D97E114F10479F481E0FD
:100C500090E013969C938E93129790E080E0DF9142
:100C6000CF911F910F91FF90EF9008955196ED91C4
:100C7000FC91529750968C915097982F90950FB762
:100C80005E962C915E97122F127021FD6095F8945C
:100C90002081112319F1282B2083E7012197F1F7F7
:100CA00028E0462F50E0308160FF1AC0382B308397
:100CB000E7012197F1F7BA0175956795215089F7FA
:100CC000112381F08081892380830FBF5C968D91F1
:100CD0009C910197F1F781E090E0C1CF2923DCCF0F
:100CE0003923E5CF9081892BEFCF2091C704309134
:100CF000C8042817390761F48091C5042091C604FF
:100D000090E0805C9F4F821B91098F739927089513
:100D100090E080E008952091C7043091C80428171E
:100D20003907B9F49091C6048091C504981789F0E9
:100D3000E091C604F0E0EB57FB4F80812091C604A0
:100D400030E02F5F3F4F2F7333272093C60490E08E
:100D500008958FEF9FEF0895E091C704F091C804C4
:100D6000E817F90769F4A389B4899C91858980956E
:100D700089238C931092C8041092C70481E00895CF
:100D800080E00895CF93DF93EC018A8D9B8D892BB2
:100D900001F18091C7049091C8048C179D07C9F098
:100DA000009711F00E94AC068E8D8E7F8E8F109270
:100DB000C5041092C604D093C804C093C704EB893D
:100DC000FC8980819D89892B808381E0DF91CF918F
:100DD000089580E0FBCF20916204260F3327331F54
:100DE00021323105ECF420917905FC0190E080E09E
:100DF000243069F082E00895A09162042191AC0151
:100E00004E5B5B4FA40FB52FB11D2C930196861737
:100E100098F380916204680F6093620480E0089503
:100E200081E008951092790581E080937805109211
:100E3000530561E082E10E94BB0261E083E10E9410
:100E4000BB02E9EBF0E080818E7F808380818D7F23
:100E5000808388E48093B80085E48093BC00089583
:100E60001092320510923105109280051092A20561
:100E70000E94120789EB92E09093300580932F0532
:100E80008AEB92E090932E0580932D050895CF93E1
:100E9000DF9391E0909341048823B9F0C091B800AA
:100EA000D091BA008091BC008A7B8093BC0060E046
:100EB00082E10E94BB0260E083E10E94BB020E94CB
:100EC0001207D093BA00C093B800DF91CF91089574
:100ED0008F929F92AF92BF92CF92DF92EF92FF924A
:100EE0000F931F93CF93DF93D091A205D13208F0D7
:100EF000D7C0182FC091A1050E949D036B017C01F2
:100F00008091790581116BC082E0809379051093FF
:100F100078058FEF8093770510927605D09375054D
:100F2000A1E8B5E0E5E5F5E080E0D81391C01092C6
:100F3000540580915405CC0FC82BC0935405809163
:100F40005305813009F088C0109253050E949D031B
:100F50006B017C01809154058093BB0080917B05DF
:100F600090917C05A0917D05B0917E05892B8A2BFF
:100F70008B2BA1F00E949D0300917B0510917C05B5
:100F800020917D0530917E056C197D098E099F09A0
:100F9000061717072807390708F442C08091BC00DC
:100FA00083FDD8CF85EC8093BC000E949D036B012C
:100FB0007C0180917905823009F450C080917705D9
:100FC0008F3F09F46FC080917705803209F46CC0BF
:100FD00080917705803309F469C084E026C0809150
:100FE0007B0590917C05A0917D05B0917E05892BB4
:100FF0008A2B8B2B09F484CF0E949D0380907B0564
:1010000090907C05A0907D05B0907E056C197D09BF
:101010008E099F0986169706A806B90608F070CFB4
:1010200080917A050E94470785E010928005109212
:10103000A20510927F05DF91CF911F910F91FF9034
:10104000EF90DF90CF90BF90AF909F908F900895DA
:101050009D9191938F5F69CF85EEA5CF80917B05A0
:1010600090917C05A0917D05B0917E05892B8A2BFE
:101070008B2B09F49ECF0E949D0300917B0510915C
:101080007C0520917D0530917E056C197D098E09C6
:101090009F09061717072807390708F08ACFC0CF1E
:1010A00081E0C3CF80E0C1CF82E0BFCF83E0BDCF7E
:1010B0001F93CF93DF93EA01122FDC0111968D91DC
:1010C0009C91DC01ED91FC910280F381E02D09956A
:1010D000C817D90729F4812F0E94680791E0811170
:1010E00090E0892FDF91CF911F910895CF93DF93E7
:1010F000EC018B818823A1F0888191E090937F059A
:101100008093A105109280051092A20581E00E94B3
:10111000680791E0811190E0892FDF91CF910895C8
:101120000E94300781E08B83CE010E947608982FC1
:101130008111E2CFF1CF8F929F92AF92BF92CF9267
:10114000DF92EF92FF920F931F93CF93DF93D82FED
:10115000C62F142F613208F09CC00E949D036B01C2
:101160007C018091790581116FC081E080937905C0
:10117000109378059FEF90937705109276059C0F5A
:10118000909375058093540580915405DD0FD82BFD
:10119000D093540580915305813009F07CC01092A2
:1011A00053050E949D036B017C018091540580933F
:1011B000BB0080917B0590917C05A0917D05B0914D
:1011C0007E05892B8A2B8B2BA1F00E949D03009119
:1011D0007B0510917C0520917D0530917E056C1971
:1011E0007D098E099F09061717072807390708F494
:1011F0004CC08091BC0083FDD8CF85EC8093BC00AF
:101200000E949D036B017C0180917905813009F476
:1012100044C0809176058C1710F4C0917605E5E501
:10122000F5E0A3E3B5E080E08C1359C08C2FDF918B
:10123000CF911F910F91FF90EF90DF90CF90BF90D3
:10124000AF909F908F90089580917B0590917C0541
:10125000A0917D05B0917E05892B8A2B8B2B09F4FB
:1012600080CF0E949D0380907B0590907C05A0908C
:101270007D05B0907E056C197D098E099F09861643
:101280009706A806B90608F06CCF80917A050E94EF
:101290004707C0E0CBCF85EEB1CF80917B05909121
:1012A0007C05A0917D05B0917E05892B8A2B8B2B27
:1012B00009F4AACF0E949D0300917B0510917C0543
:1012C00020917D0530917E056C197D098E099F095D
:1012D000061717072807390708F096CFD6CF919140
:1012E0009D938F5FA1CFE091320580913105E81782
:1012F00030F4F0E0ED5CFA4F808190E008958FEFDC
:101300009FEF089590913205809131052FEF3FEFC7
:10131000981748F4E92FF0E0ED5CFA4F208130E0B7
:101320009F5F90933205C901089580913105909196
:101330003205891B990B0895CF92DF92EF92FF92AD
:101340000F931F93CF93DF937C01CB018A012091F0
:101350007F05222389F0EB016B01C40ED51ECC154D
:10136000DD0569F06991D701ED91FC910190F08163
:10137000E02DC7010995F3CF642F0E94EB06C80149
:10138000DF91CF911F910F91FF90EF90DF90CF9061
:101390000895CF93DF931F92CDB7DEB76983209175
:1013A0007F052223F9F02091A205203258F021E098
:1013B00030E0FC013383228390E080E00F90DF91E6
:1013C000CF91089580918005E82FF0E0EF57FA4F14
:1013D000998190838F5F809380058093A20581E03F
:1013E00090E0ECCF61E0CE0101960E94EB06F7CFD2
:1013F000682F89E496E00C94C90990E080E0089594
:101400001F93CF93DF9300D000D01F92CDB7DEB7EC
:10141000880F880F8A5F89831A821B826C837D8381
:101420008091580690915906FC0124813581253020
:101430003105E0F0208111E010937F052093A10594
:10144000109280051092A20521E045E050E0BE0117
:101450006F5F7F4F0E94580881270F900F900F9069
:101460000F900F90DF91CF911F91089581E0F5CFFC
:10147000CF93DF9300D0CDB7DEB789836A838091A5
:10148000580690915906FC0124813581223031059E
:1014900090F0208131E030937F052093A1051092D8
:1014A00080051092A20521E042E050E0BE016F5F8E
:1014B0007F4F0E9458080F900F90DF91CF910895B1
:1014C00041E0682F88E40E949B08109232058093C7
:1014D000310508958F929F92AF92BF92CF92DF9283
:1014E000EF92FF920F931F93CF93DF931F92CDB78D
:1014F000DEB76B017C0120E030E040E85FE30E9452
:10150000551E87FD97C020E030EC4AE555E4C70141
:10151000B6010E94212118160CF493C060915A065E
:1015200070915B0680915C0690915D060E945A1E48
:101530004B015C0120E030E040E855E4C701B60112
:101540000E94BB1E9B01AC01C501B4010E9480201A
:1015500020E030E040E05FE30E94142020E030E033
:1015600040E85FE30E9413206B017C0120E030E043
:1015700040E450E40E94551E87FD6BC020E030E03F
:101580004FE753E4C701B6010E94212118160CF45D
:1015900066C0C701B6010E94F220B62E19820091E2
:1015A000580610915906D80114968D919C91159763
:1015B000892B09F45EC08C9191E090937F05809314
:1015C000A105109280051092A20520E041E050E0B4
:1015D000BE016F5F7F4FC8010E945808882309F43D
:1015E00048C0F801E480F58061E0E114F10409F4F9
:1015F00060E0C62ED12C462FD8018C910E949B080A
:1016000010923205809331058C151D0491F590E000
:1016100080E08C159D0550F5F80181819281DC01F7
:10162000ED91FC910284F385E02D0995898381E099
:1016300090E0EFCFC12CD12C30E8E32E3FE3F32E26
:101640006DCFC12C20ECD22E2AE5E22E25E4F22E1D
:1016500065CFC12CD12C90E4E92EFE2C9ACFC12C61
:10166000D12C8FE7E82E83E4F82E93CFEF2809F4EE
:10167000B8CF1981612F6F76606180E00E94380ACF
:101680006B2D8EEF0E94380A612F80E00E94380A8D
:1016900065E070E080E090E00E94C203612F606A24
:1016A00080E00E94380A0F90DF91CF911F910F9137
:1016B000FF90EF90DF90CF90BF90AF909F908F9072
:1016C0000895FC0101900020E9F73197AF01481B14
:1016D000590BBC0183EA95E00C940004CF93DF938F
:1016E0000E94ED04EC0183EA91E00E94610B8C0FF3
:1016F0009D1FDF91CF9108958F929F92AF92BF92DD
:101700000F931F93CF93DF93CDB7DEB7A1970FB69B
:10171000F894DEBF0FBECDBF19A2423008F44AE0F4
:101720008E010F5D1F4F842E912CB12CA12CA50191
:1017300094010E94E21FE62FB901CA01EA30F4F4D5
:10174000E05DD801EE938D01232B242B252B79F717
:1017500090E080E0109719F0CD010E94610BA196F6
:101760000FB6F894DEBF0FBECDBFDF91CF911F91B2
:101770000F91BF90AF909F908F900895E95CE1CF5B
:10178000CF92DF92EF92FF92CF93DF936C01990F8C
:10179000EE08FF08F7FE19C06DE283EA95E00E94AB
:1017A000A004EC0166277727CB016C197D098E090F
:1017B0009F094AE00E947C0B8C0F9D1FDF91CF9107
:1017C000FF90EF90DF90CF9008954AE0C701B601F7
:1017D000DF91CF91FF90EF90DF90CF900C947C0B36
:1017E000009711F00C94610B90E080E00895CF9386
:1017F000DF9300D000D01F92CDB7DEB78AEA89838D
:1018000083E08A8381E08B838EEA8C8385E58D83F8
:1018100045E050E0BE016F5F7F4F83EA95E00E9494
:10182000000486EA91E00E94F00B4AE061E070E07B
:1018300080E090E00E947C0B0F900F900F900F9033
:101840000F90DF91CF910895CF93DF93682F70E0D1
:1018500090E080E04AE00E947C0BEC0183EA91E09A
:101860000E94610B8C0F9D1FDF91CF910895CF9344
:10187000DF93D0E0C0E0009719F00E94610BEC010B
:1018800083EA91E00E94610B8C0F9D1FDF91CF9145
:101890000895CF93DF93C82FD1E0D0937F0580E7E1
:1018A0008093A105109280051092A20581E00E940C
:1018B0006807882331F08BEB91E0DF91CF910C9496
:1018C000370CD0937F05109280051092A20581E01D
:1018D00090E00C2E02C0880F991F0A94E2F70E9434
:1018E000F80981E00E946807882339F08FEC91E0C5
:1018F0000E94F00B8C2F0E94240C64E170E080E0C9
:1019000090E0DF91CF910C94C2030F931F93CF937C
:10191000DF938C0181E06130710509F480E00E9461
:10192000490C81E080937F0588E48093A1051092A3
:1019300080051092A20581ED90E00E94F80980E0F8
:101940000E94680783E090E00E94600AE8010A5F55
:101950001F4F9091310580913205981751F0C017B3
:10196000D10739F089E496E00E948209899399931E
:10197000F0CF6AE070E080E090E0DF91CF911F91BE
:101980000F910C94C2030F931F93CF93DF938C019D
:1019900081E06130710509F480E00E94490C81E02A
:1019A00080937F0588E48093A105109280051092B2
:1019B000A20580ED90E00E94F80980E00E9468078F
:1019C00083E090E00E94600AE8010A5F1F4F909157
:1019D000310580913205981751F0C017D10739F0C1
:1019E00089E496E00E94820989939993F0CF6AE096
:1019F00070E080E090E0DF91CF911F910F910C9407
:101A0000C20321E0019709F420E0822F0E94490CD3
:101A100081E080937F0588E48093A1051092800582
:101A20001092A2058AEA90E00E94F80980E00E94E4
:101A3000680781E090E00E94600A909131058091F2
:101A40003205981741F089E496E00E94820921E06E
:101A50008636910509F020E0822F089583E290E018
:101A6000909337018093360163E270E080E496E062
:101A70000E9428058DEE91E00C94370C85EA90E0E9
:101A8000909335018093340165EA70E083E496E039
:101A90000E94280589E092E00C94370C8AE590E0DA
:101AA00090933901809338016AE570E086E496E00E
:101AB0000E94280582E192E00C94370CCF93DF93CB
:101AC000FC01448155816081718183EA95E00E9427
:101AD0000004EC0183EA91E00E94610B8C0F9D1FD2
:101AE000DF91CF910895CF93DF930E94C00BEC015B
:101AF00083EA91E00E94610B8C0F9D1FDF91CF91D3
:101B00000895FC0180819181009711F00C940322CB
:101B100008950F931F93CF93DF93EC0188819981F0
:101B2000009759F02A813B812617370730F081E072
:101B3000DF91CF911F910F9108958B016F5F7F4FC0
:101B40000E948C22009759F0998388831B830A8313
:101B50002C813D81232B59F7FC011082E8CF80E0D6
:101B6000E7CFEF92FF920F931F93CF93DF93EC0198
:101B70007B018A01BA010E94890D28813981811176
:101B800014C02115310519F0C9010E9403221982E0
:101B900018821D821C821B821A82CE01DF91CF9196
:101BA0001F910F91FF90EF9008951D830C83B70153
:101BB000C9010E946323F1CF8F929F92AF92BF928F
:101BC000CF92DF92EF92FF920F931F93CF93DF9309
:101BD00000D0CDB7DEB78C016B01FC011182108201
:101BE000138212821582148250E040E065EA71E0AF
:101BF0000E94B10D0E94F4034B015C01C6010E94DA
:101C00007506892B91F40E94F403681979098A09F1
:101C10009B09643671058105910538F461E070E037
:101C200080E090E00E94C203E9CFC6010E947506E1
:101C3000892B39F1C6010E948B0689831A82F8012B
:101C4000E480F580FFEFEF1AFF0AB701C8010E9498
:101C5000890D882379F0F801208131818481958173
:101C6000BE016F5F7F4F820F931F0E946323F801B5
:101C7000F582E48262E070E080E090E00E94C203BE
:101C8000D4CFC8010F900F90DF91CF911F910F918A
:101C9000FF90EF90DF90CF90BF90AF909F908F908C
:101CA000089585ED8093BC0080917B0590917C0523
:101CB000A0917D05B0917E050796A11DB11D23E081
:101CC000B695A795979587952A95D1F72091BC0051
:101CD00024FD03C010927905089540917B05509131
:101CE0007C0560917D0570917E05452B462B472B29
:101CF00069F30097A105B10541F02AE22A95F1F7B1
:101D000000C00197A109B109E1CF80917A050C9437
:101D100047072F923F924F925F926F927F928F92DE
:101D20009F92AF92BF92CF92DF92EF92FF920F936A
:101D30001F93CF93DF9300D000D000D0CDB7DEB794
:101D40002091160521111CC08DE292E026960FB657
:101D5000F894DEBF0FBECDBFDF91CF911F910F91E1
:101D6000FF90EF90DF90CF90BF90AF909F908F90BB
:101D70007F906F905F904F903F902F900C94370C16
:101D8000DC0114962D913C91232B09F47FC17B013A
:101D90008C018BE492E00E94F00BC7010E94C00B03
:101DA00081E592E00E94F00BC8010E945E0DF801EF
:101DB000C480D580F12CE12C8DE6A82E81E0B82ED0
:101DC000EC14FD0409F444C1D801ED91FC91309765
:101DD000B9F410924004E0E4F4E08081082E000C95
:101DE000990B0E944923EEE5F1E02281281759F072
:101DF0003396AE16BF06C9F7BFEFEB1AFB0AE0CF6A
:101E0000EE0DFF1DEACF8032B9F3BEE5CB2EB1E077
:101E1000DB2EF60190E080E0328132131BC1FC0121
:101E2000EE0FFF1FE80FF91FE25AFE4FE080F1802E
:101E300010E000E0B701F601808191810E945A23F1
:101E40005C01892B09F011C1000F111F000F111F38
:101E5000F801E750FB4F80819181D12CC12C8F3F3D
:101E6000980729F09A838983CC24C394D12C0750F6
:101E70001B4FD80112968D919C918F3F980709F4C2
:101E800000C1F601EE0FFF1FEC0FFD1F928381834F
:101E9000F60131966F0183E792E00E94F00BC701D3
:101EA0000E94F00B80E892E00E94F00BCE010196B8
:101EB0009E838D83160191E0291A3108AD81BE8180
:101EC0000D911D91BE83AD83C8010E94C00BA21469
:101ED000B30424F483E992E00E94F00B0031110571
:101EE00008F06CC082E00E94490C4801880C991CE3
:101EF000F401E050FF4FE080F180BFE5EB1AF108FC
:101F0000E5EBEE16F1041CF044EBE42EF12CF7FEA9
:101F100002C0F12CE12C22EC31E0D7010E944621D5
:101F200024EB30E040E050E00E94791F29013A01A3
:101F3000F6E94F0E511C611C711C86E890E00E946E
:101F4000ED04C8010E94C00B83E890E00E94ED04FC
:101F5000C40180509F4F4C01DC018D919C910E94E7
:101F6000C00B8FE790E00E94ED0485EA91E00E94AB
:101F7000F00B81EA9FEF0E94C00B87E790E00E9480
:101F8000ED04C7010E94C00B8AE690E00E94ED04B8
:101F90004AE0C301B2010E947C0B88E690E00E94F7
:101FA0006E0BB201802F0E94000AF401F182E082E0
:101FB00068EE73E080E090E00E94C20364EF71E09D
:101FC00080E090E00E94C20300311105A8F582E094
:101FD0000E94490C83EB90E00E94ED04C8010E942E
:101FE000C00B8DE990E00E94ED048AE590E00E942C
:101FF000C00B80E990E00E94ED044AE067E771E0E1
:1020000080E090E00E947C0B8EE890E00E946E0BD6
:1020100067E771E0802F0E94000A000F111FF8018E
:10202000E050FF4F8AE590E09183808364EF71E098
:1020300080E090E00E94C203C5010196AA24A39407
:10204000B12C8C159D050CF439CF86E992E07ECE3B
:1020500020E2DBCE019633968530910509F0DCCE87
:10206000F5E2EF2EF2E0FF2EE3CE0F5F1F4FF3E01D
:10207000CF0ED11C0530110509F0DCCE89E592E0C8
:1020800065CEC114D10409F006CFF8CF26960FB65D
:10209000F894DEBF0FBECDBFDF91CF911F910F919E
:1020A000FF90EF90DF90CF90BF90AF909F908F9078
:1020B0007F906F905F904F903F902F900895CF92B8
:1020C000DF92EF92FF920F931F93CF93DF936C01F8
:1020D0008B01FB01EE0FFF1FE05EFE4F91838083BB
:1020E0005EE5E52E51E0F52ED0E0C0E0B601F70147
:1020F000808191810E945A23892BF1F4CC0FDD1F3E
:10210000FE01E151FB4F80819181823091055CF4A9
:10211000C80FD91FCC0FDD1FC750DB4F19830883B1
:10212000019691838083DF91CF911F910F91FF9052
:10213000EF90DF90CF9008952196F3E0EF0EF11C21
:10214000C530D10599F6EFCF1F920F920FB60F92BF
:1021500011242F933F938F939F93AF93BF938091BD
:10216000250590912605A0912705B091280530916D
:10217000240523E0230F2D3758F50196A11DB11D2D
:10218000209324058093250590932605A093270589
:10219000B09328058091290590912A05A0912B05DF
:1021A000B0912C050196A11DB11D80932905909336
:1021B0002A05A0932B05B0932C05BF91AF919F9159
:1021C0008F913F912F910F900FBE0F901F901895F8
:1021D00026E8230F0296A11DB11DD2CF1F920F92A8
:1021E0000FB60F9211242F933F934F935F936F93EA
:1021F0007F938F939F93AF93BF93EF93FF9383EA64
:1022000095E00E947E04FF91EF91BF91AF919F9165
:102210008F917F916F915F914F913F912F910F908F
:102220000FBE0F901F9018951F920F920FB60F922E
:1022300011242F938F939F93EF93FF93E091B30516
:10224000F091B4058081E091B905F091BA0582FD65
:102250001BC090818091BC058F5F8F732091BD055D
:10226000821741F0E091BC05F0E0ED55FA4F958FF3
:102270008093BC05FF91EF919F918F912F910F90CB
:102280000FBE0F901F9018958081F4CF1F920F9270
:102290000FB60F9211242F933F934F935F936F9339
:1022A0007F938F939F93AF93BF93CF93DF93EF93DE
:1022B000FF938091C904C091CA04D0E087FF24C075
:1022C00010928500109284008091C9048F5F8093E2
:1022D000C9048091C904082E000C990B8C179D0726
:1022E00024F48091C9048C30C4F1809184009091D1
:1022F0008500049680349C4908F47AC0809184005B
:1023000090918500049676C08091C904082E000C37
:10231000990B8C179D07C4F6E091C9048E2FEE0F20
:10232000990BFC01EE0FFF1FE80FF91FE553FB4F60
:10233000808186FFC9CFE091C9048E2FEE0F990BE3
:10234000FC01EE0FFF1FE80FF91FE553FB4F8081E3
:1023500060E08F730E94BB02B7CF20918400309160
:102360008500E091C9048E2FEE0F990BFC01EE0F52
:10237000FF1FE80FF91FE553FB4F81819281820F08
:10238000931F9093890080938800E091C9048E2F59
:10239000EE0F990BFC01EE0FFF1FE80FF91FE5533D
:1023A000FB4F808186FF11C0E091C9048E2FEE0F94
:1023B000990BFC01EE0FFF1FE80FF91FE553FB4FD0
:1023C000808161E08F730E94BB02FF91EF91DF91EA
:1023D000CF91BF91AF919F918F917F916F915F91BD
:1023E0004F913F912F910F900FBE0F901F90189516
:1023F00080E49CE990938900809388008FEF80931C
:10240000C904E3CF1F920F920FB60F9211242F939E
:102410003F934F935F936F937F938F939F93AF936C
:10242000BF93EF93FF93E091C704F091C8043097F6
:1024300049F0A685B7858585968D91FF14C09C913E
:102440008923A1F4FF91EF91BF91AF919F918F915B
:102450007F916F915F914F913F912F910F900FBEA0
:102460000F901F9018959C91892361F7A389B489D7
:102470009C918589809589238C938689978901977A
:10248000F1F7608D718DA685B785558538E020E020
:10249000CB010197F1F7822F90E095958795282F32
:1024A0004C91452309F02068315091F7868D81FDCC
:1024B00020958091C50490E001968F739927309103
:1024C000C604381799F0A091C504B0E0AB57BB4FD4
:1024D0002C938093C504828D938D0197F1F7A38986
:1024E000B4898C919589892B8C93ACCF868D816032
:1024F000868FF1CF1F920F920FB60F9211242F9358
:102500003F934F935F936F937F938F939F93AF937B
:10251000BF93EF93FF938091B900887F803609F4D1
:102520004AC0F0F5883209F4A7C018F5803109F4E3
:102530009BC0B8F4882309F4F9C0883009F494C02A
:10254000FF91EF91BF91AF919F918F917F916F918B
:102550005F914F913F912F910F900FBE0F901F9061
:102560001895883109F488C0803251F78093770537
:1025700014C0803409F49DC040F48033B9F388332B
:10258000F9F68093770585ECB0C0803509F485C0F5
:10259000883509F496C0883499F60E94510ED0CF40
:1025A000883909F48CC038F5883729F050F488361A
:1025B00011F0803729F683E0809379051092840426
:1025C00057C0883809F47BC0803919F0803809F089
:1025D000B7CF80918404803208F071C0E091840408
:1025E00081E08E0F809384048091BB00F0E0EC5971
:1025F000FB4F80833DC0803B39F0E0F4803A09F422
:1026000079C0883A09F09CCF84E0809379051092D4
:10261000630410926204E0912F05F0913005099552
:102620008091620481110FC081E080936204109256
:10263000420409C0803C09F4A6CF883C09F4A3CF2A
:10264000883B09F07DCFE091630481E08E0F809399
:102650006304F0E0EE5BFB4F80818093BB009091C0
:1026600063048091620429C0809154058093BB006B
:1026700085EC8093BC0064CF9091760580917505C0
:10268000981758F5E091760581E08E0F80937605D6
:10269000F0E0EB5AFA4F8081E9CFE091760581E0D6
:1026A0008E0F809376058091BB00F0E0EB5AFA4FD5
:1026B000808390917605809175059817C8F285E81A
:1026C000D8CFE091760581E08E0F809376058091DA
:1026D000BB00F0E0EB5AFA4F8083809178058111BE
:1026E0005CCF81E08093530584EA8093BC00109214
:1026F000790526CF85EC8093BC00109279058091F6
:102700008404803230F4E0918404F0E0EC59FB4F13
:1027100010826091840470E0E0912D05F0912E0507
:1027200084E694E00995109284040ACF109277050C
:1027300034CFFC019091CA049C3098F481E0890F59
:102740008093CA049083892F90E0FC01EE0FFF1F55
:10275000E80FF91FE553FB4F88EB9BE092838183E1
:1027600008958FEF80830895CF93DF93E3EAF5E038
:102770001382128288EE93E0A0E0B0E08483958318
:10278000A683B78323E831E03183208325EC30E052
:102790003587248724EC30E03787268720EC30E02B
:1027A000318B208B21EC30E0338B228B22EC30E01C
:1027B000358B248B26EC30E0378B268B118E128ED6
:1027C000138E148EC9E4D6E01B821A828C839D83FB
:1027D000AE83BF8385E991E09983888386E496E0A0
:1027E0000E94991383E496E00E94991380E496E096
:1027F0000E949913E5E5F6E080E48083D283C183EB
:10280000148213824BE06AE08DE796E00E94380361
:102810004DE06CE08EE596E00E9438038CE996E08E
:10282000DF91CF910C949913CF93DF93CDB7DEB79F
:102830006C970FB6F894DEBF0FBECDBF789484B509
:10284000826084BD84B5816084BD85B5826085BDAC
:1028500085B5816085BD80916E00816080936E003A
:10286000109281008091810082608093810080912C
:1028700081008160809381008091800081608093DD
:1028800080008091B10084608093B1008091B0009D
:1028900081608093B00080917A00846080937A0098
:1028A00080917A00826080937A0080917A008160C2
:1028B00080937A0080917A00806880937A001092E9
:1028C000C100E091B305F091B40582E08083E0910E
:1028D000AF05F091B0051082E091B105F091B2051D
:1028E00080E180831092BB05E091B705F091B805B7
:1028F00086E08083E091B505F091B6058081806126
:102900008083E091B505F091B60580818860808371
:10291000E091B505F091B605808180688083E091F3
:10292000B505F091B60580818F7D808360ED77E0FD
:1029300080E090E00E94C2030E94300785EC91E0A5
:102940000E946E0B66E070E08CE996E00E94A405A0
:1029500086EA91E00E946E0B67E070E086E496E004
:102960000E94A4056AE570E086E496E00E942805CE
:102970008AE590E0909339018093380168EE73E026
:1029800080E090E00E94C2038BEB92E00E94370C43
:1029900068E070E083E496E00E94A40565EA70E0D8
:1029A00083E496E00E94280585EA90E09093350143
:1029B0008093340168EE73E080E090E00E94C203EF
:1029C00087ED92E00E94370C69E070E080E496E0C9
:1029D0000E94A40563E270E080E496E00E9428056E
:1029E00083E290E0909337018093360168EE73E0C4
:1029F00080E090E00E94C20380EF92E00E94370CDA
:102A000084E891E00E946E0B89E691E00E946E0BD3
:102A100045E0E42EF12C10E000E001110C94DF1DE4
:102A200081E090E00E94010D082F62E370E080E0F9
:102A300090E00E94C20311110C94D01D82E090E03E
:102A40000E94010D182F62E370E080E090E00E9488
:102A5000C203002319F011110C94D41D64E670E038
:102A600080E090E00E94C20321E0E21AF108A9F69A
:102A700089E093E00E94F00B8CE992E0002311F0D2
:102A800088E992E00E94370C8AE193E00E94F00B03
:102A90008CE992E0112311F088E992E00E94370C52
:102AA000002309F4B2C0112309F4AFC083E391E01D
:102AB0000E946E0B82E00E94490C62E370E080E0AD
:102AC00090E00E94C20380915806909159060097A9
:102AD00009F0A0C086E090E00E9467218C018091FF
:102AE00056069091570620915506F801208392834F
:102AF0008183138280E290E095838483109359064A
:102B0000009358060E94300781E0F8018383C801D2
:102B10000E947608882309F480C060E880E00E9463
:102B2000380A6AE070E080E090E00E94C20380E42E
:102B300098E7ADE7B1E080935A0690935B06A093C7
:102B40005C06B0935D0660E070E08AE794E40E9462
:102B50006A0A60E070E088E492E40E946A0A8DE00C
:102B600091E00E946E0B8DE796E00E94E41D8EE5D9
:102B700096E00E94E41D86EF90E00E946E0BAFEE9F
:102B8000B4E0E9EFF4E08FEF9FEF1D921D92918387
:102B9000808393838283349624E0A93FB207A9F708
:102BA0008AED90E00E946E0B10921F05109217059F
:102BB00010922305109222058BEB90E00E946E0B81
:102BC0004E0137E0830E911CCE0101963C0133E0AB
:102BD000232E312C8091220590912305813091057F
:102BE00009F449C1F8F08230910509F4ADC50397A5
:102BF00009F4D2C680E090E0892B61F30E946A0458
:102C0000882341F30E940000E5CF89E491E00E940F
:102C10006E0BFFCF0E9403225DCF8BE191E00E94FB
:102C20006E0BFFCF80912105811113C083EA95E0DF
:102C30000E945E04181619062CF483EA95E00E949F
:102C40003C04F4CF81E08093210586EA94E00E9461
:102C50006E0B8091200581110DC00E944E0D0E94C7
:102C60003E0D0E942E0D81E08093200585E794E0C3
:102C70000E946E0B11E083EA95E00E945E04181634
:102C8000190634F583EA95E00E943C04E0911F05A3
:102C9000E11107C08A3A29F410931F0580931805A3
:102CA000EACF9FEF9E0F963080F491E09E0F9093B5
:102CB0001F05F0E0E85EFA4F80839730E1F6853536
:102CC00009F076C710931705D6CF10921F05D3CF02
:102CD00080911705882309F48DCF809118058A3AD1
:102CE00009F0ABC080911E05853509F0A6C0909112
:102CF000190500911A0510911B05F0901C05892FEC
:102D0000800F8655810F8F0D20911D052813AEC0B1
:102D1000933009F0ABC083E494E00E94ED04602F8F
:102D200070E090E080E04AE00E947C0B88E394E051
:102D30000E94ED04612F70E090E080E04AE00E9484
:102D40007C0B8BE294E00E94ED048F2D0E94240CFA
:102D500091E0F91272C0011175C011117CC08FE0B1
:102D600094E00E946E0B68EB7BE080E090E00E94B4
:102D7000C2030E94F70B64E170E080E090E00E94E3
:102D8000C20370E060E08CE996E00E94280564EFE1
:102D900071E080E090E00E94C20368EC70E08CE992
:102DA00096E00E94280564EF71E080E090E00E94C8
:102DB000C20370E060E08CE996E00E94280564E6BA
:102DC00070E080E090E00E94C20310E000E0B801F3
:102DD0008CE996E00E94280568E070E080E090E0D1
:102DE0000E94C2030F5F1F4F053B110581F764E688
:102DF00070E080E090E00E94C20304EB10E0B801B4
:102E00008CE996E00E94280568E070E080E090E0A0
:102E10000E94C2030150110990F764E670E080E05F
:102E200090E00E94C20381E090E09093230580939C
:102E30002205109220051092210510921F05109274
:102E40001705D8CE013039F48AEE93E00E946E0B5C
:102E500082E090E0EACF113081F785EC93E00E94A8
:102E60006E0B3092230520922205E3CF82EA93E095
:102E70000E946E0BE2CF86E893E00E946E0B64EF37
:102E800071E080E090E00E94C20370E060E08CE9B5
:102E900096E00E94280564EF71E080E090E00E94D7
:102EA000C20320E431E03A8B298BE989FA89008159
:102EB0001181228133813C8B2B8B848195819A8F68
:102EC000898F8BE293E00E94F00BC8010E94730D82
:102ED000B8018CE996E00E94280564EF71E080E07B
:102EE00090E00E94C203F40126E011922A95E9F7CE
:102EF000F30126E011922A95E9F723E0E22EF12C66
:102F0000188A1F86512C412C1E861D8610E000E079
:102F1000B12CA12CD12CC12C61E070E0C4010E9425
:102F2000C30C61E070E0C3010E94850C8F8198851D
:102F30009E8B8D8BE985FA85F88FEF8B2B853C85F1
:102F40003C8F2B8F8EE393E00E94F00B8D899E893E
:102F50000E94C00B8FE493E00E94F00B8F89988D44
:102F60000E94C00B8FE493E00E94F00B8B8D9C8D30
:102F70000E94C00B81E593E00E94F00B89819A8149
:102F80000E94C00B8FE493E00E94F00B8B819C8128
:102F90000E94C00B8FE493E00E94F00B8D819E8114
:102FA0000E94730D8F8198858F3F910519F014F061
:102FB0008FEF90E097FF02C090E080E0C80ED91E2E
:102FC00089859A858F3F910519F014F08FEF90E075
:102FD00097FF02C090E080E0A80EB91E8B859C850B
:102FE0008F3F910519F014F08FEF90E097FF02C02A
:102FF00090E080E0080F191F89819A81ED85FE8598
:10300000E80FF91FFE87ED878B819C81480E591EC2
:103010008D819E812F853889280F391F388B2F8706
:103020006AE070E080E090E00E94C20331E0E31AC1
:10303000F10809F071CFC601B1010E9432216B0184
:10304000C501B1010E9432217B01C801B1010E947A
:1030500032218B018D859E85B1010E9432217A83B8
:103060006983C201B1010E9432217C836B838F8509
:103070009889B1010E9432217E836D838EE393E0B3
:103080000E94F00BC6010E94C00B8FE493E00E94E7
:10309000F00BC7010E94C00B8FE493E00E94F00B7D
:1030A000C8010E94C00B81E593E00E94F00B89816A
:1030B0009A810E94C00B8FE493E00E94F00B8B81F9
:1030C0009C810E94C00B8FE493E00E94F00B8D81E5
:1030D0009E810E94730DC601885C9109C89708F50E
:1030E000C7018A5A910986359105D8F40F3F110519
:1030F00009F0B8F449815A81CA018A5A9109C897DE
:1031000080F42B813C81273E310558F48D819E81CE
:10311000825891098437910520F4421753070CF423
:1031200007C3C6018E5B910982349105E8F4C7019B
:103130008E5B910982349105B8F4C8018E5B9109C8
:103140008234910588F489819A81823E910560F4E8
:103150008B819C818D3D910538F48D819E81845BAE
:103160009109CD9708F4E7C2C6018D97833D91057B
:1031700008F5C701865991098A369105D8F4C80126
:103180008857910988389105A8F489819A818E56CB
:103190009109459778F48B819C818B5491098734F0
:1031A000910540F48D819E81845691098234910568
:1031B00008F4C4C2C601865991098A369105E8F41B
:1031C0008BE5E816F104B0F40937110598F489810C
:1031D0009A81C39778F48B819C81805591098739B6
:1031E000910540F48D819E818654910902EB12E095
:1031F000C39730F105E212E023C09DE3C916D10464
:10320000C8F7E4E1EE1AF108F1E5EF16F10490F7E2
:10321000085211090F36110568F789819A81825881
:103220009109C39738F78B819C814497823E910521
:1032300008F78D819E814E9706EB12E0C397D0F67A
:103240006B897C89C8010E945F108AE593E00E9427
:10325000F00BC8010E94F00B8DE693E00E94F00B8A
:103260008B899C890E94730D62E370E080E090E09E
:103270000E94C203F40126E011922A95E9F7F301B6
:1032800026E011922A95E9F783E090E0988B8F87EA
:10329000512C412C1E861D8610E000E0F12CE12C03
:1032A000D12CC12CB12CA12C62E070E0C4010E9491
:1032B000C30C62E070E0C3010E94850CEF81F885C9
:1032C000FC8BEB8B29853A853E8B2D8B8B859C85E2
:1032D000988F8F8B8BE793E00E94F00B8B899C89F2
:1032E0000E94C00B8FE493E00E94F00B8D899E89B1
:1032F0000E94C00B8FE493E00E94F00B8F89988DA1
:103300000E94C00B81E593E00E94F00B89819A81B5
:103310000E94C00B8FE493E00E94F00B8B819C8194
:103320000E94C00B8FE493E00E94F00B8D819E8180
:103330000E94730D8F8198858F3F910519F014F0CD
:103340008FEF90E097FF02C090E080E0A80EB91EDA
:1033500089859A858F3F910519F014F08FEF90E0E1
:1033600097FF02C090E080E0C80ED91E8B859C8537
:103370008F3F910519F014F08FEF90E097FF02C096
:1033800090E080E0E80EF91E89819A81080F191FEC
:103390008B819C81ED85FE85E80FF91FFE87ED8707
:1033A0008D819E81480E591E6AE070E080E090E0B9
:1033B0000E94C2032F85388921503109388B2F870D
:1033C000232B09F071CFC501B1010E9432215B01AD
:1033D000C601B1010E9432216B01C701B1010E94F7
:1033E00032217B01C801B1010E9432217A836983B5
:1033F0008D859E85B1010E9432217C836B83C20141
:10340000B1010E9432217E836D838BE793E00E949D
:10341000F00BC5010E94C00B8FE493E00E94F00BFB
:10342000C6010E94C00B8FE493E00E94F00BC7011D
:103430000E94C00B81E593E00E94F00B89819A8184
:103440000E94C00B8FE493E00E94F00B8B819C8163
:103450000E94C00B8FE493E00E94F00B8D819E814F
:103460000E94730DC501885C9109C89710F5C601CB
:10347000885C9109C897E8F43FEFE316F10409F07E
:10348000C0F489819A81865991098234910588F422
:103490008B819C818C5891098B35910550F48D81DD
:1034A0009E81885791090FE912E08E37910508F443
:1034B0009CC0C5018E5B910982349105F8F4C60168
:1034C0008E5B910982349105C8F4C7018E5B910926
:1034D0008234910598F489819A81873E910570F430
:1034E0008B819C81893C910548F48D819E81885C0B
:1034F000910906EA12E0899708F477C0C501CC97D4
:103500008B35910510F5C601805A910980369105D9
:10351000E0F4C70180559109803B9105B0F48981A1
:103520009A818E569109459780F48B819C81C7972B
:103530008B3A910550F48D819E81845691090CEA55
:1035400012E08735910508F450C0C50144978C3EC0
:103550009105F0F487EEC816D104D0F49FEFE91678
:10356000F10409F0A8F489819A81813F910580F4E2
:103570008B819C81865491098B3A910548F48D8109
:103580009E818555910902EB12E08A36910568F11A
:10359000E2E3AE1AB108F0E6AF16B10470F42EE61D
:1035A000C21AD1083DE3C316D10438F486E9E81AFB
:1035B000F10897E4E916F104B0F089819A81825804
:1035C0009109C39708F0BDC08B819C8180559109FA
:1035D000863A910508F0B5C08D819E814E97813560
:1035E000910508F0AEC006EB12E0698D7A8DC80136
:1035F0000E945F108CE893E00E94F00BC8010E94CB
:10360000F00B8DE693E00E94F00B898D9A8D0E945D
:10361000730DE989FA893696FA8BE98BEE55F140FC
:1036200009F043CC70E060E08CE996E00E94280548
:1036300064EF71E080E090E00E94C20381E080933B
:1036400016058FE993E00E94370C8EEB93E00E9401
:10365000370C90E2E92E91E0F92E10E000E081EDC8
:1036600093E00E94F00BC8010E94C00B8CE493E031
:103670000E94F00BF701819191917F010E94370C1C
:103680000F5F1F4F0A30110551F78CED93E00E9438
:10369000370C8EE5E82E81E0F82E09EF14E081EF7B
:1036A00093E00E94F00BF701808191810E94F00B62
:1036B0008CE493E00E94F00BF801808191818F3FB0
:1036C000980731F00E94C00B82EF93E00E94F00B4C
:1036D000F801828193818F3F980731F00E94C00BDF
:1036E00082EF93E00E94F00B83EA91E00E94610B6D
:1036F00023E0E20EF11C0C5F1F4F35E00D30130785
:1037000071F684EF93E00E94370C82E793E00E9409
:103710006E0B84E593E00E946E0B109223051092CD
:10372000220564EF71E080E090E00E94C20362CA6B
:103730000FE912E085CD06EA12E082CD0CEA12E034
:103740007FCD05E212E051CF80911505811174C043
:1037500088E393E00E946E0B8091340190913501D3
:1037600097FF04C01092350110923401E0903401AB
:10377000F09035018FE5E81AF108F0923501E092FA
:103780003401B70183E496E00E94280584EB90E0C1
:1037900090930E0580930D0500910D0510910E0577
:1037A0000E151F0594F0B80183E496E00E942805E9
:1037B0006AE070E080E090E00E94C20301501109CD
:1037C00010930E0500930D05E7CF81E194E00E9470
:1037D000370C80913801909139014496853B9105D1
:1037E00004F590933901809338016091380170910C
:1037F000390186E496E00E94280581E08093150552
:1038000068EE73E080E090E00E94C2038DE796E0EE
:103810000E947506892B41F08DE796E00E948B0689
:10382000F5CF84EB90E0DDCF64E670E080E090E0DF
:103830000E94C2031092140580911405882309F494
:103840004BC00E94F40300911005109111052091C6
:10385000120530911305601B710B820B930B6838B6
:1038600073418105910508F4C5C987E193E00E9481
:103870006E0B0E944E0D0E943E0D0E942E0D0E9466
:10388000F70B64E170E080E090E00E94C2030E94C8
:10389000F70B64E170E080E090E00E94C2030E94B8
:1038A000F70B64E170E080E090E00E94C20387EFD4
:1038B00092E00E946E0B1092230510922205109246
:1038C0001505109214051092100510921105109212
:1038D0001205109213058EC980911605882309F4EC
:1038E00052C08DE796E00E94C2068DE796E00E94E6
:1038F0007506892B29F08DE796E00E948B06F5CF9F
:1039000064E670E080E090E00E94C2036DE776E03C
:10391000C4010E94DC0D8B859C85892B81F18FED84
:1039200092E00E946E0BC4010E945E0D1A82198201
:103930001C821B821E821D826F8178856115710534
:1039400029F04B855C85C3010E94B10D61E070E0F8
:10395000C3010E94890EC3010E94810D0E94F403DD
:1039600060931005709311058093120590931305D1
:1039700081E08093140588EB92E00E946E0BC401F5
:103980000E94810D04C089E992E00E946E0B62E3FF
:1039900070E080E090E0C9CE80910F05811176C083
:1039A0008DE792E00E946E0B809136019091370175
:1039B0008D589F4F853B910554F590933701809327
:1039C0003601E0903601F0903701B70180E496E0CF
:1039D0000E94280510920E0510920D0500910D050C
:1039E00010910E05E016F106ACF0B80180E496E007
:1039F0000E9428056FE070E080E090E00E94C20322
:103A00000F5F1F4F10930E0500930D05E7CF84EB5A
:103A100090E0D3CF84E294E00E94370C809138018B
:103A200090913901449797FD24C090933901809378
:103A30003801609138017091390186E496E00E9466
:103A4000280587E394E00E94370C81E080930F05FE
:103A500068EE73E080E090E00E94C2038EE596E09D
:103A60000E947506892B51F08EE596E00E948B0628
:103A7000F5CF1092390110923801DBCF64E670E087
:103A800080E090E00E94C20310921405809114051A
:103A9000882309F441C00E94F4030091100510919D
:103AA00011052091120530911305601B710B820BDB
:103AB000930B683873418105910508F49BC88CE528
:103AC00092E00E946E0B0E944E0D0E943E0D0E94DD
:103AD0002E0D0E94F70B64E170E080E090E00E9400
:103AE000C2030E94F70B64E170E080E090E00E9466
:103AF000C2030E94F70B64E170E080E090E00E9456
:103B0000C2038CE392E00E946E0B10922305109288
:103B1000220510920F05D5CE809116058823E9F174
:103B20008EE596E00E94C2066EE576E0C4010E9432
:103B3000DC0D8B859C85892B09F421CF84E292E0F2
:103B40000E94ED04C4010E945E0D1A8219821C823B
:103B50001B821E821D826F8178856115710529F097
:103B60004B855C85C3010E94B10D62E070E0C3012A
:103B70000E94890EC3010E94810D0E94F40360938C
:103B8000100570931105809312059093130581E041
:103B9000809314058DEF91E0F0CE8EED91E0F5CE9F
:103BA000002311F40C942E1511E001E00C9438154B
:103BB00010921F058AE594E00E946E0B5CC81123E9
:103BC00011F40C941E15F0CFFC01138E128E118E81
:103BD000108E178A168A8DE991E0958F848F8485DF
:103BE0008631D8F52DEB30E0378B268B2BE931E091
:103BF000318F208F2CE231E0338F228F909168003B
:103C0000883070F121E08E3008F420E081E001C0BE
:103C1000880F2A95EAF7892B8093680084852DE622
:103C200030E0883050F02BE630E08E3030F02CE67B
:103C300030E0863110F030E020E0348B238B282FE9
:103C400030E0883078F491E001C0990F8A95EAF766
:103C5000958B848D958D0197F1F7CF010C94C20659
:103C600084E0D9CF8E3040F42850310991E001C072
:103C7000990F2A95EAF7ECCF2E503109F7CFCF9361
:103C8000DF93C1E7D1E0D0935F06C0935E068EE577
:103C900096E00E94AC06D0937E06C0937D068DE729
:103CA00096E0DF91CF910C94AC060E94971E08F429
:103CB00081E00895E89409C097FB3EF490958095C3
:103CC000709561957F4F8F4F9F4F9923A9F0F92FE2
:103CD00096E9BB279395F695879577956795B79560
:103CE000F111F8CFFAF4BB0F11F460FF1BC06F5F46
:103CF0007F4F8F4F9F4F16C0882311F096E911C058
:103D0000772321F09EE8872F762F05C0662371F078
:103D100096E8862F70E060E02AF09A95660F771F8C
:103D2000881FDAF7880F9695879597F90895990F68
:103D30000008550FAA0BE0E8FEEF16161706E80775
:103D4000F907C0F012161306E407F50798F0621B96
:103D5000730B840B950B39F40A2661F0232B242B6B
:103D6000252B21F408950A2609F4A140A6958FEF8A
:103D7000811D811D08950E94CE1E0C943F1F0E943C
:103D8000311F38F00E94381F20F0952311F00C9459
:103D9000281F0C942E1F11240C94731F0E94501F77
:103DA00070F3959FC1F3950F50E0551F629FF0018E
:103DB000729FBB27F00DB11D639FAA27F00DB11DA7
:103DC000AA1F649F6627B00DA11D661F829F222730
:103DD000B00DA11D621F739FB00DA11D621F839FB7
:103DE000A00D611D221F749F3327A00D611D231F8D
:103DF000849F600D211D822F762F6A2F11249F57DB
:103E000050409AF0F1F088234AF0EE0FFF1FBB1FDD
:103E1000661F771F881F91505040A9F79E3F51059C
:103E200080F00C94281F0C94731F5F3FE4F3983EBE
:103E3000D4F3869577956795B795F795E7959F5F46
:103E4000C1F7FE2B880F911D9695879597F90895D8
:103E500097F99F6780E870E060E008959FEF80EC3D
:103E6000089500240A9416161706180609060895E0
:103E700000240A9412161306140605060895092E46
:103E80000394000C11F4882352F0BB0F40F4BF2BB5
:103E900011F460FF04C06F5F7F4F8F4F9F4F0895F5
:103EA00057FD9058440F551F59F05F3F71F04795EB
:103EB000880F97FB991F61F09F3F79F087950895D0
:103EC000121613061406551FF2CF4695F1DF08C0EF
:103ED000161617061806991FF1CF8695710561050C
:103EE00008940895E894BB2766277727CB0197F9B4
:103EF0000895052E97FB1EF400940E94901F57FD15
:103F000007D00E94E21F07FC03D04EF40C94901FD0
:103F100050954095309521953F4F4F4F5F4F0895F5
:103F200090958095709561957F4F8F4F9F4F089525
:103F30000E940420A59F900DB49F900DA49F800D1A
:103F4000911D11240895B7FF0C94981F0E94981F8B
:103F5000821B930B08952F923F924F925F926F9224
:103F60007F928F929F92AF92BF92CF92DF92EF9209
:103F7000FF920F931F93CF93DF93CDB7DEB7CA1B8A
:103F8000DB0B0FB6F894DEBF0FBECDBF09942A88B5
:103F9000398848885F846E847D848C849B84AA845D
:103FA000B984C884DF80EE80FD800C811B81AA81EA
:103FB000B981CE0FD11D0FB6F894DEBF0FBECDBFB5
:103FC000ED010895A1E21A2EAA1BBB1BFD010DC035
:103FD000AA1FBB1FEE1FFF1FA217B307E407F507B9
:103FE00020F0A21BB30BE40BF50B661F771F881F95
:103FF000991F1A9469F760957095809590959B012B
:10400000AC01BD01CF010895A29FB001B39FC001D3
:10401000A39F700D811D1124911DB29F700D811DF4
:104020001124911D08955058BB27AA270E942B20C8
:104030000C943F1F0E94311F38F00E94381F20F05F
:1040400039F49F3F19F426F40C942E1F0EF4E095DA
:10405000E7FB0C94281FE92F0E94501F58F3BA1752
:10406000620773078407950720F079F4A6F50C948E
:10407000721F0EF4E0950B2EBA2FA02D0B01B90183
:1040800090010C01CA01A0011124FF27591B99F0CE
:10409000593F50F4503E68F11A16F040A22F232FDA
:1040A000342F4427585FF3CF469537952795A7952A
:1040B000F0405395C9F77EF41F16BA0B620B730BD1
:1040C000840BBAF09150A1F0FF0FBB1F661F771F42
:1040D000881FC2F70EC0BA0F621F731F841F48F4F7
:1040E000879577956795B795F7959E3F08F0B0CF80
:1040F0009395880F08F09927EE0F97958795089567
:104100000E9494200C943F1F0E94381F58F00E9478
:10411000311F40F029F45F3F29F00C94281F511102
:104120000C94731F0C942E1F0E94501F68F3992348
:10413000B1F3552391F3951B550BBB27AA276217A3
:104140007307840738F09F5F5F4F220F331F441FB0
:10415000AA1FA9F335D00E2E3AF0E0E832D09150E4
:104160005040E695001CCAF72BD0FE2F29D0660FD1
:10417000771F881FBB1F261737074807AB07B0E814
:1041800009F0BB0B802DBF01FF2793585F4F3AF01A
:104190009E3F510578F00C94281F0C94731F5F3FCD
:1041A000E4F3983ED4F3869577956795B795F795A0
:1041B0009F5FC9F7880F911D9695879597F9089588
:1041C000E1E0660F771F881FBB1F62177307840724
:1041D000BA0720F0621B730B840BBA0BEE1F88F733
:1041E000E09508950E94581F88F09F5798F0B92FC6
:1041F0009927B751B0F0E1F0660F771F881F991F1C
:104200001AF0BA95C9F714C0B13091F00E94721F2C
:10421000B1E008950C94721F672F782F8827B85F3C
:1042200039F0B93FCCF3869577956795B395D9F773
:104230003EF490958095709561957F4F8F4F9F4F7D
:1042400008950E94971E08F48FEF0895991B79E056
:1042500004C0991F961708F0961B881F7A95C9F716
:104260008095089597FB072E16F4009407D077FDEC
:1042700009D00E944D2107FC05D03EF49095819510
:104280009F4F0895709561957F4F08950E94042077
:10429000B7FF0895821B930B0895AA1BBB1B51E126
:1042A00007C0AA1FBB1FA617B70710F0A61BB70BA6
:1042B000881F991F5A95A9F780959095BC01CD014B
:1042C0000895EE0FFF1F0590F491E02D09940F93D0
:1042D0001F93CF93DF938230910510F482E090E03A
:1042E000E091A106F091A20630E020E0B0E0A0E06D
:1042F000309799F42115310509F44AC0281B390B70
:1043000024303105D8F58A819B816115710589F1C9
:10431000FB0193838283FE0111C0408151810281A0
:10432000138148175907E0F04817590799F4109777
:1043300061F012960C93129713961C933296CF014C
:10434000DF91CF911F910F9108950093A1061093D3
:10435000A206F4CF2115310551F04217530738F06A
:10436000A901DB019A01BD01DF01F801C1CFEF0115
:10437000F9CF9093A2068093A106CDCFFE01E20F64
:10438000F31F819391932250310939832883D7CF2A
:1043900020919F063091A006232B41F420913C01EF
:1043A00030913D013093A00620939F0620913A0161
:1043B00030913B012115310541F42DB73EB74091B5
:1043C0003E0150913F01241B350BE0919F06F09177
:1043D000A006E217F307A0F42E1B3F0B281739079E
:1043E00078F0AC014E5F5F4F2417350748F04E0F51
:1043F0005F1F5093A00640939F06819391939FCF98
:10440000F0E0E0E09CCFCF93DF930097E9F0FC0170
:10441000329713821282A091A106B091A206ED01FB
:1044200030E020E01097A1F420813181820F931FAA
:1044300020919F063091A0062817390709F061C026
:10444000F093A006E0939F06DF91CF910895EA01D3
:10445000CE17DF07E8F54A815B819E0141155105C2
:10446000B1F7E901FB83EA8349915991C40FD51F44
:10447000EC17FD0761F4808191810296840F951FEE
:10448000E90199838883828193819B838A83F0E009
:10449000E0E012968D919C9113970097B9F52D91BC
:1044A0003C911197CD010296820F931F20919F0698
:1044B0003091A0062817390739F6309751F5109238
:1044C000A2061092A106B093A006A0939F06BCCFAF
:1044D000D383C28340815181840F951FC817D907A8
:1044E00061F44E5F5F4F88819981480F591F518356
:1044F00040838A819B81938382832115310509F052
:10450000B0CFF093A206E093A1069ECFFD01DC019F
:10451000C0CF13821282D7CFB0E0A0E0E2E9F2E28E
:104520000C94AD1F8C01009751F4CB010E946721C0
:104530008C01C801CDB7DEB7E0E10C94C91FFC01C6
:10454000E60FF71F9C0122503109E217F30708F428
:104550009DC0D901CD91DC911197C617D70798F06E
:10456000C530D10530F3CE0104978617970708F3BD
:10457000C61BD70B2297C193D1936D937C93CF0128
:104580000E940322D6CF5B01AC1ABD0A4C018C0EEF
:104590009D1EA091A106B091A206512C412CF12C98
:1045A000E12C109731F580919F069091A006881517
:1045B000990509F05CC04616570608F058C080916E
:1045C0003A0190913B01009741F48DB79EB740911D
:1045D0003E0150913F01841B950BE817F90708F045
:1045E00055C0F093A006E0939F06F90171836083A4
:1045F000A0CF8D919C91119712966C901297139663
:104600007C901397A815B90559F56C0142E0C40ECA
:10461000D11CCA14DB0420F1AC014A195B09DA0190
:104620001296159780F06282738251834083D9017C
:104630006D937C93E114F10471F0D7011396FC9310
:10464000EE93129776CF22968C0F9D1FF9019183DE
:104650008083F301EFCFF093A206E093A10669CF28
:104660004816590608F42C017D01D3019ACFCB01DD
:104670000E9467217C01009749F0AE01B8010E94B9
:104680005123C8010E940322870153CF10E000E0AC
:1046900050CF9111089581548A5108F4805E855A53
:1046A0000895FB01DC0102C001900D924150504081
:1046B000D8F70895FB01DC018D910190801901105C
:1046C000D9F3990B0895FB01DC0101900D920020B4
:1046D000E1F7089512E0CEE8D2E004C0FE010E94A6
:0E46E00061212196CF38D107C9F7F894FFCF9A
:1046EE005A005A005A005A005A005A005A005A00EC
:1046FE005A005A005A005A005A005A005A005A00DC
:10470E002502250225022502250225022502250263
:10471E0025022502A50023005A000000A3068000F2
:10472E000000000005002F00010006005A000200E4
:10473E000700820003000800AF0004000900B20267
:10474E00729F0279B60262AC0267A6027700000081
:10475E000019060004FD09180675068B06000600F2
:10476E00000000A00400042D0408055E043C045063
:10477E000400000000C9099C09FD0918069509826C
:10478E000973090D0A0053656E7420746F2053541B
:10479E004D33323A20646174613D005443413935E2
:1047AE00343841206E6F7420666F756E642100463A
:1047BE0061696C656420746F2073656C6563742029
:1047CE00544341206368616E6E656C2000E58FB3C3
:1047DE00E888B5E69CBAE5A48DE4BD8DE5889DE537
:1047EE00A78BE8A792E5BAA600E5B7A6E888B5E6D6
:1047FE009CBAE5A48DE4BD8DE5889DE5A78BE8A761
:10480E0092E5BAA600556E6B6E6F776E00457272AA
:10481E006F723A204D617070696E67204E6F742012
:10482E00436F6D706C657465642100474D3635209D
:10483E000020526561643A20004572726F723A2010
:10484E004E6F204368616E6E656C7320466F756E99
:10485E0064210052656C6561736520416C6C2000AB
:10486E002042616C6C7320284368616E6E656C73B8
:10487E003A20002C20002900596573004E6F005914
:10488E00656C6C6F77005768697465004772656573
:10489E006E0052656400426C756500E7BFBBE8BDF3
:1048AE00ACE888B5E69CBAE5889DE5A78BE58C96C5
:1048BE00E5AE8CE6889000E5B7A6E888B5E69CBA2A
:1048CE00E5889DE5A78BE58C96E5AE8CE688900095
:1048DE00E58FB3E888B5E69CBAE5889DE5A78BE53C
:1048EE008C96E5AE8CE688900053656E736F7220E1
:1048FE00312072656164793A200053656E736F7270
:10490E0020322072656164793A20000A4D6F766913
:10491E006E6720746F20616E676C653A2000536578
:10492E006E736F722031207C205247423A20002C49
:10493E0000207C2048534C3A200053656E736F72F2
:10494E002031206465746563746564200020666F91
:10495E0072206368616E6E656C200053656E736FB6
:10496E00722032207C205247423A200053656E73EB
:10497E006F72203220646574656374656420000A6A
:10498E003D3D3D20436F6C6F722D4368616E6E65C9
:10499E006C204D617070696E67203D3D3D0043682F
:1049AE00616E6E656C20E2869220436F6C6F723A78
:1049BE000020204368616E6E656C20000A436F6CA8
:1049CE006F7220E28692204368616E6E656C733A58
:1049DE00002020003D3D3D3D3D3D3D3D3D3D3D3DAD
:1049EE003D3D3D3D3D3D3D3D3D3D3D3D3D3D3D3DE9
:1049FE0000E5B7A6E6BB91E98193E5B7B2E694BEB2
:104A0E00E4B88B00E58FB3E6BB91E98193E5B7B2CD
:104A1E00E694BEE4B88B00E58FB3E7BFBB20000081
:00000001FF
