:020000040000FA
:100000000C948F020C94B7020C94B7020C94021259
:100010000C9402120C9402120C94B7020C94B702C6
:100020000C94B7020C94B7020C94B7020C944611CE
:100030000C94B7020C94B7020C94B7020C94B7025C
:100040000C94A4100C94B7020C9414110C94EE10A0
:100050000C94B7020C94B7020C94B7020C94B7023C
:100060000C947A120C94B7022900C2B02028E884BC
:1000700089E586B23A2000C2B020E286922000C212
:10008000B020003A2000E9809AE9819320002900FD
:10009000C2B02028E88489E586B23A20003A20E8F8
:1000A000AEBEE7BDAEE7BB9DE5AFB9E8A792E5BA46
:1000B000A62000E9809AE981932000E7B3BBE7BB63
:1000C0009FE5B0B1E7BBAA202D20E7AD89E5BE854D
:1000D000E68C87E4BBA42E2E2E00E5BC80E5A78B22
:1000E000E887AAE58AA8E9A29CE889B2E698A0E593
:1000F000B0842E2E2E00E4B8A4E4B8AA474D3635BD
:10010000E6A8A1E59D97E5B0B1E7BBAA0050434141
:1001100039363835E5B0B1E7BBAA0050434139362E
:100120003835E5889DE5A78BE58C96E5A4B1E8B464
:10013000A52100E9A29CE889B2E4BCA0E6849FE581
:1001400099A8E5B0B1E7BBAA00E9A29CE889B2E4AE
:10015000BCA0E6849FE599A8E5889DE5A78BE58C82
:1001600096E5A4B1E8B4A52100E6ADA3E59CA8E519
:10017000889DE5A78BE58C96544341393534384149
:100180002E2E2E0037E3808138E3808139E58FB74A
:10019000E888B5E69CBAE5889DE5A78BE58C96E5F1
:1001A000AE8CE6889000E4BCA0E6849FE599A8E8C0
:1001B00088B5E69CBAE5889DE5A78BE58C96E5AE0B
:1001C0008CE6889000493243E680BBE7BABFE588F9
:1001D0009DE5A78BE58C96E5AE8CE6889000E994CA
:1001E00099E8AFAF3A20E69CAAE5AE8CE68890E9A4
:1001F000A29CE889B2E698A0E5B0842100E5B08F22
:10020000E79083E5B7B2E9878AE694BE2CE7AD892B
:10021000E5BE8535E7A792E5908EE5A48DE4BD8D1A
:100220002E2E2E00E58FB3E4BEA7E4BA8CE7BBB454
:10023000E7A081E695B0E68DAE3A2000E6938DE426
:10024000BD9CE5AE8CE688902CE8BF94E59B9EE7CC
:10025000A9BAE997B2E78AB6E680810035E7A792A6
:10026000E5B7B2E588B02CE6ADA3E59CA8E5A48D82
:10027000E4BD8DE888B5E69CBA2E2E2E00E6ADA32F
:10028000E59CA8E694BEE4B88BE58FB3E4BEA7E88E
:1002900088B5E69CBA2E2E2E00E99499E8AFAF3AC5
:1002A00020E69CAAE5AE8CE68890E9A29CE889B29B
:1002B000E698A0E5B0842100E5B08FE79083E5B72C
:1002C000B2E9878AE694BE2CE7AD89E5BE8535E7BD
:1002D000A792E5908EE5A48DE4BD8D2E2E2E00E52F
:1002E000B7A6E4BEA7E4BA8CE7BBB4E7A081E69565
:1002F000B0E68DAE3A2000E6938DE4BD9CE5AE8C71
:10030000E688902CE8BF94E59B9EE7A9BAE997B2EE
:10031000E78AB6E680810035E7A792E5B7B2E588BF
:10032000B02CE6ADA3E59CA8E5A48DE4BD8DE888DE
:10033000B5E69CBA2E2E2E00E6ADA3E59CA8E69469
:10034000BEE4B88BE5B7A6E4BEA7E888B5E69CBADC
:100350002E2E2E00E5B7B2E5909153544D3332E581
:100360008F91E98081E5AE8CE68890E4BFA1E58FAE
:10037000B700E9A29CE889B2E698A0E5B084E5AEB2
:100380008CE688902100E5BC80E5A78BE887AAE58C
:100390008AA8E9A29CE889B2E698A0E5B0842E2E4E
:1003A0002E00E6A0A1E9AA8CE5928CE99499E8AF29
:1003B000AFE68896E995BFE5BAA6E4B88DE6ADA3A9
:1003C000E7A1AE2100E8BF9BE585A5E58FB3E4BEBC
:1003D000A7E4BA8CE7BBB4E7A081E8AF86E588ABB9
:1003E000E6A8A1E5BC8F2E2E2E00E8BF9BE585A5D3
:1003F000E5B7A6E4BEA7E4BA8CE7BBB4E7A081E802
:10040000AF86E588ABE6A8A1E5BC8F2E2E2E00E8CE
:10041000BF9BE585A5E9A29CE889B2E698A0E5B076
:1004200084E6A8A1E5BC8F2E2E2E002C20646174DA
:100430006174687265653D002C2064617461747735
:100440006F3D00E694B6E588B0E68C87E4BBA43A3D
:1004500020646174616F6E653D00E5B8A7E9949909
:10046000E8AFAF3A20E5B8A7E5B0BEE4B88DE6AD99
:10047000A3E7A1AE00E7B3BBE7BB9FE5A484E4BA62
:100480008EE7A9BAE997B2E78AB6E68081202D20E7
:10049000E68980E69C89E888B5E69CBAE5B7B2E5CE
:1004A000A48DE4BD8D00E4B8B2E58FA3E7BC93E56D
:1004B00086B2E58CBAE5B7B2E6B885E7A9BA00001E
:1004C000000000240027002A0000000008000201AC
:1004D000000003040700000000000000000000000E
:1004E0000023002600290000000000250028002B22
:1004F00000040404040404040402020202020203CD
:1005000003030303030102040810204080010204D6
:1005100008102001020408102000B4130D1E11243D
:100520001FBECFEFD8E0DEBFCDBF14E0A0E0B1E04A
:10053000EAE8F6E402C005900D92A234B107D9F7BB
:1005400026E0A2E4B4E001C01D92A53AB207E1F7AB
:1005500012E0CEE8D2E004C02197FE010E942F21D4
:10056000CD38D107C9F70E9414140C9438230C9489
:1005700000000895089590E0FC01E753FB4F24919B
:10058000FC01EB5FFA4F3491FC01EF50FB4FE4911B
:10059000EE23C9F0222339F0233001F1A8F42130F1
:1005A00019F1223029F1F0E0EE0FFF1FE951FB4F66
:1005B000A591B4918FB7F894EC91611126C0309554
:1005C0003E233C938FBF08952730A9F02830C9F00F
:1005D000243049F7809180008F7D03C08091800096
:1005E0008F7780938000DFCF84B58F7784BDDBCF9A
:1005F00084B58F7DFBCF8091B0008F778093B00062
:10060000D2CF8091B0008F7DF9CF3E2BDACFCF9340
:10061000DF9390E0FC01EB5FFA4F24918F509B4FEA
:10062000FC0184918823D1F090E0880F991FFC0190
:10063000E154FB4FA591B491FC01E951FB4FC591E9
:10064000D49161110EC09FB7F8948C91E22FE09580
:100650008E238C932881E223E8839FBFDF91CF9183
:1006600008958FB7F894EC91E22BEC938FBFF6CFFF
:100670000F931F93CF93DF93EC01162F042F1B8250
:100680001A8288EE93E0A0E0B0E08C839D83AE8375
:10069000BF8381E791E0998388831F8A1E8A198E20
:1006A000188E1B8E1A8E1D8E1C8E6E8D6E7F6D7F2A
:1006B0006E8F6695617081E06827842F0E94BB026F
:1006C00061E0802F0E940703802F90E0FC01EB5F28
:1006D000FA4FE491E88BFC01EF50FB4FE491F0E01E
:1006E000EE0FFF1FE951FB4F859194919A8B898BF7
:1006F00060E0812F0E9407038E8D81FD04C061E0C0
:10070000812F0E94BB021C87812F90E0FC01EB5FD0
:10071000FA4FE491ED87FC01EF50FB4FE491F0E0DC
:10072000EE0FFF1FE352FB4F859194919F878E87B9
:10073000DF91CF911F910F9108953FB7F894809169
:100740002B0590912C05A0912D05B0912E0526B575
:10075000A89B05C02F3F19F00196A11DB11D3FBFF9
:10076000BA2FA92F982F8827BC01CD01620F711DC8
:10077000811D911D42E0660F771F881F991F4A95C2
:10078000D1F708958F929F92AF92BF92CF92DF924E
:10079000EF92FF924B015C010E949D036B017C0173
:1007A0000E949D036C197D098E099F09683E734064
:1007B00081059105A8F321E0821A9108A108B108EA
:1007C00088EEC80E83E0D81EE11CF11C8114910450
:1007D000A104B10429F7FF90EF90DF90CF90BF9074
:1007E000AF909F908F9008952FB7F8946091270550
:1007F000709128058091290590912A052FBF0895B1
:10080000AF92BF92CF92DF92EF92FF920F931F931E
:10081000CF93DF936C017B018B01040F151FEB015C
:100820005E01AE18BF08C017D10759F06991D60113
:10083000ED91FC910190F081E02DC6010995892B85
:1008400079F7C501DF91CF911F910F91FF90EF9044
:10085000DF90CF90BF90AF900895FC01538D448DF1
:10086000252F30E0842F90E0821B930B541710F05B
:10087000CF96089501970895FC01918D828D981768
:1008800061F0A28DAE0FBF2FB11D5D968C91928D40
:100890009F5F9F73928F90E008958FEF9FEF089571
:1008A000FC01918D828D981731F0828DE80FF11D3A
:1008B000858D90E008958FEF9FEF0895FC01918D55
:1008C000228D892F90E0805C9F4F821B91098F734E
:1008D0009927089585EA95E00E945E0421E0892B1E
:1008E00009F420E0822F089580E090E0892B29F020
:1008F0000E946A0481110C9400000895FC01A48DEB
:10090000A80FB92FB11DA35ABF4F2C91848D90E031
:1009100001968F739927848FA689B7892C93A08914
:10092000B1898C91837080648C93938D848D98139E
:1009300006C00288F389E02D80818F7D8083089531
:10094000EF92FF920F931F93CF93DF93EC0181E01F
:10095000888F9B8D8C8D98131AC0E889F9898081C6
:1009600085FF15C09FB7F894EE89FF896083E889F9
:10097000F98980818370806480839FBF81E090E0EB
:10098000DF91CF911F910F91FF90EF900895F62E78
:100990000B8D10E00F5F1F4F0F731127E02E8C8D12
:1009A0008E110CC00FB607FCFACFE889F989808157
:1009B00085FFF5CFCE010E947E04F1CFEB8DEC0FC9
:1009C000FD2FF11DE35AFF4FF0829FB7F8940B8F74
:1009D000EA89FB8980818062CFCF0F931F93CF93E9
:1009E000DF938C01D0E0C0E0F801EC0FFD1F6491B3
:1009F000662341F085EA95E00E94A004892B11F05E
:100A00002196F2CFCE01DF91CF911F910F910895E2
:100A1000CF93DF93EC01888D8823B9F0AA89BB8935
:100A2000E889F9898C9185FD03C0808186FD0DC020
:100A30000FB607FCF7CF8C9185FFF2CF808185FF41
:100A4000EDCFCE010E947E04E9CFDF91CF910895D2
:100A5000CF92DF92EF92FF92CF93DF93EC0160325F
:100A600082E07807CCF5653B710514F064EB70E02B
:100A7000898128E830E0281B310987FD3395220F52
:100A8000331F220F331F6901330FEE08FF088A81DD
:100A900028E532E0281B310987FD3395220F331FEB
:100AA000220F331F032E000C440B550B2C193D094C
:100AB0004E095F09DB0177FF02C0B0E0A0E00E94B1
:100AC000711F24EB30E040E050E00E94471FC20E4F
:100AD000D31EE41EF51EB601E881EC3070F52981C5
:100AE00088E890E0821B910927FD9395880F991F54
:100AF000880F991F681779077CF02A8188E592E0B2
:100B0000821B910927FD9395880F991F880F991FC4
:100B1000681779070CF4CB010297880F991F4FB71C
:100B2000F8942E2F30E0F901EE0FFF1FE20FF31FB4
:100B3000E353FB4F928381834FBFDF91CF91FF90AF
:100B4000EF90DF90CF9008951F93CF93DF93EC0148
:100B5000162F88818C3008F04EC061E0812F0E94F2
:100B600007038881282F30E0F901EE0FFF1FE20F05
:100B7000F31FE353FB4F1F736081607C612B608325
:100B800019821A822CE0622F0E94F420829FB00109
:100B9000112430E020E0AB01420F531FFA01EE0FA9
:100BA000FF1FE40FF51FE353FB4F908196FD16C026
:100BB0002F5F3F4F2C30310571F781110FC010921C
:100BC000800082E080938100109285001092840062
:100BD000B19A80916F00826080936F00E8818E2FC0
:100BE00090E0FC01EE0FFF1FE80FF91FE353FB4FEE
:100BF0008081806480838881DF91CF911F910895E7
:100C00002091C9043091CA042817390771F49091D2
:100C1000C8048091C704981741F0E091C804F0E03F
:100C2000E957FB4F808190E008958FEF9FEF089583
:100C30000895EF92FF920F931F93CF93DF93DC0100
:100C40005C96ED90FC905D97E114F10479F481E0FD
:100C500090E013969C938E93129790E080E0DF9142
:100C6000CF911F910F91FF90EF9008955196ED91C4
:100C7000FC91529750968C915097982F90950FB762
:100C80005E962C915E97122F127021FD6095F8945C
:100C90002081112319F1282B2083E7012197F1F7F7
:100CA00028E0462F50E0308160FF1AC0382B308397
:100CB000E7012197F1F7BA0175956795215089F7FA
:100CC000112381F08081892380830FBF5C968D91F1
:100CD0009C910197F1F781E090E0C1CF2923DCCF0F
:100CE0003923E5CF9081892BEFCF2091C904309132
:100CF000CA042817390761F48091C7042091C804F9
:100D000090E0805C9F4F821B91098F739927089513
:100D100090E080E008952091C9043091CA0428171A
:100D20003907B9F49091C8048091C704981789F0E5
:100D3000E091C804F0E0E957FB4F80812091C8049E
:100D400030E02F5F3F4F2F7333272093C80490E08C
:100D500008958FEF9FEF0895E091C904F091CA04C0
:100D6000E817F90769F4A389B4899C91858980956E
:100D700089238C931092CA041092C90481E00895CB
:100D800080E00895CF93DF93EC018A8D9B8D892BB2
:100D900001F18091C9049091CA048C179D07C9F094
:100DA000009711F00E94AC068E8D8E7F8E8F109270
:100DB000C7041092C804D093CA04C093C904EB8935
:100DC000FC8980819D89892B808381E0DF91CF918F
:100DD000089580E0FBCF20916404260F3327331F52
:100DE00021323105ECF420917B05FC0190E080E09C
:100DF000243069F082E00895A09164042191AC014F
:100E00004C5B5B4FA40FB52FB11D2C930196861739
:100E100098F380916404680F6093640480E00895FF
:100E200081E0089510927B0581E080937A0510920D
:100E3000550561E082E10E94BB0261E083E10E940E
:100E4000BB02E9EBF0E080818E7F808380818D7F23
:100E5000808388E48093B80085E48093BC00089583
:100E60001092340510923305109282051092A40559
:100E70000E94120789EB92E090933205809331052E
:100E80008AEB92E09093300580932F050895CF93DD
:100E9000DF9391E0909343048823B9F0C091B800A8
:100EA000D091BA008091BC008A7B8093BC0060E046
:100EB00082E10E94BB0260E083E10E94BB020E94CB
:100EC0001207D093BA00C093B800DF91CF91089574
:100ED0008F929F92AF92BF92CF92DF92EF92FF924A
:100EE0000F931F93CF93DF93D091A405D13208F0D5
:100EF000D7C0182FC091A3050E949D036B017C01F0
:100F000080917B0581116BC082E080937B051093FB
:100F10007A058FEF8093790510927805D093770545
:100F2000A3E8B5E0E7E5F5E080E0D81391C01092C2
:100F3000560580915605CC0FC82BC093560580915D
:100F40005505813009F088C0109255050E949D0317
:100F50006B017C01809156058093BB0080917D05DB
:100F600090917E05A0917F05B0918005892B8A2BF9
:100F70008B2BA1F00E949D0300917D0510917E05B1
:100F800020917F05309180056C197D098E099F099C
:100F9000061717072807390708F442C08091BC00DC
:100FA00083FDD8CF85EC8093BC000E949D036B012C
:100FB0007C0180917B05823009F450C080917905D5
:100FC0008F3F09F46FC080917905803209F46CC0BD
:100FD00080917905803309F469C084E026C080914E
:100FE0007D0590917E05A0917F05B0918005892BAC
:100FF0008A2B8B2B09F484CF0E949D0380907D0562
:1010000090907E05A0907F05B09080056C197D09B9
:101010008E099F0986169706A806B90608F070CFB4
:1010200080917C050E94470785E01092820510920E
:10103000A40510928105DF91CF911F910F91FF9030
:10104000EF90DF90CF90BF90AF909F908F900895DA
:101050009D9191938F5F69CF85EEA5CF80917D059E
:1010600090917E05A0917F05B0918005892B8A2BF8
:101070008B2B09F49ECF0E949D0300917D0510915A
:101080007E0520917F05309180056C197D098E09C0
:101090009F09061717072807390708F08ACFC0CF1E
:1010A00081E0C3CF80E0C1CF82E0BFCF83E0BDCF7E
:1010B0001F93CF93DF93EA01122FDC0111968D91DC
:1010C0009C91DC01ED91FC910280F381E02D09956A
:1010D000C817D90729F4812F0E94680791E0811170
:1010E00090E0892FDF91CF911F910895CF93DF93E7
:1010F000EC018B818823A1F0888191E09093810598
:101100008093A305109282051092A40581E00E94AD
:10111000680791E0811190E0892FDF91CF910895C8
:101120000E94300781E08B83CE010E947608982FC1
:101130008111E2CFF1CF8F929F92AF92BF92CF9267
:10114000DF92EF92FF920F931F93CF93DF93D82FED
:10115000C62F142F613208F09CC00E949D036B01C2
:101160007C0180917B0581116FC081E080937B05BC
:1011700010937A059FEF90937905109278059C0F54
:10118000909377058093560580915605DD0FD82BF7
:10119000D093560580915505813009F07CC010929E
:1011A00055050E949D036B017C018091560580933B
:1011B000BB0080917D0590917E05A0917F05B09147
:1011C0008005892B8A2B8B2BA1F00E949D03009117
:1011D0007D0510917E0520917F05309180056C1969
:1011E0007D098E099F09061717072807390708F494
:1011F0004CC08091BC0083FDD8CF85EC8093BC00AF
:101200000E949D036B017C0180917B05813009F474
:1012100044C0809178058C1710F4C0917805E7E5FB
:10122000F5E0A5E3B5E080E08C1359C08C2FDF9189
:10123000CF911F910F91FF90EF90DF90CF90BF90D3
:10124000AF909F908F90089580917D0590917E053D
:10125000A0917F05B0918005892B8A2B8B2B09F4F7
:1012600080CF0E949D0380907D0590907E05A09088
:101270007F05B09080056C197D098E099F0986163F
:101280009706A806B90608F06CCF80917C050E94ED
:101290004707C0E0CBCF85EEB1CF80917D0590911F
:1012A0007E05A0917F05B0918005892B8A2B8B2B21
:1012B00009F4AACF0E949D0300917D0510917E053F
:1012C00020917F05309180056C197D098E099F0959
:1012D000061717072807390708F096CFD6CF919140
:1012E0009D938F5FA1CFE091340580913305E8177E
:1012F00030F4F0E0EB5CFA4F808190E008958FEFDE
:101300009FEF089590913405809133052FEF3FEFC3
:10131000981748F4E92FF0E0EB5CFA4F208130E0B9
:101320009F5F90933405C901089580913305909192
:101330003405891B990B0895CF92DF92EF92FF92AB
:101340000F931F93CF93DF937C01CB018A012091F0
:101350008105222389F0EB016B01C40ED51ECC154B
:10136000DD0569F06991D701ED91FC910190F08163
:10137000E02DC7010995F3CF642F0E94EB06C80149
:10138000DF91CF911F910F91FF90EF90DF90CF9061
:101390000895CF93DF931F92CDB7DEB76983209175
:1013A00081052223F9F02091A405203258F021E094
:1013B00030E0FC013383228390E080E00F90DF91E6
:1013C000CF91089580918205E82FF0E0ED57FA4F14
:1013D000998190838F5F809382058093A40581E03B
:1013E00090E0ECCF61E0CE0101960E94EB06F7CFD2
:1013F000682F8BE496E00C94C90990E080E0089592
:101400001F93CF93DF9300D000D01F92CDB7DEB7EC
:10141000880F880F8A5F89831A821B826C837D8381
:1014200080915A0690915B06FC012481358125301C
:101430003105E0F0208111E0109381052093A30590
:10144000109282051092A40521E045E050E0BE0113
:101450006F5F7F4F0E94580881270F900F900F9069
:101460000F900F90DF91CF911F91089581E0F5CFFC
:10147000CF93DF9300D0CDB7DEB789836A838091A5
:101480005A0690915B06FC0124813581223031059A
:1014900090F0208131E0309381052093A3051092D4
:1014A00082051092A40521E042E050E0BE016F5F8A
:1014B0007F4F0E9458080F900F90DF91CF910895B1
:1014C00041E0682F88E40E949B08109234058093C5
:1014D000330508958F929F92AF92BF92CF92DF9281
:1014E000EF92FF920F931F93CF93DF931F92CDB78D
:1014F000DEB76B017C0120E030E040E85FE30E9452
:10150000231E87FD97C020E030EC4AE555E4C70173
:10151000B6010E94EF2018160CF493C060915C068F
:1015200070915D0680915E0690915F060E94281E74
:101530004B015C0120E030E040E855E4C701B60112
:101540000E94891E9B01AC01C501B4010E944E207E
:1015500020E030E040E05FE30E94E21F20E030E066
:1015600040E85FE30E94E11F6B017C0120E030E076
:1015700040E450E40E94231E87FD6BC020E030E071
:101580004FE753E4C701B6010E94EF2018160CF490
:1015900066C0C701B6010E94C020B62E1982009114
:1015A0005A0610915B06D80114968D919C9115975F
:1015B000892B09F45EC08C9191E090938105809312
:1015C000A305109282051092A40520E041E050E0AE
:1015D000BE016F5F7F4FC8010E945808882309F43D
:1015E00048C0F801E480F58061E0E114F10409F4F9
:1015F00060E0C62ED12C462FD8018C910E949B080A
:1016000010923405809333058C151D0491F590E0FC
:1016100080E08C159D0550F5F80181819281DC01F7
:10162000ED91FC910284F385E02D0995898381E099
:1016300090E0EFCFC12CD12C30E8E32E3FE3F32E26
:101640006DCFC12C20ECD22E2AE5E22E25E4F22E1D
:1016500065CFC12CD12C90E4E92EFE2C9ACFC12C61
:10166000D12C8FE7E82E83E4F82E93CFEF2809F4EE
:10167000B8CF1981612F6F76606180E00E94380ACF
:101680006B2D8EEF0E94380A612F80E00E94380A8D
:1016900065E070E080E090E00E94C203612F606A24
:1016A00080E00E94380A0F90DF91CF911F910F9137
:1016B000FF90EF90DF90CF90BF90AF909F908F9072
:1016C0000895FC0101900020E9F73197AF01481B14
:1016D000590BBC0185EA95E00C940004CF93DF938D
:1016E0000E94ED04EC0183EA91E00E94610B8C0FF3
:1016F0009D1FDF91CF9108958F929F92AF92BF92DD
:101700000F931F93CF93DF93CDB7DEB7A1970FB69B
:10171000F894DEBF0FBECDBF19A2423008F44AE0F4
:101720008E010F5D1F4F842E912CB12CA12CA50191
:1017300094010E94B01FE62FB901CA01EA30F4F407
:10174000E05DD801EE938D01232B242B252B79F717
:1017500090E080E0109719F0CD010E94610BA196F6
:101760000FB6F894DEBF0FBECDBFDF91CF911F91B2
:101770000F91BF90AF909F908F900895E95CE1CF5B
:10178000CF92DF92EF92FF92CF93DF936C01990F8C
:10179000EE08FF08F7FE19C06DE285EA95E00E94A9
:1017A000A004EC0166277727CB016C197D098E090F
:1017B0009F094AE00E947C0B8C0F9D1FDF91CF9107
:1017C000FF90EF90DF90CF9008954AE0C701B601F7
:1017D000DF91CF91FF90EF90DF90CF900C947C0B36
:1017E000009711F00C94610B90E080E00895CF9386
:1017F000DF9300D000D01F92CDB7DEB78AEA89838D
:1018000083E08A8381E08B838EEA8C8385E58D83F8
:1018100045E050E0BE016F5F7F4F85EA95E00E9492
:10182000000486EA91E00E94F00B4AE061E070E07B
:1018300080E090E00E947C0B0F900F900F900F9033
:101840000F90DF91CF910895CF93DF93682F70E0D1
:1018500090E080E04AE00E947C0BEC0183EA91E09A
:101860000E94610B8C0F9D1FDF91CF910895CF9344
:10187000DF93D0E0C0E0009719F00E94610BEC010B
:1018800083EA91E00E94610B8C0F9D1FDF91CF9145
:101890000895CF93DF93C82FD1E0D093810580E7DF
:1018A0008093A305109282051092A40581E00E9406
:1018B0006807882331F08BEB91E0DF91CF910C9496
:1018C000370CD0938105109282051092A40581E017
:1018D00090E00C2E02C0880F991F0A94E2F70E9434
:1018E000F80981E00E946807882339F08FEC91E0C5
:1018F0000E94F00B8C2F0E94240C64E170E080E0C9
:1019000090E0DF91CF910C94C2030F931F93CF937C
:10191000DF938C0181E06130710509F480E00E9461
:10192000490C81E08093810588E48093A30510929F
:1019300082051092A40581ED90E00E94F80980E0F4
:101940000E94680783E090E00E94600AE8010A5F55
:101950001F4F9091330580913405981751F0C017AF
:10196000D10739F08BE496E00E948209899399931C
:10197000F0CF6AE070E080E090E0DF91CF911F91BE
:101980000F910C94C2030F931F93CF93DF938C019D
:1019900081E06130710509F480E00E94490C81E02A
:1019A0008093810588E48093A305109282051092AC
:1019B000A40580ED90E00E94F80980E00E9468078D
:1019C00083E090E00E94600AE8010A5F1F4F909157
:1019D000330580913405981751F0C017D10739F0BD
:1019E0008BE496E00E94820989939993F0CF6AE094
:1019F00070E080E090E0DF91CF911F910F910C9407
:101A0000C20321E0019709F420E0822F0E94490CD3
:101A100081E08093810588E48093A305109282057C
:101A20001092A4058AEA90E00E94F80980E00E94E2
:101A3000680781E090E00E94600A909133058091F0
:101A40003405981741F08BE496E00E94820921E06A
:101A50008636910509F020E0822F089583E290E018
:101A6000909337018093360163E270E082E496E060
:101A70000E9428058DEE91E00C94370C85EA90E0E9
:101A8000909335018093340165EA70E085E496E037
:101A90000E94280589E092E00C94370C8AE590E0DA
:101AA00090933901809338016AE570E088E496E00C
:101AB0000E94280582E192E00C94370CCF93DF93CB
:101AC000FC01448155816081718185EA95E00E9425
:101AD0000004EC0183EA91E00E94610B8C0F9D1FD2
:101AE000DF91CF910895CF93DF930E94C00BEC015B
:101AF00083EA91E00E94610B8C0F9D1FDF91CF91D3
:101B00000895FC0180819181009711F00C94D121FE
:101B100008950F931F93CF93DF93EC0188819981F0
:101B2000009759F02A813B812617370730F081E072
:101B3000DF91CF911F910F9108958B016F5F7F4FC0
:101B40000E945A22009759F0998388831B830A8345
:101B50002C813D81232B59F7FC011082E8CF80E0D6
:101B6000E7CFEF92FF920F931F93CF93DF93EC0198
:101B70007B018A01BA010E94890D28813981811176
:101B800014C02115310519F0C9010E94D121198213
:101B900018821D821C821B821A82CE01DF91CF9196
:101BA0001F910F91FF90EF9008951D830C83B70153
:101BB000C9010E943123F1CF8F929F92AF92BF92C1
:101BC000CF92DF92EF92FF920F931F93CF93DF9309
:101BD00000D0CDB7DEB78C016B01FC011182108201
:101BE000138212821582148250E040E065EA71E0AF
:101BF0000E94B10D0E94F4034B015C01C6010E94DA
:101C00007506892B91F40E94F403681979098A09F1
:101C10009B09643671058105910538F461E070E037
:101C200080E090E00E94C203E9CFC6010E947506E1
:101C3000892B39F1C6010E948B0689831A82F8012B
:101C4000E480F580FFEFEF1AFF0AB701C8010E9498
:101C5000890D882379F0F801208131818481958173
:101C6000BE016F5F7F4F820F931F0E943123F801E7
:101C7000F582E48262E070E080E090E00E94C203BE
:101C8000D4CFC8010F900F90DF91CF911F910F918A
:101C9000FF90EF90DF90CF90BF90AF909F908F908C
:101CA000089585ED8093BC0080917D0590917E051F
:101CB000A0917F05B09180050796A11DB11D23E07D
:101CC000B695A795979587952A95D1F72091BC0051
:101CD00024FD03C010927B05089540917D0550912D
:101CE0007E0560917F0570918005452B462B472B23
:101CF00069F30097A105B10541F02AE22A95F1F7B1
:101D000000C00197A109B109E1CF80917C050C9435
:101D100047072F923F924F925F926F927F928F92DE
:101D20009F92AF92BF92CF92DF92EF92FF920F936A
:101D30001F93CF93DF9300D000D000D0CDB7DEB794
:101D40002091180521111CC08DE292E026960FB655
:101D5000F894DEBF0FBECDBFDF91CF911F910F91E1
:101D6000FF90EF90DF90CF90BF90AF909F908F90BB
:101D70007F906F905F904F903F902F900C94370C16
:101D8000DC0114962D913C91232B09F47FC17B013A
:101D90008C018BE492E00E94F00BC7010E94C00B03
:101DA00081E592E00E94F00BC8010E945E0DF801EF
:101DB000C480D580F12CE12C8DE6A82E81E0B82ED0
:101DC000EC14FD0409F444C1D801ED91FC91309765
:101DD000B9F410924204E2E4F4E08081082E000C91
:101DE000990B0E941723EEE5F1E02281281759F0A4
:101DF0003396AE16BF06C9F7BFEFEB1AFB0AE0CF6A
:101E0000EE0DFF1DEACF8032B9F3BEE5CB2EB1E077
:101E1000DB2EF60190E080E0328132131BC1FC0121
:101E2000EE0FFF1FE80FF91FE25AFE4FE080F1802E
:101E300010E000E0B701F601808191810E94282323
:101E40005C01892B09F011C1000F111F000F111F38
:101E5000F801E550FB4F80819181D12CC12C8F3F3F
:101E6000980729F09A838983CC24C394D12C0550F8
:101E70001B4FD80112968D919C918F3F980709F4C2
:101E800000C1F601EE0FFF1FEC0FFD1F928381834F
:101E9000F60131966F0183E792E00E94F00BC701D3
:101EA0000E94F00B80E892E00E94F00BCE010196B8
:101EB0009E838D83160191E0291A3108AD81BE8180
:101EC0000D911D91BE83AD83C8010E94C00BA21469
:101ED000B30424F483E992E00E94F00B0031110571
:101EE00008F06CC082E00E94490C4801880C991CE3
:101EF000F401E050FF4FE080F180B4E6EB0EF11CFE
:101F0000E5EBEE16F1041CF044EBE42EF12CF7FEA9
:101F100002C0F12CE12C22EC31E0D7010E94142107
:101F200024EB30E040E050E00E94471F29013A01D5
:101F3000F6E94F0E511C611C711C86E890E00E946E
:101F4000ED04C8010E94C00B83E890E00E94ED04FC
:101F5000C40180509F4F4C01DC018D919C910E94E7
:101F6000C00B8FE790E00E94ED0486E992E00E94AA
:101F7000F00B84E690E00E94C00B87E790E00E949F
:101F8000ED04C7010E94C00B8AE690E00E94ED04B8
:101F90004AE0C301B2010E947C0B88E690E00E94F7
:101FA0006E0BB201802F0E94000AF401F182E082E0
:101FB00068EE73E080E090E00E94C20364EF71E09D
:101FC00080E090E00E94C20300311105A8F582E094
:101FD0000E94490C83EB90E00E94ED04C8010E942E
:101FE000C00B8DE990E00E94ED048AE590E00E942C
:101FF000C00B80E990E00E94ED044AE067E771E0E1
:1020000080E090E00E947C0B8EE890E00E946E0BD6
:1020100067E771E0802F0E94000A000F111FF8018E
:10202000E050FF4F8AE590E09183808364EF71E098
:1020300080E090E00E94C203C5010196AA24A39407
:10204000B12C8C159D050CF439CF88E992E07ECE39
:1020500020E2DBCE019633968530910509F0DCCE87
:10206000F5E2EF2EF2E0FF2EE3CE0F5F1F4FF3E01D
:10207000CF0ED11C0530110509F0DCCE89E592E0C8
:1020800065CEC114D10409F006CFF8CF26960FB65D
:10209000F894DEBF0FBECDBFDF91CF911F910F919E
:1020A000FF90EF90DF90CF90BF90AF909F908F9078
:1020B0007F906F905F904F903F902F900895CF92B8
:1020C000DF92EF92FF920F931F93CF93DF936C01F8
:1020D0008B01FB01EE0FFF1FE05EFE4F91838083BB
:1020E0005EE5E52E51E0F52ED0E0C0E0B601F70147
:1020F000808191810E942823892BF1F4CC0FDD1F70
:10210000FE01EF50FB4F80819181823091055CF49C
:10211000C80FD91FCC0FDD1FC550DB4F19830883B3
:10212000019691838083DF91CF911F910F91FF9052
:10213000EF90DF90CF9008952196F3E0EF0EF11C21
:10214000C530D10599F6EFCF1F920F920FB60F92BF
:1021500011242F933F938F939F93AF93BF938091BD
:10216000270590912805A0912905B0912A05309165
:10217000260523E0230F2D3758F50196A11DB11D2B
:10218000209326058093270590932805A093290581
:10219000B0932A0580912B0590912C05A0912D05D7
:1021A000B0912E050196A11DB11D80932B05909332
:1021B0002C05A0932D05B0932E05BF91AF919F9153
:1021C0008F913F912F910F900FBE0F901F901895F8
:1021D00026E8230F0296A11DB11DD2CF1F920F92A8
:1021E0000FB60F9211242F933F934F935F936F93EA
:1021F0007F938F939F93AF93BF93EF93FF9385EA62
:1022000095E00E947E04FF91EF91BF91AF919F9165
:102210008F917F916F915F914F913F912F910F908F
:102220000FBE0F901F9018951F920F920FB60F922E
:1022300011242F938F939F93EF93FF93E091B50514
:10224000F091B6058081E091BB05F091BC0582FD5F
:102250001BC090818091BE058F5F8F732091BF0559
:10226000821741F0E091BE05F0E0EB55FA4F958FF3
:102270008093BE05FF91EF919F918F912F910F90C9
:102280000FBE0F901F9018958081F4CF1F920F9270
:102290000FB60F9211242F933F934F935F936F9339
:1022A0007F938F939F93AF93BF93CF93DF93EF93DE
:1022B000FF938091CB04C091CC04D0E087FF24C071
:1022C00010928500109284008091CB048F5F8093E0
:1022D000CB048091CB04082E000C990B8C179D0722
:1022E00024F48091CB048C30C4F1809184009091CF
:1022F0008500049680349C4908F47AC0809184005B
:1023000090918500049676C08091CB04082E000C35
:10231000990B8C179D07C4F6E091CB048E2FEE0F1E
:10232000990BFC01EE0FFF1FE80FF91FE353FB4F62
:10233000808186FFC9CFE091CB048E2FEE0F990BE1
:10234000FC01EE0FFF1FE80FF91FE353FB4F8081E5
:1023500060E08F730E94BB02B7CF20918400309160
:102360008500E091CB048E2FEE0F990BFC01EE0F50
:10237000FF1FE80FF91FE353FB4F81819281820F0A
:10238000931F9093890080938800E091CB048E2F57
:10239000EE0F990BFC01EE0FFF1FE80FF91FE3533F
:1023A000FB4F808186FF11C0E091CB048E2FEE0F92
:1023B000990BFC01EE0FFF1FE80FF91FE353FB4FD2
:1023C000808161E08F730E94BB02FF91EF91DF91EA
:1023D000CF91BF91AF919F918F917F916F915F91BD
:1023E0004F913F912F910F900FBE0F901F90189516
:1023F00080E49CE990938900809388008FEF80931C
:10240000CB04E3CF1F920F920FB60F9211242F939C
:102410003F934F935F936F937F938F939F93AF936C
:10242000BF93EF93FF93E091C904F091CA043097F2
:1024300049F0A685B7858585968D91FF14C09C913E
:102440008923A1F4FF91EF91BF91AF919F918F915B
:102450007F916F915F914F913F912F910F900FBEA0
:102460000F901F9018959C91892361F7A389B489D7
:102470009C918589809589238C938689978901977A
:10248000F1F7608D718DA685B785558538E020E020
:10249000CB010197F1F7822F90E095958795282F32
:1024A0004C91452309F02068315091F7868D81FDCC
:1024B00020958091C70490E001968F739927309101
:1024C000C804381799F0A091C704B0E0A957BB4FD2
:1024D0002C938093C704828D938D0197F1F7A38984
:1024E000B4898C919589892B8C93ACCF868D816032
:1024F000868FF1CF1F920F920FB60F9211242F9358
:102500003F934F935F936F937F938F939F93AF937B
:10251000BF93EF93FF938091B900887F803609F4D1
:102520004AC0F0F5883209F4A7C018F5803109F4E3
:102530009BC0B8F4882309F4F9C0883009F494C02A
:10254000FF91EF91BF91AF919F918F917F916F918B
:102550005F914F913F912F910F900FBE0F901F9061
:102560001895883109F488C0803251F78093790535
:1025700014C0803409F49DC040F48033B9F388332B
:10258000F9F68093790585ECB0C0803509F485C0F3
:10259000883509F496C0883499F60E94510ED0CF40
:1025A000883909F48CC038F5883729F050F488361A
:1025B00011F0803729F683E080937B051092860422
:1025C00057C0883809F47BC0803919F0803809F089
:1025D000B7CF80918604803208F071C0E091860404
:1025E00081E08E0F809386048091BB00F0E0EA5971
:1025F000FB4F80833DC0803B39F0E0F4803A09F422
:1026000079C0883A09F09CCF84E080937B051092D2
:10261000650410926404E0913105F091320509954A
:102620008091640481110FC081E080936404109252
:10263000440409C0803C09F4A6CF883C09F4A3CF28
:10264000883B09F07DCFE091650481E08E0F809397
:102650006504F0E0EC5BFB4F80818093BB009091C0
:1026600065048091640429C0809156058093BB0065
:1026700085EC8093BC0064CF9091780580917705BC
:10268000981758F5E091780581E08E0F80937805D2
:10269000F0E0E95AFA4F8081E9CFE091780581E0D6
:1026A0008E0F809378058091BB00F0E0E95AFA4FD5
:1026B000808390917805809177059817C8F285E816
:1026C000D8CFE091780581E08E0F809378058091D6
:1026D000BB00F0E0E95AFA4F808380917A058111BE
:1026E0005CCF81E08093550584EA8093BC00109212
:1026F0007B0526CF85EC8093BC0010927B058091F2
:102700008604803230F4E0918604F0E0EA59FB4F11
:1027100010826091860470E0E0912F05F091300501
:1027200086E694E00995109286040ACF1092790506
:1027300034CFFC019091CC049C3098F481E0890F57
:102740008093CC049083892F90E0FC01EE0FFF1F53
:10275000E80FF91FE353FB4F88EB9BE092838183E3
:1027600008958FEF80830895CF93DF93E5EAF5E036
:102770001382128288EE93E0A0E0B0E08483958318
:10278000A683B78323E831E03183208325EC30E052
:102790003587248724EC30E03787268720EC30E02B
:1027A000318B208B21EC30E0338B228B22EC30E01C
:1027B000358B248B26EC30E0378B268B118E128ED6
:1027C000138E148ECBE4D6E01B821A828C839D83F9
:1027D000AE83BF8385E991E09983888388E496E09E
:1027E0000E94991385E496E00E94991382E496E092
:1027F0000E949913E7E5F6E080E48083D283C183E9
:10280000148213824BE06AE08FE796E00E9438035F
:102810004DE06CE080E696E00E9438038EE996E099
:10282000DF91CF910C949913CF93DF93CDB7DEB79F
:102830006C970FB6F894DEBF0FBECDBF789484B509
:10284000826084BD84B5816084BD85B5826085BDAC
:1028500085B5816085BD80916E00816080936E003A
:10286000109281008091810082608093810080912C
:1028700081008160809381008091800081608093DD
:1028800080008091B10084608093B1008091B0009D
:1028900081608093B00080917A00846080937A0098
:1028A00080917A00826080937A0080917A008160C2
:1028B00080937A0080917A00806880937A001092E9
:1028C000C100E091B505F091B60582E08083E0910A
:1028D000B105F091B2051082E091B305F091B40515
:1028E00080E180831092BD05E091B905F091BA05B1
:1028F00086E08083E091B705F091B8058081806122
:102900008083E091B705F091B8058081886080836D
:10291000E091B705F091B805808180688083E091EF
:10292000B705F091B80580818F7D808360ED77E0F9
:1029300080E090E00E94C2030E94300785EC91E0A5
:102940000E946E0B66E070E08EE996E00E94A4059E
:1029500086EA91E00E946E0B67E070E088E496E002
:102960000E94A4056AE570E088E496E00E942805CC
:102970008AE590E0909339018093380168EE73E026
:1029800080E090E00E94C2038DEB92E00E94370C41
:1029900068E070E085E496E00E94A40565EA70E0D6
:1029A00085E496E00E94280585EA90E09093350141
:1029B0008093340168EE73E080E090E00E94C203EF
:1029C00089ED92E00E94370C69E070E082E496E0C5
:1029D0000E94A40563E270E082E496E00E9428056C
:1029E00083E290E0909337018093360168EE73E0C4
:1029F00080E090E00E94C20382EF92E00E94370CD8
:102A000084E891E00E946E0B89E691E00E946E0BD3
:102A100045E0E42EF12C10E000E001110C94AD1D16
:102A200081E090E00E94010D082F62E370E080E0F9
:102A300090E00E94C20311110C949E1D82E090E070
:102A40000E94010D182F62E370E080E090E00E9488
:102A5000C203002319F011110C94A21D64E670E06A
:102A600080E090E00E94C20321E0E21AF108A9F69A
:102A70008BE093E00E94F00B8EE992E0002311F0CE
:102A80008AE992E00E94370C8CE193E00E94F00BFF
:102A90008EE992E0112311F08AE992E00E94370C4E
:102AA000002309F4B2C0112309F4AFC083E391E01D
:102AB0000E946E0B82E00E94490C62E370E080E0AD
:102AC00090E00E94C20380915A0690915B060097A5
:102AD00009F0A0C086E090E00E9435218C01809131
:102AE00058069091590620915706F8012083928349
:102AF0008183138280E290E09583848310935B0648
:102B000000935A060E94300781E0F8018383C801D0
:102B10000E947608882309F480C060E880E00E9463
:102B2000380A6AE070E080E090E00E94C20380E42E
:102B300098E7ADE7B1E080935C0690935D06A093C3
:102B40005E06B0935F0660E070E08AE794E40E945E
:102B50006A0A60E070E088E492E40E946A0A8DE00C
:102B600091E00E946E0B8FE796E00E94B21D80E616
:102B700096E00E94B21D86EF90E00E946E0BA1EFDE
:102B8000B4E0EBEFF4E08FEF9FEF1D921D92918385
:102B9000808393838283349624E0AB3FB207A9F706
:102BA0008AED90E00E946E0B10922105109219059B
:102BB00010922505109224058BEB90E00E946E0B7D
:102BC0004E0137E0830E911CCE0101963C0133E0AB
:102BD000232E312C8091240590912505813091057B
:102BE00009F449C1F8F08230910509F4ADC50397A5
:102BF00009F4B1C680E090E0892B61F30E946A0479
:102C0000882341F30E940000E5CF89E491E00E940F
:102C10006E0BFFCF0E94D1215DCF8BE191E00E942E
:102C20006E0BFFCF80912305811113C085EA95E0DB
:102C30000E945E04181619062CF485EA95E00E949D
:102C40003C04F4CF81E08093230586EA94E00E945F
:102C50006E0B8091220581110DC00E944E0D0E94C5
:102C60003E0D0E942E0D81E08093220585E794E0C1
:102C70000E946E0B11E085EA95E00E945E04181632
:102C8000190634F585EA95E00E943C04E09121059F
:102C9000E11107C08A3A29F41093210580931A059F
:102CA000EACF9FEF9E0F963080F491E09E0F9093B5
:102CB0002105F0E0E65EFA4F80839730E1F6853536
:102CC00009F044C710931905D6CF10922105D3CF30
:102CD00080911905882309F48DCF80911A058A3ACD
:102CE00009F0ABC080912005853509F0A6C0909110
:102CF0001B0500911C0510911D05F0901E05892FE4
:102D0000800F8655810F8F0D20911F052813AEC0AF
:102D1000933009F0ABC083E494E00E94ED04602F8F
:102D200070E090E080E04AE00E947C0B88E394E051
:102D30000E94ED04612F70E090E080E04AE00E9484
:102D40007C0B8BE294E00E94ED048F2D0E94240CFA
:102D500091E0F91272C0011175C011117CC08FE0B1
:102D600094E00E946E0B68EB7BE080E090E00E94B4
:102D7000C2030E94F70B64E170E080E090E00E94E3
:102D8000C20370E060E08EE996E00E94280564EFDF
:102D900071E080E090E00E94C20368EC70E08EE990
:102DA00096E00E94280564EF71E080E090E00E94C8
:102DB000C20370E060E08EE996E00E94280564E6B8
:102DC00070E080E090E00E94C20310E000E0B801F3
:102DD0008EE996E00E94280568E070E080E090E0CF
:102DE0000E94C2030F5F1F4F053B110581F764E688
:102DF00070E080E090E00E94C20304EB10E0B801B4
:102E00008EE996E00E94280568E070E080E090E09E
:102E10000E94C2030150110990F764E670E080E05F
:102E200090E00E94C20381E090E09093250580939A
:102E3000240510922205109223051092210510926C
:102E40001905D8CE013039F48AEE93E00E946E0B5A
:102E500082E090E0EACF113081F785EC93E00E94A8
:102E60006E0B3092250520922405E3CF82EA93E091
:102E70000E946E0BE2CF86E893E00E946E0B64EF37
:102E800071E080E090E00E94C20370E060E08EE9B3
:102E900096E00E94280564EF71E080E090E00E94D7
:102EA000C20320E431E03A8B298BE989FA89008159
:102EB0001181228133813C8B2B8B848195819A8F68
:102EC000898F8DE293E00E94F00BC8010E94730D80
:102ED000B8018EE996E00E94280564EF71E080E079
:102EE00090E00E94C203F40126E011922A95E9F7CE
:102EF000F30126E011922A95E9F723E0E22EF12C66
:102F0000188A1F86512C412C1E861D8610E000E079
:102F1000B12CA12CD12CC12C61E070E0C4010E9425
:102F2000C30C61E070E0C3010E94850C8F8198851D
:102F30009E8B8D8BE985FA85F88FEF8B2B853C85F1
:102F40003C8F2B8F80E493E00E94F00B8D899E894B
:102F50000E94C00B81E593E00E94F00B8F89988D51
:102F60000E94C00B81E593E00E94F00B8B8D9C8D3D
:102F70000E94C00B83E593E00E94F00B89819A8147
:102F80000E94C00B81E593E00E94F00B8B819C8135
:102F90000E94C00B81E593E00E94F00B8D819E8121
:102FA0000E94730D8F8198858F3F910519F014F061
:102FB0008FEF90E097FF02C090E080E0C80ED91E2E
:102FC00089859A858F3F910519F014F08FEF90E075
:102FD00097FF02C090E080E0A80EB91E8B859C850B
:102FE0008F3F910519F014F08FEF90E097FF02C02A
:102FF00090E080E0080F191F89819A81ED85FE8598
:10300000E80FF91FFE87ED878B819C81480E591EC2
:103010008D819E812F853889280F391F388B2F8706
:103020006AE070E080E090E00E94C20331E0E31AC1
:10303000F10809F071CFC601B1010E9400216B01B6
:10304000C501B1010E9400217B01C801B1010E94AC
:1030500000218B018D859E85B1010E9400217A831C
:103060006983C201B1010E9400217C836B838F853B
:103070009889B1010E9400217E836D8380E493E0F2
:103080000E94F00BC6010E94C00B81E593E00E94F4
:10309000F00BC7010E94C00B81E593E00E94F00B8A
:1030A000C8010E94C00B83E593E00E94F00B898168
:1030B0009A810E94C00B81E593E00E94F00B8B8106
:1030C0009C810E94C00B81E593E00E94F00B8D81F2
:1030D0009E810E94730DC601885C9109C89708F50E
:1030E000C7018A5A910986359105D8F40F3F110519
:1030F00009F0B8F449815A81CA018A5A9109C897DE
:1031000080F42B813C81273E310558F48D819E81CE
:10311000825891098437910520F4421753070CF423
:1031200007C3C6018E5B910982349105E8F4C7019B
:103130008E5B910982349105B8F4C8018E5B9109C8
:103140008234910588F489819A81823E910560F4E8
:103150008B819C818D3D910538F48D819E81845BAE
:103160009109CD9708F4E7C2C6018D97833D91057B
:1031700008F5C701865991098A369105D8F4C80126
:103180008857910988389105A8F489819A818E56CB
:103190009109459778F48B819C818B5491098734F0
:1031A000910540F48D819E81845691098234910568
:1031B00008F4C4C2C601865991098A369105E8F41B
:1031C0008BE5E816F104B0F40937110598F489810C
:1031D0009A81C39778F48B819C81805591098739B6
:1031E000910540F48D819E818654910904EB12E093
:1031F000C39730F105E212E023C09DE3C916D10464
:10320000C8F7E4E1EE1AF108F1E5EF16F10490F7E2
:10321000085211090F36110568F789819A81825881
:103220009109C39738F78B819C814497823E910521
:1032300008F78D819E814E9708EB12E0C397D0F678
:103240006B897C89C8010E945F108CE593E00E9425
:10325000F00BC8010E94F00B8FE693E00E94F00B88
:103260008B899C890E94730D62E370E080E090E09E
:103270000E94C203F40126E011922A95E9F7F301B6
:1032800026E011922A95E9F783E090E0988B8F87EA
:10329000512C412C1E861D8610E000E0F12CE12C03
:1032A000D12CC12CB12CA12C62E070E0C4010E9491
:1032B000C30C62E070E0C3010E94850CEF81F885C9
:1032C000FC8BEB8B29853A853E8B2D8B8B859C85E2
:1032D000988F8F8B8DE793E00E94F00B8B899C89F0
:1032E0000E94C00B81E593E00E94F00B8D899E89BE
:1032F0000E94C00B81E593E00E94F00B8F89988DAE
:103300000E94C00B83E593E00E94F00B89819A81B3
:103310000E94C00B81E593E00E94F00B8B819C81A1
:103320000E94C00B81E593E00E94F00B8D819E818D
:103330000E94730D8F8198858F3F910519F014F0CD
:103340008FEF90E097FF02C090E080E0A80EB91EDA
:1033500089859A858F3F910519F014F08FEF90E0E1
:1033600097FF02C090E080E0C80ED91E8B859C8537
:103370008F3F910519F014F08FEF90E097FF02C096
:1033800090E080E0E80EF91E89819A81080F191FEC
:103390008B819C81ED85FE85E80FF91FFE87ED8707
:1033A0008D819E81480E591E6AE070E080E090E0B9
:1033B0000E94C2032F85388921503109388B2F870D
:1033C000232B09F071CFC501B1010E9400215B01DF
:1033D000C601B1010E9400216B01C701B1010E9429
:1033E00000217B01C801B1010E9400217A83698319
:1033F0008D859E85B1010E9400217C836B83C20173
:10340000B1010E9400217E836D838DE793E00E94CD
:10341000F00BC5010E94C00B81E593E00E94F00B08
:10342000C6010E94C00B81E593E00E94F00BC7012A
:103430000E94C00B83E593E00E94F00B89819A8182
:103440000E94C00B81E593E00E94F00B8B819C8170
:103450000E94C00B81E593E00E94F00B8D819E815C
:103460000E94730DC501885C9109C89710F5C601CB
:10347000885C9109C897E8F43FEFE316F10409F07E
:10348000C0F489819A81865991098234910588F422
:103490008B819C818C5891098B35910550F48D81DD
:1034A0009E818857910901EA12E08E37910508F450
:1034B0009CC0C5018E5B910982349105F8F4C60168
:1034C0008E5B910982349105C8F4C7018E5B910926
:1034D0008234910598F489819A81873E910570F430
:1034E0008B819C81893C910548F48D819E81885C0B
:1034F000910908EA12E0899708F477C0C501CC97D2
:103500008B35910510F5C601805A910980369105D9
:10351000E0F4C70180559109803B9105B0F48981A1
:103520009A818E569109459780F48B819C81C7972B
:103530008B3A910550F48D819E81845691090EEA53
:1035400012E08735910508F450C0C50144978C3EC0
:103550009105F0F487EEC816D104D0F49FEFE91678
:10356000F10409F0A8F489819A81813F910580F4E2
:103570008B819C81865491098B3A910548F48D8109
:103580009E818555910904EB12E08A36910568F118
:10359000E2E3AE1AB108F0E6AF16B10470F42EE61D
:1035A000C21AD1083DE3C316D10438F486E9E81AFB
:1035B000F10897E4E916F104B0F089819A81825804
:1035C0009109C39708F0BDC08B819C8180559109FA
:1035D000863A910508F0B5C08D819E814E97813560
:1035E000910508F0AEC008EB12E0698D7A8DC80134
:1035F0000E945F108EE893E00E94F00BC8010E94C9
:10360000F00B8FE693E00E94F00B898D9A8D0E945B
:10361000730DE989FA893696FA8BE98BEE55F140FC
:1036200009F043CC70E060E08EE996E00E94280546
:1036300064EF71E080E090E00E94C20381E080933B
:10364000180581EA93E00E94370C80EC93E00E9419
:10365000370C90E2E92E91E0F92E10E000E083EDC6
:1036600093E00E94F00BC8010E94C00B8EE493E02F
:103670000E94F00BF701819191917F010E94370C1C
:103680000F5F1F4F0A30110551F78EED93E00E9436
:10369000370C8EE5E82E81E0F82E0BEF14E083EF77
:1036A00093E00E94F00BF701808191810E94F00B62
:1036B0008EE493E00E94F00BF801808191818F3FAE
:1036C000980731F00E94C00B84EF93E00E94F00B4A
:1036D000F801828193818F3F980731F00E94C00BDF
:1036E00084EF93E00E94F00B83EA91E00E94610B6B
:1036F00023E0E20EF11C0C5F1F4F35E00F30130783
:1037000071F686EF93E00E94370C82E793E00E9407
:103710006E0B84E593E00E946E0B109225051092CB
:10372000240564EF71E080E090E00E94C20362CA69
:1037300001EA12E085CD08EA12E082CD0EEA12E03D
:103740007FCD05E212E051CF80911705811161C054
:1037500088E393E00E946E0B8091340190913501D3
:1037600097FF04C01092350110923401E0903401AB
:10377000F09035018FE5E81AF108F0923501E092FA
:103780003401B70185E496E00E94280584EB90E0BF
:103790009093100580930F0500910F05109110056F
:1037A0000E151F0594F0B80185E496E00E942805E7
:1037B0006AE070E080E090E00E94C20301501109CD
:1037C0001093100500930F05E7CF83E194E00E946A
:1037D000370C80913801909139014496853B9105D1
:1037E0000CF067C0909339018093380160913801E3
:1037F0007091390188E496E00E94280581E0809369
:10380000170568EE73E080E090E00E94C20310921A
:10381000160580911605882309F44EC00E94F40312
:103820000091120510911305209114053091150592
:10383000601B710B820B930B6838734181059105F6
:1038400008F4D8C987E193E00E946E0B0E944E0DE8
:103850000E943E0D0E942E0D0E94F70B64E170E065
:1038600080E090E00E94C2030E94F70B64E170E0E8
:1038700080E090E00E94C2030E94F70B64E170E0D8
:1038800080E090E00E94C20387EF92E00E946E0BFE
:103890001092250510922405109217051092160516
:1038A000109212051092130510921405109215052E
:1038B000A1C984EB90E096CF80911805882309F484
:1038C00041C08FE796E00E94C2066FE776E0C40130
:1038D0000E94DC0D8B859C85892B81F18FED92E018
:1038E0000E946E0BC4010E945E0D1A8219821C8216
:1038F0001B821E821D826F8178856115710529F0FA
:103900004B855C85C3010E94B10D61E070E0C3018D
:103910000E94890EC3010E94810D0E94F4036093EE
:10392000120570931305809314059093150581E09B
:103930008093160588EB92E00E946E0BC4010E94F2
:10394000810D04C089E992E00E946E0B62E370E091
:1039500080E090E0EACE80911105811160C08DE792
:1039600092E00E946E0B80913601909137018D5844
:103970009F4F853B910554F5909337018093360115
:10398000E0903601F0903701B70182E496E00E94A2
:1039900028051092100510920F0500910F05109147
:1039A0001005E016F106ACF0B80182E496E00E9442
:1039B00028056FE070E080E090E00E94C2030F5F96
:1039C0001F4F1093100500930F05E7CF84EB90E095
:1039D000D3CF86E294E00E94370C80913801909119
:1039E0003901449797FD61C0909339018093380164
:1039F000609138017091390188E496E00E942805B1
:103A000089E394E00E94370C81E08093110568EE11
:103A100073E080E090E00E94C2031092160580914E
:103A20001605882309F446C00E94F403009112058C
:103A3000109113052091140530911505601B710B31
:103A4000820B930B683873418105910508F4D2C845
:103A50008CE592E00E946E0B0E944E0D0E943E0D7E
:103A60000E942E0D0E94F70B64E170E080E090E070
:103A70000E94C2030E94F70B64E170E080E090E0D6
:103A80000E94C2030E94F70B64E170E080E090E0C6
:103A90000E94C2038CE392E00E946E0B10922505F7
:103AA0001092240510921105F9CE1092390110924E
:103AB00038019ECF809118058823E9F180E696E0D1
:103AC0000E94C20660E676E0C4010E94DC0D8B8590
:103AD0009C85892B09F432CF84E292E00E94ED04A8
:103AE000C4010E945E0D1A8219821C821B821E82F2
:103AF0001D826F8178856115710529F04B855C8584
:103B0000C3010E94B10D62E070E0C3010E94890E02
:103B1000C3010E94810D0E94F4036093120570930B
:103B20001305809314059093150581E08093160585
:103B30008DEF91E001CF8EED91E006CF002311F4DF
:103B40000C942E1511E001E00C943815109221050B
:103B50008AE594E00E946E0B8EC8112311F40C9438
:103B60001E15F0CFFC01138E128E118E108E178A47
:103B7000168A8DE991E0958F848F84858631D8F5FA
:103B80002DEB30E0378B268B2BE931E0318F208F06
:103B90002CE231E0338F228F90916800883070F1F1
:103BA00021E08E3008F420E081E001C0880F2A95E2
:103BB000EAF7892B8093680084852DE630E0883011
:103BC00050F02BE630E08E3030F02CE630E08631DD
:103BD00010F030E020E0348B238B282F30E0883049
:103BE00078F491E001C0990F8A95EAF7958B848D5E
:103BF000958D0197F1F7CF010C94C20684E0D9CFDF
:103C00008E3040F42850310991E001C0990F2A9577
:103C1000EAF7ECCF2E503109F7CFCF93DF93C1E70E
:103C2000D1E0D0936106C093600680E696E00E94E2
:103C3000AC06D0938006C0937F068FE796E0DF91B5
:103C4000CF910C94AC060E94651E08F481E00895A3
:103C5000E89409C097FB3EF4909580957095619526
:103C60007F4F8F4F9F4F9923A9F0F92F96E9BB27DC
:103C70009395F695879577956795B795F111F8CF58
:103C8000FAF4BB0F11F460FF1BC06F5F7F4F8F4FC3
:103C90009F4F16C0882311F096E911C0772321F0B9
:103CA0009EE8872F762F05C0662371F096E8862F51
:103CB00070E060E02AF09A95660F771F881FDAF7A8
:103CC000880F9695879597F90895990F0008550FD5
:103CD000AA0BE0E8FEEF16161706E807F907C0F092
:103CE00012161306E407F50798F0621B730B840B9A
:103CF000950B39F40A2661F0232B242B252B21F474
:103D000008950A2609F4A140A6958FEF811D811D13
:103D100008950E949C1E0C940D1F0E94FF1E38F0F7
:103D20000E94061F20F0952311F00C94F61E0C94AF
:103D3000FC1E11240C94411F0E941E1F70F3959FBE
:103D4000C1F3950F50E0551F629FF001729FBB2792
:103D5000F00DB11D639FAA27F00DB11DAA1F649F2E
:103D60006627B00DA11D661F829F2227B00DA11DE1
:103D7000621F739FB00DA11D621F839FA00D611D67
:103D8000221F749F3327A00D611D231F849F600D88
:103D9000211D822F762F6A2F11249F5750409AF0B1
:103DA000F1F088234AF0EE0FFF1FBB1F661F771F3D
:103DB000881F91505040A9F79E3F510580F00C9408
:103DC000F61E0C94411F5F3FE4F3983ED4F38695B2
:103DD00077956795B795F795E7959F5FC1F7FE2BA8
:103DE000880F911D9695879597F9089597F99F6784
:103DF00080E870E060E008959FEF80EC0895002473
:103E00000A941616170618060906089500240A943F
:103E100012161306140605060895092E0394000CC5
:103E200011F4882352F0BB0F40F4BF2B11F460FF54
:103E300004C06F5F7F4F8F4F9F4F089557FD90587D
:103E4000440F551F59F05F3F71F04795880F97FB5E
:103E5000991F61F09F3F79F0879508951216130618
:103E60001406551FF2CF4695F1DF08C01616170647
:103E70001806991FF1CF869571056105089408957C
:103E8000E894BB2766277727CB0197F90895052E7D
:103E900097FB1EF400940E945E1F57FD07D00E94FE
:103EA000B01F07FC03D04EF40C945E1F5095409554
:103EB000309521953F4F4F4F5F4F089590958095D6
:103EC000709561957F4F8F4F9F4F08950E94D21F2D
:103ED000A59F900DB49F900DA49F800D911D11245E
:103EE0000895B7FF0C94661F0E94661F821B930BF8
:103EF00008952F923F924F925F926F927F928F928E
:103F00009F92AF92BF92CF92DF92EF92FF920F9368
:103F10001F93CF93DF93CDB7DEB7CA1BDB0B0FB672
:103F2000F894DEBF0FBECDBF09942A88398848882F
:103F30005F846E847D848C849B84AA84B984C884C5
:103F4000DF80EE80FD800C811B81AA81B981CE0FBC
:103F5000D11D0FB6F894DEBF0FBECDBFED010895A1
:103F6000A1E21A2EAA1BBB1BFD010DC0AA1FBB1F7D
:103F7000EE1FFF1FA217B307E407F50720F0A21BEF
:103F8000B30BE40BF50B661F771F881F991F1A945C
:103F900069F760957095809590959B01AC01BD0186
:103FA000CF010895A29FB001B39FC001A39F700DE0
:103FB000811D1124911DB29F700D811D1124911D31
:103FC00008955058BB27AA270E94F91F0C940D1F73
:103FD0000E94FF1E38F00E94061F20F039F49F3F18
:103FE00019F426F40C94FC1E0EF4E095E7FB0C94F7
:103FF000F61EE92F0E941E1F58F3BA1762077307B7
:104000008407950720F079F4A6F50C94401F0EF470
:10401000E0950B2EBA2FA02D0B01B90190010C01D8
:10402000CA01A0011124FF27591B99F0593F50F4F0
:10403000503E68F11A16F040A22F232F342F442748
:10404000585FF3CF469537952795A795F040539540
:10405000C9F77EF41F16BA0B620B730B840BBAF010
:104060009150A1F0FF0FBB1F661F771F881FC2F77B
:104070000EC0BA0F621F731F841F48F4879577958F
:104080006795B795F7959E3F08F0B0CF9395880F49
:1040900008F09927EE0F9795879508950E94622062
:1040A0000C940D1F0E94061F58F00E94FF1E40F046
:1040B00029F45F3F29F00C94F61E51110C94411F16
:1040C0000C94FC1E0E941E1F68F39923B1F3552324
:1040D00091F3951B550BBB27AA276217730784071B
:1040E00038F09F5F5F4F220F331F441FAA1FA9F3B1
:1040F00035D00E2E3AF0E0E832D091505040E6959F
:10410000001CCAF72BD0FE2F29D0660F771F881FFF
:10411000BB1F261737074807AB07B0E809F0BB0BF2
:10412000802DBF01FF2793585F4F3AF09E3F510506
:1041300078F00C94F61E0C94411F5F3FE4F3983E18
:10414000D4F3869577956795B795F7959F5FC9F7EF
:10415000880F911D9695879597F90895E1E0660F70
:10416000771F881FBB1F621773078407BA0720F0E9
:10417000621B730B840BBA0BEE1F88F7E095089552
:104180000E94261F88F09F5798F0B92F9927B751A2
:10419000B0F0E1F0660F771F881F991F1AF0BA95EB
:1041A000C9F714C0B13091F00E94401FB1E00895EA
:1041B0000C94401F672F782F8827B85F39F0B93FDC
:1041C000CCF3869577956795B395D9F73EF490959E
:1041D0008095709561957F4F8F4F9F4F08950E94F6
:1041E000651E08F48FEF0895991B79E004C0991FAC
:1041F000961708F0961B881F7A95C9F78095089541
:1042000097FB072E16F4009407D077FD09D00E9483
:104210001B2107FC05D03EF4909581959F4F089592
:10422000709561957F4F08950E94D21FB7FF089542
:10423000821B930B0895AA1BBB1B51E107C0AA1F49
:10424000BB1FA617B70710F0A61BB70B881F991F37
:104250005A95A9F780959095BC01CD010895EE0F70
:10426000FF1F0590F491E02D09940F931F93CF93B6
:10427000DF938230910510F482E090E0E091A30694
:10428000F091A40630E020E0B0E0A0E0309799F48F
:104290002115310509F44AC0281B390B243031059A
:1042A000D8F58A819B816115710589F1FB019383A2
:1042B0008283FE0111C04081518102811381481720
:1042C0005907E0F04817590799F4109761F01296D2
:1042D0000C93129713961C933296CF01DF91CF91D6
:1042E0001F910F9108950093A3061093A406F4CF95
:1042F0002115310551F04217530738F0A901DB01B0
:104300009A01BD01DF01F801C1CFEF01F9CF909310
:10431000A4068093A306CDCFFE01E20FF31F819385
:1043200091932250310939832883D7CF2091A10658
:104330003091A206232B41F420913C0130913D01A4
:104340003093A2062093A10620913A0130913B01BF
:104350002115310541F42DB73EB740913E015091F2
:104360003F01241B350BE091A106F091A206E21754
:10437000F307A0F42E1B3F0B2817390778F0AC0188
:104380004E5F5F4F2417350748F04E0F5F1F509365
:10439000A2064093A106819391939FCFF0E0E0E0C5
:1043A0009CCFCF93DF930097E9F0FC013297138203
:1043B0001282A091A306B091A406ED0130E020E0A6
:1043C0001097A1F420813181820F931F2091A106C3
:1043D0003091A2062817390709F061C0F093A206B0
:1043E000E093A106DF91CF910895EA01CE17DF0790
:1043F000E8F54A815B819E0141155105B1F7E9015C
:10440000FB83EA8349915991C40FD51FEC17FD072F
:1044100061F4808191810296840F951FE90199834F
:104420008883828193819B838A83F0E0E0E0129607
:104430008D919C9113970097B9F52D913C9111970F
:10444000CD010296820F931F2091A1063091A20602
:104450002817390739F6309751F51092A4061092B3
:10446000A306B093A206A093A106BCCFD383C283B8
:1044700040815181840F951FC817D90761F44E5FA1
:104480005F4F88819981480F591F518340838A81EA
:104490009B81938382832115310509F0B0CFF0937E
:1044A000A406E093A3069ECFFD01DC01C0CF1382DA
:1044B0001282D7CFB0E0A0E0E0E6F2E20C947B1FDE
:1044C0008C01009751F4CB010E9435218C01C80169
:1044D000CDB7DEB7E0E10C94971FFC01E60FF71FA4
:1044E0009C0122503109E217F30708F49DC0D9015D
:1044F000CD91DC911197C617D70798F0C530D1053B
:1045000030F3CE0104978617970708F3C61BD70B25
:104510002297C193D1936D937C93CF010E94D121B7
:10452000D6CF5B01AC1ABD0A4C018C0E9D1EA0912A
:10453000A306B091A406512C412CF12CE12C10972C
:1045400031F58091A1069091A2068815990509F090
:104550005CC04616570608F058C080913A01909109
:104560003B01009741F48DB79EB740913E015091B9
:104570003F01841B950BE817F90708F055C0F0932D
:10458000A206E093A106F90171836083A0CF8D910B
:104590009C91119712966C90129713967C9013979A
:1045A000A815B90559F56C0142E0C40ED11CCA1416
:1045B000DB0420F1AC014A195B09DA011296159768
:1045C00080F06282738251834083D9016D937C9322
:1045D000E114F10471F0D7011396FC93EE93129756
:1045E00076CF22968C0F9D1FF90191838083F30172
:1045F000EFCFF093A406E093A30669CF48165906BF
:1046000008F42C017D01D3019ACFCB010E94352102
:104610007C01009749F0AE01B8010E941F23C80138
:104620000E94D121870153CF10E000E050CF9111BB
:10463000089581548A5108F4805E855A0895FB01DB
:10464000DC0102C001900D9241505040D8F708950E
:10465000FB01DC018D91019080190110D9F3990BB8
:104660000895FB01DC0101900D920020E1F708950F
:1046700012E0CEE8D2E004C0FE010E942F21219674
:10468000CF38D107C9F7F894FFCF5A005A005A0023
:104690005A005A005A005A005A005A005A005A004A
:1046A0005A005A005A005A005A00250225022502D3
:1046B0002502250225022502250225022502A50044
:1046C00023005A000000A50680000000000005003D
:1046D0002F00010006005A000200070082000300BC
:1046E0000800AF0004000900B40272A10279B80208
:1046F00062AE0267A802770000000019060004FD00
:1047000009180675068B06000600000000A00400CC
:10471000042D0408055E043C04500400000000C998
:10472000099C09FD0918069509820973090D0A00FB
:1047300053656E7420746F2053544D33323A2064A5
:104740006174613D005443413935343841206E6F06
:104750007420666F756E6421004661696C65642023
:10476000746F2073656C65637420544341206368E3
:10477000616E6E656C2000E58FB3E888B5E69CBA83
:10478000E5A48DE4BD8DE5889DE5A78BE8A792E5BE
:10479000BAA600E5B7A6E888B5E69CBAE5A48DE41C
:1047A000BD8DE5889DE5A78BE8A792E5BAA60055E3
:1047B0006E6B6E6F776E004572726F723A204D614C
:1047C0007070696E67204E6F7420436F6D706C65FA
:1047D0007465642100474D363520002052656164C0
:1047E0003A20004572726F723A204E6F2043686122
:1047F0006E6E656C7320466F756E64210052656C39
:104800006561736520416C6C20002042616C6C73A3
:1048100020284368616E6E656C733A20002C20007E
:104820002B002900596573004E6F0059656C6C6F41
:104830007700576869746500477265656E00526558
:104840006400426C756500E7BFBBE8BDACE888B5A5
:10485000E69CBAE5889DE5A78BE58C96E5AE8CE6EF
:10486000889000E5B7A6E888B5E69CBAE5889DE59E
:10487000A78BE58C96E5AE8CE6889000E58FB3E8D3
:1048800088B5E69CBAE5889DE5A78BE58C96E5AEF4
:104890008CE688900053656E736F722031207265CC
:1048A0006164793A200053656E736F722032207212
:1048B000656164793A20000A4D6F76696E672074ED
:1048C0006F20616E676C653A200053656E736F727E
:1048D0002031207C205247423A20002C00207C20AE
:1048E00048534C3A200053656E736F722031206438
:1048F00065746563746564200020666F7220636868
:10490000616E6E656C200053656E736F722032208D
:104910007C205247423A200053656E736F722032FA
:1049200020646574656374656420000A3D3D3D2024
:10493000436F6C6F722D4368616E6E656C204D61C4
:104940007070696E67203D3D3D004368616E6E6525
:104950006C20E2869220436F6C6F723A00202043F5
:1049600068616E6E656C20000A436F6C6F7220E2A6
:104970008692204368616E6E656C733A0020200059
:104980003D3D3D3D3D3D3D3D3D3D3D3D3D3D3D3D57
:104990003D3D3D3D3D3D3D3D3D3D3D3D00E5B7A6F9
:1049A000E6BB91E98193E5B7B2E694BEE4B88B002B
:1049B000E58FB3E6BB91E98193E5B7B2E694BEE437
:0C49C000B88B00E58FB3E7BFBB20000000
:107E0000112484B714BE81FFF0D085E080938100F7
:107E100082E08093C00088E18093C10086E0809377
:107E2000C20080E18093C4008EE0C9D0259A86E02C
:107E300020E33CEF91E0309385002093840096BBD3
:107E4000B09BFECF1D9AA8958150A9F7CC24DD24C4
:107E500088248394B5E0AB2EA1E19A2EF3E0BF2EE7
:107E6000A2D0813461F49FD0082FAFD0023811F036
:107E7000013811F484E001C083E08DD089C08234E0
:107E800011F484E103C0853419F485E0A6D080C0E4
:107E9000853579F488D0E82EFF2485D0082F10E0AE
:107EA000102F00270E291F29000F111F8ED06801E7
:107EB0006FC0863521F484E090D080E0DECF843638
:107EC00009F040C070D06FD0082F6DD080E0C81688
:107ED00080E7D80618F4F601B7BEE895C0E0D1E017
:107EE00062D089930C17E1F7F0E0CF16F0E7DF06D8
:107EF00018F0F601B7BEE89568D007B600FCFDCFD4
:107F0000A601A0E0B1E02C9130E011968C91119780
:107F100090E0982F8827822B932B1296FA010C0160
:107F200087BEE89511244E5F5F4FF1E0A038BF0790
:107F300051F7F601A7BEE89507B600FCFDCF97BE46
:107F4000E89526C08437B1F42ED02DD0F82E2BD052
:107F50003CD0F601EF2C8F010F5F1F4F84911BD097
:107F6000EA94F801C1F70894C11CD11CFA94CF0C13
:107F7000D11C0EC0853739F428D08EE10CD085E9AC
:107F80000AD08FE07ACF813511F488E018D01DD067
:107F900080E101D065CF982F8091C00085FFFCCF94
:107FA0009093C60008958091C00087FFFCCF809118
:107FB000C00084FD01C0A8958091C6000895E0E648
:107FC000F0E098E1908380830895EDDF803219F02E
:107FD00088E0F5DFFFCF84E1DECF1F93182FE3DFCA
:107FE0001150E9F7F2DF1F91089580E0E8DFEE27F6
:047FF000FF270994CA
:027FFE00040479
:00000001FF
