:020000040000FA
:100000000C946A020C9492020C9492020C94471184
:100010000C9447110C9447110C9492020C94920288
:100020000C9492020C9492020C9492020C948B10F9
:100030000C9492020C9492020C9492020C949202F0
:100040000C94E90F0C9492020C9459100C943310F8
:100050000C9492020C9492020C9492020C949202D0
:100060000C94BF110C949202E7B3BBE7BB9FE5B0C1
:10007000B1E7BBAA202D20E7AD89E5BE85E68C87D8
:10008000E4BBA42E2E2E00E4B8A4E4B8AA474D3653
:1000900035E6A8A1E59D97E5B0B1E7BBAA005043BE
:1000A0004139363835E5B0B1E7BBAA005043413994
:1000B000363835E5889DE5A78BE58C96E5A4B1E853
:1000C000B4A52100E9A29CE889B2E4BCA0E6849F23
:1000D000E599A8E5B0B1E7BBAA00E9A29CE889B21E
:1000E000E4BCA0E6849FE599A8E5889DE5A78BE59B
:1000F0008C96E5A4B1E8B4A52100E6ADA3E59CA8E3
:10010000E5889DE5A78BE58C965443413935343815
:10011000412E2E2E0037E3808138E3808139E58F30
:10012000B7E888B5E69CBAE5889DE5A78BE58C968F
:10013000E5AE8CE6889000E4BCA0E6849FE599A833
:10014000E888B5E69CBAE5889DE5A78BE58C96E541
:10015000AE8CE6889000493243E680BBE7BABFE543
:10016000889DE5A78BE58C96E5AE8CE6889000E649
:10017000938DE4BD9CE5AE8CE688902CE8BF94E5B9
:100180009B9EE7A9BAE997B2E78AB6E68081003577
:10019000E7A792E5B7B2E588B02CE6ADA3E59CA849
:1001A000E5A48DE4BD8DE888B5E69CBA2E2E2E0020
:1001B000E99499E8AFAF3A20E69CAAE5AE8CE688D0
:1001C00090E9A29CE889B2E698A0E5B0842100E518
:1001D0008FB3E4BEA7E4BA8CE7BBB4E7A081E8AF75
:1001E000BBE58F96E5A4B1E8B4A500E5B08FE79034
:1001F00083E5B7B2E9878AE694BE2CE7AD89E5BE10
:100200008535E7A7922E2E2E00E58FB3E4BEA7E436
:10021000BA8CE7BBB4E7A081E695B0E68DAE3A2094
:1002200000E6ADA3E59CA8E8AFBBE58F96E58FB3EC
:10023000E4BEA7E4BA8CE7BBB4E7A0812E2E2E0063
:10024000E6ADA3E59CA8E694BEE4B88BE58FB3E4E5
:10025000BEA7E888B5E69CBA2E2E2E00E99499E850
:10026000AFAF3A20E69CAAE5AE8CE68890E9A29C66
:10027000E889B2E698A0E5B0842100E5B7A6E4BE1F
:10028000A7E4BA8CE7BBB4E7A081E8AFBBE58F96E3
:10029000E5A4B1E8B4A52E2E2E00E5B08FE790833B
:1002A000E5B7B2E9878AE694BE2CE7AD89E5BE855D
:1002B00035E7A7922E2E2E00E5B7A6E4BEA7E4BA36
:1002C0008CE7BBB4E7A081E695B0E68DAE3A20009E
:1002D000E6ADA3E59CA8E8AFBBE58F96E5B7A6E43D
:1002E000BEA7E4BA8CE7BBB4E7A0812E2E2E00E6B1
:1002F000ADA3E59CA8E694BEE4B88BE5B7A6E4BE42
:10030000A7E888B5E69CBA2E2E2E00E5B7B2E59098
:100310009153544D3332E58F91E98081E5AE8CE6FF
:100320008890E4BFA1E58FB700E9A29CE889B2E616
:1003300098A0E5B084E5AE8CE688902100E5BC800D
:10034000E5A78BE887AAE58AA8E9A29CE889B2E636
:1003500098A0E5B0842E2E2E00E6A0A1E9AA8CE597
:10036000928CE99499E8AFAFE68896E995BFE5BA33
:10037000A6E4B88DE6ADA3E7A1AE2100E8BF9BE5FA
:1003800085A5E58FB3E4BEA7E4BA8CE7BBB4E7A0CC
:1003900081E8AF86E588ABE6A8A1E5BC8F2E2E2EBE
:1003A00000E8BF9BE585A5E5B7A6E4BEA7E4BA8C47
:1003B000E7BBB4E7A081E8AF86E588ABE6A8A1E596
:1003C000BC8F2E2E2E00E8BF9BE585A5E9A29CE8F8
:1003D00089B2E698A0E5B084E6A8A1E5BC8F2E2EF0
:1003E0002E002C206461746174687265653D002C78
:1003F000206461746174776F3D00E694B6E588B05F
:10040000E68C87E4BBA43A20646174616F6E653D3D
:1004100000E5B8A7E99499E8AFAF3A20E5B8A7E5B9
:10042000B0BEE4B88DE6ADA3E7A1AE00E7B3BBE78D
:10043000BB9FE5A484E4BA8EE7A9BAE997B2E78A3C
:10044000B6E68081202D20E68980E69C89E888B583
:10045000E69CBAE5B7B2E5A48DE4BD8D00E4B8B280
:10046000E58FA3E7BC93E586B2E58CBAE5B7B2E6C3
:10047000B885E7A9BA0000000000240027002A0080
:100480000000000800020100000304070000000053
:1004900000000000000000002300260029000000EA
:1004A0000000250028002B000404040404040404B4
:1004B000020202020202030303030303010204080F
:1004C00010204080010204081020010204081020BE
:1004D000F912291D11241FBECFEFD8E0DEBFCDBF1A
:1004E00014E0A0E0B1E0E2ECF4E402C005900D926B
:1004F000A032B107D9F726E0A0E2B4E001C01D9216
:10050000A238B207E1F712E0C9E6D2E004C02197B1
:10051000FE010E944B20C836D107C9F70E9459132B
:100520000C9454220C9400000895089590E0FC016E
:10053000E058FB4F2491FC01E454FB4F3491FC0143
:10054000E855FB4FE491EE23C9F0222339F0233024
:1005500001F1A8F4213019F1223029F1F0E0EE0F79
:10056000FF1FE256FB4FA591B4918FB7F894EC9121
:10057000611126C030953E233C938FBF08952730EC
:10058000A9F02830C9F0243049F7809180008F7D90
:1005900003C0809180008F7780938000DFCF84B587
:1005A0008F7784BDDBCF84B58F7DFBCF8091B0008A
:1005B0008F778093B000D2CF8091B0008F7DF9CF3C
:1005C0003E2BDACFCF93DF9390E0FC01E454FB4F56
:1005D000249188559B4FFC0184918823D1F090E0B1
:1005E000880F991FFC01EA58FB4FA591B491FC01BB
:1005F000E256FB4FC591D49161110EC09FB7F8949C
:100600008C91E22FE0958E238C932881E223E8835E
:100610009FBFDF91CF9108958FB7F894EC91E22BB3
:10062000EC938FBFF6CF0F931F93CF93DF93EC0123
:10063000162F042F1B821A8288EE93E0A0E0B0E010
:100640008C839D83AE83BF8381E591E0998388830A
:100650001F8A1E8A198E188E1B8E1A8E1D8E1C8E56
:100660006E8D6E7F6D7F6E8F6695617081E06827FD
:10067000842F0E94960261E0802F0E94E202802F68
:1006800090E0FC01E454FB4FE491E88BFC01E85559
:10069000FB4FE491F0E0EE0FFF1FE256FB4F859118
:1006A00094919A8B898B60E0812F0E94E2028E8D5B
:1006B00081FD04C061E0812F0E9496021C87812F7A
:1006C00090E0FC01E454FB4FE491ED87FC01E85518
:1006D000FB4FE491F0E0EE0FFF1FEC56FB4F8591CE
:1006E00094919F878E87DF91CF911F910F910895ED
:1006F0003FB7F8948091080590910905A0910A05EB
:10070000B0910B0526B5A89B05C02F3F19F00196A7
:10071000A11DB11D3FBFBA2FA92F982F8827BC015B
:10072000CD01620F711D811D911D42E0660F771F83
:10073000881F991F4A95D1F708958F929F92AF9283
:10074000BF92CF92DF92EF92FF924B015C010E9429
:1007500078036B017C010E9478036C197D098E0976
:100760009F09683E734081059105A8F321E0821A34
:100770009108A108B10888EEC80E83E0D81EE11CDC
:10078000F11C81149104A104B10429F7FF90EF90AA
:10079000DF90CF90BF90AF909F908F9008952FB72C
:1007A000F89460910405709105058091060590917B
:1007B00007052FBF0895AF92BF92CF92DF92EF92BD
:1007C000FF920F931F93CF93DF936C017B018B01FB
:1007D000040F151FEB015E01AE18BF08C017D1074B
:1007E00059F06991D601ED91FC910190F081E02DD5
:1007F000C6010995892B79F7C501DF91CF911F912A
:100800000F91FF90EF90DF90CF90BF90AF90089541
:10081000FC01538D448D252F30E0842F90E0821B06
:10082000930B541710F0CF96089501970895FC018B
:10083000918D828D981761F0A28DAE0FBF2FB11DE3
:100840005D968C91928D9F5F9F73928F90E008953B
:100850008FEF9FEF0895FC01918D828D981731F0F5
:10086000828DE80FF11D858D90E008958FEF9FEF49
:100870000895FC01918D228D892F90E0805C9F4F1F
:10088000821B91098F739927089582E895E00E9451
:10089000390421E0892B09F420E0822F089580E0BB
:1008A00090E0892B29F00E94450481110C940000EE
:1008B0000895FC01A48DA80FB92FB11DA35ABF4FF5
:1008C0002C91848D90E001968F739927848FA6894F
:1008D000B7892C93A089B1898C91837080648C93A3
:1008E000938D848D981306C00288F389E02D808152
:1008F0008F7D80830895EF92FF920F931F93CF9384
:10090000DF93EC0181E0888F9B8D8C8D98131AC04A
:10091000E889F989808185FF15C09FB7F894EE8931
:10092000FF896083E889F98980818370806480838E
:100930009FBF81E090E0DF91CF911F910F91FF90D9
:10094000EF900895F62E0B8D10E00F5F1F4F0F7381
:100950001127E02E8C8D8E110CC00FB607FCFACF3C
:10096000E889F989808185FFF5CFCE010E9459047D
:10097000F1CFEB8DEC0FFD2FF11DE35AFF4FF0820D
:100980009FB7F8940B8FEA89FB8980818062CFCF73
:100990000F931F93CF93DF938C01D0E0C0E0F80159
:1009A000EC0FFD1F6491662341F082E895E00E9400
:1009B0007B04892B11F02196F2CFCE01DF91CF91EC
:1009C0001F910F910895CF93DF93EC01888D8823B9
:1009D000B9F0AA89BB89E889F9898C9185FD03C0A2
:1009E000808186FD0DC00FB607FCF7CF8C9185FF87
:1009F000F2CF808185FFEDCFCE010E945904E9CF6F
:100A0000DF91CF910895CF92DF92EF92FF92CF9333
:100A1000DF93EC01603282E07807CCF5653B71052D
:100A200014F064EB70E0898128E830E0281B31097C
:100A300087FD3395220F331F220F331F6901330FB8
:100A4000EE08FF088A8128E532E0281B310987FD7E
:100A50003395220F331F220F331F032E000C440B3C
:100A6000550B2C193D094E095F09DB0177FF02C0C8
:100A7000B0E0A0E00E948D1E24EB30E040E050E0AA
:100A80000E94631EC20ED31EE41EF51EB601E8814D
:100A9000EC3070F5298188E890E0821B910927FDF0
:100AA0009395880F991F880F991F681779077CF015
:100AB0002A8188E592E0821B910927FD9395880F92
:100AC000991F880F991F681779070CF4CB010297BB
:100AD000880F991F4FB7F8942E2F30E0F901EE0FD1
:100AE000FF1FE20FF31FE555FB4F928381834FBF3A
:100AF000DF91CF91FF90EF90DF90CF9008951F93FB
:100B0000CF93DF93EC01162F88818C3008F04EC014
:100B100061E0812F0E94E2028881282F30E0F901F4
:100B2000EE0FFF1FE20FF31FE555FB4F1F736081B0
:100B3000607C612B608319821A822CE0622F0E94F4
:100B40001020829FB001112430E020E0AB01420F61
:100B5000531FFA01EE0FFF1FE40FF51FE555FB4F82
:100B6000908196FD16C02F5F3F4F2C30310571F7F5
:100B700081110FC01092800082E08093810010925A
:100B8000850010928400B19A80916F0082608093FA
:100B90006F00E8818E2F90E0FC01EE0FFF1FE80F41
:100BA000F91FE555FB4F8081806480838881DF9148
:100BB000CF911F9108952091A7043091A804281780
:100BC000390771F49091A6048091A504981741F01B
:100BD000E091A604F0E0EB59FB4F808190E008958E
:100BE0008FEF9FEF08950895EF92FF920F931F9359
:100BF000CF93DF93DC015C96ED90FC905D97E11460
:100C0000F10479F481E090E013969C938E9312970F
:100C100090E080E0DF91CF911F910F91FF90EF90D6
:100C200008955196ED91FC91529750968C91509762
:100C3000982F90950FB75E962C915E97122F127099
:100C400021FD6095F8942081112319F1282B208330
:100C5000E7012197F1F728E0462F50E0308160FF4F
:100C60001AC0382B3083E7012197F1F7BA01759547
:100C70006795215089F7112381F080818923808332
:100C80000FBF5C968D919C910197F1F781E090E008
:100C9000C1CF2923DCCF3923E5CF9081892BEFCF3A
:100CA0002091A7043091A8042817390761F4809196
:100CB000A5042091A60490E0805C9F4F821B9109BF
:100CC0008F739927089590E080E008952091A704FC
:100CD0003091A80428173907B9F49091A60480919F
:100CE000A504981789F0E091A604F0E0EB59FB4FBA
:100CF00080812091A60430E02F5F3F4F2F73332770
:100D00002093A60490E008958FEF9FEF0895E0915F
:100D1000A704F091A804E817F90769F4A389B48936
:100D20009C918589809589238C931092A8041092B8
:100D3000A70481E0089580E00895CF93DF93EC014C
:100D40008A8D9B8D892B01F18091A7049091A80435
:100D50008C179D07C9F0009711F00E9487068E8DB1
:100D60008E7F8E8F1092A5041092A604D093A804B3
:100D7000C093A704EB89FC8980819D89892B80839E
:100D800081E0DF91CF91089580E0FBCF2091420474
:100D9000260F3327331F21323105ECF420915805FB
:100DA000FC0190E080E0243069F082E00895A09199
:100DB00042042191AC014E5D5B4FA40FB52FB11DD4
:100DC0002C930196861798F380914204680F6093E4
:100DD000420480E0089581E008951092580581E072
:100DE000809357051092320561E082E10E949602DD
:100DF00061E083E10E949602E9EBF0E080818E7F62
:100E0000808380818D7F808388E48093B80085E42F
:100E10008093BC0008951092110510921005109255
:100E20005F05109281050E94ED0684E992E090939F
:100E30000F0580930E0585E992E090930D05809350
:100E40000C050895CF93DF9391E0909321048823BC
:100E5000B9F0C091B800D091BA008091BC008A7BF3
:100E60008093BC0060E082E10E94960260E083E132
:100E70000E9496020E94ED06D093BA00C093B8007B
:100E8000DF91CF9108958F929F92AF92BF92CF92B0
:100E9000DF92EF92FF920F931F93CF93DF93D09146
:100EA0008105D13208F0D7C0182FC09180050E946B
:100EB00078036B017C018091580581116BC082E041
:100EC00080935805109357058FEF80935605109225
:100ED0005505D0935405A0E6B5E0E4E3F5E080E0E5
:100EE000D81391C01092330580913305CC0FC82BD5
:100EF000C093330580913205813009F088C010928B
:100F000032050E9478036B017C0180913305809348
:100F1000BB0080915A0590915B05A0915C05B09152
:100F20005D05892B8A2B8B2BA1F00E947803009101
:100F30005A0510915B0520915C0530915D056C1997
:100F40007D098E099F09061717072807390708F436
:100F500042C08091BC0083FDD8CF85EC8093BC005B
:100F60000E9478036B017C0180915805823009F45E
:100F700050C0809156058F3F09F46FC0809156058F
:100F8000803209F46CC080915605803309F469C041
:100F900084E026C080915A0590915B05A0915C0584
:100FA000B0915D05892B8A2B8B2B09F484CF0E948D
:100FB000780380905A0590905B05A0905C05B090F6
:100FC0005D056C197D098E099F0986169706A8068E
:100FD000B90608F070CF809159050E94220785E07C
:100FE00010925F051092810510925E05DF91CF91FE
:100FF0001F910F91FF90EF90DF90CF90BF90AF9037
:101000009F908F9008959D9191938F5F69CF85EE0A
:10101000A5CF80915A0590915B05A0915C05B09198
:101020005D05892B8A2B8B2B09F49ECF0E947803B8
:1010300000915A0510915B0520915C0530915D058A
:101040006C197D098E099F090617170728073907AC
:1010500008F08ACFC0CF81E0C3CF80E0C1CF82E06B
:10106000BFCF83E0BDCF1F93CF93DF93EA01122F51
:10107000DC0111968D919C91DC01ED91FC91028037
:10108000F381E02D0995C817D90729F4812F0E9413
:10109000430791E0811190E0892FDF91CF911F915B
:1010A0000895CF93DF93EC018B818823A1F0888191
:1010B00091E090935E058093800510925F051092F9
:1010C000810581E00E94430791E0811190E0892F22
:1010D000DF91CF9108950E940B0781E08B83CE01B1
:1010E0000E945108982F8111E2CFF1CF8F929F92E9
:1010F000AF92BF92CF92DF92EF92FF920F931F9326
:10110000CF93DF93D82FC62F142F613208F09CC0E5
:101110000E9478036B017C018091580581116FC09A
:1011200081E080935805109357059FEF90935605E3
:10113000109255059C0F9093540580933305809130
:101140003305DD0FD82BD0933305809132058130E4
:1011500009F07CC0109232050E9478036B017C017B
:10116000809133058093BB0080915A0590915B0577
:10117000A0915C05B0915D05892B8A2B8B2BA1F08A
:101180000E94780300915A0510915B0520915C053F
:1011900030915D056C197D098E099F0906171707A7
:1011A0002807390708F44CC08091BC0083FDD8CFD4
:1011B00085EC8093BC000E9478036B017C018091D8
:1011C0005805813009F444C0809155058C1710F4FE
:1011D000C0915505E4E3F5E0A2E1B5E080E08C13B1
:1011E00059C08C2FDF91CF911F910F91FF90EF90FD
:1011F000DF90CF90BF90AF909F908F900895809197
:101200005A0590915B05A0915C05B0915D05892B15
:101210008A2B8B2B09F480CF0E94780380905A058B
:1012200090905B05A0905C05B0905D056C197D0900
:101230008E099F0986169706A806B90608F06CCF96
:10124000809159050E942207C0E0CBCF85EEB1CF37
:1012500080915A0590915B05A0915C05B0915D0568
:10126000892B8A2B8B2B09F4AACF0E94780300913B
:101270005A0510915B0520915C0530915D056C1954
:101280007D098E099F09061717072807390708F0F7
:1012900096CFD6CF91919D938F5FA1CFE09111050D
:1012A00080911005E81730F4F0E0EE5EFA4F80818F
:1012B00090E008958FEF9FEF089590911105809130
:1012C00010052FEF3FEF981748F4E92FF0E0EE5E9E
:1012D000FA4F208130E09F5F90931105C901089576
:1012E0008091100590911105891B990B0895CF925B
:1012F000DF92EF92FF920F931F93CF93DF937C01C6
:10130000CB018A0120915E05222389F0EB016B015C
:10131000C40ED51ECC15DD0569F06991D701ED919C
:10132000FC910190F081E02DC7010995F3CF642F66
:101330000E94C606C801DF91CF911F910F91FF90C7
:10134000EF90DF90CF900895CF93DF931F92CDB7AA
:10135000DEB7698320915E052223F9F02091810593
:10136000203258F021E030E0FC013383228390E00A
:1013700080E00F90DF91CF91089580915F05E82F75
:10138000F0E0E05AFA4F998190838F5F80935F0578
:101390008093810581E090E0ECCF61E0CE01019681
:1013A0000E94C606F7CF682F88E296E00C94A40945
:1013B00090E080E00895CF93DF9300D0CDB7DEB703
:1013C00089836A838091370690913806FC012481D5
:1013D00035812230310590F0208131E030935E0577
:1013E0002093800510925F051092810521E042E074
:1013F00050E0BE016F5F7F4F0E9433080F900F9047
:10140000DF91CF91089541E0682F88E40E9476082B
:10141000109211058093100508958F929F92AF92BC
:10142000BF92CF92DF92EF92FF920F931F93CF93D1
:10143000DF931F92CDB7DEB76B017C0120E030E077
:1014400040E85FE30E943F1D87FD97C020E030EC3D
:101450004AE555E4C701B6010E940B2018160CF4AA
:1014600093C06091390670913A0680913B06909145
:101470003C060E94441D4B015C0120E030E040E846
:1014800055E4C701B6010E94A51D9B01AC01C50131
:10149000B4010E946A1F20E030E040E05FE30E9458
:1014A000FE1E20E030E040E85FE30E94FD1E6B017D
:1014B0007C0120E030E040E450E40E943F1D87FDC5
:1014C0006BC020E030E04FE753E4C701B6010E9453
:1014D0000B2018160CF466C0C701B6010E94DC1F71
:1014E000B62E19820091370610913806D80114964D
:1014F0008D919C911597892B09F45EC08C9191E098
:1015000090935E058093800510925F05109281058F
:1015100020E041E050E0BE016F5F7F4FC8010E94B4
:101520003308882309F448C0F801E480F58061E0BD
:10153000E114F10409F460E0C62ED12C462FD80145
:101540008C910E94760810921105809310058C15DD
:101550001D0491F590E080E08C159D0550F5F80193
:1015600081819281DC01ED91FC910284F385E02D73
:101570000995898381E090E0EFCFC12CD12C30E830
:10158000E32E3FE3F32E6DCFC12C20ECD22E2AE5C3
:10159000E22E25E4F22E65CFC12CD12C90E4E92E69
:1015A000FE2C9ACFC12CD12C8FE7E82E83E4F82EA5
:1015B00093CFEF2809F4B8CF1981612F6F7660615E
:1015C00080E00E94DB096B2D8EEF0E94DB09612F0A
:1015D00080E00E94DB0965E070E080E090E00E941E
:1015E0009D03612F606A80E00E94DB090F90DF910C
:1015F000CF911F910F91FF90EF90DF90CF90BF9010
:10160000AF909F908F900895FC0101900020E9F722
:101610003197AF01481B590BBC0182E895E00C944F
:10162000DB03CF93DF930E94C804EC0183E891E0D1
:101630000E94040B8C0F9D1FDF91CF9108958F9214
:101640009F92AF92BF920F931F93CF93DF93CDB72B
:10165000DEB7A1970FB6F894DEBF0FBECDBF19A2BB
:10166000423008F44AE08E010F5D1F4F842E912C0A
:10167000B12CA12CA50194010E94CC1EE62FB9012A
:10168000CA01EA30F4F4E05DD801EE938D01232B1A
:10169000242B252B79F790E080E0109719F0CD01ED
:1016A0000E94040BA1960FB6F894DEBF0FBECDBF0B
:1016B000DF91CF911F910F91BF90AF909F908F902E
:1016C0000895E95CE1CFCF92DF92EF92FF92CF9342
:1016D000DF936C01990FEE08FF08F7FE19C06DE269
:1016E00082E895E00E947B04EC0166277727CB0116
:1016F0006C197D098E099F094AE00E941F0B8C0F0F
:101700009D1FDF91CF91FF90EF90DF90CF900895D4
:101710004AE0C701B601DF91CF91FF90EF90DF90D3
:10172000CF900C941F0B009711F00C94040B90E0D9
:1017300080E00895CF93DF9300D000D01F92CDB703
:10174000DEB78AEA898383E08A8381E08B838EEA2D
:101750008C8385E58D8345E050E0BE016F5F7F4F50
:1017600082E895E00E94DB0386E891E00E94930BFB
:101770004AE061E070E080E090E00E941F0B0F9073
:101780000F900F900F900F90DF91CF910895CF930E
:10179000DF93682F70E090E080E04AE00E941F0B2A
:1017A000EC0183E891E00E94040B8C0F9D1FDF91F8
:1017B000CF910895CF93DF93D0E0C0E0009719F068
:1017C0000E94040BEC0183E891E00E94040B8C0F53
:1017D0009D1FDF91CF910895CF93DF93C82FD1E064
:1017E000D0935E0580E78093800510925F0510928C
:1017F000810581E00E944307882331F08BE991E065
:10180000DF91CF910C94DA0BD0935E0510925F05B7
:101810001092810581E090E00C2E02C0880F991F84
:101820000A94E2F70E94D30981E00E9443078823CB
:1018300039F08FEA91E00E94930B8C2F0E94C70B26
:1018400064E170E080E090E0DF91CF910C949D0323
:10185000EF92FF921F93CF93DF9300D000D01F929F
:10186000CDB7DEB7182F7B0182E00E94EC0BD701C9
:10187000A65ABF4FB7FF02C0B0E0A0E022EC31E0B3
:101880000E94302024EB30E040E050E00E94631ED4
:10189000DA01C9018A569F4FAF4FBF4F110F110F89
:1018A0001A5F19831A821B828C839D83809137066D
:1018B00090913806FC01248135812530310590F066
:1018C000208131E030935E052093800510925F0502
:1018D0001092810521E045E050E0BE016F5F7F4F2F
:1018E0000E94330864E670E080E090E00E949D036F
:1018F0000F900F900F900F900F90DF91CF911F914D
:10190000FF90EF9008950F931F93CF93DF938C0177
:1019100081E06130710509F480E00E94EC0B81E008
:1019200080935E0588E48093800510925F05109295
:10193000810581ED90E00E94D30980E00E94430779
:1019400083E090E00E94030AE8010A5F1F4F909134
:10195000100580911105981751F0C017D10739F083
:1019600088E296E00E945D0989939993F0CF6AE03E
:1019700070E080E090E0DF91CF911F910F910C9487
:101980009D030F931F93CF93DF938C0181E0613010
:10199000710509F480E00E94EC0B81E080935E0504
:1019A00088E48093800510925F051092810580ED98
:1019B00090E00E94D30980E00E94430783E090E01A
:1019C0000E94030AE8010A5F1F4F90911005809161
:1019D0001105981751F0C017D10739F088E296E049
:1019E0000E945D0989939993F0CF6AE070E080E0EE
:1019F00090E0DF91CF911F910F910C949D0321E016
:101A0000019709F420E0822F0E94EC0B81E0809383
:101A10005E0588E48093800510925F051092810531
:101A20008AEA90E00E94D30980E00E94430781E0A7
:101A300090E00E94030A909110058091110598177B
:101A400041F088E296E00E945D0921E0863691052A
:101A500009F020E0822F089583E290E0909317012F
:101A60008093160163E270E08FE196E00E94030527
:101A70008DEC91E00C94DA0B85EA90E090931501DF
:101A80008093140165EA70E082E296E00E9403050B
:101A900089EE91E00C94DA0B8AE590E090931901BD
:101AA000809318016AE570E085E296E00E940305E4
:101AB00082EF91E00C94DA0BCF93DF93FC01448129
:101AC00055816081718182E895E00E94DB03EC0121
:101AD00083E891E00E94040B8C0F9D1FDF91CF9152
:101AE0000895CF93DF930E94630BEC0183E891E0AC
:101AF0000E94040B8C0F9D1FDF91CF910895FC0174
:101B000080819181009711F00C94ED2008950F933E
:101B10001F93CF93DF93EC0188819981009759F04F
:101B20002A813B812617370730F081E0DF91CF9182
:101B30001F910F9108958B016F5F7F4F0E94762157
:101B4000009759F0998388831B830A832C813D81F8
:101B5000232B59F7FC011082E8CF80E0E7CFEF920A
:101B6000FF920F931F93CF93DF93EC017B018A01C8
:101B7000BA010E94870D28813981811114C0211575
:101B8000310519F0C9010E94ED20198218821D82C9
:101B90001C821B821A82CE01DF91CF911F910F917F
:101BA000FF90EF9008951D830C83B701C9010E9437
:101BB0004D22F1CF8F929F92AF92BF92CF92DF9240
:101BC000EF92FF920F931F93CF93DF9300D0CDB787
:101BD000DEB78C016B01FC0111821082138212822C
:101BE0001582148250E040E065E871E00E94AF0D7C
:101BF0000E94CF034B015C01C6010E945006892B55
:101C000091F40E94CF03681979098A099B09643607
:101C100071058105910538F461E070E080E090E0A5
:101C20000E949D03E9CFC6010E945006892B39F11D
:101C3000C6010E94660689831A82F801E480F58055
:101C4000FFEFEF1AFF0AB701C8010E94870D882332
:101C500079F0F8012081318184819581BE016F5F27
:101C60007F4F820F931F0E944D22F801F582E4827C
:101C700062E070E080E090E00E949D03D4CFC80154
:101C80000F900F90DF91CF911F910F91FF90EF90E8
:101C9000DF90CF90BF90AF909F908F90089585ED8B
:101CA0008093BC0080915A0590915B05A0915C05E2
:101CB000B0915D050796A11DB11D23E0B695A795CE
:101CC000979587952A95D1F72091BC0024FD03C0F4
:101CD00010925805089540915A0550915B05609106
:101CE0005C0570915D05452B462B472B69F30097EA
:101CF000A105B10541F02AE22A95F1F700C001974C
:101D0000A109B109E1CF809159050C9422078F9266
:101D10009F92AF92BF92CF92DF92EF92FF920F937A
:101D20001F93CF93DF9300D000D0CDB7DEB72091C3
:101D3000F504211114C08DE092E00F900F900F90E8
:101D40000F90DF91CF911F910F91FF90EF90DF9057
:101D5000CF90BF90AF909F908F900C94DA0BDC01E6
:101D600014962D913C91232B09F4DDC07B018C014D
:101D70008BE292E00E94930BC7010E94630B81E308
:101D800092E00E94930BC8010E945C0DF801C48090
:101D9000D580F12CE12CFDE4AF2EF1E0BF2EEC1448
:101DA000FD0409F4A2C0D801ED91FC913097B9F47B
:101DB00010922004E0E2F4E08081082E000C990BE0
:101DC0000E943322EEE3F1E02281281759F0339686
:101DD000AE16BF06C9F7BFEFEB1AFB0AE0CFEE0D58
:101DE000FF1DEACF8032B9F3EEE3AE2EE1E0BE2E66
:101DF000F50190E080E03281321379C0FC01EE0FF2
:101E0000FF1FE80FF91FE25CFE4FC080D18010E099
:101E100000E0B601F501808191810E9444227C019D
:101E2000892B09F06FC0000F111F000F111FF8015F
:101E3000E752FB4F80819181B12CA12C8F3F9807F5
:101E400029F09A838983AA24A394B12C07521B4FAB
:101E5000D80112968D919C918F3F980709F45EC02E
:101E6000F501EE0FFF1FEC0FFD1F92838183F5013B
:101E700031965F0183E592E00E94930BC6010E94B8
:101E8000930B80E692E00E94930BCE0101966C01C9
:101E9000450191E0891A9108D6010D911D916D01BE
:101EA000C8010E94630BE814F90424F483E792E06C
:101EB0000E94930B6CE97FEFC8010E94280C64EF2D
:101EC00071E080E090E00E949D0370E060E0C80156
:101ED0000E94280CC7010196EE24E394F12C8A1588
:101EE0009B05D4F286E792E028CF20E27DCF0196D1
:101EF00033968530910509F07ECF65E0C62E62E00D
:101F0000D62E85CF0F5F1F4FF3E0AF0EB11C05300B
:101F1000110509F07ECF89E392E00FCFA114B1043F
:101F200009F0A8CFF8CF0F900F900F900F90DF918E
:101F3000CF911F910F91FF90EF90DF90CF90BF90C6
:101F4000AF909F908F900895CF92DF92EF92FF9283
:101F50000F931F93CF93DF936C018B01FB01EE0F67
:101F6000FF1FE050FF4F918380835EE3E52E51E039
:101F7000F52ED0E0C0E0B601F701808191810E948A
:101F80004422892BF1F4CC0FDD1FFE01E153FB4FFE
:101F900080819181823091055CF4C80FD91FCC0FEC
:101FA000DD1FC752DB4F198308830196918380831D
:101FB000DF91CF911F910F91FF90EF90DF90CF9025
:101FC00008952196F3E0EF0EF11CC530D10599F686
:101FD000EFCF1F920F920FB60F9211242F933F93C2
:101FE0008F939F93AF93BF938091040590910505C4
:101FF000A0910605B09107053091030523E0230F5A
:102000002D3758F50196A11DB11D2093030580932E
:10201000040590930505A0930605B09307058091EC
:10202000080590910905A0910A05B0910B0501964C
:10203000A11DB11D8093080590930905A0930A0581
:10204000B0930B05BF91AF919F918F913F912F91CD
:102050000F900FBE0F901F90189526E8230F029641
:10206000A11DB11DD2CF1F920F920FB60F92112456
:102070002F933F934F935F936F937F938F939F9390
:10208000AF93BF93EF93FF9382E895E00E945904CA
:10209000FF91EF91BF91AF919F918F917F916F9140
:1020A0005F914F913F912F910F900FBE0F901F9016
:1020B00018951F920F920FB60F9211242F938F93A2
:1020C0009F93EF93FF93E0919205F09193058081A8
:1020D000E0919805F091990582FD1BC09081809157
:1020E0009B058F5F8F7320919C05821741F0E091D3
:1020F0009B05F0E0EE57FA4F958F80939B05FF917B
:10210000EF919F918F912F910F900FBE0F901F9085
:1021100018958081F4CF1F920F920FB60F92112461
:102120002F933F934F935F936F937F938F939F93DF
:10213000AF93BF93CF93DF93EF93FF938091A90465
:10214000C091AA04D0E087FF24C0109285001092AD
:1021500084008091A9048F5F8093A9048091A904D1
:10216000082E000C990B8C179D0724F48091A9046C
:102170008C30C4F180918400909185000496803465
:102180009C4908F47AC0809184009091850004965F
:1021900076C08091A904082E000C990B8C179D071E
:1021A000C4F6E091A9048E2FEE0F990BFC01EE0FFF
:1021B000FF1FE80FF91FE555FB4F808186FFC9CF50
:1021C000E091A9048E2FEE0F990BFC01EE0FFF1F7B
:1021D000E80FF91FE555FB4F808160E08F730E9487
:1021E0009602B7CF2091840030918500E091A90438
:1021F0008E2FEE0F990BFC01EE0FFF1FE80FF91F5A
:10220000E555FB4F81819281820F931F9093890046
:1022100080938800E091A9048E2FEE0F990BFC01AA
:10222000EE0FFF1FE80FF91FE555FB4F808186FF7A
:1022300011C0E091A9048E2FEE0F990BFC01EE0F57
:10224000FF1FE80FF91FE555FB4F808161E08F7399
:102250000E949602FF91EF91DF91CF91BF91AF91D4
:102260009F918F917F916F915F914F913F912F91AE
:102270000F900FBE0F901F90189580E49CE99093EB
:102280008900809388008FEF8093A904E3CF1F9289
:102290000F920FB60F9211242F933F934F935F939A
:1022A0006F937F938F939F93AF93BF93EF93FF931E
:1022B000E091A704F091A804309749F0A685B7856E
:1022C0008585968D91FF14C09C918923A1F4FF917F
:1022D000EF91BF91AF919F918F917F916F915F919E
:1022E0004F913F912F910F900FBE0F901F90189517
:1022F0009C91892361F7A389B4899C9185898095F4
:1023000089238C93868997890197F1F7608D718D68
:10231000A685B785558538E020E0CB010197F1F718
:10232000822F90E095958795282F4C91452309F0B1
:102330002068315091F7868D81FD20958091A5040C
:1023400090E001968F7399273091A604381799F081
:10235000A091A504B0E0AB59BB4F2C938093A5048A
:10236000828D938D0197F1F7A389B4898C9195891A
:10237000892B8C93ACCF868D8160868FF1CF1F9295
:102380000F920FB60F9211242F933F934F935F93A9
:102390006F937F938F939F93AF93BF93EF93FF932D
:1023A0008091B900887F803609F44AC0F0F5883200
:1023B00009F4A7C018F5803109F49BC0B8F488234C
:1023C00009F4F9C0883009F494C0FF91EF91BF91EE
:1023D000AF919F918F917F916F915F914F913F91BD
:1023E0002F910F900FBE0F901F901895883109F410
:1023F00088C0803251F78093560514C0803409F4A8
:102400009DC040F48033B9F38833F9F680935605C4
:1024100085ECB0C0803509F485C0883509F496C0D4
:10242000883499F60E944F0ED0CF883909F48CC0B9
:1024300038F5883729F050F4883611F0803729F6BE
:1024400083E0809358051092640457C0883809F4DB
:102450007BC0803919F0803809F0B7CF80916404CF
:10246000803208F071C0E091640481E08E0F8093A7
:1024700064048091BB00F0E0EC5BFB4F80833DC0C7
:10248000803B39F0E0F4803A09F479C0883A09F0E9
:102490009CCF84E08093580510924304109242042C
:1024A000E0910E05F0910F0509958091420481118C
:1024B0000FC081E0809342041092220409C0803C46
:1024C00009F4A6CF883C09F4A3CF883B09F07DCF5F
:1024D000E091430481E08E0F80934304F0E0EE5DD1
:1024E000FB4F80818093BB00909143048091420414
:1024F00029C0809133058093BB0085EC8093BC009C
:1025000064CF9091550580915405981758F5E09146
:10251000550581E08E0F80935505F0E0EC5CFA4F95
:102520008081E9CFE091550581E08E0F80935505BC
:102530008091BB00F0E0EC5CFA4F808390915505F0
:10254000809154059817C8F285E8D8CFE0915505D9
:1025500081E08E0F809355058091BB00F0E0EC5C2C
:10256000FA4F80838091570581115CCF81E0809381
:10257000320584EA8093BC001092580526CF85EC82
:102580008093BC001092580580916404803230F42E
:10259000E0916404F0E0EC5BFB4F10826091640416
:1025A00070E0E0910C05F0910D0584E494E009954C
:1025B000109264040ACF1092560534CFFC0190911A
:1025C000AA049C3098F481E0890F8093AA04908338
:1025D000892F90E0FC01EE0FFF1FE80FF91FE55572
:1025E000FB4F88EB9BE09283818308958FEF80837C
:1025F0000895CF93DF93E2E8F5E01382128288EE2C
:1026000093E0A0E0B0E084839583A683B78323E6BC
:1026100031E03183208325EC30E03587248724ECBA
:1026200030E03787268720EC30E0318B208B21EC9F
:1026300030E0338B228B22EC30E0358B248B26EC80
:1026400030E0378B268B118E128E138E148EC8E2DB
:10265000D6E01B821A828C839D83AE83BF8385E77D
:1026600091E09983888385E296E00E94DE1282E2FF
:1026700096E00E94DE128FE196E00E94DE12E4E313
:10268000F6E080E48083D283C183148213824BE01E
:102690006AE08CE596E00E9413034DE06CE08DE368
:1026A00096E00E9413038BE796E0DF91CF910C94A4
:1026B000DE12CF93DF93CDB7DEB76C970FB6F894E9
:1026C000DEBF0FBECDBF789484B5826084BD84B573
:1026D000816084BD85B5826085BD85B5816085BD1D
:1026E00080916E00816080936E00109281008091D5
:1026F000810082608093810080918100816080935D
:102700008100809180008160809380008091B10081
:1027100084608093B1008091B00081608093B000AC
:1027200080917A00846080937A0080917A00826040
:1027300080937A0080917A00816080937A00809102
:102740007A00806880937A001092C100E09192052F
:10275000F091930582E08083E0918E05F0918F05E2
:102760001082E0919005F091910580E180831092B4
:102770009A05E0919605F091970586E08083E091B7
:102780009405F0919505808180618083E0919405A6
:10279000F0919505808188608083E0919405F091A7
:1027A0009505808180688083E0919405F09195057E
:1027B00080818F7D808360ED77E080E090E00E94F3
:1027C0009D030E940B0786E591E00E94110B66E0D5
:1027D00070E08BE796E00E947F0570E060E08BE799
:1027E00096E00E94030564EF71E080E090E00E94B3
:1027F0009D0364EB70E08BE796E00E94030564EFB5
:1028000071E080E090E00E949D0370E060E08BE763
:1028100096E00E94030564E670E080E090E00E948C
:102820009D0310E000E0B8018BE796E00E940305ED
:1028300068E070E080E090E00E949D030F5F1F4F12
:10284000053B110581F764E670E080E090E00E94AE
:102850009D0304EB10E0B8018BE796E00E940305AE
:1028600068E070E080E090E00E949D030150110953
:1028700090F764E670E080E090E00E949D0387E3BB
:1028800091E00E94110B67E070E085E296E00E9403
:102890007F056AE570E085E296E00E9403058AE51F
:1028A00090E0909319018093180168EE73E080E046
:1028B00090E00E949D038BE992E00E94DA0B68E0B1
:1028C00070E082E296E00E947F0565EA70E082E2B5
:1028D00096E00E94030585EA90E0909315018093AD
:1028E000140168EE73E080E090E00E949D0387EBA6
:1028F00092E00E94DA0B69E070E08FE196E00E94BE
:102900007F0563E270E08FE196E00E94030583E2B9
:1029100090E0909317018093160168EE73E080E0D9
:1029200090E00E949D0380ED92E00E94DA0B85E129
:1029300091E00E94110B8AEF90E00E94110B45E09C
:10294000E42EF12C10E000E001110C94BF1C81E09A
:1029500090E00E94FF0C082F62E370E080E090E0BE
:102960000E949D0311110C94B21C82E090E00E9421
:10297000FF0C182F62E370E080E090E00E949D035E
:10298000002319F01111F1C701E064E670E080E066
:1029900090E00E949D0331E0E31AF108A9F689EE68
:1029A00092E00E94930B8CE792E0002311F088E7FD
:1029B00092E00E94DA0B8AEF92E00E94930B8CE780
:1029C00092E0112311F088E792E00E94DA0B0023D5
:1029D00009F4B2C0112309F4AFC084EC90E00E9466
:1029E000110B82E00E94EC0B62E370E080E090E06B
:1029F0000E949D038091370690913806009709F058
:102A0000A0C086E090E00E9451208C0180913506A4
:102A10009091360620913406F801208392838183B9
:102A2000138280E290E095838483109338060093AC
:102A300037060E940B0781E0F8018383C8010E94DA
:102A40005108882309F480C060E880E00E94DB0917
:102A50006AE070E080E090E00E949D0380E498E7E7
:102A6000ADE7B1E08093390690933A06A0933B0618
:102A7000B0933C0660E070E08AE794E40E940D0A9F
:102A800060E070E088E492E40E940D0A8EE990E034
:102A90000E94110B8CE596E00E94CE1C8DE396E01F
:102AA0000E94CE1C87E890E00E94110BAFECB4E0CE
:102AB00029ED34E0E9EDF4E08FEF9FEF1D921D92D8
:102AC000918380839383828334962A173B07B1F7DF
:102AD0001092FE041092F604109202051092010565
:102AE00088E690E00E94110B4E01F7E08F0E911CDA
:102AF0009E012F5F3F4F19018091010590910205C2
:102B00008230910509F4BAC520F5009709F471C027
:102B1000019709F435C16AE070E080E090E00E941E
:102B20009D0380E090E0892B39F30E9445048823BF
:102B3000D9F20E940000D8CF8AED90E00E94110BDC
:102B4000FFCF0E94ED205DCF8CEA90E00E94110B38
:102B5000FFCF8330910509F450C60497E1F60E9437
:102B6000CF030091F0041091F1042091F204309110
:102B7000F304601B710B820B930B68357B4181055D
:102B8000910548F28FE891E00E94110B0E944C0DD4
:102B90000E943C0D0E942C0D0E949A0B64E170E093
:102BA00080E090E00E949D030E949A0B64E170E037
:102BB00080E090E00E949D030E949A0B64E170E027
:102BC00080E090E00E949D038FE691E00E94110B4F
:102BD00010920205109201051092F4041092EF0475
:102BE0001092F0041092F1041092F2041092F30487
:102BF00092CF80910005811113C082E895E00E9478
:102C00003904181619062CF482E895E00E9417047E
:102C1000F4CF81E0809300058DE594E00E94110BD4
:102C20008091FF0481110DC00E944C0D0E943C0D4B
:102C30000E942C0D81E08093FF048CE294E00E94BE
:102C4000110B11E082E895E00E943904181619066C
:102C500034F582E895E00E941704E091FE04E1114A
:102C600007C08A3A29F41093FE048093F704EACF50
:102C70009FEF9E0F963080F491E09E0F9093FE049C
:102C8000F0E0E950FB4F80839730E1F6853509F09D
:102C90006FC61093F604D6CF1092FE04D3CF809166
:102CA000F604882309F437CF8091F7048A3A09F0B3
:102CB0004BC08091FD04853509F046C09091F80421
:102CC0000091F9041091FA04F090FB04892F800F11
:102CD0008655810F8F0D2091FC0428134CC0933032
:102CE00009F049C08AEF93E00E94C804602F70E0A9
:102CF00090E080E04AE00E941F0B8FEE93E00E947C
:102D0000C804612F70E090E080E04AE00E941F0B51
:102D100082EE93E00E94C8048F2D0E94C70B31E021
:102D2000F31212C0011115C011111CC086EC93E002
:102D30000E94110B81E090E09093020580930105C1
:102D40001092FF04109200051092FE041092F604F7
:102D5000E2CE013039F481EA93E00E94110B82E067
:102D600090E0EACF113081F78CE793E00E94110BDD
:102D700083E090E0E1CF89E593E00E94110BE4CF7E
:102D80008DE393E00E94110B70E060E08BE796E02A
:102D90000E9403056CED75E080E090E00E949D03C9
:102DA00080E291E09A8B898B33E0632E712CE98964
:102DB000FA8900811181228133813C8B2B8B8481A4
:102DC00095819A8F898F8BE093E00E94930BC801C5
:102DD0000E94710DB8018BE796E00E9403056CED2F
:102DE00075E080E090E00E949D03F40126E01192DE
:102DF0002A95E9F7F10126E011922A95E9F723E0F7
:102E0000E22EF12C188A1F86512C412C1E861D861D
:102E100010E000E0B12CA12CD12CC12C61E070E0BD
:102E2000C4010E94C10C61E070E0C1010E94830CEA
:102E30008F8198859E8B8D8BE985FA85F88FEF8B36
:102E40002B853C853C8F2B8F8EE193E00E94930B6A
:102E50008D899E890E94630B8FE293E00E94930B01
:102E60008F89988D0E94630B8FE293E00E94930BF1
:102E70008B8D9C8D0E94630B81E393E00E94930BEA
:102E800089819A810E94630B8FE293E00E94930BE9
:102E90008B819C810E94630B8FE293E00E94930BD5
:102EA0008D819E810E94710D8F8198858F3F910544
:102EB00019F014F08FEF90E097FF02C090E080E0EF
:102EC000C80ED91E89859A858F3F910519F014F097
:102ED0008FEF90E097FF02C090E080E0A80EB91E4F
:102EE0008B859C858F3F910519F014F08FEF90E052
:102EF00097FF02C090E080E0080F191F89819A8136
:102F0000ED85FE85E80FF91FFE87ED878B819C819B
:102F1000480E591E8D819E812F853889280F391FB3
:102F2000388B2F876AE070E080E090E00E949D037C
:102F300031E0E31AF10809F071CFC601B3010E9434
:102F40001C206B01C501B3010E941C207B01C8013C
:102F5000B3010E941C208B018D859E85B3010E94C8
:102F60001C207A836983C201B3010E941C207C83E8
:102F70006B838F859889B3010E941C207E836D83AB
:102F80008EE193E00E94930BC6010E94630B8FE2D7
:102F900093E00E94930BC7010E94630B8FE293E0C2
:102FA0000E94930BC8010E94630B81E393E00E948F
:102FB000930B89819A810E94630B8FE293E00E94B8
:102FC000930B8B819C810E94630B8FE293E00E94A4
:102FD000930B8D819E810E94710DC601885C9109C1
:102FE000C89708F5C7018A5A910986359105D8F422
:102FF0000F3F110509F0B8F449815A81CA018A5A74
:103000009109C89780F42B813C81273E310558F403
:103010008D819E81825891098437910520F4421751
:1030200053070CF41FC3C6018E5B910982349105CE
:10303000E8F4C7018E5B910982349105B8F4C801A8
:103040008E5B91098234910588F489819A81823E50
:10305000910560F48B819C818D3D910538F48D81C3
:103060009E81845B9109CD9708F4FFC2C6018D97BC
:10307000833D910508F5C701865991098A36910566
:10308000D8F4C8018857910988389105A8F4898136
:103090009A818E569109459778F48B819C818B5447
:1030A00091098734910540F48D819E818456910960
:1030B0008234910508F4DCC2C601865991098A362A
:1030C0009105E8F48BE5E816F104B0F40937110531
:1030D00098F489819A81C39778F48B819C8180557B
:1030E00091098739910540F48D819E81865491091B
:1030F00002E912E0C39730F105E012E023C09DE33E
:10310000C916D104C8F7E4E1EE1AF108F1E5EF16AB
:10311000F10490F7085211090F36110568F78981FB
:103120009A8182589109C39738F78B819C81449783
:10313000823E910508F78D819E814E9706E912E047
:10314000C397D0F66B897C89C8010E94A40F8AE3DB
:1031500093E00E94930BC8010E94930B8DE493E0CF
:103160000E94930B8B899C890E94710D62E370E031
:1031700080E090E00E949D03F40126E011922A95E0
:10318000E9F7F10126E011922A95E9F783E090E052
:10319000988B8F87512C412C1E861D8610E000E0F5
:1031A000F12CE12CD12CC12CB12CA12C62E070E0CF
:1031B000C4010E94C10C62E070E0C1010E94830C56
:1031C000EF81F885FC8BEB8B29853A853E8B2D8B27
:1031D0008B859C85988F8F8B8BE593E00E94930B5A
:1031E0008B899C890E94630B8FE293E00E94930B72
:1031F0008D899E890E94630B8FE293E00E94930B5E
:103200008F89988D0E94630B81E393E00E94930B5A
:1032100089819A810E94630B8FE293E00E94930B55
:103220008B819C810E94630B8FE293E00E94930B41
:103230008D819E810E94710D8F8198858F3F9105B0
:1032400019F014F08FEF90E097FF02C090E080E05B
:10325000A80EB91E89859A858F3F910519F014F043
:103260008FEF90E097FF02C090E080E0C80ED91E7B
:103270008B859C858F3F910519F014F08FEF90E0BE
:1032800097FF02C090E080E0E80EF91E89819A81E4
:10329000080F191F8B819C81ED85FE85E80FF91FB2
:1032A000FE87ED878D819E81480E591E6AE070E091
:1032B00080E090E00E949D032F85388921503109DC
:1032C000388B2F87232B09F071CFC501B3010E94E2
:1032D0001C205B01C601B3010E941C206B01C701C9
:1032E000B3010E941C207B01C801B3010E941C2075
:1032F0007A8369838D859E85B3010E941C207C831F
:103300006B83C201B3010E941C207E836D838BE519
:1033100093E00E94930BC5010E94630B8FE293E040
:103320000E94930BC6010E94630B8FE293E00E9400
:10333000930BC7010E94630B81E393E00E94930B00
:1033400089819A810E94630B8FE293E00E94930B24
:103350008B819C810E94630B8FE293E00E94930B10
:103360008D819E810E94710DC501885C9109C8976D
:1033700010F5C601885C9109C897E8F43FEFE316A1
:10338000F10409F0C0F489819A8186599109823447
:10339000910588F48B819C818C5891098B3591051E
:1033A00050F48D819E81885791090FE712E08E3786
:1033B000910508F49CC0C5018E5B9109823491058A
:1033C000F8F4C6018E5B910982349105C8F4C701F7
:1033D0008E5B91098234910598F489819A81873EA8
:1033E000910570F48B819C81893C910548F48D8115
:1033F0009E81885C910906E812E0899708F477C0FD
:10340000C501CC978B35910510F5C601805A9109FD
:1034100080369105E0F4C70180559109803B910504
:10342000B0F489819A818E569109459780F48B81F9
:103430009C81C7978B3A910550F48D819E8184566B
:1034400091090CE812E08735910508F450C0C501D8
:1034500044978C3E9105F0F487EEC816D104D0F461
:103460009FEFE916F10409F0A8F489819A81813F60
:10347000910580F48B819C81865491098B3A91054A
:1034800048F48D819E818555910902E912E08A36C2
:10349000910568F1E2E3AE1AB108F0E6AF16B104A7
:1034A00070F42EE6C21AD1083DE3C316D10438F4F5
:1034B00086E9E81AF10897E4E916F104B0F0898189
:1034C0009A8182589109C39708F0D5C08B819C815D
:1034D00080559109863A910508F0CDC08D819E8175
:1034E0004E978135910508F0C6C006E912E0698D56
:1034F0007A8DC8010E94A40F8CE693E00E94930B82
:10350000C8010E94930B8DE493E00E94930B898D78
:103510009A8D0E94710DE989FA893696FA8BE98BAA
:10352000EE53F14009F043CC70E060E08BE796E0A9
:103530000E94030568EE73E080E090E00E949D0326
:1035400081E08093F5048FE793E00E94DA0B8EE927
:1035500093E00E94DA0B90E0E92E91E0F92E10E062
:1035600000E081EB93E00E94930BC8010E94630B83
:103570008CE293E00E94930BF701819191917F017E
:103580000E94DA0B0F5F1F4F0A30110551F78CEBC9
:1035900093E00E94DA0B8EE3E82E81E0F82E09ED2D
:1035A00014E081ED93E00E94930BF70180819181FB
:1035B0000E94930B8CE293E00E94930BF8018081B0
:1035C00091818F3F980731F00E94630B82ED93E069
:1035D0000E94930BF801828193818F3F980731F00D
:1035E0000E94630B82ED93E00E94930B83E891E0CD
:1035F0000E94040B23E0E20EF11C0C5F1F4F34E02D
:103600000D3E130771F684ED93E00E94DA0B89E218
:1036100093E00E94110B0E949A0B64E170E080E03D
:1036200090E00E949D030E949A0B64E170E080E0AC
:1036300090E00E949D030E949A0B64E170E080E09C
:1036400090E00E949D038BE093E00E94110B10928A
:1036500002051092010564EF71E080E090E00E94A5
:103660009D0359CA0FE712E06DCD06E812E06ACD5E
:103670000CE812E067CD05E012E039CF8091F40448
:1036800081115FC08FEE92E00E94110B80911401B6
:103690009091150197FF04C010921501109214012A
:1036A000E0901401F09015018FE5E81AF108F0920E
:1036B0001501E0921401B70182E296E00E94030531
:1036C00084EB90E09093EE048093ED040091ED0480
:1036D0001091EE040E151F0594F0B80182E296E0F9
:1036E0000E9403056AE070E080E090E00E949D0384
:1036F000015011091093EE040093ED04E7CF81EF20
:1037000093E00E94DA0B8091180190911901449680
:10371000853B91050CF062C09093190180931801CC
:10372000609118017091190185E296E00E940305ED
:1037300081E08093F40468EE73E080E090E00E9402
:103740009D038091F504882309F44EC080ED92E03A
:103750000E94110B8CE596E00E949D066CE576E0D8
:10376000C4010E94DA0D8B859C85892BD1F188EBF1
:1037700092E00E94C804C4010E945C0D1A82198262
:103780001C821B821E821D826F81788561157105E6
:1037900029F04B855C85C1010E94AF0D61E070E0AE
:1037A000C1010E94870EC1010E947F0D0E94CF03BC
:1037B0006093F0047093F1048093F2049093F30407
:1037C00084E090E090930205809301058AE992E0FD
:1037D0000E94110BC4010E947F0D0AC084EB90E08F
:1037E0009BCF8BE792E0F4CF8CE592E00E94110B27
:1037F00062E370E080E090E032CF8091EF048111CD
:103800005EC080E492E00E94110B809116019091BD
:1038100017018D589F4F853B910554F590931701E3
:1038200080931601E0901601F0901701B7018FE127
:1038300096E00E9403051092EE041092ED040091B0
:10384000ED041091EE04E016F106ACF0B8018FE142
:1038500096E00E9403056FE070E080E090E00E9437
:103860009D030F5F1F4F1093EE040093ED04E7CF0D
:1038700084EB90E0D3CF84E094E00E94DA0B809157
:10388000180190911901449797FD61C09093190117
:1038900080931801609118017091190185E296E0FA
:1038A0000E94030587E194E00E94DA0B81E0809397
:1038B000EF0468EE73E080E090E00E949D03809149
:1038C000F504882309F44BC081E292E00E94110BB9
:1038D0008DE396E00E949D066DE376E0C4010E94B0
:1038E000DA0D8B859C85892BB9F189E092E00E94E5
:1038F000C804C4010E945C0D1A8219821C821B82BA
:103900001E821D826F8178856115710529F04B85B6
:103910005C85C1010E94AF0D62E070E0C1010E94B0
:10392000870EC1010E947F0D0E94CF036093F004B7
:103930007093F1048093F2049093F30484E090E098
:1039400090930205809301058BEE91E041CF109298
:103950001901109218019ECF8FEC91E039CF80EBC6
:1039600091E044CF002309F410C811E001E017C82A
:103970001092FE0481E194E00E94110B63C91111C1
:10398000F4CF82E090E00E94FF0C182F62E370E019
:1039900080E090E00E949D030C94C214FC01138E01
:1039A000128E118E108E178A168A8DE991E0958FEE
:1039B000848F84858631D8F52DEB30E0378B268BCC
:1039C0002BE931E0318F208F2CE231E0338F228FD1
:1039D00090916800883070F121E08E3008F420E08A
:1039E00081E001C0880F2A95EAF7892B809368004F
:1039F00084852DE630E0883050F02BE630E08E30C4
:103A000030F02CE630E0863110F030E020E0348BEE
:103A1000238B282F30E0883078F491E001C0990F93
:103A20008A95EAF7958B848D958D0197F1F7CF01F3
:103A30000C949D0684E0D9CF8E3040F42850310993
:103A400091E001C0990F2A95EAF7ECCF2E50310989
:103A5000F7CFCF93DF93C1E5D1E0D0933E06C0937B
:103A60003D068DE396E00E948706D0935D06C093E5
:103A70005C068CE596E0DF91CF910C9487060E945E
:103A8000811D08F481E00895E89409C097FB3EF495
:103A900090958095709561957F4F8F4F9F4F99239B
:103AA000A9F0F92F96E9BB279395F6958795779519
:103AB0006795B795F111F8CFFAF4BB0F11F460FFD9
:103AC0001BC06F5F7F4F8F4F9F4F16C0882311F031
:103AD00096E911C0772321F09EE8872F762F05C045
:103AE000662371F096E8862F70E060E02AF09A95E0
:103AF000660F771F881FDAF7880F9695879597F9D5
:103B00000895990F0008550FAA0BE0E8FEEF16166E
:103B10001706E807F907C0F012161306E407F507C1
:103B200098F0621B730B840B950B39F40A2661F035
:103B3000232B242B252B21F408950A2609F4A140D8
:103B4000A6958FEF811D811D08950E94B81D0C94CC
:103B5000291E0E941B1E38F00E94221E20F0952371
:103B600011F00C94121E0C94181E11240C945D1E5E
:103B70000E943A1E70F3959FC1F3950F50E0551FB8
:103B8000629FF001729FBB27F00DB11D639FAA27B2
:103B9000F00DB11DAA1F649F6627B00DA11D661F01
:103BA000829F2227B00DA11D621F739FB00DA11D22
:103BB000621F839FA00D611D221F749F3327A00DDC
:103BC000611D231F849F600D211D822F762F6A2F78
:103BD00011249F5750409AF0F1F088234AF0EE0FDD
:103BE000FF1FBB1F661F771F881F91505040A9F70A
:103BF0009E3F510580F00C94121E0C945D1E5F3F99
:103C0000E4F3983ED4F3869577956795B795F79545
:103C1000E7959F5FC1F7FE2B880F911D96958795BD
:103C200097F9089597F99F6780E870E060E008953C
:103C30009FEF80EC089500240A94161617061806C4
:103C40000906089500240A941216130614060506A0
:103C50000895092E0394000C11F4882352F0BB0F31
:103C600040F4BF2B11F460FF04C06F5F7F4F8F4F94
:103C70009F4F089557FD9058440F551F59F05F3FCF
:103C800071F04795880F97FB991F61F09F3F79F07E
:103C900087950895121613061406551FF2CF469500
:103CA000F1DF08C0161617061806991FF1CF869582
:103CB0007105610508940895E894BB276627772766
:103CC000CB0197F90895052E97FB1EF400940E94EE
:103CD0007A1E57FD07D00E94CC1E07FC03D04EF47D
:103CE0000C947A1E50954095309521953F4F4F4F3B
:103CF0005F4F089590958095709561957F4F8F4F98
:103D00009F4F08950E94EE1EA59F900DB49F900DA9
:103D1000A49F800D911D11240895B7FF0C94821E5D
:103D20000E94821E821B930B08952F923F924F9206
:103D30005F926F927F928F929F92AF92BF92CF923B
:103D4000DF92EF92FF920F931F93CF93DF93CDB744
:103D5000DEB7CA1BDB0B0FB6F894DEBF0FBECDBFBC
:103D600009942A88398848885F846E847D848C848D
:103D70009B84AA84B984C884DF80EE80FD800C8196
:103D80001B81AA81B981CE0FD11D0FB6F894DEBF79
:103D90000FBECDBFED010895A1E21A2EAA1BBB1BD9
:103DA000FD010DC0AA1FBB1FEE1FFF1FA217B30707
:103DB000E407F50720F0A21BB30BE40BF50B661F1D
:103DC000771F881F991F1A9469F7609570958095E1
:103DD00090959B01AC01BD01CF010895A29FB00158
:103DE000B39FC001A39F700D811D1124911DB29F2F
:103DF000700D811D1124911D08955058BB27AA27CD
:103E00000E94151F0C94291E0E941B1E38F00E9450
:103E1000221E20F039F49F3F19F426F40C94181E4A
:103E20000EF4E095E7FB0C94121EE92F0E943A1E57
:103E300058F3BA17620773078407950720F079F4DF
:103E4000A6F50C945C1E0EF4E0950B2EBA2FA02D57
:103E50000B01B90190010C01CA01A0011124FF2737
:103E6000591B99F0593F50F4503E68F11A16F04032
:103E7000A22F232F342F4427585FF3CF4695379531
:103E80002795A795F0405395C9F77EF41F16BA0BF6
:103E9000620B730B840BBAF09150A1F0FF0FBB1FA4
:103EA000661F771F881FC2F70EC0BA0F621F731FED
:103EB000841F48F4879577956795B795F7959E3F4A
:103EC00008F0B0CF9395880F08F09927EE0F9795DB
:103ED000879508950E947E1F0C94291E0E94221E21
:103EE00058F00E941B1E40F029F45F3F29F00C940B
:103EF000121E51110C945D1E0C94181E0E943A1E45
:103F000068F39923B1F3552391F3951B550BBB2708
:103F1000AA2762177307840738F09F5F5F4F220F4D
:103F2000331F441FAA1FA9F335D00E2E3AF0E0E844
:103F300032D091505040E695001CCAF72BD0FE2F8E
:103F400029D0660F771F881FBB1F26173707480722
:103F5000AB07B0E809F0BB0B802DBF01FF279358DA
:103F60005F4F3AF09E3F510578F00C94121E0C946E
:103F70005D1E5F3FE4F3983ED4F386957795679591
:103F8000B795F7959F5FC9F7880F911D969587950F
:103F900097F90895E1E0660F771F881FBB1F62172E
:103FA00073078407BA0720F0621B730B840BBA0BEC
:103FB000EE1F88F7E09508950E94421E88F09F57F3
:103FC00098F0B92F9927B751B0F0E1F0660F771F3D
:103FD000881F991F1AF0BA95C9F714C0B13091F033
:103FE0000E945C1EB1E008950C945C1E672F782F30
:103FF0008827B85F39F0B93FCCF3869577956795F8
:10400000B395D9F73EF490958095709561957F4F63
:104010008F4F9F4F08950E94811D08F48FEF0895E0
:10402000991B79E004C0991F961708F0961B881F0A
:104030007A95C9F78095089597FB072E16F400949A
:1040400007D077FD09D00E94372007FC05D03EF449
:10405000909581959F4F0895709561957F4F089534
:104060000E94EE1EB7FF0895821B930B0895AA1BB2
:10407000BB1B51E107C0AA1FBB1FA617B70710F053
:10408000A61BB70B881F991F5A95A9F78095909585
:10409000BC01CD010895EE0FFF1F0590F491E02DB6
:1040A00009940F931F93CF93DF938230910510F4FF
:1040B00082E090E0E0918006F091810630E020E01F
:1040C000B0E0A0E0309799F42115310509F44AC019
:1040D000281B390B24303105D8F58A819B81611565
:1040E000710589F1FB0193838283FE0111C0408138
:1040F00051810281138148175907E0F04817590789
:1041000099F4109761F012960C93129713961C93E2
:104110003296CF01DF91CF911F910F9108950093B7
:10412000800610938106F4CF2115310551F0421716
:10413000530738F0A901DB019A01BD01DF01F80145
:10414000C1CFEF01F9CF9093810680938006CDCF48
:10415000FE01E20FF31F81939193225031093983BD
:104160002883D7CF20917E0630917F06232B41F400
:1041700020911C0130911D0130937F0620937E0613
:1041800020911A0130911B012115310541F42DB701
:104190003EB740911E0150911F01241B350BE09149
:1041A0007E06F0917F06E217F307A0F42E1B3F0B6B
:1041B0002817390778F0AC014E5F5F4F2417350799
:1041C00048F04E0F5F1F50937F0640937E06819309
:1041D00091939FCFF0E0E0E09CCFCF93DF930097E7
:1041E000E9F0FC01329713821282A0918006B0910F
:1041F0008106ED0130E020E01097A1F420813181AB
:10420000820F931F20917E0630917F062817390771
:1042100009F061C0F0937F06E0937E06DF91CF91B5
:104220000895EA01CE17DF07E8F54A815B819E0118
:1042300041155105B1F7E901FB83EA834991599191
:10424000C40FD51FEC17FD0761F4808191810296A0
:10425000840F951FE90199838883828193819B83D1
:104260008A83F0E0E0E012968D919C91139700977D
:10427000B9F52D913C911197CD010296820F931FB4
:1042800020917E0630917F062817390739F630973E
:1042900051F51092810610928006B0937F06A0938C
:1042A0007E06BCCFD383C28340815181840F951F8A
:1042B000C817D90761F44E5F5F4F88819981480F15
:1042C000591F518340838A819B8193838283211567
:1042D000310509F0B0CFF0938106E09380069ECFC0
:1042E000FD01DC01C0CF13821282D7CFB0E0A0E085
:1042F000ECE7F1E20C94971E8C01009751F4CB018E
:104300000E9451208C01C801CDB7DEB7E0E10C94CA
:10431000B31EFC01E60FF71F9C0122503109E21782
:10432000F30708F49DC0D901CD91DC911197C61710
:10433000D70798F0C530D10530F3CE010497861722
:10434000970708F3C61BD70B2297C193D1936D93A0
:104350007C93CF010E94ED20D6CF5B01AC1ABD0A41
:104360004C018C0E9D1EA0918006B0918106512CAF
:10437000412CF12CE12C109731F580917E06909123
:104380007F068815990509F05CC04616570608F0A7
:1043900058C080911A0190911B01009741F48DB78C
:1043A0009EB740911E0150911F01841B950BE81789
:1043B000F90708F055C0F0937F06E0937E06F901F7
:1043C00071836083A0CF8D919C91119712966C9010
:1043D000129713967C901397A815B90559F56C019F
:1043E00042E0C40ED11CCA14DB0420F1AC014A190E
:1043F0005B09DA011296159780F06282738251830D
:104400004083D9016D937C93E114F10471F0D701DD
:104410001396FC93EE93129776CF22968C0F9D1FE6
:10442000F90191838083F301EFCFF0938106E0934C
:10443000800669CF4816590608F42C017D01D30186
:104440009ACFCB010E9451207C01009749F0AE0128
:10445000B8010E943B22C8010E94ED20870153CF82
:1044600010E000E050CF9111089581548A5108F472
:10447000805E855A0895FB01DC0102C001900D9217
:1044800041505040D8F70895FB01DC018D91019017
:1044900080190110D9F3990B0895FB01DC010190FB
:1044A0000D920020E1F7089512E0C9E6D2E004C0C1
:1044B000FE010E944B202196CA36D107C9F7F89415
:1044C000FFCF0502050205020502050205020502ED
:1044D000050205020502A50023005A00000082061D
:1044E00080000500000005002F00010006005F00AD
:1044F00002000700870003000800AF000400090065
:104500009202727F02799602628C026786027700BD
:10451000000000F405DB03D809F30550066606DB4E
:1045200005000000007B04DB030804E304390417E2
:10453000042B0400000000A4097709D809F30570D2
:10454000095D094E090D0A0053656E7420746F20D1
:1045500053544D33323A20646174613D00544341F9
:104560003935343841206E6F7420666F756E642162
:10457000004661696C656420746F2073656C6563C7
:104580007420544341206368616E6E656C2000E5C1
:104590008FB3E888B5E69CBAE5A48DE4BD8DE588C7
:1045A0009DE5A78BE8A792E5BAA600E5B7A6E8883F
:1045B000B5E69CBAE5A48DE4BD8DE5889DE5A78BA5
:1045C000E8A792E5BAA600556E6B6E6F776E004550
:1045D00072726F723A204D617070696E67204E6F13
:1045E0007420436F6D706C657465642100474D36AF
:1045F00035200020526561643A20004572726F7266
:104600003A204E6F204368616E6E656C7320466F72
:10461000756E64210052656C6561736520416C6C38
:1046200020002042616C6C7320284368616E6E65C7
:104630006C733A20002C20002900596573004E6FDE
:104640000059656C6C6F7700576869746500477234
:1046500065656E0052656400426C756500E7BFBB1E
:10466000E8BDACE888B5E69CBAE5889DE5A78BE592
:104670008C96E5AE8CE6889000E5B7A6E888B5E6AE
:104680009CBAE5889DE5A78BE58C96E5AE8CE6881F
:104690009000E58FB3E888B5E69CBAE5889DE5A76C
:1046A0008BE58C96E5AE8CE688900053656E736F53
:1046B0007220312072656164793A200053656E730F
:1046C0006F7220322072656164793A20000A4D6F62
:1046D00076696E6720746F20616E676C653A2000A2
:1046E00053656E736F722031207C205247423A200E
:1046F000002C00207C2048534C3A200053656E73F8
:104700006F722031206465746563746564200020D5
:10471000666F72206368616E6E656C200053656E13
:10472000736F722032207C205247423A200053653A
:104730006E736F72203220646574656374656420E3
:10474000000A3D3D3D20436F6C6F722D4368616EE2
:104750006E656C204D617070696E67203D3D3D0057
:104760004368616E6E656C20E2869220436F6C6FC9
:10477000723A0020204368616E6E656C20000A4327
:104780006F6C6F7220E28692204368616E6E656C7A
:10479000733A002020003D3D3D3D3D3D3D3D3D3DCA
:1047A0003D3D3D3D3D3D3D3D3D3D3D3D3D3D3D3D39
:1047B0003D3D00E5B7A6E6BB91E98193E5B7B2E6DA
:1047C00094BEE4B88B00E58FB3E6BB91E98193E535
:1047D000B7B2E694BEE4B88B00E58FB3E7BFBB2069
:0247E0000000D7
:107E0000112484B714BE81FFF0D085E080938100F7
:107E100082E08093C00088E18093C10086E0809377
:107E2000C20080E18093C4008EE0C9D0259A86E02C
:107E300020E33CEF91E0309385002093840096BBD3
:107E4000B09BFECF1D9AA8958150A9F7CC24DD24C4
:107E500088248394B5E0AB2EA1E19A2EF3E0BF2EE7
:107E6000A2D0813461F49FD0082FAFD0023811F036
:107E7000013811F484E001C083E08DD089C08234E0
:107E800011F484E103C0853419F485E0A6D080C0E4
:107E9000853579F488D0E82EFF2485D0082F10E0AE
:107EA000102F00270E291F29000F111F8ED06801E7
:107EB0006FC0863521F484E090D080E0DECF843638
:107EC00009F040C070D06FD0082F6DD080E0C81688
:107ED00080E7D80618F4F601B7BEE895C0E0D1E017
:107EE00062D089930C17E1F7F0E0CF16F0E7DF06D8
:107EF00018F0F601B7BEE89568D007B600FCFDCFD4
:107F0000A601A0E0B1E02C9130E011968C91119780
:107F100090E0982F8827822B932B1296FA010C0160
:107F200087BEE89511244E5F5F4FF1E0A038BF0790
:107F300051F7F601A7BEE89507B600FCFDCF97BE46
:107F4000E89526C08437B1F42ED02DD0F82E2BD052
:107F50003CD0F601EF2C8F010F5F1F4F84911BD097
:107F6000EA94F801C1F70894C11CD11CFA94CF0C13
:107F7000D11C0EC0853739F428D08EE10CD085E9AC
:107F80000AD08FE07ACF813511F488E018D01DD067
:107F900080E101D065CF982F8091C00085FFFCCF94
:107FA0009093C60008958091C00087FFFCCF809118
:107FB000C00084FD01C0A8958091C6000895E0E648
:107FC000F0E098E1908380830895EDDF803219F02E
:107FD00088E0F5DFFFCF84E1DECF1F93182FE3DFCA
:107FE0001150E9F7F2DF1F91089580E0E8DFEE27F6
:047FF000FF270994CA
:027FFE00040479
:00000001FF
